:020000040800F2
:1000000000500020F7010008F1010008F10100088C
:10001000F1010008F1010008F101000800000000F2
:10002000000000000000000000000000F1010008D6
:10003000F101000800000000F101000803030008BE
:10004000F1010008F1010008F1010008F1010008C8
:10005000F1010008F1010008F1010008F1010008B8
:10006000F1010008F1010008F1010008F1010008A8
:10007000F1010008F1010008F1010008F101000898
:10008000F1010008F1010008F1010008F101000888
:10009000F1010008F1010008F1010008BD0E00089F
:1000A000F1010008F1010008F1010008F101000868
:1000B000F1010008F1010008F1010008F101000858
:1000C000F1010008F1010008F1010008F101000848
:1000D000F1010008F1010008F1010008010F00081A
:1000E000F1010008F1010008F1010008F101000828
:1000F000F1010008F1010008F1010008F101000818
:10010000F1010008F1010008F1010008F101000807
:10011000F1010008F1010008F1010008F1010008F7
:10012000F1010008F1010008F1010008F1010008E7
:0401300000000000CB
:1001340010B5054C237833B9044B13B10448AFF31D
:1001440000800123237010BDA404002000000000DF
:100154003001000808B5034B1BB103490348AFF352
:10016400008008BD00000000A80400203001000841
:10017400A3F5803A704700BF174B002B08BF134B01
:100184009D46FFF7F5FF00218B460F461348144A9E
:10019400121A01F0B3FB0E4B002B00D098470D4B05
:1001A400002B00D098470020002104000D000D48CA
:1001B400002802D00C4801F05FFC01F07BFB20001A
:1001C400290000F0B7FE01F065FB00BF0000080045
:1001D400000000000000000000000000A404002053
:1001E400C40500207D1A0008891A000880B400AFF5
:1001F400FEE780B586B000AF1B4A1C4BD31A7B6068
:100204001A4B7B611A4B3B610023FB600AE03A699D
:10021400531C3B617B69591C796112781A70FB6825
:100224000133FB60FA687B689A42F0D3114A124B9F
:10023400D31A7B60104B7B610023BB6007E07B69B2
:100244005A1C7A6100221A70BB680133BB60BA6819
:100254007B689A42F3D301F02DFB00F06BFE00BFE4
:100264001837BD4680BD00BFA40400200000002054
:10027400EC1C0008C4050020A404002080B483B052
:1002840000AF78600A4B1B6800221A60084B1B6899
:100294007A68013A5A60064B1B6800229A60044B44
:1002A4001B6807221A6000BF0C37BD4680BC70472C
:1002B4003400002080B400AF024B1B681846BD46D2
:1002C40080BC7047C004002080B584B000AF786063
:1002D400FFF7F0FFF8607B68BB60FFF7EBFF0246B7
:1002E400FB68D31ABA689A428CBF01230023DBB29D
:1002F400002B00D0F1E700BF1037BD4680BD80B4AD
:1003040000AF044B1B680133024A136000BFBD46B3
:1003140080BC7047C004002080B584B000AF786012
:100324000021786801F0E4F87B681B79DBB2DB0814
:10033400BB737B681B79DBB203F007037B737B68B9
:100344005B79DBB2052B09D07B685B79DBB2042BCC
:1003540004D07B685B79DBB2062B01D1012300E07A
:100364000023002B00F0D3800823FB727B681B68FA
:10037400BA7B53F822107B7B9B000F2202FA03F313
:10038400DB4318467B681B68BA7B014043F82210A4
:100394007B681B68BA7B53F82210FA7A7B7B9B003C
:1003A40002FA03F318467B681B68BA7B014343F8DF
:1003B40022107B685B79DBB2042B0CBF0123002382
:1003C400DBB2002B1DD0804B1B689A687B681B79BD
:1003D400DBB2194601238B4019467B4B1B680A4349
:1003E4009A60794B1B68DA687B681B79DBB2194623
:1003F40001238B40DB431946734B1B680A40DA60C8
:1004040043E07B685B79DBB2052B0CBF012300233F
:10041400DBB2002B1DD06C4B1B68DA687B681B7940
:10042400DBB2194601238B401946674B1B680A430C
:10043400DA60654B1B689A687B681B79DBB21946E6
:1004440001238B40DB4319465F4B1B680A409A60CB
:100454001BE05D4B1B689A687B681B79DBB219460D
:1004640001238B401946584B1B680A439A60564B2C
:100474001B68DA687B681B79DBB2194601238B4061
:100484001946514B1B680A43DA6001F021F87B6876
:100494001B79DBB29B08BB727B681B79DBB203F070
:1004A40003037B72494B1B68BA7A023253F8221059
:1004B4007B7A9B000F2202FA03F3DB431846434B7B
:1004C4001B68BA7A0140023243F822107B681B6829
:1004D400184600F00BFF03463B723A7A7B7A9B0086
:1004E40002FA03F1394B1B68BA7A023243F822103C
:1004F400354B1B681A687B681B79DBB219460123EC
:100504008B401946304B1B680A431A6058E000239D
:10051400FB737B689B79DBB2062B26D801A252F8C9
:1005240023F000BF450500084B05000851050008ED
:10053400570500085D050008630500086905000803
:100544000023FB7311E00123FB730EE00223FB7312
:100554000BE00023FB7308E00123FB7305E0022397
:10056400FB7302E00323FB7300BFFB7B9B00DAB247
:100574007B685B79DBB213443B737B681B68BA7B93
:1005840053F822107B7B9B000F2202FA03F3DB4318
:1005940018467B681B68BA7B014043F822107B68CD
:1005A4001B68BA7B53F822103A7B7B7B9B0002FAD0
:1005B40003F318467B681B68BA7B014343F8221097
:1005C40000BF1037BD4680BD5C00002058000020ED
:1005D40080B582B000AF78607B681A681F4B1B68D7
:1005E4009A4202D100F0CCFE34E07B681A681C4BBE
:1005F4001B689A4202D100F0DBFE2BE07B681A688C
:10060400184B1B689A4202D100F0EAFE22E07B6894
:100614001A68154B1B689A4202D100F0F9FE19E0E2
:100624007B681A68114B1B689A4202D100F008FFDC
:1006340010E07B681A680E4B1B689A4202D100F0E6
:1006440017FF07E07B681A680A4B1B689A4201D1BE
:1006540000F026FF00BF0837BD4680BD3C000020E7
:100664004000002044000020480000204C000020EE
:10067400500000205400002080B483B000AF7860A4
:100684007B681B689B687A681279D2B21146012292
:100694008A4013407A681279D2B2D340DBB218464A
:1006A4000C37BD4680BC704780B483B000AF78601F
:1006B4007B681B689B689BB218460C37BD4680BCA0
:1006C400704780B483B000AF78600B46FB70FB7852
:1006D400002B0FD17B681B681A697B681B79DBB21E
:1006E4001033012101FA03F319467B681B680A439E
:1006F4001A610DE07B681B681A697B681B79DBB2A1
:10070400194601238B4019467B681B680A431A610A
:1007140000BF0C37BD4680BC704780B483B000AFC7
:1007240078600B467B807B681B687A88DA6000BF40
:100734000C37BD4680BC704780B483B000AF78608E
:100744007B681B68DA687B681B79DBB21946012376
:100754008B4019467B681B684A40DA6000BF0C373F
:10076400BD4680BC704700BF80B483B000AF034671
:10077400FB71FB79002B07D1064B1B685A68054BAC
:100784001B6822F003025A6000BF0C37BD4680BCD0
:10079400704700BF3800002080B485B000AF214B03
:1007A4001B685B689B08DBB203F003037B727B7AF4
:1007B400002B01D11C4BFB601A4B1B685B681B09A7
:1007C400DBB203F00F033B723B7A072B02D8012301
:1007D400FB7205E03B7A083B144A32F81330FB7293
:1007E400104B1B685B681B0ADBB203F007033B7208
:1007F4003B7A032B02D80123BB7205E03B7A043B0E
:100804000B4A32F81330BB72FB7AFA68B2FBF3F28C
:10081400BB7AB2FBF3F37B607B6818461437BD46A2
:1008240080BC70473800002000127A0004000020C9
:100834001400002080B485B000AF214B1B685B68B6
:100844009B08DBB203F003037B727B7A002B01D19C
:100854001C4BFB601A4B1B685B681B09DBB203F083
:100864000F033B723B7A072B02D80123FB7205E08E
:100874003B7A083B144A32F81330FB72104B1B6866
:100884005B68DB0ADBB203F007033B723B7A032BA2
:1008940002D80123BB7205E03B7A043B0B4A32F8D1
:1008A4001330BB72FB7AFA68B2FBF3F2BB7AB2FB89
:1008B400F3F37B607B6818461437BD4680BC7047F1
:1008C4003800002000127A000400002014000020E8
:1008D40080B400AF00231846BD4680BC704700BFFB
:1008E40080B582B000AF786039603B68002B03D0DC
:1008F4003B68012B1BD038E07B681A681D4B1B68D2
:100904009A4202D100F08EFE2CE07B681A681A4BE2
:100914001B689A4202D100F095FE23E07B681A68B6
:10092400164B1B689A421DD100F09CFE1AE07B68AE
:100934001A68104B1B689A4202D100F0A3FE13E020
:100944007B681A680C4B1B689A4202D100F0AAFE1D
:100954000AE07B681A68094B1B689A4204D100F0CC
:10096400B1FE01E000BF00E000BF00BF0837BD4694
:1009740080BD00BF600000206400002068000020EB
:1009840080B582B000AF786000217868FFF7A8FFD7
:100994007B681B79DBB2012B0CBF01230023DBB284
:1009A400002B08D07B681B68DA687B681B6842F000
:1009B4000402DA6024E07B681B79DBB2002B0CBFF5
:1009C40001230023DBB2002B08D07B681B68DA68A4
:1009D4007B681B6842F00802DA6011E07B681B79CF
:1009E400DBB2022B0CBF01230023DBB2002B07D0A8
:1009F4007B681B68DA687B681B6842F00C02DA606B
:100A04007B681B68DA687B685B7BDBB21B03194677
:100A14007B681B680A43DA607B689B7BDBB2012B33
:100A24000CBF01230023DBB2002B10D07B681B68B2
:100A3400DA687B681B6842F48062DA607B681B6852
:100A4400DA687B681B6822F40072DA6019E07B685C
:100A54009B7BDBB2022B0CBF01230023DBB2002BF8
:100A64000FD07B681B68DA687B681B6842F480627D
:100A7400DA607B681B68DA687B681B6842F4007282
:100A8400DA607B681B681A697B681B7BDBB21B031B
:100A940019467B681B680A431A617B68DB7BDBB2FF
:100AA400022B0CBF01230023DBB2002B08D07B6890
:100AB4001B685A697B681B6842F400725A612CE017
:100AC4007B68DB7BDBB2012B0CBF01230023DBB291
:100AD400002B08D07B681B685A697B681B6842F44A
:100AE40080725A6119E07B68DB7BDBB2032B0CBF9D
:100AF40001230023DBB2002B0FD07B681B685A69EB
:100B04007B681B6842F400725A617B681B685A69EF
:100B14007B681B6842F480725A61786800F02FF891
:100B24007B68022283F820207B68022283F821203C
:100B34000121786800F004F800BF0837BD4680BD85
:100B440080B483B000AF78600B46FB70FB78002B59
:100B540008D07B681B68DA687B681B6842F4005223
:100B6400DA6007E07B681B68DA687B681B6822F43C
:100B74000052DA6000BF0C37BD4680BC704780B5B8
:100B840088B000AF78600023BB617B681A681F4B94
:100B94001B689A4203D1FFF74DFEF86102E0FFF7AC
:100BA400FBFDF861FA6913469B0013449A001A444A
:100BB4007B689B689B00B2FBF3F37B617B69144AFF
:100BC400A2FB03235B093B613B691B01BA69134325
:100BD400BB613B69642202FB03F37A69D31AFB60AD
:100BE400FB681B0132330A4AA2FB03235B0903F0AF
:100BF4000F03FB60BA69FB681343BB617B681B6826
:100C0400BA699A6000BF2037BD4680BD60000020ED
:100C14001F85EB5180B586B000AFF860B9607A608B
:100C240000237B617A697B689A424DD20721F86878
:100C340000F04EF80346002B0CBF01230023DBB267
:100C4400002B00D0F2E7FB685B7BDBB2012B0CBF0F
:100C540001230023DBB2002B1DD0BB681B887B82E1
:100C64007A8AFB681B68C2F308025A60FB689B7BA4
:100C7400DBB2002B0CBF01230023DBB2002B06D018
:100C8400BB680133BB60BB680133BB600BE0BB686E
:100C94000133BB6007E0BB681A78FB681B685A60C5
:100CA400BB680133BB600621F86800F011F8034605
:100CB400002B0CBF01230023DBB2002B00D0F2E792
:100CC4007B6901337B61ADE700BF1837BD4680BD4A
:100CD40080B483B000AF78600B46FB707B681B6800
:100CE4001B68FA78012101FA02F21340002B14BFA9
:100CF40001230023DBB2002B01D0012300E00023F9
:100D040018460C37BD4680BC704780B483B000AF32
:100D140078600B46FB707B681B681A68FB780121BE
:100D240001FA03F3DB4319467B681B680A401A6027
:100D340000BF0C37BD4680BC704780B485B000AF9F
:100D4400F860B9607A60FB687A68DA61FB68BA684F
:100D54005A61FB68002283F82120FB681B685B68EA
:100D6400FB681B68DA68FB681B6842F02002DA60E3
:100D740000BF1437BD4680BC704780B584B000AF57
:100D840078607B681B681B6803F02003FB607B684A
:100D94001B68DB6803F02003BB60FB68002B00F0DA
:100DA4008680BB68002B00F082807B6893F821303A
:100DB400002B7CD17B68DB69002B65D07B685B7B77
:100DC400DBB2012B0CBF01230023DBB2002B35D097
:100DD4007B689B7BDBB2002B0CBF01230023DBB2BF
:100DE400002B19D07B681B685B689AB27B685B69CF
:100DF400C2F3080292B21A807B685B695A1C7B6852
:100E04005A617B685B695A1C7B685A617B68DB6941
:100E14009A1E7B68DA6137E07B681B685A687B68D6
:100E24005B69D2B21A707B685B695A1C7B685A6131
:100E34007B68DB695A1E7B68DA6125E07B689B7BF3
:100E4400DBB2002B0CBF01230023DBB2002B07D045
:100E54007B681B685A687B685B69D2B21A7009E0C8
:100E64007B681B685B68DAB27B685B6902F07F02AF
:100E7400D2B21A707B685B695A1C7B685A617B68C2
:100E8400DB695A1E7B68DA617B68DB69002B0ED153
:100E94007B681B68DA687B681B6822F02002DA60D2
:100EA4007B68022283F82120032000F031F800BF80
:100EB4001037BD4680BD00BF80B500AF0D4B1B6829
:100EC4005B6903F48073002B14BF01230023DBB29E
:100ED400002B0DD00848FFF72FFCC820FFF7F4F9CA
:100EE400044B1B685A69034B1B6842F480725A61B5
:100EF40000BF80BD5C0000204405002080B500AF29
:100F04000248FFF73AFF00BF80BD00BF7C05002008
:100F140080B582B000AF0346FB71642203490448E4
:100F2400FFF778FE00BF0837BD4680BDC40400202B
:100F34007C05002080B500AF72B60020FFF714FCDA
:100F44004FF4FA50FFF79AF900214FF0FF3000F008
:100F540005FC1E48FFF7E0F91D48FFF7DDF91D48C1
:100F6400FFF7DAF91C48FFF7D7F90F21172000F033
:100F7400F5FB172000F0B6FB1848FFF7CDF9184829
:100F8400FFF7CAF91748FFF7FBFC272000F0AAFB7C
:100F94000E21272000F0E2FB052213491148FFF738
:100FA400CCFE00210948FFF78CFB00210848FFF71D
:100FB40088FB00210748FFF784FB62B64FF47A7080
:100FC400FFF782F90348FFF7B7FBF7E72C0500208A
:100FD4003805002044050020500500205C05002051
:100FE400680500207C050020C404002080B586B07C
:100FF40004AF786039607B68012B66D13B684FF69B
:10100400FF72934261D1032301220021314800F091
:10101400D7FB314B1B682F4A1946304800F0ECFBD4
:101024000323012201212E4800F0CAFB2A4B1B682E
:101034002B4A19462B4800F0DFFB03230122082129
:10104400294800F0BDFB244B1B68274A1946274852
:1010540000F0D2FB022305220821254800F0B0FB52
:10106400244B1B68224A1946234800F0C5FB05237C
:1010740002220A21214800F0A3FB214B1B681F4ACE
:101084001946204800F0B8FB012300220B211E481A
:1010940000F096FB1A4B1B681B4A19461B4800F0CC
:1010A400ABFB00230293002301930023009300234E
:1010B4004FF416520221164800F0B4FB154B1B687E
:1010C400134A1946144800F0D0FB00BF0837BD4648
:1010D40080BD00BF280500204C0000202C05002006
:1010E4003405002038050020400500204405002078
:1010F4004C05002044000020500500205805002025
:10110400400000205C0500206405002068050020E4
:1011140070050020680000207C05002080B500AF29
:101124004FF6FF710120FFF761FF80BD80B400AF6F
:10113400054B1B689A69044B1B6842F004029A61D0
:1011440000BFBD4680BC70473800002080B400AFAB
:10115400054B1B689A69044B1B6842F008029A61AC
:1011640000BFBD4680BC70473800002080B400AF8B
:10117400054B1B689A69044B1B6842F010029A6184
:1011840000BFBD4680BC70473800002080B400AF6B
:10119400054B1B689A69044B1B6842F020029A6154
:1011A40000BFBD4680BC70473800002080B400AF4B
:1011B400054B1B689A69044B1B6842F040029A6114
:1011C40000BFBD4680BC70473800002080B400AF2B
:1011D400054B1B689A69044B1B6842F080029A61B4
:1011E40000BFBD4680BC70473800002080B400AF0B
:1011F400054B1B689A69044B1B6842F480729A6120
:1012040000BFBD4680BC70473800002080B400AFEA
:10121400054B1B689A69044B1B6822F004029A610F
:1012240000BFBD4680BC70473800002080B400AFCA
:10123400054B1B689A69044B1B6822F008029A61EB
:1012440000BFBD4680BC70473800002080B400AFAA
:10125400054B1B689A69044B1B6822F010029A61C3
:1012640000BFBD4680BC70473800002080B400AF8A
:10127400054B1B689A69044B1B6822F020029A6193
:1012840000BFBD4680BC70473800002080B400AF6A
:10129400054B1B689A69044B1B6822F040029A6153
:1012A40000BFBD4680BC70473800002080B400AF4A
:1012B400054B1B689A69044B1B6822F080029A61F3
:1012C40000BFBD4680BC70473800002080B400AF2A
:1012D400054B1B689A69044B1B6822F480729A615F
:1012E40000BFBD4680BC70473800002080B483B086
:1012F40000AF78601B4B1B687A689A4201D10023C7
:101304002BE0194B1B687A689A4201D1012324E02F
:10131400164B1B687A689A4201D102231DE0144BD4
:101324001B687A689A4201D1032316E0114B1B68AB
:101334007A689A4201D104230FE00F4B1B687A6844
:101344009A4201D1052308E00C4B1B687A689A4243
:1013540001D1062301E04FF0FF3318460C37BD4698
:1013640080BC70473C000020400000204400002066
:10137400480000204C0000205000002054000020B1
:1013840080B400AF094B1B68DA68084B1B6842F055
:101394000402DA60054B1B68DA68044B1B6822F010
:1013A4000402DA6000BFBD4680BC704738000020EC
:1013B40080B400AF094B1B68DA68084B1B6842F025
:1013C4000802DA60054B1B68DA68044B1B6822F0DC
:1013D4000802DA6000BFBD4680BC704738000020B8
:1013E40080B400AF094B1B68DA68084B1B6842F0F5
:1013F4001002DA60054B1B68DA68044B1B6822F0A4
:101404001002DA6000BFBD4680BC7047380000207F
:1014140080B400AF094B1B68DA68084B1B6842F0C4
:101424002002DA60054B1B68DA68044B1B6822F063
:101434002002DA6000BFBD4680BC7047380000203F
:1014440080B400AF094B1B68DA68084B1B6842F094
:101454004002DA60054B1B68DA68044B1B6822F013
:101464004002DA6000BFBD4680BC704738000020EF
:1014740080B400AF094B1B68DA68084B1B6842F064
:101484008002DA60054B1B68DA68044B1B6822F0A3
:101494008002DA6000BFBD4680BC7047380000207F
:1014A40080B400AF094B1B68DA68084B1B6842F430
:1014B4008072DA60054B1B68DA68044B1B6822F4FF
:1014C4008072DA6000BFBD4680BC704738000020DF
:1014D40080B400AF054B1B689A69044B1B6842F04B
:1014E40001029A6100BFBD4680BC704738000020ED
:1014F40080B582B000AF786039603B68002B3ED184
:101504007B681A68404B1B689A4202D1FFF70EFEB3
:1015140076E07B681A683D4B1B689A4202D1FFF75C
:1015240015FE6DE07B681A68394B1B689A4202D13C
:10153400FFF71CFE64E07B681A68364B1B689A420E
:1015440002D1FFF723FE5BE07B681A68324B1B680D
:101554009A4202D1FFF72AFE52E07B681A682F4BA9
:101564001B689A4202D1FFF731FE49E07B681A6892
:101574002B4B1B689A4243D1FFF738FE40E03B688F
:10158400012B3DD17B681A681F4B1B689A4202D11C
:10159400FFF73CFE34E07B681A681C4B1B689A42D8
:1015A40002D1FFF743FE2BE07B681A68184B1B68D7
:1015B4009A4202D1FFF74AFE22E07B681A68154B73
:1015C4001B689A4202D1FFF751FE19E07B681A6842
:1015D400114B1B689A4202D1FFF758FE10E07B685A
:1015E4001A680E4B1B689A4202D1FFF75FFE07E0B0
:1015F4007B681A680A4B1B689A4201D1FFF766FEA2
:1016040000BF0837BD4680BD3C00002040000020DC
:1016140044000020480000204C000020500000201E
:101624005400002080B400AF054B1B689A69044B3A
:101634001B6842F480429A6100BFBD4680BC70477B
:101644003800002080B400AF054B1B68DA69044BF6
:101654001B6842F40032DA6100BFBD4680BC7047AB
:101664003800002080B400AF054B1B68DA69044BD6
:101674001B6842F48022DA6100BFBD4680BC70471B
:101684003800002080B400AF054B1B68DA68044BB7
:101694001B6822F480429A6100BFBD4680BC70473B
:1016A4003800002080B400AF054B1B681A69044B56
:1016B4001B6822F40032DA6100BFBD4680BC70476B
:1016C4003800002080B400AF054B1B681A69044B36
:1016D4001B6822F48022DA6100BFBD4680BC7047DB
:1016E4003800002080B483B000AF0346FB7197F943
:1016F4000730202B0DDC184B1B681A6897F907304C
:10170400012101FA03F31946134B1B680A431A60BB
:101714001CE097F90730202B18DD97F90730402B90
:1017240014DC0D4B1B685A6897F90730594203F0D3
:101734001F0301F01F0158BF4B425BB2194601233E
:101744008B401946044B1B680A435A6000BF0C3790
:10175400BD4680BC704700BF7000002080B485B0D7
:1017640000AF03460A46FB711346BB7197F9073075
:10177400002B0BDB104B1A6897F90730B979090174
:10178400C9B213440A4683F8002310E0FB7903F03E
:101794000F03DBB2043BDBB2FB73084B1A6897F907
:1017A4000F30B9790901C9B213440A461A7600BF49
:1017B4001437BD4680BC7047700000206C000020C8
:1017C40080B483B000AF7860084611461A460346D9
:1017D400FB700B46BB7013467B707B68FA781A70FB
:1017E4007B68BA785A707B687A789A707B681846F6
:1017F4000C37BD4680BC704780B485B000AFF8603C
:10180400B9607A60FB68BA681A60FB687A68043366
:101814001188927819809A70FB6818461437BD466F
:1018240080BC704780B485B000AFF8607A601A4617
:101834000B46FB721346BB72FB68FA7A1A70FB689C
:101844007A685A60FB68BA7A1A72FB683A7E5A72EE
:10185400FB683A7F9A72FB6897F82020DA72FB687B
:1018640018461437BD4680BC704780B485B000AFBD
:10187400F860B9607A60FB68BA681A60FB687A68D5
:10188400043307CA83E80700FB6818461437BD46CB
:1018940080BC704708B50021044600F08BF8044B67
:1018A4001868C36B03B19847204600F05BF900BF8A
:1018B400D01C000870B50D4E0D4D761BB61006D029
:1018C400002455F8043B01349847A642F9D1094E47
:1018D400094D761B00F048F9B61006D0002455F8DF
:1018E400043B01349847A642F9D170BDDC1C0008C2
:1018F400DC1C0008E81C0008DC1C0008830730B569
:1019040048D0541E002A3FD0CAB2034601E0013C2D
:101914003AD303F8012B9D07F9D1032C2DD9CDB26D
:1019240045EA05250F2C45EA054536D9A4F11002F0
:1019340022F00F0C03F1200EE6444FEA121C03F1CF
:10194400100242E9045542E9025510327245F8D1B9
:101954000CF1010214F00C0F03EB021204F00F0C53
:1019640013D0ACF1040323F003030433134442F80B
:10197400045B9342FBD10CF003042CB1CAB21C44A7
:1019840003F8012B9C42FBD130BD64461346002C66
:10199400F4D1F9E703461446BFE71A46A446E0E744
:1019A400024B13B1024800F067B870470000000012
:1019B400891A00082DE9F04F2D4B83B0834618682F
:1019C400CDF804B00F4600F07DF82A4BD3F8008020
:1019D400D8F848619EB14FF001094FF0000A7468CD
:1019E400651E0CD4013406EB84047FB1D4F80031B5
:1019F400BB420BD0013D6B1CA4F10404F5D11C4B7C
:101A0400186803B0BDE8F04F00F064B8736822684A
:101A1400013BAB420CBF7560C4F800A0002AE9D0BA
:101A2400D6F88801D6F804B009FA05F101420BD1C1
:101A3400904772685A4512D1D8F84831B342D9D088
:101A44001E46002ECBD1DAE7D6F88C0101420BD129
:101A5400D4F880100198904772685A45ECD0D8F8B1
:101A64004861002EBBD1CAE7D4F880009047E0E774
:101A7400A0040020D01C0008002301461A46184682
:101A840000F02AB838B5084B084D5B1B9C1007D0F2
:101A9400043B1D44013C55F804399847002CF9D106
:101AA400BDE8384000F066B8EC1C0008E81C0008EB
:101AB400704700BF704700BF704700BF704700BF4A
:101AC400704700BF704700BF012070470120704776
:101AD400704700BF704700BF2DE9F047DFF87CA0D6
:101AE4000646DAF8000098460F469146FFF7EAFFEB
:101AF4001B4B1B68D3F8484124B365681F2D26DCB3
:101B04005EB96B1C0235DAF80000636044F8257096
:101B1400FFF7E0FF0020BDE8F08704EB8501012317
:101B2400C1F88890D4F88821AB401A43022EC4F837
:101B34008821C1F80881E4D1D4F88C211343C4F876
:101B44008C31DEE703F5A674C3F84841D5E7DAF82B
:101B54000000FFF7BFFF4FF0FF30DCE7A0040020D8
:101B6400D01C0008FEE700BFF8B500BFF8BC08BCF5
:101B74009E467047F8B500BFF8BC08BC9E46704747
:101B84003B3E0B3E103E253E333E033E063E143E96
:101B94000E3E0D3E243E123E273E023E183E093EB6
:101BA4000A3E000000000040000000400000014028
:101BB40000800140040000000010024000080140C1
:101BC400000C0140001001400014014000180140C5
:101BD400001C0140002001400000004000000040C3
:101BE4000000014000800140040000000010024099
:101BF40000080140000C01400010014000140140A5
:101C040000180140001C0140002001400000004079
:101C1400000000400000014000800140040000007A
:101C24000010024000080140000C01400010014077
:101C34000014014000180140001C01400020014034
:101C4400000000400000004000000140008001400E
:101C5400040000000010024000080140000C014094
:101C6400001001400014014000180140001C014014
:101C7400002001400000004000000040000001403E
:101C840000800140040000000010024000080140F0
:101C9400000C0140001001400014014000180140F4
:101CA400001C0140002001403B3E0B3E103E253EFF
:101CB400333E033E063E143E0E3E0D3E243E123E8F
:101CC400273E023E183E093E0A3E000078000020EE
:081CD400A0E4FF7F0100000005
:101CDC00A519000859010008211100083501000858
:101CEC00000000000200040008001000400080000A
:101CFC00000100020200040008001000555341527C
:101D0C00542054782074657374696E672E2E2E0AD5
:101D1C000D00000010E000E000100240000801403F
:101D2C00000C01400010014000140140001801405B
:101D3C00001C014000200140000001400004014053
:101D4C0000380140004400400048004000ED00E035
:101D5C0000E100E078000020000000006403002097
:101D6C00CC03002034040020000000000000000020
:101D7C000000000000000000000000000000000057
:101D8C000000000000000000000000000000000047
:101D9C000000000000000000000000000000000037
:101DAC000000000000000000000000000000000027
:101DBC000000000000000000000000000000000017
:101DCC000000000000000000000000000000000007
:101DDC0000000000000000000000000000000000F7
:101DEC0000000000000000000000000000000000E7
:101DFC0000000000000000000000000000000000D7
:101E0C0001000000000000000E33CDAB34126DE673
:101E1C00ECDE05000B0000000000000000000000DC
:101E2C0000000000000000000000000000000000A6
:101E3C000000000000000000000000000000000096
:101E4C000000000000000000000000000000000086
:101E5C000000000000000000000000000000000076
:04218C00A805002082
:04000005080001F7F7
:00000001FF
