:020000040800F2
:20000000004C00206D140008791400087D14000881140008851400088914000800000000DA
:200020000000000000000000000000008D1400089114000800000000951400089914000804
:200040009D140008A1140008A5140008A9140008AD140008B1140008B5140008B914000868
:20006000BD140008C1140008C5140008C9140008CD140008D1140008D5140008D914000848
:20008000DD140008E1140008E5140008E9140008ED140008F1140008F5140008F914000828
:2000A000FD1400080115000805150008091500080D15000811150008151500081915000801
:2000C0001D1500082115000825150008291500082D150008311500083515000839150008E0
:2000E0003D150008411500084515000810B50400964884420AD101215FF0007000F076FA5D
:2001000000215FF0007000F071FA09E001215FF0806000F06BFA00215FF0806000F066FA75
:2001200010BD30B4020000200023146834F002041460146854F0010414605468E40705D4F6
:200140004FF6FF74A34201D05B1CF6E75468E40702D4002420006DE08C79012C04D114684C
:2001600054F08004146003E0146834F080041460CC79012C04D1146854F04004146003E026
:20018000146834F0400414600C7A012C04D1146854F02004146003E0146834F0200414600C
:2001A0004C7A012C04D1146854F01004146003E0146834F0100414608C7A012C04D11468A0
:2001C00054F00804146003E0146834F008041460CC7A012C04D1146854F00404146003E0F1
:2001E000146834F0040414608C78CD782D0655EA84740D7954EA05444D7954EA05540D8831
:200200006D1E2C43D4611468640864001460002423005468E40705D54FF6FF74A34201D0B9
:200220005B1CF6E75468E40702D50024200001E001242000C0B230BC704710B40021012265
:20024000837A9A401100424A126852F00102404B1A60404A12688A433E4B1A60027B002AEB
:2002600015D13D4A12688A433B4B1A60C288438853EA0242837A394C44F83320827A374BA5
:2002800013EBC2028388048854EA03435360027B012A15D1304A12680A432F4B1A60028881
:2002A000438853EA0242837A2C4C44F83320827A2A4B13EBC2028388C48854EA034353602D
:2002C000C27A002A05D1264A12688A43244B1A6004E0234A12680A43214B1A600289002A8F
:2002E00004D1204A12688A431E4B1A600289012A04D11C4A12680A431A4B1A60427B012A16
:2003000004D1144A12680A43124B1A60104A1268520852000E4B1A6010BC70470021817123
:200320000021C1710021017200214172002181720021C172002181700021C17003210171A0
:2003400002214171012101807047000000640040006600401C6600400C66004040660040CA
:20036000046600401466004030B40200002093685B0102D5002318000DE093681B0102D5CF
:200380000123180007E09368DB0002D50223180001E004231800C0B2042875D0C0B212EBDE
:2003A0000013D3F8803113F00103C0B212EB0014C4F880310B7A002B0FD1C0B212EB0013A5
:2003C000D3F880310C684D7A55EA44542343C0B212EB0014C4F8803110E0C0B212EB0013C7
:2003E000D3F880314C680D7A55EAC4044D7A2C432343C0B212EB0014C4F880318B7A13F0AB
:200400000F038B72C0B212EB0013D3F884311B091B01C0B212EB0014C4F88431C0B212EB28
:200420000013D3F884318C7A2343C0B212EB0014C4F884318B7B4C7B240454EA03630C7BA9
:2004400053EA0423CC7A2343C0B212EB0014C4F888318B7C4C7C240454EA03630C7C53EA34
:200460000423CC7B2343C0B212EB0014C4F88C31C0B212EB0013D3F8803153F00103C0B2F5
:2004800012EB0014C4F88031C0B230BC7047C9B2002902D12022C26001E0202202617047B1
:2004A00070B504000D001600EDB214EB0510D0F8B00110F004003072307A002807D1EDB2D5
:2004C00014EB0510D0F8B001400D306006E0EDB214EB0510D0F8B001C0087060EDB214EB6A
:2004E0000510D0F8B00110F002007072EDB214EB0510D0F8B40110F00F00B072EDB214EB8B
:200500000510D0F8B401000AF074EDB214EB0510D0F8B801F072EDB214EB0510D0F8B80111
:20052000000A3073EDB214EB0510D0F8B801000C7073EDB214EB0510D0F8B801000EB07386
:20054000EDB214EB0510D0F8BC01F073EDB214EB0510D0F8BC01000A3074EDB214EB051067
:20056000D0F8BC01000C7074EDB214EB0510D0F8BC01000EB0742900C9B22000FFF787FF5C
:2005800070BD10B450F8041B81B102681218001D50F8043BDC0744BFA9F10104E31852F8CF
:2005A000044B43F8044B091FF9D1EBE710BC7047C9B2002905D0154A12680243134B1A60AC
:2005C00004E0124A12688243104B1A607047C9B2002905D00E4A126802430D4B1A6004E0CA
:2005E0000B4A126882430A4B1A607047C9B2002905D0084A12680243064B1A6004E0054A59
:2006000012688243034B1A6070470000181002401C10024010100240BFF34F8FB6480068EC
:2006200010F4E060B5490843B3490860BFF34F8FFEE7000038B5040020680500ADB2E80986
:2006400080B2002836D0012816D0032815D004282CD0052823D0062828D0072821D008285D
:2006600024D009281ED00A2820D00B281FD00C281DD00E281DD01EE01DE0E07A0C280DD178
:20068000A07A02280AD1207B9D490978884202D0207BFF2801D100F011F80CE00BE000BF7A
:2006A00009E008E0200000F03CF804E003E000BF01E000E0FFE731BD0120704700B585B048
:2006C0001422002100A800F03DF98D4800784FF4C0710843009000208DF8080000208DF807
:2006E000090005208DF80A000A208DF80B0001208DF80C00FFF7E0FF8DF80D008148007829
:200700008DF80E00804800788DF80F0000A97F48FFF72AFE05B000BD002801D0401EFBE739
:2007200070472DE9F84F04005FF0000B207810F07F000600E07A0500A07A8146B6B2692EEB
:2007400038D1EDB2012D35D1A07A012832D170484078922808D06E4840786B490870FFF7E5
:20076000ADFF00F093F88FE06948C07801280ED100F07FF980465FFA88F8B8F1010F02D15F
:20078000FFF74AFF80E062480221417002E06048042141705A48007842F6E0614843FFF7C8
:2007A000BBFF5B48407858490870FFF787FF00F06DF869E0B6B2672E15D1EDB2012D12D15E
:2007C000A07A01280FD100F061F800F072F850488078932803D14E480121C17002E04C48D5
:2007E0000321417050E04A48C07801284CD148480078B6B2801B01283DD1454840789228A3
:2008000039D15FFA89F9B9F1080F34D104F20B008346002007004846C0B2BFB280B28742D0
:200820001DD23B4840683A498968884217D2DBF800103748406800F026FA82461AF1010F7A
:2008400003D13348032141701EE031484068001D2F4948603F1D1BF1040B7F1CDBE72C48D0
:200860000078401C2A49087029489221417028489421817002E0264804214170B6B2632EAF
:2008800002D1234802210170BDE8F18F2048022101701F48922141701D48952181701C482A
:2008A0000021C1701A481B49416019481A498160704770B50025002617481649401A401C3F
:2008C00000F02CF8060000200500B54212D211484FF4806101FB050000F0A3F90400042CC0
:2008E00003D00B480321817004E00948932181706D1CEAE770BD00000CED00E00400FA0580
:2009000045000020F01F000846000020006400402800002000200008FFEF000810B4010026
:2009200000200A004FF48063B2FBF3F404FB1324002C03D0930A5B1C180001E0930A1800DC
:2009400010BC704770B504000D0016002A003100200000F01DFA200070BD50F8041B61B180
:2009600050F8042BD30744BFA9F101039A18002342F8043B091FFAD1EFE770478C488D490D
:2009800001608D485FF033310160704700B589B001210520FFF70CFE01215FF00070FFF74A
:2009A00016FE01211420FFF703FE4FF40060ADF8000048208DF8030000A9804800F01CFA27
:2009C0004FF48050ADF8000018208DF8030003208DF8020000A9794800F00EFA7848FFF7DD
:2009E00085FB01A8FFF79AFC00208DF80A0001208DF80B0000208DF80C0000208DF80D007F
:200A000000208DF80E0000208DF80F0000208DF8060000208DF807000E208DF8080001203C
:200A20008DF809001920ADF8040001A96448FFF778FB00208DF81A0000208DF81B000120E7
:200A40008DF81C000020ADF810000020ADF812000020ADF814000020ADF816000020ADF8D0
:200A6000180001208DF81D0004A8FFF7E6FB09B000BD10B553485449401A441C220052492E
:200A8000002000F059FA5149098880B2814201D1012000E00020C0B210BD80B54C484D4942
:200AA0000988016000F05EFA72B6FFF7EFFE00F058FB494908704948008845F2AA5188428F
:200AC00005D0474800884AF65521884251D1FFF75DFFFFF753FF00F099F84048008845F226
:200AE000AA51884205D13F4805210170FFF7E6FD04E03C4802210170FFF7E0FD37480021F5
:200B0000018037480021018037480721016037480068401C3549086034480068800307D5BF
:200B20003348C078002803D12F482021016002E03048202101602D480068800307D52C4841
:200B4000C078002803D02B481021016002E02648102101602848006810F003000028D6D0D2
:200B6000264A00211648FFF79BFC2448FFF762FDCDE7FFF77EFF2249087021480078002825
:200B800010D0114840681F4908601F481D49096801600D48006880F308881B4800688047B3
:200BA000002004E00E484AF65521018083E702BD001801403343334404180140000801408F
:200BC00000640040FDEF000800200008FEEF00083C000020FE1F000845000020000000205A
:200BE0000200002046000020101801404000002028000020141801400C640040140000200B
:200C0000440000203400002038000020DFF83801DFF838110160DFF83001DFF834110160AE
:200C2000704738B5040004255FF4302000F098F80500EDB2042D23D1DFF81801006850F05F
:200C40000200DFF810110860DFF80C010460DFF80401006850F04000DFF8F81008605FF48C
:200C6000302000F07DF80500EDB2052D08D0DFF8E400006841F6FD710840DFF8D8100860DA
:200C80002800C0B232BD70B582B004000D000426002000904FF4005000F062F80600F6B2FE
:200CA000042E33D1DFF8AC00006850F00100DFF8A410086025804FF4005000F051F8060068
:200CC000F6B2042E16D1A01C0090280C009908804FF4005000F044F80600F6B2052E15D02D
:200CE000DFF87000006841F6FE710840DFF8641008600BE0F6B2052E08D0DFF8580000686F
:200D000041F6FE710840DFF84C1008603000C0B276BD042011490968C90702D501210800B5
:200D20000FE00E490968490702D50221080008E00A490968C90602D50321080001E0042126
:200D40000800C0B2704700000420024023016745AB89EFCD10200240142002400C200240E6
:200D600038B504000425FFF7D4FF0500EDB2012D06D1002C04D0FFF7CCFF0500641EF5E7C3
:200D8000002C01D1052005002800C0B232BD704762F30F2262F31F42401810F0030308D079
:200DA000C91A1FD3DB0748BF00F8012D28BF20F8022D130030B414461546103928BF20E93C
:200DC0003C00FAD8490728BF20E90C0048BF40F8042D890028BF20F8022D48BF00F8012D65
:200DE00030BC7047C91818BF00F8012DCB0728BF00F8012D70470000F0B5002700220023CB
:200E000000240025002691F803C01CF00F0C674691F803C05FEACC6C03D591F802C05CEA0D
:200E2000070791F800C05FEA0C6C3AD0D0F800C065465FF0000C6346082B31D25FF0010CC7
:200E40001CFA03FC6446B1F800C014EA0C0C6246A24223D15FEA830C64465FF00F0C1CFAD2
:200E600004FC6646B54317FA04FC5CEA050591F803C0BCF1280F06D15FF0010C1CFA03FCF5
:200E8000C0F814C00AE091F803C0BCF1480F05D15FF0010C1CFA03FCC0F810C05B1CCBE794
:200EA0000560B1F800C04FF4807EF4453FD3D0F804C065465FF0000C6346082B36D25FF013
:200EC000010C13F1080E1CFA0EFC6446B1F800C014EA0C0C6246A24226D15FEA830C64469D
:200EE0005FF00F0C1CFA04FC6646B54317FA04FC5CEA050591F803C0BCF1280F07D15FF016
:200F0000010C13F1080E1CFA0EFCC0F814C091F803C0BCF1480F07D15FF0010C13F1080E60
:200F20001CFA0EFCC0F810C05B1CC6E74560F0BD806880B27047000010B413005A1E002B48
:200F40000AD080B20B7893EA2023054C34F8133093EA0020491CF0E780B210BC70470000F4
:200F6000E011000880B54C48006850F001004A4908604A4800684A490840484908604648AF
:200F8000006848490840444908604348006830F48020414908604148006830F4FE003F49D7
:200FA000086041485FF41F01016000F001F801BD80B500F001F801BD82B0002001900020E6
:200FC00000903548006850F48030334908603248006810F4003000900198401C0190009800
:200FE000002803D10198B0F5A06FF0D12A480068800302D50120009001E0002000900098D9
:20100000012847D12948006850F01000274908602648006880088000244908602348006808
:2010200050F00200214908601C481C49096801601A481A49096801601848006850F4A0605E
:20104000164908601548006830F47C10134908601248006850F4F810104908600E48006803
:2010600050F080700C4908600B4800688001FBD50A48006880088000084908600748006845
:2010800050F00200054908600448006810F00C000828F9D102B0704700100240041002408D
:2010A0000000FFF8FFFFF6FE081002400020024010B582B001214020FFF77AFA48208DF8BB
:2010C00003000120ADF8000000A93A48FFF794FE0220ADF8000000A93648FFF78DFE002005
:2010E0000400082C0BDA012014F108018840ADF8000000A92F48FFF77FFE641CF1E70A2022
:2011000000F05CF813BD10B582B010208DF8030003208DF802000120ADF8000000A9254886
:20112000FFF76AFE2448012101600220ADF8000000A92048FFF760FE1F4802210160002427
:20114000062C0ADA4FF48070A040ADF8000000A91848FFF751FE641CF2E70A2000F02EF8DA
:2011600013BDF8B5FFF7A4FF1248FFF7E1FEC0F3072090F0FF0080B20700FFB217F00F00D1
:20118000801C0A2190FBF1F201FB12000500FFB23809C0B2801C0A2190FBF1F201FB120060
:2011A00004000A2000FB05400600FFF7ACFF3000C0B2F2BD001801401018014081B00021B5
:2011C00000910099054A126802FB00F2914203D20099491C0091F4E701B070471000002083
:2011E00000002110422063308440A550C660E770088129914AA16BB18CC1ADD1CEE1EFF1EF
:201200003112100273325222B5529442F772D662399318837BB35AA3BDD39CC3FFF3DEE3AE
:201220006224433420040114E664C774A44485546AA54BB528850995EEE5CFF5ACC58DD56E
:201240005336722611163006D776F6669556B4465BB77AA719973887DFF7FEE79DD7BCC72E
:20126000C448E5588668A7784008611802282338CCC9EDD98EE9AFF9488969990AA92BB9EE
:20128000F55AD44AB77A966A711A500A333A122AFDDBDCCBBFFB9EEB799B588B3BBB1AABAE
:2012A000A66C877CE44CC55C222C033C600C411CAEED8FFDECCDCDDD2AAD0BBD688D499D6E
:2012C000977EB66ED55EF44E133E322E511E700E9FFFBEEFDDDFFCCF1BBF3AAF599F788F2E
:2012E0008891A981CAB1EBA10CD12DC14EF16FE18010A100C230E3200450254046706760EE
:20130000B9839893FBA3DAB33DC31CD37FE35EF3B1029012F322D2323542145277625672AD
:20132000EAB5CBA5A89589856EF54FE52CD50DC5E234C324A014810466744764245405446D
:20134000DBA7FAB79987B8975FE77EF71DC73CD7D326F2369106B01657667676154634562D
:201360004CD96DC90EF92FE9C899E9898AB9ABA94458654806782768C018E1088238A328ED
:201380007DCB5CDB3FEB1EFBF98BD89BBBAB9ABB754A545A376A167AF10AD01AB32A923AAD
:2013A0002EFD0FED6CDD4DCDAABD8BADE89DC98D267C076C645C454CA23C832CE01CC10C6D
:2013C0001FEF3EFF5DCF7CDF9BAFBABFD98FF89F176E367E554E745E932EB23ED10EF01E2D
:2013E00010B5084979441C31074C7C441A34A14206D0081D0A68511888470146A142F8D1F1
:2014000010BD00BF08000000280000004FF5FFFF34000000140000200000000067F1FFFF10
:201420000400000024010000100000200000000000F009F8002801D0FFF7D2FF0020FFF78C
:201440002CFB00F002F80120704780B500F002F800BF00000746384600F002F8FBE700002E
:2014600001491820ABBEFBE726000200C046C046C046C046FFF7DCFFFFF7FEBFFFF7FEBF28
:20148000FFF7FEBFFFF7FEBFFFF7FEBFFFF7FEBFFFF7FEBFFFF7FEBFFFF7FEBFFFF7FEBFB4
:2014A000FFF7FEBFFFF7FEBFFFF7FEBFFFF7FEBFFFF7FEBFFFF7FEBFFFF7FEBFFFF7FEBF94
:2014C000FFF7FEBFFFF7FEBFFFF7FEBFFFF7FEBFFFF7FEBFFFF7FEBFFFF7FEBFFFF7FEBF74
:2014E000FFF7FEBFFFF7FEBFFFF7FEBFFFF7FEBFFFF7FEBFFFF7FEBFFFF7FEBFFFF7FEBF54
:20150000FFF7FEBFFFF7FEBFFFF7FEBFFFF7FEBFFFF7FEBFFFF7FEBFFFF7FEBFFFF7FEBF33
:20152000FFF7FEBFFFF7FEBFFFF7FEBFFFF7FEBFFFF7FEBFFFF7FEBFFFF7FEBFFFF7FEBF13
:20154000FFF7FEBFFFF7FEBF05000000FFFFFFFFFFFFFFFFFFFFFFFFFFFFFFFFFFFFFFFF34
:20156000FFFFFFFFFFFFFFFFFFFFFFFFFFFFFFFFFFFFFFFFFFFFFFFFFFFFFFFFFFFFFFFF8B
:20158000FFFFFFFFFFFFFFFFFFFFFFFFFFFFFFFFFFFFFFFFFFFFFFFFFFFFFFFFFFFFFFFF6B
:2015A000FFFFFFFFFFFFFFFFFFFFFFFFFFFFFFFFFFFFFFFFFFFFFFFFFFFFFFFFFFFFFFFF4B
:2015C000FFFFFFFFFFFFFFFFFFFFFFFFFFFFFFFFFFFFFFFFFFFFFFFFFFFFFFFFFFFFFFFF2B
:201FE000FFFFFFFFFFFFFFFFFFFFFFFFFFFFFFFF03524D3630362D426F6F7400FFFF0D5097
:20200000004C0020076A0008316600083366000873660008756600087766000800000000F2
:20202000000000000000000000000000796600087B660008000000007D6600086963000811
:20204000376A00083B6A00083F6A0008436A0008476A00084B6A0008C7660008CB660008E0
:20206000CF660008D3660008D7660008636A0008676A00086B6A00086F6A0008736A00084C
:20208000776A00087B6A00087F6A00089D6600087F6600088B6A00088F6A0008DB6600083A
:2020A000976A00089B6A00089F6A0008A36A00089F660008AB6A0008A7660008B36A000880
:2020C000B76A0008BB6A0008BF6A0008C36A0008C76A0008CB6A0008CF6A0008D36A000848
:2020E000F9660008DB6A0008DF6A000810B588B04FF40060ADF8000048208DF80300DFF8CF
:20210000304B00A9204600F027FE4FF48050ADF8000018208DF8030003208DF8020000A955
:20212000204600F019FEDFF80C0B0021416001601F2181600021C0F87C12C0F8781229210D
:20214000C0F88012DFF8F04A204600F085FE01A800F05DFF00208DF80A0001208DF80B00F6
:202160000020ADF80C008DF80E0001208DF80F000020ADF806000E208DF8080001208DF81A
:2021800009001920ADF8040001A9204600F07DFE0020ADF81A0001208DF81C000020049084
:2021A0000590ADF8180001208DF81D0004A800F0DBFE01220221204600F040FF01224FF454
:2021C0000041204600F03AFF08B010BD70B586B004460D461646142100A800F0DFFF009417
:2021E0000020ADF808008DF80A502A4631460DF10B0000F0D7FFDFF83C5A6868411CAA68D1
:2022000091FBF2F302FB13112A68914205D10FF66C2000F0FFFF022019E0DFF8201A0978C5
:2022200011B1B4F5F06F0FDB142101FB00500C3000A9142200F0C3FF6868401CA96890FBD4
:20224000F1F201FB1200686000F003F8002006B070BD70B586B0DFF8DC4926686068864262
:202260002CD0DFF8D459A86810F0E05F26D000A8142101FB06410C31142200F0A0FF701C6B
:20228000A16890FBF1F201FB12002060DFF8B009006A78B10098C0F3C310032804D19DF863
:2022A0000B000B280AD105E00E2807D19DF80B00022803D100A9284600F0C8FE06B070BDC4
:2022C00070B50146DFF86C0900F278246268531CA56893FBF5F605FB1633D0F87852AB4231
:2022E0000FD0142303FB020000F28420142200F066FF6068401CA16890FBF1F201FB1200FE
:20230000606070BD2DE9F04F8FB0DFF82849D4F8785204F278267068854240D008A8142136
:2023200001FB054101F28421142200F048FF681CB16890FBF1F201FB1200C4F8780201F016
:202340002CF98046089800F07F009DF830109DF82C209DF82D309DF82B609DF82A70DFF8B5
:20236000E0582C6A95F800E0DDF820C04FEADC1C0CF00F0CBCF1020F12D0BCF1030F22D0D4
:20238000BCF1040F00F06C81BCF1080F01D0BCF10C0F00F07181BCF10F0F00F0C281D1E1B1
:2023A00002930192009601F01F039DF82F0005EB8000C26C481105EB8000016B0FF6D400DC
:2023C00000F028FFBEE10D90002CFBD1DFF87498DFF874A8DFF8744830460C3818D0083867
:2023E0001FD0113810282AD92B3800F0A680401E00F0E180801E012840F2ED80001F00F0CD
:202400009F800E3800F00781233800F0218199E1022FFCD1724501D0FF2A01D100F09AF974
:2024200090E10029FCD001F0D0F99DF83010814204D12068686201F0C8F9687082E10020B0
:202440008DF81C0001220CE0234603B101234A463146C0B201F0A9FC7F1C062F57DB0AF17F
:2024600001029DF82A0001464B1E9A425BDA02F1010A08ABD218D27A2B789A42EFD108AA01
:20248000524492F80BB04FF00009002401228DF81C20C00706D408A80818807AC111CCB256
:2024A00000F07F09272E0BD0292E09D02B2E07D02D2E05D0312E03D02F2E01D0332E01D151
:2024C000B5A100E0B5A10694CDF814904FEA6B1000F0010004904FEA2B1000F0010003903C
:2024E0004FEAEB0000F0010002904FEAAB0000F0010001904FEA6B0000F0010000900BF0AF
:2025000001030D9A0FF2A87000F084FE00270120B8401BEA000F9FD0B8F1000F14BFC7F17F
:202520000500384690E79DF81C00002804D00D99C9B2012000F034F904E10D9889F800008A
:2025400001220AE000233146C0B201F02EFC4FEA99097F1C062F12DBA21C9DF82A0082426E
:2025600023DA541C08A81018C07A29788842F3D108A82018C17A007B40EA01290027B8F1EB
:20258000000F14BFC7F10500384619F0030106D0022908D005D3032908BF0122D2E700226F
:2025A000D0E70322CEE70222CCE7502E02D1012000F05BF9C6E0002089F80000CAF80000F4
:2025C0000027002300225121384601F0EEFB7F1C062FF6DBB6E0002707EBD77008A901EB91
:2025E0006000007BF9074EBF00F00F000005000E022801D003280AD12068CAF8000099F805
:2026000000000D99C9B2884218BF00F08AF97F1C082FE1DB96E0089800F07F007F28F9D101
:20262000012AF7D1DFF82806FF2B08BF87210ED0FE2BEFD1DFF81C1609889DF82F209DF82F
:202640002E3003EB022292B291427BD0872178E01C21281D00F0A2FD0020A862E86271E0D2
:202660009DF8291000296DD0044621460FF27C6000F0D0FD21465CE7BDF82B80002C61D173
:20268000089800F07F0070455CD1B81EADF8000048F40045BDF8000058BB47F6FE70804515
:2026A00002D101F0B2F81DE0B8F1050F13D1DFF8A8050168426851408068484001900220C3
:2026C000ADF8000000AA02A9042000F0E6FF0621ADF8001004E00620ADF8000000F035F85F
:2026E00000B1A846BDF8002001A9404600F03BF928E000AA0DF12D01404600F0E4FF00B12A
:20270000A84600F022F840B99DF82A00821E01A90DF12D0001F08CFD08B148F400480022BB
:20272000E2E7089800F07F0028280BD108220FF2D8510DF12B0001F07BFD18B9DFF81C05E6
:20274000012101700FB0BDE8F08F00AA01A9404600F0A3BF00B583B00B208DF8000001201E
:202760008DF801008DF80200DFF8F40400788DF80300DFF8E00400888DF80400000A8DF822
:20278000050000208DF8060021208DF8070000AA082100F0E2F80EBD4F4E00004F464600DC
:2027A0002DE9F04784B080460D4600F0F6FE814614208DF8040001AE0B20C0467070002433
:2027C000B9F1000F14BFC4F10500204604EBD4714910891CCFB2C0B201F0E6F8B95D40EA19
:2027E0000110B855641C062CEADB00F0EEFF70714FF00609DFF8484404F28407DFF84CA48D
:20280000B8F1000F0FD175B9DAF80000D4F88010401A41F28831884205D20622394601A88D
:2028200001F006FDE8B1DAF80000C4F8800001A806C806C715B1B5714FF007093079009045
:202840009DF80730B27871780FF2C84000F0E2FC01AA494620784FF4C0731843FFF7B6FC77
:2028600000E0052004B0BDE8F0872DE9F04383B0804600A80FF2BC410CC90CC0DFF8E453EC
:20288000DFF8C003007800283BD000F086FE8146002700ACB9F1000F14BFC7F1050038461E
:2028A00007EBD7714910491CCEB2C0B201F0F8F8315D40EA011030557F1C062FEADB607892
:2028C00048B9687838B9A07828B9A87818B9E07808B9E87810B3DFF87403B8F1000F06D123
:2028E0000168EA68891A41F28832914216D3012129720068E86000A80168296000F02BF8B7
:202900000DE0287A50B100210120FFF749FF0521284600F043FC0020E86028720520BDE818
:20292000FE8380B500A80FF214410A78027000AA012100F012F802BD38B500AB0FF200448D
:2029400025681D608DF801008DF802108DF8032000F001F832BD00AA0421B94800784FF445
:20296000C073184332E419B582B0144602A800AA037813704378537022460DF1020000F031
:2029800011FC00AAA11CAE4800784FF460731843FFF71CFC002004B010BD32B582B0B24C1E
:2029A000AA4D29682268891A4FF47A7291421AD302218DF800108DF80100000A8DF80200A4
:2029C000042202A90DF1030000F0ECFB2868206000AA07219A48007800F07F0040F4E0602F
:2029E000FFF7F4FB3EBD05203EBD2DE9FC479F4FD7F80080924D2878944E411EC9B263297A
:202A000003D37F281CBF30682862286A42F2107188B13268101A884205D3002028624FF06D
:202A2000FF3202211CE000211B20FFF7B6FF4FF0FF32112114E0686AA8B13268101A8842F0
:202A400004D200F0C2FE6978814202D000206862E5E700211C20FFF7A0FF4FF0FF3203213E
:202A6000062001F046FC4FEA186A814C2068404527D0C8F30211072904D205EB81014A6879
:202A8000521C4A60010EAAEB0102012A02DBAB6AD218AA62C8F30742C0F30743D21A012A4C
:202AA00002DBEB6AD218EA6228EA00000622104201D1514505D247F230520121072001F0EE
:202AC00018FC386840F0700038604FEA18492068000C484504D041460FF2682000F09AFBE6
:202AE00030686168401A44F62061884247D36868810C8DF8001000AF800A7870A868FF2139
:202B0000FF2834BFB870B970E868FF2834BFF870F9702869FF2834BF387139716869FF2819
:202B200034BF78717971A869FF2834BFB871B971E869FF2834BFF871F97100AA08212878A0
:202B400040F4B060FFF742FB8DF800A087F80190A86A010CB970010AF9703871E86A010C05
:202B60007971010AB971F87100AA0821287800F07F0040F4A060FFF729FB30686060C4F889
:202B80000080BDE8F387417A81B90068C10901F00F01032901D00E2908D1294900F07F0080
:202BA0000A78904202D129480068086270472348007800B1704738B52E4C244D2868616878
:202BC000401AB0F57A7F16D901F0A0FC296861601B490A7890420CD06278824207BF20789F
:202BE000401C6070002020702078062803D3607808700020207031BD0E4801684068814245
:202C000000D0704700B583B01B48006800F0E050B0F1E05F0AD100A80FF234110CC90CC010
:202C200000AA082140F2BC70FFF7D0FA07BD000000080140700E002000640040200E002006
:202C4000000C00203C0D0020400D0020680E002058160020F0EF0008E8F7FF1F210E00201B
:202C6000F01F00082016002048160020186400403016002038160020086400402A2A2A208F
:202C80004552524F523A2054782D512066756C6C0A00000025732C202573202564202D2097
:202CA000253032643A253032643A253032640A0043414E5F434D445F25732066726F6D20E5
:202CC0004164647225643A205B2564256425642564256425645D20286475723D25642C2003
:202CE000666C69636B3D2564290A0000535441545553205245512066726F6D204164647277
:202D00002025640A00000000EEEEEEEEEEEEEEEE00000000524D207374617475733A2025AE
:202D20003032582025303258202530325820253032580A005200000000000000520000002E
:202D4000440000004553523D253038580A000000FFFFFFFFFFFFFFFF2DE9F0410022CC7874
:202D600004F00F03E40644BF8C7823430C8801250F26E7B217B3D0F800C005FA02F7BE4620
:202D80000EEA0408F04514D14FEA820E06FA0EF82CEA080C03FA0EFE4EEA0C0C91F803E057
:202DA000BEF1280F08BF476103D0BEF1480F08BF0761521C082AE0D3C0F800C04FF48072B6
:202DC000944226D3D0F804C0002202F1080705FA07F7BE460EEA0408F04515D14FEA820E8B
:202DE00006FA0EF82CEA080C03FA0EFE4EEA0C0C91F803E0BEF1280F08BF476191F803E01D
:202E0000BEF1480F08BF0761521C082ADDD3C0F804C0BDE8F0810022806880B2084218BF3E
:202E20000122104670470022C06880B2084218BF01221046704750F8041B61B150F8042BA5
:202E4000D30744BFA9F101039A18002342F8043B091FFAD1EFE7704780B57549884208D193
:202E600001214FF0007001F01CFC00214FF0007007E001214FF0806001F013FC00214FF020
:202E80008060BDE8044001F00CBC30B500220024036823F002030360036843F0010303609A
:202EA0004FF6FF7300E0641C4568ED0701D49C42F9D14468E40755D58A79012A02680CBFB9
:202EC00042F0800222F080020260CA79012A02680CBF42F0400222F0400202600A7A012ACC
:202EE00002680CBF42F0200222F0200202604A7A012A02680CBF42F0100222F010020260C5
:202F00008A7A012A02680CBF42F0080222F008020260CA7A012A02680CBF42F0040222F0A5
:202F2000040202608A78CC78240644EA82720C7942EA04424C7942EA04520988491E11430D
:202F4000C1610168490849000160002400E0641C4168C90701D59C42F9D1406800F00100D7
:202F600080F00102104630BDF0B50121827A9140304A136843F001031360CB43D4691C40C1
:202F8000D4612D4C057B8DB9D5681D40D560C588468846EA0545867A44F83650857A04EBA9
:202FA000C5058688078847EA06466E60057B012D11D1D5680D43D5600588468846EA054538
:202FC000867A44F83650857A04EBC5048588C68846EA05456560C47A002C54680CBF1C4091
:202FE0000C435460048914B95469234003E0012C02D153690B435361407B012802D1D069C3
:203000000843D0611068400840001060F0BD00218171C171017241728172C1728170C17064
:2030200003210171022141710121018070470000006400400066004040660040002A4269C6
:2030400014BF114322EA01014161704770B58268520112D5002200EB0210D0F8803103F00E
:203060000103C0F880314B7A0C7A94B9D0F880410D6843EA4553234312E08268120148BF2C
:203080000122E8D48268D20048BF0222E3D4042232E0D0F880514E6844EAC60423432B4360
:2030A000C0F880318B7A03F00F038B7200F280135C68240924015C605C688D7A2C435C6053
:2030C0008C7B4D7B2D0445EA04640D7B44EA0524CD7A2C439C608C7C4D7C2D0445EA04642F
:2030E0000D7C44EA0524C97B2143D960D0F8801141F00101C0F88011104670BD002903D0BB
:20310000022909D004D37047816841F0800106E0816841F4004102E0816841F4000181605B
:20312000704711B92021C160704720210161704710B500EB0113D3F8B04114F00404147289
:20314000D3F8B04107BF640D1460E4085460D3F8B04104F00204547203F2B0135C6804F07C
:203160000F0494725C68240AD4749C68D4729C68240A14739C68240C54739C68240E9473C1
:20318000DC68D473DC68240A1474DC68240C5474DB681B0E9374FFF7C4FF10BD002201F062
:2031A000A1BA70474AB38B0707D0521E11F8013B00F8013B21D08B07F7D183071ED1103AA0
:2031C00007D330B4B1E83810103AA0E83810F9D230BC530724BFB1E80810A0E8081044BFEE
:2031E00051F8043B40F8043BD20724BF31F8022B20F8022B44BF0B7803707047083A07D3AD
:20320000B1E80810083A40F8043B40F804CBF7D25307E4E70EB400B582B003A9009100ABBE
:2032200002460121034878440A3001F073FA06BC5DF810FBBD37000010B582B00121202016
:2032400001F014FA10208DF8030003208DF8020000240120A040ADF8000000A9DFF8580368
:20326000FFF77AFD641C0C2CF3DB04208DF8030000241020A040ADF8000000A9DFF83C0317
:20328000FFF76AFD641C042CF3DBDFF83443012000F017F8022000F014F848208DF80300D7
:2032A0008020ADF8000000A9C648FFF755FD0020C549FF22425443181A72401C0628F9DBA0
:2032C00013BDADF8000000A92046FFF745BD2DE9F843BD4CA06CB84D032604EB800189697C
:2032E00079B9400000F065F820B1A06C400006FA00F06861A06C401CA0640628A4BF00201C
:20330000A064A16C085DFF2851D004EB8100AF4F826932B93A6882613A680FF2C420FFF7A9
:2033200079FFA16C04EB810082693B689B1A112B3DD33B689A1A432A30D2480000F039F8DA
:2033400018BBA06C0121420001FA02F6015D01290CBF4FF001084FF000084FEA4609C0B25B
:2033600000F0F1F9804507D16E61C5F810903A68A16C0FF2802006E0C5F814902E613A68E2
:20338000A16C0FF28420FFF745FFA06C04EB80013A680A63015D00F025FE08E0FF220A55DD
:2033A000002282613A680FF27420FFF733FFBDE8F18306FA00F189B22846FFF734BD10B54A
:2033C000814A835C8B4204D0815402EB800300249C618018017210BD7B494018007A704717
:2033E0002DE9F04F85B00024A346A246A04601A80FF23C211022FFF7E2FE744800683328DA
:20340000C0F0C7800026724F6F4800EB86000090006B38B16D490968081A4FF4FA71884201
:20342000C0F0808007EB4600018B07EB8600406AFFF7F1FC05461DB1634830180121017470
:20344000F0B200F080F908B1C5F10105EDB200F0A4F8002814BFB01CC6F10700C0B20121A8
:2034600001FA00F05FFA80F90DB149EA0A0A01A805F1300100F8161053483018007C002815
:2034800059D049EA0B0BF019007AA8420CD00098006B48B9002D14BF0E210F210022F0B24A
:2034A00000F0AFFB0020F0550098002101634648305CFF281BD10095304600F0B3FA00F02B
:2034C000010080F001010098C0B288421AD00120F055F019007C30B931461320FFF75DFAF0
:2034E000F019012101740120B0400443E4B2F05DA8B149EA080837480078002814BF03213F
:20350000112107E0F01900210174007AA842EED0F15504E04FF0FF32304600F0EAFEF019E0
:20352000057208E0294800682B490818F86301A8772100F81610761C062EFFF665AF2348CB
:203540000068F96B401A41F2883188420AD35FFA88F25FFA8AF15FFA8BF0FFF7EDF91B48F8
:203560000068F8630D2201A907F1400000F060FE48B91648006842F21071B0FBF1F201FB23
:203580001200012805D10D2201A907F14000FFF716FE204605B0BDE8F08F80B58021094899
:2035A000FFF739FC401E8041C00F02BD012206210A4801F093B800000014014000080140BD
:2035C00000100140001801406C150020680E0020EC0C0020200E00207AECFFFF7C1500208F
:2035E0005225642D524553542028743D2564290A000000005225642D4F4646202028743DD4
:203600002564290A000000005225642D4F4E20202028743D2564290A000000005225642D4C
:203620004E4558542028743D2564290A000000002020202020202020202020200000000016
:20364000002817D0042801D102207047062801D104207047A0F561710C2909D2C10707D48F
:20366000A0F5617000EBD07040108000401D70474FF0FF307047002801D1012070470428B2
:2036800001D1022070470628F7D0A0F561700C2801D20420704700207047F8B500F02BF8AB
:2036A00007462046FFF7E7FF002F01D50120F2BD3188814201DA0220F2BD308002467A48C4
:2036C0003918284613E0F8B500F015F807462046FFF7D1FF002F01D50120F2BD31888842BD
:2036E00001D00220F2BD024629466F483818FFF759FD0020F2BD04460D461646A0E710B50A
:203700000446062C0BD2FFF748FF002818BFC4F10504E4B2644800EB8400807910BD0020BF
:2037200010BD10B50446062C0BD2FFF736FF002818BFC4F10504E4B25B4800EB8400407955
:2037400014E0002010BD10B50446062C0CD2FFF724FF002818BFC4F10504E4B2524800EB78
:2037600084004079400801E0002010BD00F0010010BD10B50446FFF710FF08B1C4F10504AD
:20378000E4B2062C04D2484800EB8400C07912E0002010BD10B50446FFF7FFFE08B1C4F104
:2037A0000504E4B2062C04D23F4800EB8400007A01E0002010BD00EB800010BD80B5FFF7C1
:2037C000B0FF08B14FF4FA7002BD37480079704710B5364C00F053F8B4F81D10884206D16A
:2037E0001D2221463048BDE81040FFF7DBBC206810F1010F08D000211D20FFF7CEF82C4A28
:203800001221062000F075FD10BD70B5264C274D688860801D222146284600F009FD68B320
:2038200060884FF6FE7188421CBF401C608000F026F8A4F81D0001F0A5F9284601F0B5F9A8
:2038400001F0ABF901F09EF9002654F8261005EB860001F0C8F9761C072EF6D1A18B05F1CB
:203860001C0001F0E1F9E88B00F47F40A17F014305F11E0001F0D8F901F08FF970BD1D221C
:203880002146002001F016BA38B50A4C0A4D28682168401A4FF47A71884203D3FFF798FF78
:2038A0002868206031BD0000E40D002000F80008A08601004C160020680E0020C9B2062910
:2038C0000CD22822DFF8043802FB003292F82530002B00D003E049B200208854704738B526
:2038E00000F088F9002180F82510002529462046FFF7E4FF6D1C052DF8DB31BD062802DB2F
:203900004FF0FF307047052128225043DFF8BC278318CB5C33B1012902D1835C002B01D146
:2039200048B27047491E0129F2DA00207047F8B50E4614461D462821DFF8902701FB0027EA
:203940004FF0FF318E4202BF012087F82500002607D097F8251021B1FFF7C1FF002087F8BA
:203960002500F45507EB86008560F1BD2822DFF85C3702FB003080F82410704710B504467B
:2039800000F050F80028204604D0FFF725FD48B1002104E0FFF720FD012803D001212046E0
:2039A000FFF70DFD10BD000070B5062838D2282101FB00F4DFF814576619FFF79FFF052822
:2039C0002ED8DFE800F003111F131F21605D002804D0012804D0032802D003E0022070BDBF
:2039E000032070BD002070BD052070BDF078012804D0F7D3032801D002D3F3E7092070BDA8
:203A00000D2070BD072070BD7079012804D0E9D3032801D002D3E5E70B2070BD0E2070BD06
:203A20000F2070BD2DE9F0410446FFF7BDFF05462046FFF7D1FC06462820DFF8901600FB67
:203A40000417022D11D00D2D0FD00E2D0DD0052D18D1DFF87C06D0F80080E0B2FFF7AEFE1A
:203A6000F968A8EB010181420CD2012E16D1E0B2FFF77FFE90B1386A80B10E2D0ED0002047
:203A8000BDE8F081002EFAD1E0B2FFF783FE0028F5D00B2DF3D0386A0028F0D00120EFE7A5
:203AA000062807D22821DFF8242601FB002090F824007047002070472DE9F8460024DFF8F0
:203AC00014964FF47A7ADFF808762820DFF8FC1500FB0415286AF0B12046FFF77DFC00283C
:203AE000E0B20ED1FFF756FE28B1E0B2FFF752FE00F060F80FD200220D21E0B200F081F8E6
:203B000009E0FFF736FE0028F5D0E0B2FFF731FE00F050F8EFD3002601E0012E16D0705D0B
:203B2000A0B105EB86018A6882B13968891ADFF8A82591420AD203280CBF8020002040EA21
:203B40000602D2B20C21E0B200F05BF8761C042EE3DB2046FFF7D2FE012826D13868E96818
:203B6000461AE0B2FFF7CBFD4EF660214843D9F8001090FBF1F0864205D300220B21E0B278
:203B800000F03FF811E009EB8405E0B2FFF716FE864209D3E0B2FFF711FE6968814203D250
:203BA00001212046FFF70BFC6E60641C062C8CDBBDE8F1860AFB00F039682A6A891A8842E6
:203BC000704710B500F016F890F82400DFF80C15415C41B92046FFF7E7FE0F2808BF0020D1
:203BE0000FF23861415C4FF0FF322046BDE8104000F07FBB04462820DFF8D01400FB04103D
:203C000070472DE9F04107460C4615463946062F04D30FF2D440FFF7FDFA25E0DFF8C0641F
:203C20002B460A4606EB840081680FF2F040FFF7F1FA384601F095F98046FFF7B5FEA7F14F
:203C40000C01C9B2062911D2002C2DD100F07EF90023012200214046FFF769FE4046FFF773
:203C60008DFE4046FFF7ADFFBDE8F081B91FC9B2062904D2002C17D100F068F9EEE72821A0
:203C8000DFF8482401FB082101F1200722000CD0012C37D00B2C47D00C2C48D00D2C58D072
:203CA0000E2C59D00F2C63D070E0397929B102291BD018D303291AD01DE002280BD9C01E57
:203CC0000ED0801E07D0801E0AD0801E08D0001F01D0801E0FD100F039F900F060F80AE0E1
:203CE00000F034F907E0022102E0032100E001214046FFF73BFE38790028AFD00120FEF772
:203D0000B4FDABE7387950B9307808B1012107E047F230521121404600F0EBFAEEE70021FE
:203D20004046FFF723FEE9E7052897D1A4E705F00F014046FFF7C2FD28068FD54046FFF7A8
:203D400033FE02288AD1DFF8880303680122012181E70020086281E738B1022805D003282E
:203D600003D0052801D00D2810D100F018F811E048B1022807D0032805D0052803D0072842
:203D800001D0092802D100F0E1F803E00E2C01D00F2CE0D1FF214046FFF711FB61E7002398
:203DA00001224FF0FF314046C1E52DE9F04780460E4615461F46FFF7F7FD04460F2C00F0BF
:203DC000C380DFF81093A6F12500112808D2424609EB860050F8781C0FF25030FFF71AFAEE
:203DE0002820BA4900FB0810DFF8E4A2252E26D0262E28D0272E59D0282E24D0292E55D02F
:203E00002A2E20D02B2E51D02C2E1CD02D2E4DD02E2E18D02F2E49D0302E14D0312E45D0B2
:203E2000322E10D0332E41D0342E3FD0352E3DD0502E00D0512E7DD0572E6BD07EE0012195
:203E400080F825107AE0022C78D0052C01D1002F74D1262E0CD0282E0AD02A2E0BD02C2E81
:203E60000BD02E2E0BD0302E0BD0322E0BD00EE000F06CF80BE0002106E0022104E003215D
:203E800002E0042100E005214046FFF717FD002F54D04046FFF788FD02284FD1DAF80030E5
:203EA000012201214046FFF742FD47E001214046FFF704FD4DB1DAF800008A496943D9F81C
:203EC000002091FBF2F10B1800E00023352E01D1022205E0342EFBD0002F14BF0322012278
:203EE000272E08BF4FF0FF31DCD0292E01D10021D8E72B2EFBD02D2E08BF0221D2D02F2E1A
:203F000001D10321CEE7352EFBD0312E14BF05210421C7E790F824108D420BD021B900223B
:203F2000404600F0E6F905E01DB947F230521121F6E70D46E9B24046FFF718FD4046FFF7AC
:203F40001DFD4046FFF73DFEBDE8F0874046C6E438B50446032904D022D305290ED019D320
:203F60001EE001252046FFF7BAFC012D14D10023012200212046FFF7DAFC0EE0FFF714FD6A
:203F80000028EED00228ECD00528EAD00D28E8D00E28E6D00025E5E715B92046FFF7EEFC90
:203FA0002046BDE832400CE64D48416801B9704710B5474A1268511A47F23152914210D336
:203FC000002101704160002400212046FFF7CEFC2046FFF7F6FD641C062CF5DB0020FEF75D
:203FE00044FC10BD38B504460025012904D1C0B2FFF7BFFB28B906E029B9C0B2FFF7CAFB61
:2040000008B1334805682820304900FB0410056231BD2DE9F04F85B000A80FF21811142248
:20402000FFF7CDF80FF22010FFF7F4F800260FF27C190FF2701A4FF47A7B254F0FF25C184A
:20404000741C21460FF24C10FFF7E4F8002528201E4900FB0616A85D00A951F820104046A2
:20406000FFF7D8F8A85D58B106EB8500806838B13968081A90FBFBF15046FFF7CBF802E0BA
:204080004846FFF7C7F86D1C062DE4DB96F8250018B10FF22010FFF7BDF8306A38B13968E6
:2040A000081A90FBFBF10FF21810FFF7B3F806A0FFF7B0F82646062EC2DB0FF21410FFF701
:2040C000A9F805B0BDE8F08F0A00000028140020680E00208C0C002000E1F505640E002045
:2040E0003C0D0020E093040053544D5F4576656E7448616E646C65722069676E6F726564C5
:2041000020696E76616C696420627574746F6E20696E6465783A2025640A000025732325D7
:20412000642028743D2564290A00000025732325640A00001C66000820660008246600086E
:20414000286600082C6600082D2D2D2D2D2D2D20535444202D2D2D2D2D2D20464C49202D73
:204160002D2D2D2D2D20434C4E202D2D2D2D2D2D204F5652202D2D2D2D2D2D204341202DFD
:204180002D2D2D2D2D2D20454D47202D2D2D2D2D2D0A000052454C41592564002020257302
:2041A000000000002825346429000000202020202020000020202874656D702900000000EA
:2041C00020204D696E4F6E4F66663D25640000002D2D2D2D2D2D2D2D2D2D2D2D2D2D2D2D0D
:2041E0002D2D2D2D2D2D2D2D2D2D2D2D2D2D2D2D2D2D2D2D2D2D2D2D2D2D2D2D2D2D2D2D1F
:204200002D2D2D2D2D2D2D2D2D2D2D2D2D2D2D2D2D2D2D2D2D2D2D2D2D0A0000030000012B
:20422000020B0C010201020102000003000000000300002013F0030F09D0521E22BF13F8EC
:20424000010B11F801CBB0EB0C00F3D07047121F22BF53F8040B51F804CB6045F7D0121D3D
:204260000AD200BA9CFA8CFCB0EB0C0038BF6FF0000088BF01207047521E22BF13F8010B06
:2042800011F801CBB0EB0C00F6D0521C08BF10467047000010B582B00121402000F0E6F952
:2042A00000F018F910208DF8030003208DF802001020ADF80000834C00A92046FEF74CFDAA
:2042C00010202061202000F00EF820206061042000F009F8042020614FF0FF320221062083
:2042E00000F007F813BDADF8000000A92046FEF733BD082800D3704710B5734B12F1010F16
:2043000004D1C25C8A420ED0C15410BD03EB800402B129B9C018002101722163216110BDD8
:204320002263C018017210BD2DE9F8430024FEF73EFC654D286D401C2865644EC1064CBF88
:204340000121022131600121020B02F00F029140491E89B20840022868EB08084FEAD87884
:20436000601990F8089005EB8407B9F1000F0DD03869296D08B939610AE03A6B081A82428C
:2043800006D2002200212046FFF7B3FF14F8059000F098FE2A6D02F48041B1F1010C6CEB79
:2043A0000C0C4FEADC7CA9F10109B9F1110F3FD8DFE809F0090C0F111713151A1C1E202205
:2043C00025272C31373C0123002133E00023012130E001232DE00B46F6E700232AE00B4637
:2043E00028E00B46614625E0012323E00B46EEE70023F7E74346E7E7002341461AE04346E6
:20440000FBE702F4003302F4803113E03969511A01F48053D8E700233969511A01F480516D
:2044200008E03969511A01F48051D8E70123F3E70023194602F01002062C0BD24FF480703C
:20444000A04022B109B170602FE030602DE0002BFBD0F8E710D13AB1002919BF10207060D1
:20446000102030602020EEE7002B19BF20203060202070601020E8E7072C16D1002B19BF68
:20448000042272600422326078B111B1FEF7B4FB0BE00F4F3846FEF731FE01213846FEF75D
:2044A0002DFE02213846FEF729FE641C082CFFF457AF95F85000C0064CBF022001207060A6
:2044C000BDE8F1830018014018150020101801400064004038B510208DF8030003208DF8C3
:2044E000020000F046F80120206100F04AF80220206100254FF48070A84000F043F86D1C21
:20450000062DF7DB0A2000F07FFE31BD38B50121402000F0ABF848208DF8030000F029F80E
:2045200000F02FF80025012005F10801884000F029F86D1C082DF6DB0A2000F065FE2046D4
:20454000806880B2000AC043C0B200F00F018D1C0011841CFFF7BEFF0A2095FBF0F10A22EE
:2045600002FB115194FBF0F0081A02FB0040C0B232BD0120ADF80000154C00A92046FEF782
:20458000EBBB0220ADF8000000A92046FEF7E4BBF8B50024FFF7BAFF0A2190FBF1F10122D0
:2045A0000C4B1D6802FA01F635431D605E680A2707FB110002FA00F03043586040F2FF31B4
:2045C0008D4208BF0124884208BF641CE0B2F2BD001801404016002030B536490A68364BA8
:2045E000364C02F00C02042A13D0082A18BF23460FD10A680D68C2F38342921CED0358BFC0
:204600002F4B05D50D68AD0348BF04FB02F300D4534303600B682B4A0468C3F303139B5C42
:2046200024FA03F343600B684468C3F302239B5C24FA03F383600B684468C3F3C2239B5C2A
:2046400024FA03F3C3600968C368C1F381318918097CB3FBF1F1016130BD1B4A0029116815
:2046600014BF084321EA000010607047174A0029116814BF084321EA000010607047144A39
:204680000029116814BF084321EA000010607047104A0029116814BF084321EA0000106093
:2046A00070470D4A0029116814BF084321EA000010607047041002400024F40000127A0000
:2046C00000093D003C0E002014100240181002401C1002400C1002401010024062F30F22A6
:2046E00062F31F4200B5130096469446103928BFA0E80C50FAD85FEA417C28BF0CC048BFE0
:2047000040F8042BC90728BF20F8022B48BF00F8012B00BD2DE9F04F93B017461C46019066
:2047200001AD69600020E8610CAE6FF0004802E0E869401CE861387818B9E86913B0BDE826
:20474000F08F252804D1002028616861A8610CE017F8011B6868019A904768600028E7D13C
:204760004FF0FF30EAE740F0010017F8011F2029F9D023290DD02B2904D02D2906D03029B2
:204780000AD00CE040F0020080B2EEE740F00400FAE740F00800F7E740F01000F4E72A2981
:2047A0000DD12268111D216011686962002904D54942696240F0040080B27F1C12E0002132
:2047C000696209E0696A414505D001EB810302EB4301303969627F1C3A78A2F13001C9B296
:2047E0000A29EFD339782E291CBF4FF0FF3129621DD117F8011F2A2906D12268111D216067
:20480000116829627F1C12E00021296209E0296A414505D001EB810302EB430130392962EF
:204820007F1C3A78A2F13001C9B20A29EFD3288539780FF2483000F0F7FC08B117F8010B69
:204840008DF82E009DF82E00682806D13878682803D162208DF82E007F1C0CA8E8603A78E9
:20486000252A13D0582A38D0632A00F0A080642A69D0692A67D06F2A2FD0702A21D0732A8E
:204880000AD0752A29D0782A27D098E02869411C2961252181559CE02168081D20600868E7
:2048A000A8602A6A002A02D500F0CAFC07E0002100F0E2FC00281ABFA968401A286A686108
:2048C00087E02168081D2060086800900CA8A860782100A800F0EBF87BE09DF82E306C2B8E
:2048E0000FD0712B0BD12068C01D20F007002060014601F108002060D1E9000105E06A2B6F
:20490000F1D02168081D206008680090682B04BF00A8008803D0622B02D100A8007800903F
:2049200095F8280000073CD50098002839D042F02000782835D1286930218155401C411C78
:20494000296182552DE09DF82E00622802D0682806D00BE02168081D206091F9000009E0D8
:204960002168081D2060B1F9000003E02168081D206008680090002804D52869411C2961D5
:204980002D210DE0288D810704D52869411C29612B2105E0C00704D52869411C29612021C4
:2049A000815528690CA94018A860114691E72869411C29612268111D216011686AE72869A0
:2049C000411C2961252181551AB12869411C296182557F1C686A2969401AA969401A696923
:2049E000A0EB010995F82800400707D42022494600A800F045F800283FF4B2AED5F810A06D
:204A00000DF1300BBAF1000F0ED01BF8011B6868019A9047686000283FF4A2AEE869401C34
:204A2000E861BAF1010AF0D13022A96900A800F027F800283FF494AED5F814A0D5F808B0F8
:204A4000BAF1000F0ED01BF8011B6868019A9047686000283FF484AEE869401CE861BAF157
:204A6000010AF0D195F8280040077FF564AE2022494600A800F004F800287FF45CAE6FE689
:204A8000F4B504460D46012D0FDB012600AF17F8011BA06862689047A06038B1206A401C3F
:204AA0002062761EF3D16D1EEFD10120F2BDF0B402696F2908BF082405D041F02003782B9B
:204AC00014BF0A241024182305682E46642901D0692902D1002D48BF76425EB9456A4DB90A
:204AE000082C27D190F82C10090723D517233021D1751FE05D1E2B46B6FBF4F704FB1766EA
:204B00003036F6B23A2E24BFA1F1510C6644AE543E0003D0C5689F18BD42EBD3082C09D1E1
:204B200090F82C10090705D5995C302902D05B1E30219954C3F1180181619A18C260426AC1
:204B4000914207DA511AC161818D4FF6EF721140818510E0002A0ED590F82C2002F0140230
:204B6000102A08D1826A4369D21AC369D21A531A012BA8BFC361F0BC70470000686C747A3D
:204B80004C00000000E00000DFF8F400DFF8F4100160DFF8F41001607047FFE7DFF8EC0046
:204BA000016841F080010160704738B5054600F017F804280FD1DFF8D440206840F00200DA
:204BC0002060656000F008F8052804D0216841F6FD721140216032BD206840F04000206037
:204BE0004FF4302056E0F8B507460C460020009000F032F8042816D1244D286840F0010091
:204C000028603C8000F028F841F6FE76042805D1B81C0090200C009900F01DF8052802D066
:204C2000296831402960F2BD70B504460D4600F013F804280ED1154E306840F001003060B6
:204C4000258000F009F8052804D0316841F6FE721140316070BD08804FF400501AE0042035
:204C60000B490A68D20701D5012070470A68520701D5022070470968C90648BF032070474C
:204C80000420024023016745AB89EFCD102002400C20024010B5FFE70446FFF7E0FF03E061
:204CA0002CB1FFF7DCFF641E0128F9D004B9052010BD000010B50FF2200307E011F8014BFE
:204CC00084EA202433F8144084EA00201446621E002C80B2F2D110BD000021104220633027
:204CE0008440A550C660E770088129914AA16BB18CC1ADD1CEE1EFF131121002733252226C
:204D0000B5529442F772D662399318837BB35AA3BDD39CC3FFF3DEE36224433420040114AB
:204D2000E664C774A44485546AA54BB528850995EEE5CFF5ACC58DD55336722611163006EB
:204D4000D776F6669556B4465BB77AA719973887DFF7FEE79DD7BCC7C448E5588668A7781B
:204D60004008611802282338CCC9EDD98EE9AFF9488969990AA92BB9F55AD44AB77A966A6B
:204D8000711A500A333A122AFDDBDCCBBFFB9EEB799B588B3BBB1AABA66C877CE44CC55CAB
:204DA000222C033C600C411CAEED8FFDECCDCDDD2AAD0BBD688D499D977EB66ED55EF44EEB
:204DC000133E322E511E700E9FFFBEEFDDDFFCCF1BBF3AAF599F788F8891A981CAB1EBA157
:204DE0000CD12DC14EF16FE18010A100C230E3200450254046706760B9839893FBA3DAB36B
:204E00003DC31CD37FE35EF3B1029012F322D2323542145277625672EAB5CBA5A8958985AA
:204E20006EF54FE52CD50DC5E234C324A01481046674476424540544DBA7FAB79987B897EA
:204E40005FE77EF71DC73CD7D326F2369106B01657667676154634564CD96DC90EF92FE91A
:204E6000C899E9898AB9ABA94458654806782768C018E1088238A3287DCB5CDB3FEB1EFB6A
:204E8000F98BD89BBBAB9ABB754A545A376A167AF10AD01AB32A923A2EFD0FED6CDD4DCDAA
:204EA000AABD8BADE89DC98D267C076C645C454CA23C832CE01CC10C1FEF3EFF5DCF7CDFEA
:204EC0009BAFBABFD98FF89F176E367E554E745E932EB23ED10EF01E38B501211020FFF78F
:204EE000C5FB01210420FFF7C1FB01210820FFF7BDFB01211020FFF7B9FB01212020FFF7AE
:204F0000B5FB04208DF8030000244A4D012005EBC40191F904108840ADF8000000A955F8A3
:204F20003400FDF719FF444800EB840000218160641C062CEADB31BD80B506280FD23D4A04
:204F4000012102EBC00393F90430994089B252F83000FDF760FF401E8041C00F02BD002011
:204F600002BD0146062808D30C2838BF891F04D3122834BF0C394FF0FF31084670472DE97C
:204F8000F8430024DFF8B4800FF20C192C4F2A4D05EB84062046FFF7CFFF88B3B06828B9B7
:204FA0003868B06021464846FEF734F93868B168421A44F62060824209DB605D042834D0C6
:204FC0000221E0B2FEF71DFE042060552DE0B2F5FA6F11DB605D02281CBF0020306202D1E3
:204FE000306A012821D00121E0B2FEF70AFE022060550120306218E0002A16D40120E4E7CA
:20500000605D04280ED002280CD001280AD198F8000010B1B068322804D300220021E0B250
:20502000FEF7EFFD00206055B060641C062CAFDBBDE8F183B40D0020B8150020200E002039
:20504000680E00201CB500A80FF254010CC90CC000242046FFF770FF00A9615C884201D05A
:20506000002016BD641C062CF3DB012016BD1CB500A80FF234010CC90CC000242046FFF7F9
:205080005BFF00A9615C884201D0002016BD641C062CF3DB012016BD2325640A0000000098
:2050A0000001000001000000010000000001000080B54E4801210170FEF778FA4C480F2163
:2050C000C17001BD2DE9F041484C2078002800F0898048490A68A369D21A0A2A76D3096864
:2050E000A161032803D2FFF753FA401C207001253F4E207803280BD1FEF74FFA40B10220DC
:20510000F0700020A070E07020710420207002E02078042822D1002705FA07F83846FFF738
:205120000BFF20B1A07848EA0000A07003E0207948EA000020717F1C062FEDDBA0782179B1
:2051400008403F280AD1FEF728FA38B9F5700020A070E07020710520207002E020780528EB
:2051600028D1607890B3002605FA06F7F0B200F036FA02280BD00DD3042804D00AD2A0785E
:205180003843A07006E0E0783843E07002E0207938432071761C062EE6DB00F02FF930B174
:2051A000A078E1780840217908403F2802D10620207002E02078062808D3FFF7A7F90E49F4
:2051C00008703C280CBF07200620207000F016F881790620FFF78DF800F010F8C179072059
:2051E000FFF787F82078BDE8F0810000200E00201C420008680E0020000C00204FF0FF32A6
:20520000207804EB4000704781B0002101E00099491C00910099034A126842439142F6D3CD
:2052200001B070476C0E00200278C9B28A421AB11CBF10F8012FF9E718BF0020704700003F
:2052400000F10103810704D010F8011B89B18107FAD10268B2F10131914311F0803F04BFB6
:2052600050F8042FF6E710F8011B11B110F8011BFBE7C01A70470000C9B2830706D0521E0E
:2052800022D310F8013B9942F7D11FE0083A13D302F1040241EA012141EA014150F8043BD1
:2052A000121F21BF4B40A3F1013C2CEA030C1CF0803FF3D0C9B2001F083210F8013B521E46
:2052C00028BF91EA030FF8D818BF0120401E7047012190F90420914089B20068FDF79BBDEE
:2052E0002DE9F041D64C2018850AEDB2052D45DA102943D2012000FA01F4A4B2D14E37681C
:2053000047F00107376001F00306B60021F00308DFF834C358F80CE00F27B740FF4307EA81
:205320000E0748F80C7058F80CE0B540ADB245EA0E0548F80C50C54D2E6826432E606E68B9
:2053400026436E60E643002AAA6814BF22433240AA60002BEA6814BF22433240EA600B2958
:2053600004D2002205290BD2891D01E001222821B74B01F01F01884043F82200BDE8F081E9
:205380000A29F4D21721F3E72DE9F04182B000F035F888B30025AF4E0FF2803404EB05184E
:2053A0004046FFF795FF06F8350006EBC50708F10800FFF78DFF78700020B87078606D1CD9
:2053C000062DEBD304208DF80300002504EBC50006790120B040ADF8000054F8357000A988
:2053E0003846FDF7B9FC0123012231463846FFF777FF6D1C0C2DE9DBBDE8F38180B50121E8
:205400009548FDF708FD00B1012002BD0FF2CC2151F82000002800D5704770B500EBD071C9
:20542000C905090EA0EB4104E4B28A4A02EBC105665D0FF2E82101EBC000FFF749FFC0B271
:20544000B0420ED060558548A978A14207D001686A68891A06292EBFAC700221A970006865
:20546000686070BD2DE9F04F87B0FFF7C7FF002807D07B4C00F0FBF920B106212046FDF7F3
:205480008DFEA9E005A80FF2E0110CC90CC0734D286800260FF2A01B0FF2A018DFF8B491B1
:2054A0000DF1140A0127F2B209EBC20148782B68D1F804C0A3EB0C030A2B13D319F8322052
:2054C00032B918B9887808B905270BE0032709E0897810B929B1042704E00229FBD0C82B89
:2054E00000D30227305D3946814223D010B13046FEF72EFD012F1DD0286809EBC6018A782D
:20550000002A0CBF42465A4604904868039002924878019019F83600009004EB870083687A
:20552000305D04EB8000826831460FF24410FDF771FE37559AF801000121C6F10702914084
:2055400008438AF80100305DF10758BF000105A901EB56018A7810438870761C062EA1D368
:20556000206A2968091A642936D32968081A41F28931884206D2052205A904F12800FEF72E
:2055800057FE48B3374E05AA052130784FF4C0731843FCF71BFE052205A904F12800FDF7F6
:2055A0000EFE28682062606AB0B1142100A8FDF7F5FD30784FF4C0710843009005208DF83E
:2055C0000A00052205A90DF10B00FDF7EBFD00A8FCF776FE0020606207B0BDE8F08F2049D2
:2055E000405C70472DE9FF4700240FF2BC081C4E11A712A5DFF85C90DFF860A0DAF80000CE
:2056000009EBC4018A78002A0CBF2A463A4603904868029001924878009019F83430A05DC0
:2056200006EB8000826821464046FDF7F3FD641C062CE3DBBDE8FF874F4646004F4E20000B
:2056400000F8FEBF18100240080001400004014000E100E0F0150020000C0140680E0020D4
:20566000840D0020000C0020400000000000000053572325642025732D2D3E257320284F38
:205680006E3D2564204F66663D2564204C6173743D2573204020253038782C20543D253095
:2056A0003878290A000000003E20535723256420257320284F6E3D2564204F66663D2564CF
:2056C000204C6173743D2573204020253038782C20543D25303878290A00000003000000A4
:2056E000020000000100000000000000FFFFFFFFFFFFFFFF0700000006000000050000009D
:2057000004000000FFFFFFFFFFFFFFFF0B0000000A0000000900000008000000000801401E
:2057200003000000000801400200000000080140010000000008014000000000000C01403B
:2057400009000000000C0140080000000010014007000000001001400600000000140140E7
:205760000F000000001401400E000000001401400D000000001401400C00000010B58CB0F3
:20578000624C204600F0DCF86148009061480190002002900320039000200490802005906D
:2057A0004FF4807006904FF480600790202008904FF40050099000200A9000A9204600F0A9
:2057C0001FF90121204600F036F90CB010BD10B586B0FFF7D3FF0020009001208DF8040064
:2057E0008DF805004FF4602002900020039003208DF81000484C00A9204600F059F9072350
:2058000001220F21204600F0A1F9072302220E21204600F09BF9072303220921204600F00F
:2058200095F90121204600F06AF90121204600F05DF9204600F06DF9204600F06FF900288F
:20584000FAD1204600F06EF9204600F070F90028FAD10121204600F070F9022000F0F4F82F
:205860000028FAD0022000F0FAF806B010BD38B5284C2088618822899042B8BF208162893D
:205880009142B8BF6181A2898242B8BFA081E2898A42B8BFE181214D2A682369D21A0A2A99
:2058A00024BF2A6822612A686369D21A42F210739A4224BF2A686261A1F24C4140F2A56282
:2058C000914204D2A0F5FA60B0F5036F0CD3A06918B90FF25000FDF79DFC2868A061104A97
:2058E00001210620FEF705FDA06900280BD02968081AFA2801D2012032BD0020A0610FF283
:205900003000FDF787FC002032BD0000080002404C240140040E002000240140680E0020A9
:20592000A086010042524F574E4F5554210A0000454E442D42524F574E4F55540A00000007
:2059400001684908490001600021016041608160C1604649464A904204BF086840F00F005B
:205960004CD0444A904204BF086840F0F00045D0414A904204BF086840F470603ED03F4A18
:20598000904204BF086840F4704037D03C4A904204BF086840F4702030D03A4A904204BFAF
:2059A000086840F4700029D0374A904204BF086840F0706022D03549354A904204BF086860
:2059C00040F00F001AD0334A904204BF086840F0F00013D0304A904204BF086840F4706096
:2059E0000CD02E4A904204BF086840F4704005D02B4A904203D1086840F470200860704727
:205A00000268284B1A408B681A430B6A1A430B691A434B691A438B691A43CB691A434B6AB4
:205A20001A438B6A1A430260CA6842600A6882604968C16070470029016812BF41F001010E
:205A400049084900016070470021C2004CBF164A164A1268024218BF012108467047C10069
:205A60004CBF0A49014908607047000004000240080002401C000240300002404400024079
:205A8000580002406C0002408000024004040240080402401C040240300402404404024002
:205AA000580402400F80FFFF00040240000002404268464B1A400B681A430B7942EA0322F9
:205AC00042608268424B1A40CB681A438B681A434B7942EA43028260C26A22F47002097C23
:205AE000491EC9B242EA0151C16270470029816812BF41F0010149084900816070470029FB
:205B000081681ABF4FF48072114321F4807181607047816841F008018160704780680006F3
:205B2000C00E07E0816841F004018160704780680006800E00F0010070470029816814BFF0
:205B400041F4A00121F4A0018160704770B507240A290BD3A1F10A0505EB4505C668AC40CB
:205B600026EA0404AB402343C36008E001EB41050669AC4026EA0404AB40234303611F2315
:205B8000072A0AD2521E02EB8202446B934024EA030391401943416370BD0D2A0AD2D21F7F
:205BA00002EB8202046B934024EA030391401943016370BD0D3A02EB8202C46A934024EA99
:205BC000030391401943C16270BD0000FFFEF0FFFDF7F1FF38B504460A2C04BF0D20FFF71F
:205BE000F9FF554DE1B2284600F03AFA4021284600F03EFA0028F9D0204632BD10B586B0AE
:205C0000012144F20500FEF731FD4FF40070ADF8000018208DF8030003208DF80200474CAF
:205C200000A92046FDF798F84FF48060ADF8000048208DF8030000A92046FDF78DF84FF44E
:205C4000E130019000200290ADF80C00ADF810000C20ADF80E00384C204600F061F901A9CD
:205C6000204600F09FF90121204600F0EFF906B010BD70B50C4615462E4603E014F8010B12
:205C8000FFF7A8FF3046461E0028F7D1284670BD38B5294C2021204600F0EAF9002849D0E5
:205CA000204600F0E1F900F07F043F2C01D0202C1FD10FF29000FDF7ADFA0FF2A000FDF708
:205CC000A9FA0FF2D400FDF7A5FA0FF20010FDF7A1FA0FF22010FDF79DFA0FF24010FDF718
:205CE00099FA0FF26810FDF795FA0FF29010FDF791FA732C01D0532C01D1FFF773FC722C31
:205D000001D0522C01D1FEF784F90D4D712C01D0512C05D13C2028600FF29C10FDF77AFADC
:205D20006E2C01D04E2C05D1012028600FF2BC10FDF770FA31BD0000003801400008014024
:205D40008C0C00200A436F6E736F6C6520446562756767696E673A0A000000002D2D2D2D0A
:205D60002D2D2D2D2D2D2D2D2D2D2D2D2D2D2D2D2D2D2D2D2D2D2D2D2D2D2D2D2D2D2D2D83
:205D80002D2D2D2D2D2D2D2D2D2D2D2D2D2D2D2D2D2D2D2D0A00000073206F7220533A2034
:205DA0002020202020205072696E74732053776974636820496E707574207374617465732D
:205DC00020616E642074696D65730A0072206F7220523A202020202020205072696E7473A5
:205DE0002052656C61792073746174757320696E666F0A003F206F72203C53706163653E26
:205E00003A205072696E747320746869732068656C7020696E666F0A0000000071206F72BF
:205E200020513A2020202020202053656C65637420717569636B2074696D656F7574732080
:205E4000287365636F6E6473290A00006E206F72204E3A2020202020202053656C656374A1
:205E6000206E6F726D616C2074696D656F75747320286D696E75746573290A002D2D2D2DAB
:205E80002D2D2D2D2D2D2D2D2D2D2D2D2D2D2D2D2D2D2D2D2D2D2D2D2D2D2D2D2D2D2D2D62
:205EA0002D2D2D2D2D2D2D2D2D2D2D2D2D2D2D2D2D2D2D2D0A0A000054696D656F757473F0
:205EC000206E6F7720696E207365636F6E64732028466C69636B2C204F766572726964658B
:205EE0002C20657463292E0A0000000054696D656F757473206E6F7720696E206D696E751B
:205F00007465732028466C69636B2C204F766572726964652C20657463292E0A000000008F
:205F200080B5454988420BD101214FF48040FEF7AFFB00214FF48040BDE80440FEF7A8BBCF
:205F40003E49884208D101214FF40030FEF7A9FB00214FF4003022E03949884208D101210C
:205F60004FF48020FEF79DFB00214FF4802016E03449884208D101214FF40020FEF791FB91
:205F800000214FF400200AE02F49884209D101214FF48010FEF785FB00214FF48010FEF724
:205FA00080FB01BD30B585B004460D46208A4CF6FF710840E98808432082A0894EF6F3117E
:205FC0000840A98808432989084369890843A081A08A4FF6FF410840A9890843A08200A864
:205FE000FEF7FAFA144884420CBF03980298296819225043A28912044CBF49008900B0FB6E
:20600000F1F16422B1FBF2F00001030902FB1311A3891B0406D5C9003231B1FBF2F101F08A
:20602000070105E009013231B1FBF2F101F00F010843208105B030BD0038014000440040EB
:2060400000480040004C0040005000400029818912BF41F400514DF6FF7211408181704754
:20606000C905C90D818070478088C005C00D704700220088084218BF012210467047000078
:2060800080B501210520FEF7F1FA01214FF00070FEF7F5FA01210120FEF7DFFA01214FF479
:2060A0000770BDE80440FEF7E1BA38B500208DF803003020ADF800006A4C00A92046FCF7AE
:2060C0004BFE0220ADF80000674D00A92846FCF743FE48208DF803000120ADF8000000A952
:2060E0002846FCF739FE48208DF80300F020ADF8000000A95D48FCF72FFE0320ADF800002D
:2061000000A92046FCF728FE31BD80B558494FF0006000F0F8F84FF4E06000F0C3F81420B2
:2061200000F004F8122000F001F801BD8DF8000000208DF801008DF8020001208DF803003F
:2061400000A800F0B4B84B48016841F00401016049480121018540F283318185012181815F
:2061600001804648016841F08041016070474448007887280FD1434845F2AA510180BFF31A
:206180004F8F4148016801F4E061404A11430160BFF34F8FFEE7704710B53D483D4909882D
:2061A0000160FFF76DFFFFF780FFFFF7AEFF62B6FFF724FD384CFEF7A9F92070FBF796FFA3
:2061C000FEF768F8FFF7BFFF00F0B2F8FDF734F8FEF782FEFEF736FF10B1FEF769FF0FE050
:2061E000207868B9FEF743FF50B1FDF70EFB00242A4A10212046FEF77CF8641C062CF7DB95
:20620000FDF7E6FAFFF7C0F8FFF7E1FAFCF7A2FA00F0DAF8224CFCF71CF8FCF773F8FDF713
:20622000C3FEFEF7ACFEFFF71DF9FDF750F8FDF7D7F8FCF7DAFBFFF79AFF2068B0F5FA7FF6
:2062400006D900210020FCF7ABFA0020FCF70DFBFDF732FCFDF718FBFFF71AFD00F0B2F89B
:20626000D9E7000000100140000C014000080140002000081C1002400008004000E100E0D8
:2062800058160020000000200CED00E00400FA0550160020FEEF0008000C00203F420F003D
:2062A000680E00201B4908431B490860704770B503781A460121C478ECB1174B1B6803F43F
:2062C000E063C3F5E0631B0A4478C3F10405AC4085780F2626FA03F32B4023431B010F4C66
:2062E0001355007842110E4B00F01F0001FA00F043F8220070BD50110A4A03F01F039940EB
:2063000042F8201070BD084A1140084307490860704700000000FA050CED00E000E400E0ED
:2063200000E100E080E100E080FFFF1F08ED00E080B5154800684FF47A71B0FBF1F0B0F194
:20634000807F04D30FF25000FCF764FFFEE70F490002000A401E48600D48F0220270002078
:2063600088600720086001BD0A480168491C016000D0704780B50168491C01600FF230004B
:20638000FCF748FF01BD0000600E002010E000E023ED00E0680E00205379735469636B2037
:2063A000636F6E666967204552524F52210A00005379735469636B20524F4C4C4F56455233
:2063C000210A000000F01BB880B545F2555000F00DF8062000F00DF840F2826000F00CF8A6
:2063E00000F00DF8BDE8014000F00EB809490860704709490860704708490860704705486D
:206400004AF6AA210160704702484CF6CC410160704700000030004004300040083000404C
:20642000425554544F4E5F505245535300000000425554544F4E5F48454C440042555454FD
:206440004F4E5F535455434B000000004E4F524D414C5F4F46465F434D4400004E4F524D44
:20646000414C5F4F4E5F434D440000004F564552524944455F4F4E5F434D440053434845AE
:20648000445F4F4E5F434D440000000053434845445F4F46465F434D44000000434C4541A0
:2064A0004E5F4F4E5F434D4400000000434C45414E5F4F46465F434D44000000535745455B
:2064C000505F4F46465F434D44000000464C49434B5F54494D45525F455850005052495F20
:2064E00054494D45525F4558500000004D494E4F4E4F46465F54494D45525F455850000047
:20650000554E45585045435445445F4F4E000000554E45585045435445445F4F464600005B
:2065200054454D504F524152595F4E430000000054454D504F524152595F4F4646000000AB
:2065400054454D504F524152595F4F4E000000004E4F524D414C5F4F464600004E4F524D3D
:20656000414C5F4F4E0000004155544F545249475F52454C000000004155544F5452494772
:206580005F4F4E00434C45414E494E475F52454C00000000434C45414E494E475F4F4E003F
:2065A0004F564552524944455F52454C000000004F564552524944455F4F4E00434F4D4DB1
:2065C0004F4E415245415F52454C0000434F4D4D4F4E415245415F4F4E000000454D4552BC
:2065E00047454E43595F52454C000000454D455247454E43595F4F4E00000000454D45521F
:2066000047454E43595F4F46460000004F564552524944455F4F4646000000002D2D2D00A9
:206620004F4E20004F4646004F4E2B003F3F3F0070473948016841F04001016037483849C9
:20664000016038494160012101610221016104210161354903E010220261202202610A681A
:20666000521C0A609203F6D41022426120224261F5E7FEE7FEE7FEE770477047704700B5C4
:2066800085B000AA00212948FCF752FD00A8FCF77AFA00A8FBF714FE05B000BD70472448F7
:2066A00000210180704780B5FDF73EFE21480021018001BD10B50446FEF7A8FE0120A040A8
:2066C0001D49086010BD0020F4E70120F2E70220F0E70320EEE70420ECE738B5164804688B
:2066E00005250120A84004421CBF2846FFF7E2FF6D1C0A2DF5DB31BD38B50F4804680A25A4
:206700000120A84004421CBF2846FFF7D3FF6D1C102DF5DB31BD00001810024000180140D2
:206720003343334444443333541600200064004010000040100800401404014082B03348A2
:20674000016841F0010101604168314A114041600168304A11400160016821F48021016011
:20676000416821F4FE0141604FF41F018160002101910091016841F480310160016801F425
:20678000003100910199491C0191009919B90199B1F5A06FF2D10168490C01F001010091E7
:2067A0000099012930D11C490A6842F010020A600A68920892000A600A6842F002020A6076
:2067C0004168416041684160416841F4A0614160416821F47C114160416841F4F811416031
:2067E000016841F08071016001688901FCD54168890889004160416841F00201416041685E
:2068000001F00C010829FAD102B07047001002400000FFF8FFFFF6FE002002402DE9F04131
:2068200000F10801026801EB820243685808400002EB800000240025264601270CE014F8F7
:20684000018BF44506D00CF8018B761C36B2002EF7D40127F44513D1824201D1BDE8F081A9
:2068600052F804CB5FEAC37E48BFCC4452F804EBE644EFE70C686418091D51F8045B2D1921
:20688000AC42F7D05FB114F9016B002705E00C686418091D51F8045B2D19AC42F7D0002EC7
:2068A000CDD436B2002ED4D4F44518BFAC421EBF14F8018B0CF8018B761EF2D1CAE700006E
:2068C00053756E004D6F6E0054756500576564005468750046726900536174003030300000
:2068E0004A616E00466562004D617200417072004D6179004A756E004A756C004175670093
:20690000536570004F6374004E6F76004465630010B5084979441C31074C7C441A34A14286
:2069200006D0081D0A68511888470146A142F8D110BD00BF300000005800000010B582B0B4
:20694000044614F1010F0AD08DF80000012200A90120FFF78EF9012801D1204616BD4FF09C
:20696000FF3016BDD3C4FFFFEC070000700E002000000000A9FEFFFF020000000200000046
:2069800062010000C4010000000C00207002000053746172747570003F3F3F0052454C009E
:2069A0004F4E00004F464600505245535300000000F009F8002801D0FFF7AAFF0020FFF733
:2069C000EBFB00F005F880B5FFF7B8FE012002BD80B500F001F800BF0746384600F002F891
:2069E000FBE7000001491820ABBEFBE72600020038B504460D462846FFF7A0FFA84218BF72
:206A00000024204632BDC046C046C046C046FFF7CFFFFFF70DBEFFF70CBEFFF72ABEFFF7CC
:206A200029BEFFF728BEFFF727BEFFF726BEFFF725BEFFF799BCFFF7FEBFFFF7FEBFFFF75E
:206A4000FEBFFFF7FEBFFFF7FEBFFFF7FEBFFFF73ABEFFF73ABEFFF73ABEFFF73ABEFFF7B2
:206A60003ABEFFF7FEBFFFF7FEBFFFF7FEBFFFF7FEBFFFF7FEBFFFF7FEBFFFF7FEBFFFF743
:206A8000FEBFFFF70BBEFFF7FABDFFF7FEBFFFF7FEBFFFF722BEFFF7FEBFFFF7FEBFFFF735
:206AA000FEBFFFF7FEBFFFF7FABDFFF7FEBFFFF7FABDFFF7FEBFFFF7FEBFFFF7FEBFFFF74A
:206AC000FEBFFFF7FEBFFFF7FEBFFFF7FEBFFFF7FEBFFFF7FEBFFFF70FBEFFF7FEBFFFF70E
:206AE000FEBFD0004FC0680008C4680008C8680008CC680008D0680008D4680008D868001E
:206B000008DC680008E0680008E4680008E8680008EC680008F0680008F4680008F86800A5
:206B200008FC6800080069000804690008086900080C690008F4000001E50043206500085B
:206B40003065000840650008506500085C65000868650008786500088465000894650008B9
:206B6000A0650008B0650008BC650008CC650008DC650008EC650008FC6500080C66000804
:206B8000E800231000200040008000010002000008014000080140000801400008014000D3
:206BA00010014000100140FC000B3F203F203F203F203F203F20F4003F206400083064009F
:206BC000083C6400084C6400085C6400086C6400087C6400088C6400089C640008AC6400B5
:206BE00008BC640008CC640008DC640008EC6400080065000810650008F800179069000893
:206C0000986900089C690008A0690008A4690008A8690008F8000040F8000310014008FC97
:206C2000000310014009FC00031001400AFC00031001400BFC00031001400CFC00031001D6
:206C4000400DFC00001FFD0015010A0000010A0000010A0000010A0000010A0000010AF385
:206C600000030F270F27F4000001F4000B020003000103000100030302F5000F0102030491
:206C8000010203040607080902040608F80010010203040607080900A24A04000504060188
:206CA000FD000005FD000000FFFFFFFFFFFFFFFFFFFFFFFFFFFFFFFFFFFFFFFFFFFFFFFFED
:206CC000FFFFFFFFFFFFFFFFFFFFFFFFFFFFFFFFFFFFFFFFFFFFFFFFFFFFFFFFFFFFFFFFD4
:206CE000FFFFFFFFFFFFFFFFFFFFFFFFFFFFFFFFFFFFFFFFFFFFFFFFFFFFFFFFFFFFFFFFB4
:206D0000FFFFFFFFFFFFFFFFFFFFFFFFFFFFFFFFFFFFFFFFFFFFFFFFFFFFFFFFFFFFFFFF93
:206D2000FFFFFFFFFFFFFFFFFFFFFFFFFFFFFFFFFFFFFFFFFFFFFFFFFFFFFFFFFFFFFFFF73
:20EFE000FFFFFFFFFFFFFFFFFFFFFFFFFFFFFFFF4200524D3630362D4D61696EFFFF25C807
:040000050800146D6E
:00000001FF
