:020000042000DA
:10000000404F0020ED000020AD040020AD04002092
:10001000AD040020AD040020AD040020000000006D
:10002000000000000000000000000000AD040020FF
:10003000AD04002000000000AD0400201D080020D9
:10004000AD040020AD040020AD040020AD0400206C
:10005000AD040020AD040020AD040020AD0400205C
:10006000AD040020AD040020AD040020AD0400204C
:10007000AD040020AD040020AD040020AD0400203C
:10008000AD040020AD040020AD040020AD0400202C
:10009000AD040020AD040020AD040020AD0400201C
:1000A000AD040020AD040020AD040020AD0400200C
:1000B000AD040020AD040020AD040020AD040020FC
:1000C000AD040020AD040020AD040020AD040020EC
:1000D000AD040020AD040020AD0400209D090020E7
:1000E000AD040020AD040020AD040020DFF818D0DE
:1000F000064B4FF0A531064A196003F10403934201
:10010000FAD10020034B1847404F0020404C0020FC
:10011000005000201D1400205D010020110D002062
:10012000F8B500BFF8BC08BC9E467047F8B500BFE4
:10013000F8BC08BC9E46704710B5054C237833B90F
:10014000044B13B10448AFF300800123237010BDAA
:100150002C1B002000000000301A002008B5034BC3
:100160001BB103490348AFF3008008BD0000000045
:10017000301B0020301A0020034613F8012B002A00
:10018000FBD1181A013870473038362840D8DFE8DC
:1001900000F01C20232527292B2D2F313F3F3F3FE7
:1001A0003F3F3F333537393B3D3F3F3F3F3F3F3F89
:1001B0003F3F3F3F3F3F3F3F3F3F3F3F3F3F3F3F4F
:1001C0003F3F3F333537393B3D00002301200B7063
:1001D00070470120087070470223F7E70323F5E713
:1001E0000423F3E70523F1E70623EFE70723EDE711
:1001F0000823EBE70923E9E70A23E7E70B23E5E711
:100200000C23E3E70D23E1E70E23DFE70F23DDE710
:1002100000207047F0B585B06C46B0EB430F84E822
:1002200003004FEA430721D3019D00262C46631BA0
:100230009F421ED994F900000DF10F018DF80F6057
:100240008DF80E60FFF7A0FF80B194F901000DF169
:100250000E01FFF799FF023440B19DF80F109DF891
:100260000E3043EA011302F8013BE0E7002005B03D
:10027000F0BD0120FBE72DE9FF4100256B46064656
:1002800083E80300156020B90024204604B0BDE8CF
:10029000F081019F97F900402D2C05D0302C1FD004
:1002A000002CF2D02C4602E001240137461E4FF00C
:1002B0000A083E44B7421ED017F9010BC3B28DF8AD
:1002C0000F30C3B1D5B10DF10F01FFF75DFF00286D
:1002D000DAD011689DF80F3043EA01131360E9E7A3
:1002E0000128DFD097F901007828DBD12C460237AE
:1002F0000125023EDBE76CB90124C6E72F2BC3D9E9
:10030000303BDBB2092B8DF80F30BDD8116808FBEC
:100310000133E3E713685B421360B6E70388C21852
:1003200001339BB29170038018440023837070479F
:10033000F0B541F221060144814215D0082410F89D
:10034000015B138885EA132717F0800F4FEA4303F8
:1003500004F1FF3418BF73406D0014F0FF049BB22A
:10036000EDB2EFD11380E7E7F0BD0022C0E9002233
:10037000704700004FF440338360044B0362044B2A
:10038000C361044B8361402343717047204C0020BC
:100390000048002000010002BFF35F8FBFF34F8FC2
:1003A000BFF36F8F70470000014B1868704700BFA4
:1003B000DC290020034B044A5A6002F188325A605B
:1003C000704700BF0020024023016745837A10B5C3
:1003D000D0E900428B424FF0010308BF1032934036
:1003E000C173236110BD0000017AF0B4437B047B2C
:1003F00031B14A1E012A27D900221346144607E0CC
:10040000837B022B30D81D4AD45C1D4AD25C0B463C
:100410000F27456843EA84030468072D05F00706A3
:1004200088BF04342568B600B34007FA06F625EA0B
:1004300006052B43236019B943689A400368DA60C4
:10044000C17AF0BCFFF7C2BF621E54425441022978
:1004500008BF44F00204012B04D009D9023B012B50
:1004600009D900230022D3E70A460B460C46CFE702
:1004700000220223CCE700220323C9E7FC17002057
:10048000FF17002038B50024064A074D936943F052
:100490007C03936128191834FFF7A6FFA82CF9D123
:1004A00038BD00BF001002403C1A0020044B82B04F
:1004B0005B68C3F308030193019B00BEFEE700BF26
:1004C00000ED00E00422036830B545680F2005F018
:1004D0000701072D4FEA810188BF9B1802FA01F43A
:1004E0001A6800FA01F122EA010222431A6030BDC3
:1004F0007E23437170470000074BDA68520709D426
:10050000D86810F0100018BF0220DA6842F0140218
:10051000DA6070470120F8E7002002402DE9F84337
:1005200043790146012B04D10022644B1A60BDE8D7
:10053000F88390F83530624DFF2B31D10020020155
:10054000AA5CC6B2802A05EB00133FD1FFF724FF57
:100550005A78022A3AD19A7891F83140944235D1AA
:10056000DA7891F8347002F07F02BA4203F10304A2
:100570002CD118790020187181F835605E79587196
:100580009E799871DE79D871DB781B0655BF0132F0
:10059000237802F07F0281F8343058BF81F834208C
:1005A00091F8354005EB04135868D3F808805F686C
:1005B000DA6808EB070616F0010F5B680DD001231F
:1005C0008B6041234B71B2E70120B8E70028FBD0D4
:1005D00091F83530FF2BE3D1A9E7D21A012A01D8CF
:1005E0000223EDE7DFF8DC90374BD9F8102003EB5E
:1005F00004231B5A42F00102C9F8102028F80730E2
:10060000D9F80C4014F00104FAD1FFF775FFD9F8BE
:10061000103023F00103C9F810308860002886D11B
:1006200091F83530FF2B03D101238B608323C9E779
:100630004FEA031905EB03135A6802325A6003F1BB
:100640000802D3F804E0D2F804C0E64501D9022339
:10065000EBE7D3F804C0526894450AD15870FF23E1
:1006600091F83440FFF798FEE40905F8090081F895
:100670003530124818F807300268144F5340DA43F7
:10068000082342F30005013B3D4013F0FF0385EAD8
:100690005202F6D173785340082243F30005013A21
:1006A0003D4012F0FF0285EA5303F6D1DB430360BD
:1006B000002C3FF43CAF0B62402383E72C2C00203E
:1006C000204C002000200240004800202083B8ED8C
:1006D000437910B5012B04460D4908D10B6943F04D
:1006E00004030B610B6943F040030B6110BDCB6841
:1006F000DB07FBD4FFF700FFA0600B6923F00403C6
:100700000B6110B17F236371F0E74023FBE700BF6B
:100710000020024038B50446C0680D4620B188422A
:1007200002D00830FFF7CEFEE06820B1A84202D028
:100730001830FFF7C7FEE36833B1986A20B1AB6A9F
:10074000984201D0FFF7BEFE01222379607903F1C0
:10075000804303F50433196882400A43E5601A6058
:10076000237AA17A03F1804303F580331A68607A13
:1007700022EA0102E17A81400A431A602846A279FE
:100780001F4B50F8085BB3FBF2F3B3FBF5F5FFF733
:100790002BFEE0681830FFF727FEE368986A08B17F
:1007A000FFF722FE23689D60DA6842F02002DA60DB
:1007B00094F90730E279002B1BDB002203F1604340
:1007C00003F5614383F8002394F90730E279002BA5
:1007D00007DB02F01F0101228A400A495B0941F848
:1007E00023202268D36843F4005343F00C03D36002
:1007F00038BD054B02F00F02134400221A76E3E7DE
:1008000000127A0000E100E0FCEC00E0014902483F
:10081000FFF780BF001B0020DC1A0020024A13688B
:1008200001331360704700BFDC290020034682B00B
:10083000EFF3108072B68DF807001A480278013283
:10084000D2B2012A027002BF9DF807C0164A82F890
:1008500000C0BFF34F8FBFF36F8F1A69FAB1DA6828
:10086000D3F800C01CF802200A70D3E90321013933
:100870000132C3E9032159688A420CD0002203786F
:10088000013BDBB203701BB9074B187880F310886B
:10089000104602B0704700210A46D960EFE74FF0DA
:1008A000FF32ECE7811F0020801F002013B50024D9
:1008B00008480DF107018DF80740FFF7B7FF30B981
:1008C0009DF80700431F5842584102B010BD204612
:1008D000FBE700BFEC1A0020044A1388013B9BB2DF
:1008E0001380134400229A70704700BFD41F002069
:1008F000502300BF013BFCD1704700BF08B5C3685F
:100900009B6A63B1026813685B06FCD5FFF7F0FFD2
:10091000C3680021986ABDE80840FFF757BD08BDCD
:10092000014682B0EFF3108072B68DF80700184AC6
:1009300013780133DBB2012B137002BF9DF807005F
:10094000144B1870BFF34F8FBFF36F8F124B586962
:10095000D3F820C0844510D291F800C01869996975
:1009600000F801C0D3E9050101318142996104BF5A
:1009700000219961196A013119621378013BDBB2D8
:1009800013701BB9034B187880F3108802B07047BE
:10099000811F0020801F0020DC1A002013B5084CA6
:1009A00023681A6812F0280F07D05B680DF1070062
:1009B0008DF80730FFF7B4FFF2E702B010BD00BFBB
:1009C000DC1A0020806A08B530B10121FFF7FEFC77
:1009D000BDE80840FFF78CBF08BD000038B50446ED
:1009E000084D2A6813681906FCD5E868FFF7EAFF86
:1009F0002B681A681206FCD55C600248BDE83840D6
:100A0000FFF77CBFDC1A002038B504464518AC421D
:100A100004D014F8010BFFF7E1FFF8E738BD37B554
:100A20000C46054602AB03E9030001462046FFF7EA
:100A30007FFC2946204603B0BDE83040FFF7E4BF05
:100A400038B50446C0680D46FFF7BCFF074A013DB4
:100A500007D312F8011B236818680006FCD55960FB
:100A6000F5E72046BDE83840FFF748BF481B0020A7
:100A700082B02DE9F04F914600251A464FF0FF371E
:100A800085B0019110990F93041DC3F1010B4D45E1
:100A900024DA54E901A60BEB0A03002BACBFF318D0
:100AA000331CA8460093009B9E4213D03046CDE9EC
:100AB000021200F00FFDDDE9021248B992450ED096
:100AC000002F04DBAF4203D04FF0FF3807E02F4682
:100AD0000136E8E7019B01351C44D8E7B84640469B
:100AE00005B0BDE8F04F02B0704700002DE9F043BB
:100AF00004460F461E46904687B01AB9042007B038
:100B0000BDE8F083214DD1E900322846CDE9043219
:100B1000009218210722FFF7ABFF0028EEDB182315
:100B20005843012C00F1080305EB030907D0022C00
:100B30001AD044BB4846FFF757FC0020DFE7B8F166
:100B4000010FDBD0D7E9020104AB83E8030003AA5D
:100B5000FFF791FB03990028D0D0003918BF01217D
:100B60004846FFF733FCE8E7EB5805449968EB6823
:100B70003046D940AB7C01F001015940303149B2D7
:100B8000FFF7CCFBD9E70120B9E700BF341A0020FA
:100B9000F0B585B004460D4616466F46124B03F17C
:100BA000100C3A4618685968083303C26345174663
:100BB000F7D12544A54214D0237804AA02EB1313DD
:100BC000304613F9101CFFF7A9FB14F8013B30461F
:100BD00003F00F0310336B4413F9101CFFF79EFB57
:100BE000E8E705B0F0BD00BF181500202DE9F0437F
:100BF00087B081460D46984614460F9E0AB90420D8
:100C000027E0D1E900323C48CDE9043200920C21C2
:100C10000122FFF72DFF0028F1DB05F10807601E18
:100C2000B9F1030F66D8DFE809F00217284A80B14E
:100C3000D5E902320C21CDE9043200922F4801227D
:100C4000FFF716FF0028DADB2D492E48FFF762FD7B
:100C5000002007B0BDE8F0830028FAD097E8030031
:100C6000AC68294A64082346FFF7D4FA0028C6D0A6
:100C700021462448FFF7E4FEEAE70028E9D097E898
:100C8000030004AC84E8030003AAFFF7F4FA039D11
:100C90000028B4D0B5F5806FB1D800241A4E1B4F90
:100CA000A54206D038463119FFF7C0FD08B9013416
:100CB000F6E7424621461448FFF76AFFC8E70028D6
:100CC000C6D097E80300012304AAFFF7A3FA00287F
:100CD00095D04FF480629DF810100B4800F0D4FBC3
:100CE000084CB0470028B3D14FF480612046FFF78D
:100CF000A7FEF6E70120ACE7F8180020EC1800206A
:100D0000001B0020DC1A0020481B0020EC1A0020E9
:100D1000014B024A1A607047481F00200C1900203E
:100D20002DE9804891B072B64FF0E02341F63F7252
:100D3000F0215A619A4A002582F8231007229D610A
:100D400029461A619748102200F09EFB102229467E
:100D5000954800F099FB954C954B964A84F8315094
:100D6000954F5A6002F188325A607D70FFF714FB8C
:100D70003D7062B6914D0023DFF844828DF8153046
:100D800090480DF11501FFF751FD8146002840F014
:100D90006E819DF815B0BBF1080F09D12B88002B8F
:100DA000EED003218848FFF72FFEFFF795FDE7E718
:100DB000BBF10A0F40F033825846FFF70FFEB5F83B
:100DC00000A0BAF1000F06D15846FFF707FE3E20FB
:100DD000FFF704FED4E7DFF8E88198F800306BB144
:100DE0004FF4017C794E7A48336840F20322294659
:100DF0000CFB030000F060FBC6F80090002688F8AA
:100E000000604FF6FF78BAF1040FDFF8C89106963C
:100E1000ADF8168040F2868005EB0A0313F9033C17
:100E20007E2B7FD1AAF1040A09EB0A063046FFF7B0
:100E3000A3F9CDE90B060DF12C0A02239AE8030071
:100E400009AAFFF7E7F90646C0B1FFF745FD484696
:100E5000FFF742FDFFF740FDFFF73EFDFFF73CFDCA
:100E600052462988ADF82C80FFF762FABDF824308D
:100E7000BDF82C205BBA9BB29A4253D000264FF0AB
:100E8000050807230B93544B0DF12C090C9399E89B
:100E900003000DF11602FFF7C2FD50480DF11602D6
:100EA00000EBC80898E80300FFF7B9FD04230B9393
:100EB0004B4B0DF116020C9399E80300FFF7AFFDC1
:100EC00000210846069ADFF81CC1CBB2002A40F088
:100ED0009A81002B00F0978100B1069203F1FF3850
:100EE0005FFA88F809EB080001210DF11602FFF7FF
:100EF0001FFA08F140036B4408F1FF3813F8140C93
:100F00005FFA88F8FFF76AFDB8F1FF0FEAD1022314
:100F10000993354B022019460DF116020A93FFF78B
:100F20007EFD6EE0002188460B460A462888DFF8E1
:100F3000A4C0DFF8B8E090425ED99A421AD1B8F165
:100F40000A0F40F0C980DFF8A4A0DAF80020D146EB
:100F5000042A40F01A812649DAF8040000F09CFACD
:100F6000002840F012810223DFF88880DFF87890B3
:100F70000293DAE040F2B080B8F1080F40F2AC80A2
:100F80001A49D21AC01A824294BF41F8382041F857
:100F900038004B4401EBC8014B6008F101082DE01B
:100FA00000ED00E0204C0020304C0020481F0020C5
:100FB0000020024023016745004C0020D41F002080
:100FC000282C0020EC1A002029150020202A0020BF
:100FD000242A0020D61F00203215002004180020EB
:100FE0003A1500203F15002037150020841F0020EF
:100FF0002D150020341800209A42C1D8B8F1000FF6
:10100000A1D1DFF8A8824FF00009C2463AF8023BAE
:101010000DF1160251461846CDE9073AFFF7FFFCDD
:10102000A5F8009085F80290A8F8009088F8029042
:10103000BEB1BDF8163002211A0A8DF82C200BA87B
:1010400042468DF82D30FFF7A3FD7E20FFF7C6FC4A
:101050005046B8F80010FFF7D7FCA8F8009088F8C1
:1010600002900A20FFF7BAFC3E20FFF7B7FC3B785E
:10107000802B40F062817B78012BDAB240F09281C4
:10108000BB788B4B8B4E84F8302003F1200C32461A
:1010900018685968083303C263451646F7D1FA78D1
:1010A000112AD3B200F0F18000F2E680012B00F0AB
:1010B000EF80102B00F0EF80002B40F0F480012235
:1010C0000823C4E90A32002B40F00481002A40F0D2
:1010D00001817E2363712AE101291CF901AB06D04D
:1010E000BAF1200F1CBF13460121013223E7BAF1E8
:1010F000200FFAD1D11AA0EB030A514594BF4EF844
:1011000038104EF838A00EEBC80109EB030AC1F8FD
:1011100004A008F101080021E7E7029B08F1240878
:10112000012B3FF46EAF012302934FF0000BD8E97F
:101130000010D8F818300393FFF766FC02214846E8
:10114000FFF762FCD8E90710FFF75EFC0A20FFF703
:1011500045FCD8F814A0039B0AF1100A5B45DCD0CB
:101160002020FFF73BFC5AE90410FFF74DFC022159
:101170004846FFF749FC5AE90210FFF745FC0A20F0
:10118000FFF72CFC0BF1010BE5E7B8F1010F31D0B3
:1011900099E80300DFF820910BAB83E803000222FB
:1011A0000346009148462421FFF762FC002824DB17
:1011B000DAE90232242101FB0090D0F80C90B9F159
:1011C000000F1AD0CDE90B320092102182694069DC
:1011D000FFF74EFC002813DB384BA8F10202019305
:1011E00006AB00933649314BC847804600287FF450
:1011F00048AE06E74FF0040843E64FF0030840E628
:101200004FF001083DE602F00F001CF800004033EB
:101210006B4403F8140C12090120013155E6BBF1AF
:10122000210F2E8817D1DFF89C90F6B236B103213A
:101230004846013EFFF7E8FBF6B2F7E740F203222B
:101240002149284600F038F929882048FFF7DCFBBF
:1012500088F8006094E5B6F5007FBFF491AD0123F6
:1012600088F80030AB190136B6B283F802B02E8090
:101270002E44B0705846ABE5502B0ED07F2B0FD0CC
:10128000402B10D1012218231BE70122142318E759
:101290001A460C2315E7012213E701221C2310E74D
:1012A00000220B4B0DE7002213460AE7D82100204D
:1012B000004C00204C1F002034180020AD080020F6
:1012C000941F002029150020242A0020D61F00206A
:1012D000750300200021A1604FF47F416186A18643
:1012E000012184F824100AB12268D358464898474F
:1012F0006379022B19D1236A444E012B8CBF022340
:101300000123434A84F8243006F1200C334603CBF2
:10131000634510601E46516002F10802F6D1A368D1
:10132000002B14BF7F230023D4E63F2BF7D90223E1
:101330007B700023FFF730F83B70364E33689847D8
:1013400094F830309BB163793F2B10D833689847BD
:10135000E36A5A1004EB6300DB0747D4A36A98479B
:1013600063793F2B3CD9336898473368984700230B
:101370009846294918010E5C01EB0312802E0CD10E
:101380009678002E36D082F801800A18527802F042
:10139000FF0612B9FFF700F80E54002B7FF4EBACF8
:1013A0000123E7E77A7802F0FF03002AC1D194F81D
:1013B0003020002ABDD062793F2ABAD9134EC4E941
:1013C0000A33134A84F8303006F1200C334603CB3D
:1013D000634510601E46516002F10802F6D1A8E78D
:1013E000A368002BBFD07F236371BCE7A258A36A18
:1013F000D358B4E75678002EC7D0967894F830606A
:10140000002EC2D15670C0E7481F00204C1F00209C
:10141000004C0020301A0020204C002008B5124A51
:10142000124B13489A60134A0021121A00F02CF84C
:101430000026114D114C641BA410B4420AD1FEF7D2
:101440006FFE00260E4D0F4C641BA410B44206D153
:10145000FFF766FC55F8043B98470136EDE755F871
:10146000043B98470136F1E70000002000ED00E062
:101470002C1B0020302C0020180100201801002017
:10148000180100202001002003460244934200D1AD
:10149000704703F8011BF9E710B501390244904287
:1014A00001D1002005E0037811F8014FA34201D0DB
:1014B000181B10BD0130F2E70A44914200F1FF33DE
:1014C00000D1704710B511F8014B914203F8014F5C
:1014D000F9D110BD70B504460E4E0A448A4201D1BE
:1014E000002013E014F8013B985D00F00300012890
:1014F00011F8010B08BF2033355C05F00305012D01
:1015000008BF20301B1A02D10028E7D170BD184651
:10151000FCE700BF2D190020303132333435363727
:101520003839616263646566000820080068656C8C
:1015300070004552524F523A20003A203078003025
:101540003132333435363738394142434445460029
:10155000434F4E46003C75617274206E616D653E6E
:10156000203C636F6E666967206E616D653E2E205C
:10157000436F6E6669677572652074686520706573
:10158000726970686572616C207769746820616E39
:10159000206578697374696E6720636F6E6669672A
:1015A00075726174696F6E0057003C7561727420CA
:1015B0006E616D653E203C68657820737472696E5B
:1015C000673E2E205472616E736D6974206461747D
:1015D000612066726F6D2074686520554152540019
:1015E00052003C75617274206E616D653E203C2333
:1015F0002062797465733E2E204E6F6E2D626C6F83
:10160000636B696E672072656365697665207570C6
:1016100020746F2060232062797465736020627982
:101620007465732066726F6D20746865205258204F
:101630006275666665720054455354003C7561726C
:1016400074206E616D653E203C6865782062797417
:10165000653E2E20436F6E74696E756F75736C797D
:10166000207472616E736D6974207468652068659A
:1016700078206279746520756E74696C2074686571
:1016800020636F6D6D616E6420697320696E74658F
:1016900072727570746564003C6770696F206E616A
:1016A0006D653E2E20285265292D636F6E66696731
:1016B0007572652070696E003C6770696F206E619D
:1016C0006D653E203C302F313E2E20536574206CDA
:1016D0006F676963616C2070696E207374617465F3
:1016E000003C6770696F206E616D653E2E2052650B
:1016F0006164206C6F676963616C2070696E207330
:1017000074617465004445425547004C45445F523E
:101710004544004C45445F475245454E00535731C0
:101720005F4C4544005357325F4C45440053573398
:101730005F4C4544005357345F4C45440053573683
:101740005F4C4544004750494F5265736F75726353
:101750006500554152545265736F75726365004957
:101760004D504C454D454E544154494F4E202D202F
:101770004E4F5420494D504C454D454E5445440024
:10178000455845435554494F4E202D20434F4D4D0C
:10179000414E44204641494C4544005245534F5523
:1017A000524345202D204E4F20535543482052454B
:1017B000534F5552434500415247554D454E5420D5
:1017C0002D2042414420415247554D454E5400433F
:1017D0004845434B53554D202D20434F4D4D414ED1
:1017E000442F524553504F4E534520434845434B99
:1017F00053554D204641494C5552450001020200C7
:1018000001000000000000002C1500202000000056
:101810005F1700201A000000801700201B00000046
:101820009B17002017000000B71700202C000000B5
:10183000CF1700200C000000451700208504002071
:10184000ED0A0020000000007C18002003000000CA
:10185000000000002C1500200C0000005217002092
:101860000D080020ED0B002000000000AC18002047
:1018700004000000000000002C15002004000000FF
:10188000501500201F0000009816002001000000E5
:10189000A815002028000000B81600200100000054
:1018A000E015002023000000E116002004000000E5
:1018B00050150020520000005515002001000000C6
:1018C000A815002035000000AA1500200100000026
:1018D000E015002054000000E21500200400000084
:1018E000371600205B0000003C16002005000000B9
:1018F00005170020001B0020050000000517002030
:10190000DC1A00200000000000000000B5030020E9
:101910006B030020D1060020F10400201D050020EB
:10192000F1040020F1040020F10400200020202018
:10193000202020202020282828282820202020207F
:10194000202020202020202020202020208810104F
:1019500010101010101010101010101010040404AB
:101960000404040404040410101010101010414169
:101970004141414101010101010101010101010157
:10198000010101010101010110101010101042426B
:101990004242424202020202020202020202020227
:1019A00002020202020202021010101020000000C7
:1019B0000000000000000000000000000000000027
:1019C0000000000000000000000000000000000017
:1019D0000000000000000000000000000000000007
:1019E00000000000000000000000000000000000F7
:1019F00000000000000000000000000000000000E7
:101A000000000000000000000000000000000000D6
:101A100000000000000000000000000000000000C6
:101A200000000000000000000000000000000000B6
:101A3000A9030020070000000B1700200018014038
:101A4000000000000100010000010000090000008A
:101A500013170020001801400100000001000100E0
:101A600000010000070000001D17002000180140C1
:101A70000800000001000101000100010700000052
:101A80002517002000180140090000000100010096
:101A900000010000070000002D1700200018014081
:101AA0000A00000001000100000100000700000022
:101AB00035170020001801400B0000000100010054
:101AC00000010000070000003D1700200018014041
:101AD0000D0000000100010000010000004800406E
:101AE0001C1201270404030000000000E02900206C
:101AF00040000000000000000000000000000000A6
:101B000000C2010000000000000C01400A000000BB
:101B10000200000000000000000C01400B0000006B
:0C1B2000000000000000000000000000B9
:04000005200000EDEA
:00000001FF
