:020000042000DA
:10000000404F0020ED000020AD040020AD04002092
:10001000AD040020AD040020AD040020000000006D
:10002000000000000000000000000000AD040020FF
:10003000AD04002000000000AD0400201D080020D9
:10004000AD040020AD040020AD040020AD0400206C
:10005000AD040020AD040020AD040020AD0400205C
:10006000AD040020AD040020AD040020AD0400204C
:10007000AD040020AD040020AD040020AD0400203C
:10008000AD040020AD040020AD040020AD0400202C
:10009000AD040020AD040020AD040020AD0400201C
:1000A000AD040020AD040020AD040020AD0400200C
:1000B000AD040020AD040020AD040020AD040020FC
:1000C000AD040020AD040020AD040020AD040020EC
:1000D000AD040020AD040020AD0400209D090020E7
:1000E000AD040020AD040020AD040020DFF818D0DE
:1000F000064B4FF0A531064A196003F10403934201
:10010000FAD10020034B1847404F0020404C0020FC
:10011000005000203D1400205D010020150D00203E
:10012000F8B500BFF8BC08BC9E467047F8B500BFE4
:10013000F8BC08BC9E46704710B5054C237833B90F
:10014000044B13B10448AFF300800123237010BDAA
:10015000501C002000000000AC1A002008B5034B22
:100160001BB103490348AFF3008008BD0000000045
:10017000541C0020AC1A0020034613F8012B002A5F
:10018000FBD1181A013870473038362840D8DFE8DC
:1001900000F01C20232527292B2D2F313F3F3F3FE7
:1001A0003F3F3F333537393B3D3F3F3F3F3F3F3F89
:1001B0003F3F3F3F3F3F3F3F3F3F3F3F3F3F3F3F4F
:1001C0003F3F3F333537393B3D00002301200B7063
:1001D00070470120087070470223F7E70323F5E713
:1001E0000423F3E70523F1E70623EFE70723EDE711
:1001F0000823EBE70923E9E70A23E7E70B23E5E711
:100200000C23E3E70D23E1E70E23DFE70F23DDE710
:1002100000207047F0B585B06C46B0EB430F84E822
:1002200003004FEA430721D3019D00262C46631BA0
:100230009F421ED994F900000DF10F018DF80F6057
:100240008DF80E60FFF7A0FF80B194F901000DF169
:100250000E01FFF799FF023440B19DF80F109DF891
:100260000E3043EA011302F8013BE0E7002005B03D
:10027000F0BD0120FBE72DE9FF4100256B46064656
:1002800083E80300156020B90024204604B0BDE8CF
:10029000F081019F97F900402D2C05D0302C1FD004
:1002A000002CF2D02C4602E001240137461E4FF00C
:1002B0000A083E44B7421ED017F9010BC3B28DF8AD
:1002C0000F30C3B1D5B10DF10F01FFF75DFF00286D
:1002D000DAD011689DF80F3043EA01131360E9E7A3
:1002E0000128DFD097F901007828DBD12C460237AE
:1002F0000125023EDBE76CB90124C6E72F2BC3D9E9
:10030000303BDBB2092B8DF80F30BDD8116808FBEC
:100310000133E3E713685B421360B6E70388C21852
:1003200001339BB29170038018440023837070479F
:10033000F0B541F221060144814215D0082410F89D
:10034000015B138885EA132717F0800F4FEA4303F8
:1003500004F1FF3418BF73406D0014F0FF049BB22A
:10036000EDB2EFD11380E7E7F0BD0022C0E9002233
:10037000704700004FF440338360044B0362044B2A
:10038000C361044B8361402343717047204C0020BC
:100390000048002000010002BFF35F8FBFF34F8FC2
:1003A000BFF36F8F70470000014B1868704700BFA4
:1003B000002B0020034B044A5A6002F188325A6035
:1003C000704700BF0020024023016745837A10B5C3
:1003D000D0E900428B424FF0010308BF1032934036
:1003E000C173236110BD0000017AF0B4437B047B2C
:1003F00031B14A1E012A27D900221346144607E0CC
:10040000837B022B30D81D4AD45C1D4AD25C0B463C
:100410000F27456843EA84030468072D05F00706A3
:1004200088BF04342568B600B34007FA06F625EA0B
:1004300006052B43236019B943689A400368DA60C4
:10044000C17AF0BCFFF7C2BF621E54425441022978
:1004500008BF44F00204012B04D009D9023B012B50
:1004600009D900230022D3E70A460B460C46CFE702
:1004700000220223CCE700220323C9E777180020DB
:100480007A18002038B50024064A074D936943F0D6
:100490007C03936128191834FFF7A6FFB4F5A87FF1
:1004A000F8D138BD00100240B81A0020044B82B0C9
:1004B0005B68C3F308030193019B00BEFEE700BF26
:1004C00000ED00E00422036830B545680F2005F018
:1004D0000701072D4FEA810188BF9B1802FA01F43A
:1004E0001A6800FA01F122EA010222431A6030BDC3
:1004F0007E23437170470000074BDA68520709D426
:10050000D86810F0100018BF0220DA6842F0140218
:10051000DA6070470120F8E7002002402DE9F84337
:1005200043790146012B04D10022644B1A60BDE8D7
:10053000F88390F83530624DFF2B31D10020020155
:10054000AA5CC6B2802A05EB00133FD1FFF724FF57
:100550005A78022A3AD19A7891F83140944235D1AA
:10056000DA7891F8347002F07F02BA4203F10304A2
:100570002CD118790020187181F835605E79587196
:100580009E799871DE79D871DB781B0655BF0132F0
:10059000237802F07F0281F8343058BF81F834208C
:1005A00091F8354005EB04135868D3F808805F686C
:1005B000DA6808EB070616F0010F5B680DD001231F
:1005C0008B6041234B71B2E70120B8E70028FBD0D4
:1005D00091F83530FF2BE3D1A9E7D21A012A01D8CF
:1005E0000223EDE7DFF8DC90374BD9F8102003EB5E
:1005F00004231B5A42F00102C9F8102028F80730E2
:10060000D9F80C4014F00104FAD1FFF775FFD9F8BE
:10061000103023F00103C9F810308860002886D11B
:1006200091F83530FF2B03D101238B608323C9E779
:100630004FEA031905EB03135A6802325A6003F1BB
:100640000802D3F804E0D2F804C0E64501D9022339
:10065000EBE7D3F804C0526894450AD15870FF23E1
:1006600091F83440FFF798FEE40905F8090081F895
:100670003530124818F807300268144F5340DA43F7
:10068000082342F30005013B3D4013F0FF0385EAD8
:100690005202F6D173785340082243F30005013A21
:1006A0003D4012F0FF0285EA5303F6D1DB430360BD
:1006B000002C3FF43CAF0B62402383E7502D002019
:1006C000204C002000200240004800202083B8ED8C
:1006D000437910B5012B04460D4908D10B6943F04D
:1006E00004030B610B6943F040030B6110BDCB6841
:1006F000DB07FBD4FFF700FFA0600B6923F00403C6
:100700000B6110B17F236371F0E74023FBE700BF6B
:100710000020024038B50446C0680D4620B188422A
:1007200002D00830FFF7CEFEE06820B1A84202D028
:100730001830FFF7C7FEE36833B1986A20B1AB6A9F
:10074000984201D0FFF7BEFE01222379607903F1C0
:10075000804303F50433196882400A43E5601A6058
:10076000237AA17A03F1804303F580331A68607A13
:1007700022EA0102E17A81400A431A602846A279FE
:100780001F4B50F8085BB3FBF2F3B3FBF5F5FFF733
:100790002BFEE0681830FFF727FEE368986A08B17F
:1007A000FFF722FE23689D60DA6842F02002DA60DB
:1007B00094F90730E279002B1BDB002203F1604340
:1007C00003F5614383F8002394F90730E279002BA5
:1007D00007DB02F01F0101228A400A495B0941F848
:1007E00023202268D36843F4005343F00C03D36002
:1007F00038BD054B02F00F02134400221A76E3E7DE
:1008000000127A0000E100E0FCEC00E0014902483F
:10081000FFF780BF241C0020001C0020024A136840
:1008200001331360704700BF002B0020034682B0E5
:10083000EFF3108072B68DF807001A480278013283
:10084000D2B2012A027002BF9DF807C0164A82F890
:1008500000C0BFF34F8FBFF36F8F1A69FAB1DA6828
:10086000D3F800C01CF802200A70D3E90321013933
:100870000132C3E9032159688A420CD0002203786F
:10088000013BDBB203701BB9074B187880F310886B
:10089000104602B0704700210A46D960EFE74FF0DA
:1008A000FF32ECE7A5200020A420002013B500248F
:1008B00008480DF107018DF80740FFF7B7FF30B981
:1008C0009DF80700431F5842584102B010BD204612
:1008D000FBE700BF101C0020044A1388013B9BB2B9
:1008E0001380134400229A70704700BFF820002044
:1008F000502300BF013BFCD1704700BF08B5C3685F
:100900009B6A63B1026813685B06FCD5FFF7F0FFD2
:10091000C3680021986ABDE80840FFF757BD08BDCD
:10092000014682B0EFF3108072B68DF80700184AC6
:1009300013780133DBB2012B137002BF9DF807005F
:10094000144B1870BFF34F8FBFF36F8F124B586962
:10095000D3F820C0844510D291F800C01869996975
:1009600000F801C0D3E9050101318142996104BF5A
:1009700000219961196A013119621378013BDBB2D8
:1009800013701BB9034B187880F3108802B07047BE
:10099000A5200020A4200020001C002013B5084C36
:1009A00023681A6812F0280F07D05B680DF1070062
:1009B0008DF80730FFF7B4FFF2E702B010BD00BFBB
:1009C000001C0020806A08B530B10121FFF7FEFC51
:1009D000BDE80840FFF78CBF08BD000038B50446ED
:1009E000084D2A6813681906FCD5E868FFF7EAFF86
:1009F0002B681A681206FCD55C600248BDE83840D6
:100A0000FFF77CBF001C002038B504464518AC42F7
:100A100004D014F8010BFFF7E1FFF8E738BD37B554
:100A20000C46054602AB03E9030001462046FFF7EA
:100A30007FFC2946204603B0BDE83040FFF7E4BF05
:100A400070B50C4616460546C068FFF7BBFF214649
:100A50002644B14207D011F8012B2B681868000614
:100A6000FCD55A60F5E72846BDE87040FFF746BF61
:100A700082B02DE9F04F914600251A464FF0FF371E
:100A800085B0019110990F93041DC3F1010B4D45E1
:100A900024DA54E901A60BEB0A03002BACBFF318D0
:100AA000331CA8460093009B9E4213D03046CDE9EC
:100AB000021200F01FFDDDE9021248B992450ED086
:100AC000002F04DBAF4203D04FF0FF3807E02F4682
:100AD0000136E8E7019B01351C44D8E7B84640469B
:100AE00005B0BDE8F04F02B0704700002DE9F043BB
:100AF00004460F461E46904687B01AB9042007B038
:100B0000BDE8F083214DD1E900322846CDE9043219
:100B1000009218210E22FFF7ABFF0028EEDB18230E
:100B20005843012C00F1080305EB030907D0022C00
:100B30001AD044BB4846FFF757FC0020DFE7B8F166
:100B4000010FDBD0D7E9020104AB83E8030003AA5D
:100B5000FFF791FB03990028D0D0003918BF01217D
:100B60004846FFF733FCE8E7EB5805449968EB6823
:100B70003046D940AB7C01F001015940303149B2D7
:100B8000FFF7CCFBD9E70120B9E700BFB01A00207E
:100B9000F0B585B004460D4616466F46124B03F17C
:100BA000100C3A4618685968083303C26345174663
:100BB000F7D12544A54214D0237804AA02EB1313DD
:100BC000304613F9101CFFF7A9FB14F8013B30461F
:100BD00003F00F0310336B4413F9101CFFF79EFB57
:100BE000E8E705B0F0BD00BF381500202DE9F04161
:100BF00086B080460D461F4614460D9E0AB9042055
:100C000027E0D1E900323D48CDE9043200920C21C1
:100C10000122FFF72DFF0028F1DB05F10801601E1E
:100C2000B8F1030F67D8DFE808F00217284A80B14F
:100C3000D5E902320C21CDE904320092304801227C
:100C4000FFF716FF0028DADB2E492F48FFF762FD79
:100C5000002006B0BDE8F0810028FAD003C9AC68D6
:100C60002A4A64082346FFF7D5FA0028C7D022464F
:100C700026492548FFF7E4FEEAE70028E9D003C942
:100C800004AC84E8030003AAFFF7F5FA039D0028EB
:100C9000B5D0B5F5806FB2D800241C4EDFF8708057
:100CA000A54206D040463119FFF7C0FD08B901340E
:100CB000F6E73A4621461548FFF76AFFC8E70028DD
:100CC000C6D003C9012304AAFFF7A4FA002896D0CE
:100CD0004FF480629DF810100C4800F0E5FB0B4DBE
:100CE000094CB0470028B3D14FF480622946204612
:100CF000FFF7A6FEF5E70120ABE700BF741900205F
:100D000068190020241C0020001C00206C1C0020FE
:100D1000101C0020014B024A1A6070476C20002012
:100D2000881900202DE9804891B072B64FF0E02379
:100D300041F63F72F0215A619F4A002582F8231044
:100D400007229D611A61FFF79DFBFFF75FFD2946B2
:100D500010229A4800F0A8FB10222946984800F07B
:100D6000A3FB984C984B994A84F83150984F5A609D
:100D700002F188325A607D70FFF70EFB3D7062B65B
:100D8000102294499448FFF75BFE944D0023DFF84E
:100D900050828DF8153093480DF11501FFF746FD8F
:100DA0008146002840F073819DF815B0BBF1080F13
:100DB00009D12B88002BEED003218B48FFF724FEAE
:100DC000FFF78AFDE7E7BBF10A0F40F0388258468B
:100DD000FFF704FEB5F800A0BAF1000F06D158469F
:100DE000FFF7FCFD3E20FFF7F9FDD4E7DFF8F081C7
:100DF00098F800306BB14FF4017C7C4E7C4833682E
:100E000040F2032229460CFB030000F065FBC6F804
:100E10000090002688F800604FF6FF78BAF1040FC2
:100E2000DFF8D0910696ADF8168040F2868005EB8B
:100E30000A0313F9033C7E2B7FD1AAF1040A09EBC4
:100E40000A063046FFF798F9CDE90B060DF12C0A9A
:100E500002239AE8030009AAFFF7DCF90646C0B1AD
:100E6000FFF73AFD4846FFF737FDFFF735FDFFF77F
:100E700033FDFFF731FD52462988ADF82C80FFF78E
:100E800057FABDF82430BDF82C205BBA9BB29A42C9
:100E900053D000264FF0050807230B93564B0DF156
:100EA0002C090C9399E803000DF11602FFF7B7FD2A
:100EB00052480DF1160200EBC80898E80300FFF74E
:100EC000AEFD04230B934E4B0DF116020C9399E8E3
:100ED0000300FFF7A4FD00210846069ADFF824C1AD
:100EE000CBB2002A40F09F81002B00F09C8100B122
:100EF000069203F1FF385FFA88F809EB0800012138
:100F00000DF11602FFF714FA08F140036B4408F1E3
:100F1000FF3813F8140C5FFA88F8FFF75FFDB8F19B
:100F2000FF0FEAD102230993374B022019460DF136
:100F300016020A93FFF773FD73E0002188460B4603
:100F40000A462888DFF8ACC0DFF8C0E0904263D9D9
:100F50009A421AD1B8F10A0F40F0CE80DFF8ACA067
:100F6000DAF80020D146042A40F01F812849DAF837
:100F7000040000F0A1FA002840F017810223DFF8F6
:100F80009480DFF884900293DFE040F2B580B8F1FE
:100F9000080F40F2B1801D49D21AC01A824294BF94
:100FA00041F8382041F838004B4401EBC8014B6050
:100FB00008F1010832E000BF00ED00E0204C002005
:100FC000304C00206C2000200020024023016745A7
:100FD000004C002049150020001C0020F8200020B3
:100FE0004C2D0020101C00205A150020442B0020FE
:100FF000482B0020FA2000206315002080180020D4
:101000006B1500207015002068150020A820002016
:101010005E150020B01800209A42BCD8B8F1000F2D
:101020009CD1DFF8A8824FF00009C2463AF8023B93
:101030000DF1160251461846CDE9073AFFF7EFFCCD
:10104000A5F8009085F80290A8F8009088F8029022
:10105000BEB1BDF8163002211A0A8DF82C200BA85B
:1010600042468DF82D30FFF793FD7E20FFF7B6FC4A
:101070005046B8F80010FFF7C7FCA8F8009088F8B1
:1010800002900A20FFF7AAFC3E20FFF7A7FC3B785E
:10109000802B40F062817B78012BDAB240F09281A4
:1010A000BB788B4B8B4E84F8302003F1200C3246FA
:1010B00018685968083303C263451646F7D1FA78B1
:1010C000112AD3B200F0F18000F2E680012B00F08B
:1010D000EF80102B00F0EF80002B40F0F480012215
:1010E0000823C4E90A32002B40F00481002A40F0B2
:1010F00001817E2363712AE101291CF901AB06D02D
:10110000BAF1200F1CBF1346012101321EE7BAF1CC
:10111000200FFAD1D11AA0EB030A514594BF4EF823
:1011200038104EF838A00EEBC80109EB030AC1F8DD
:1011300004A008F101080021E7E7029B08F1240858
:10114000012B3FF46EAF012302934FF0000BD8E95F
:101150000010D8F818300393FFF756FC02214846D8
:10116000FFF752FCD8E90710FFF74EFC0A20FFF703
:1011700035FCD8F814A0039B0AF1100A5B45DCD0BB
:101180002020FFF72BFC5AE90410FFF73DFC022159
:101190004846FFF739FC5AE90210FFF735FC0A20F0
:1011A000FFF71CFC0BF1010BE5E7B8F1010F31D0A3
:1011B00099E80300DFF820910BAB83E803000222DB
:1011C0000346009148462421FFF752FC002824DB07
:1011D000DAE90232242101FB0090D0F80C90B9F139
:1011E000000F1AD0CDE90B320092102182694069BC
:1011F000FFF73EFC002813DB384BA8F102020193F5
:1012000006AB00933649314BC847804600287FF42F
:1012100043AE06E74FF004083EE64FF003083BE616
:101220004FF0010838E602F00F001CF800004033D0
:101230006B4403F8140C12090120013150E6BBF194
:10124000210F2E8817D1DFF89C90F6B236B103211A
:101250004846013EFFF7D8FBF6B2F7E740F203221B
:101260002149284600F038F929882048FFF7CCFBAF
:1012700088F800608FE5B6F5007FBFF48CAD0123E0
:1012800088F80030AB190136B6B283F802B02E8070
:101290002E44B0705846A6E5502B0ED07F2B0FD0B1
:1012A000402B10D1012218231BE70122142318E739
:1012B0001A460C2315E7012213E701221C2310E72D
:1012C00000220B4B0DE7002213460AE7FC22002008
:1012D000004C002070200020B0180020AD08002035
:1012E000B82000205A150020482B0020FA200020AA
:1012F000750300200021A1604FF47F416186A18623
:10130000012184F824100AB12268D358464898472E
:101310006379022B19D1236A444E012B8CBF02231F
:101320000123434A84F8243006F1200C334603CBD2
:10133000634510601E46516002F10802F6D1A368B1
:10134000002B14BF7F230023D4E63F2BF7D90223C1
:101350007B700023FFF720F83B70364E33689847C8
:1013600094F830309BB163793F2B10D8336898479D
:10137000E36A5A1004EB6300DB0747D4A36A98477B
:1013800063793F2B3CD933689847336898470023EB
:101390009846294918010E5C01EB0312802E0CD1EE
:1013A0009678002E36D082F801800A18527802F022
:1013B000FF0612B9FEF7F0FF0E54002B7FF4E6ACE7
:1013C0000123E7E77A7802F0FF03002AC1D194F8FD
:1013D0003020002ABDD062793F2ABAD9134EC4E921
:1013E0000A33134A84F8303006F1200C334603CB1D
:1013F000634510601E46516002F10802F6D1A8E76D
:10140000A368002BBFD07F236371BCE7A258A36AF7
:10141000D358B4E75678002EC7D0967894F8306049
:10142000002EC2D15670C0E76C2000207020002032
:10143000004C0020AC1A0020204C002008B5124AB5
:10144000124B13489A60134A0021121A00F02CF82C
:101450000026114D114C641BA410B4420AD1FEF7B2
:101460005FFE00260E4D0F4C641BA410B44206D143
:10147000FFF758FC55F8043B98470136EDE755F85F
:10148000043B98470136F1E70000002000ED00E042
:10149000501C0020542D00201801002018010020AD
:1014A000180100202001002003460244934200D18D
:1014B000704703F8011BF9E710B501390244904267
:1014C00001D1002005E0037811F8014FA34201D0BB
:1014D000181B10BD0130F2E70A44914200F1FF33BE
:1014E00000D1704710B511F8014B914203F8014F3C
:1014F000F9D110BD70B504460E4E0A448A4201D19E
:10150000002013E014F8013B985D00F0030001286F
:1015100011F8010B08BF2033355C05F00305012DE0
:1015200008BF20301B1A02D10028E7D170BD184631
:10153000FCE700BFA919002030313233343536378B
:10154000383961626364656600434C4320636F6EA3
:101550006E65637465642E0A0D00082008006865D6
:101560006C70004552524F523A20003A20307800B9
:1015700030313233343536373839414243444546C9
:1015800000434F4E46003C75617274206E616D657C
:101590003E203C636F6E666967206E616D653E2E0E
:1015A00020436F6E66696775726520746865207088
:1015B00065726970686572616C2077697468206112
:1015C0006E206578697374696E6720636F6E6669F3
:1015D0006775726174696F6E0057003C7561727453
:1015E000206E616D653E203C686578207374726979
:1015F0006E673E2E205472616E736D697420646153
:1016000074612066726F6D20746865205541525474
:101610000052003C75617274206E616D653E203C25
:10162000232062797465733E2E204E6F6E2D626C9E
:101630006F636B696E672072656365697665207597
:101640007020746F2060232062797465736020625B
:10165000797465732066726F6D20746865205258C6
:10166000206275666665720054455354003C75618E
:101670007274206E616D653E203C686578206279E9
:1016800074653E2E20436F6E74696E756F75736C52
:1016900079207472616E736D697420746865206856
:1016A0006578206279746520756E74696C20746841
:1016B0006520636F6D6D616E6420697320696E745F
:1016C0006572727570746564003C6770696F206E36
:1016D000616D653E2E20285265292D636F6E666907
:1016E000677572652070696E003C6770696F206E67
:1016F000616D653E203C302F313E2E2053657420B5
:101700006C6F676963616C2070696E2073746174BB
:1017100065003C6770696F206E616D653E2E2052DA
:10172000656164206C6F676963616C2070696E200D
:101730007374617465004445425547004C45445FED
:10174000524544004C45445F475245454E0053576F
:101750003331315F4C45440053573330315F4C4592
:10176000440053573331325F4C45440053573330B4
:10177000325F4C45440053573331335F4C4544008E
:1017800053573330335F4C45440053573331315F47
:1017900050420053573330315F504200535733317A
:1017A000325F50420053573330325F50420053573C
:1017B0003331335F50420053573330335F50420070
:1017C0004750494F5265736F7572636500554152BA
:1017D000545265736F7572636500494D504C454DA9
:1017E000454E544154494F4E202D204E4F542049D0
:1017F0004D504C454D454E54454400455845435584
:1018000054494F4E202D20434F4D4D414E442046CC
:1018100041494C4544005245534F55524345202DB4
:10182000204E4F2053554348205245534F55524365
:101830004500415247554D454E54202D20424144CC
:1018400020415247554D454E5400434845434B5364
:10185000554D202D20434F4D4D414E442F52455361
:10186000504F4E534520434845434B53554D20461A
:1018700041494C55524500010202000100000000A0
:10188000000000005D15002020000000DA17002095
:101890001A000000FB1700201B0000001618002093
:1018A00017000000321800202C0000004A18002009
:1018B0000C000000C017002085040020ED0A002065
:1018C00000000000F81800200300000000000000E5
:1018D0005D1500200C000000CD1700200D08002031
:1018E000ED0B00200000000028190020040000007B
:1018F000000000005D15002004000000811500209C
:101900001F000000C916002001000000D9150020AA
:1019100028000000E9160020010000001116002038
:101920002300000012170020040000008115002091
:10193000520000008615002001000000D91500208B
:1019400035000000DB15002001000000111600200A
:101950005400000013160020040000006816002048
:101960005B0000006D160020050000003617002007
:10197000241C00200500000036170020001C002059
:101980000000000000000000B50300206B030020F1
:10199000D1060020F10400201D050020F1040020E4
:1019A000F1040020F104002000202020202020202D
:1019B00020202828282828202020202020202020FF
:1019C000202020202020202020881010101010100F
:1019D000101010101010101010040404040404045B
:1019E00004040410101010101010414141414141F5
:1019F00001010101010101010101010101010101D7
:101A000001010101101010101010424242424242E6
:101A100002020202020202020202020202020202A6
:101A2000020202021010101020000000000000004E
:101A300000000000000000000000000000000000A6
:101A40000000000000000000000000000000000096
:101A50000000000000000000000000000000000086
:101A60000000000000000000000000000000000076
:101A70000000000000000000000000000000000066
:101A80000000000000000000000000000000000056
:101A90000000000000000000000000000000000046
:0C1AA0000000000000000000000000003A
:101AAC00A9030020070000003C170020001801408B
:101ABC00000000000100010000010000090000000E
:101ACC004417002000180140010000000100010033
:101ADC0000010000090000004E1700200018014012
:101AEC0008000000010001000001000009000000D6
:101AFC0058170020001801400900000001000100E7
:101B0C0000010000090000006217002000180140CD
:101B1C000A000000010001000001000009000000A3
:101B2C006C170020001801400B00000001000100A0
:101B3C000001000009000000761700200018014089
:101B4C000C00000001000100000100000900000071
:101B5C0080170020001801400D000000010001005A
:101B6C0000010000080000008A170020001001404E
:101B7C000800000000000100000101000800000046
:101B8C009317002000100140090000000000010024
:101B9C0000010100080000009C170020001001400B
:101BAC000A00000000000100000101000800000014
:101BBC00A5170020001001400B00000000000100E0
:101BCC000001010008000000AE17002000100140C9
:101BDC000C000000000001000001010008000000E2
:101BEC00B7170020001001400D000000000001009C
:101BFC0000010100004800401C12012704040300EE
:101C0C0000000000042B0020400000000000000039
:101C1C00000000000000000000C2010000000000F5
:101C2C00000C01400A00000002000000000000004F
:101C3C00000C01400B000000000000000000000040
:041C4C000000000094
:04000005200000EDEA
:00000001FF
