:020000040800F2
:20000000004C00207914000885140008891400088D14000891140008951400080000000092
:20002000000000000000000000000000991400089D14000800000000A1140008A5140008D4
:20004000A9140008AD140008B1140008B5140008B9140008BD140008C1140008C514000808
:20006000C9140008CD140008D1140008D5140008D9140008DD140008E1140008E5140008E8
:20008000E9140008ED140008F1140008F5140008F9140008FD1400080115000805150008C6
:2000A000091500080D1500081115000815150008191500081D1500082115000825150008A0
:2000C000291500082D1500083115000835150008391500083D150008411500084515000880
:2000E000491500084D1500085115000810B50400964884420AD101215FF0007000F076FA39
:2001000000215FF0007000F071FA09E001215FF0806000F06BFA00215FF0806000F066FA75
:2001200010BD30B4020000200023146834F002041460146854F0010414605468E40705D4F6
:200140004FF6FF74A34201D05B1CF6E75468E40702D4002420006DE08C79012C04D114684C
:2001600054F08004146003E0146834F080041460CC79012C04D1146854F04004146003E026
:20018000146834F0400414600C7A012C04D1146854F02004146003E0146834F0200414600C
:2001A0004C7A012C04D1146854F01004146003E0146834F0100414608C7A012C04D11468A0
:2001C00054F00804146003E0146834F008041460CC7A012C04D1146854F00404146003E0F1
:2001E000146834F0040414608C78CD782D0655EA84740D7954EA05444D7954EA05540D8831
:200200006D1E2C43D4611468640864001460002423005468E40705D54FF6FF74A34201D0B9
:200220005B1CF6E75468E40702D50024200001E001242000C0B230BC704710B40021012265
:20024000837A9A401100424A126852F00102404B1A60404A12688A433E4B1A60027B002AEB
:2002600015D13D4A12688A433B4B1A60C288438853EA0242837A394C44F83320827A374BA5
:2002800013EBC2028388048854EA03435360027B012A15D1304A12680A432F4B1A60028881
:2002A000438853EA0242837A2C4C44F83320827A2A4B13EBC2028388C48854EA034353602D
:2002C000C27A002A05D1264A12688A43244B1A6004E0234A12680A43214B1A600289002A8F
:2002E00004D1204A12688A431E4B1A600289012A04D11C4A12680A431A4B1A60427B012A16
:2003000004D1144A12680A43124B1A60104A1268520852000E4B1A6010BC70470021817123
:200320000021C1710021017200214172002181720021C172002181700021C17003210171A0
:2003400002214171012101807047000000640040006600401C6600400C66004040660040CA
:20036000046600401466004030B40200002093685B0102D5002318000DE093681B0102D5CF
:200380000123180007E09368DB0002D50223180001E004231800C0B2042875D0C0B212EBDE
:2003A0000013D3F8803113F00103C0B212EB0014C4F880310B7A002B0FD1C0B212EB0013A5
:2003C000D3F880310C684D7A55EA44542343C0B212EB0014C4F8803110E0C0B212EB0013C7
:2003E000D3F880314C680D7A55EAC4044D7A2C432343C0B212EB0014C4F880318B7A13F0AB
:200400000F038B72C0B212EB0013D3F884311B091B01C0B212EB0014C4F88431C0B212EB28
:200420000013D3F884318C7A2343C0B212EB0014C4F884318B7B4C7B240454EA03630C7BA9
:2004400053EA0423CC7A2343C0B212EB0014C4F888318B7C4C7C240454EA03630C7C53EA34
:200460000423CC7B2343C0B212EB0014C4F88C31C0B212EB0013D3F8803153F00103C0B2F5
:2004800012EB0014C4F88031C0B230BC7047C9B2002902D12022C26001E0202202617047B1
:2004A00070B504000D001600EDB214EB0510D0F8B00110F004003072307A002807D1EDB2D5
:2004C00014EB0510D0F8B001400D306006E0EDB214EB0510D0F8B001C0087060EDB214EB6A
:2004E0000510D0F8B00110F002007072EDB214EB0510D0F8B40110F00F00B072EDB214EB8B
:200500000510D0F8B401000AF074EDB214EB0510D0F8B801F072EDB214EB0510D0F8B80111
:20052000000A3073EDB214EB0510D0F8B801000C7073EDB214EB0510D0F8B801000EB07386
:20054000EDB214EB0510D0F8BC01F073EDB214EB0510D0F8BC01000A3074EDB214EB051067
:20056000D0F8BC01000C7074EDB214EB0510D0F8BC01000EB0742900C9B22000FFF787FF5C
:2005800070BD10B450F8041B81B102681218001D50F8043BDC0744BFA9F10104E31852F8CF
:2005A000044B43F8044B091FF9D1EBE710BC7047C9B2002905D0154A12680243134B1A60AC
:2005C00004E0124A12688243104B1A607047C9B2002905D00E4A126802430D4B1A6004E0CA
:2005E0000B4A126882430A4B1A607047C9B2002905D0084A12680243064B1A6004E0054A59
:2006000012688243034B1A6070470000181002401C10024010100240BFF34F8FB6480068EC
:2006200010F4E060B5490843B3490860BFF34F8FFEE7000038B5040020680500ADB2E80986
:2006400080B2002836D0012816D0032815D004282CD0052823D0062828D0072821D008285D
:2006600024D009281ED00A2820D00B281FD00C281DD00E281DD01EE01DE0E07A0C280DD178
:20068000A07A02280AD1207B9D490978884202D0207BFF2801D100F011F80CE00BE000BF7A
:2006A00009E008E0200000F03CF804E003E000BF01E000E0FFE731BD0120704700B585B048
:2006C0001422002100A800F03DF98D4800784FF4C0710843009000208DF8080000208DF807
:2006E000090005208DF80A000A208DF80B0003208DF80C00FFF7E0FF8DF80D008148007827
:200700008DF80E00804800788DF80F0000A97F48FFF72AFE05B000BD002801D0401EFBE739
:2007200070472DE9F84F04005FF0000B207810F07F000600E07A0500A07A8146B6B2692EEB
:2007400038D1EDB2032D35D1A07A012832D170484078922808D06E4840786B490870FFF7E3
:20076000ADFF00F093F88FE06948C07801280ED100F07FF980465FFA88F8B8F1010F02D15F
:20078000FFF74AFF80E062480221417002E06048042141705A48007842F6E0614843FFF7C8
:2007A000BBFF5B48407858490870FFF787FF00F06DF869E0B6B2672E15D1EDB2032D12D15C
:2007C000A07A01280FD100F061F800F072F850488078932803D14E480121C17002E04C48D5
:2007E0000321417050E04A48C07801284CD148480078B6B2801B01283DD1454840789228A3
:2008000039D15FFA89F9B9F1080F34D104F20B008346002007004846C0B2BFB280B28742D0
:200820001DD23B4840683A498968884217D2DBF800103748406800F026FA82461AF1010F7A
:2008400003D13348032141701EE031484068001D2F4948603F1D1BF1040B7F1CDBE72C48D0
:200860000078401C2A49087029489221417028489421817002E0264804214170B6B2632EAF
:2008800002D1234802210170BDE8F18F2048022101701F48922141701D48952181701C482A
:2008A0000021C1701A481B49416019481A498160704770B50025002617481649401A401C3F
:2008C00000F02CF8060000200500B54212D211484FF4806101FB050000F0A3F90400042CC0
:2008E00003D00B480321817004E00948932181706D1CEAE770BD00000CED00E00400FA0580
:2009000045000020F01F000846000020006400402800002000200008FFF7000810B401001E
:2009200000200A004FF48063B2FBF3F404FB1324002C03D0930A5B1C180001E0930A1800DC
:2009400010BC704770B504000D0016002A003100200000F01DFA200070BD50F8041B61B180
:2009600050F8042BD30744BFA9F101039A18002342F8043B091FFAD1EFE770478C488D490D
:2009800001608D485FF033310160704700B589B001210520FFF70CFE01215FF00070FFF74A
:2009A00016FE01211420FFF703FE4FF40060ADF8000048208DF8030000A9804800F01CFA27
:2009C0004FF48050ADF8000018208DF8030003208DF8020000A9794800F00EFA7848FFF7DD
:2009E00085FB01A8FFF79AFC00208DF80A0001208DF80B0000208DF80C0000208DF80D007F
:200A000000208DF80E0000208DF80F0000208DF8060000208DF807000E208DF8080001203C
:200A20008DF809001920ADF8040001A96448FFF778FB00208DF81A0000208DF81B000120E7
:200A40008DF81C000020ADF810000020ADF812000020ADF814000020ADF816000020ADF8D0
:200A6000180001208DF81D0004A8FFF7E6FB09B000BD10B553485449401A441C220052492E
:200A8000002000F059FA5149098880B2814201D1012000E00020C0B210BD80B54C484D4942
:200AA0000988016000F05EFA72B6FFF7EFFE00F057FB494908704948008845F2AA51884290
:200AC00005D0474800884AF65521884251D1FFF75DFFFFF753FF00F099F84048008845F226
:200AE000AA51884205D13F4805210170FFF7E6FD04E03C4802210170FFF7E0FD37480021F5
:200B0000018037480021018037480721016037480068401C3549086034480068800307D5BF
:200B20003348C078002803D12F482021016002E03048202101602D480068800307D52C4841
:200B4000C078002803D02B481021016002E02648102101602848006810F003000028D6D0D2
:200B6000264A00211648FFF79BFC2448FFF762FDCDE7FFF77EFF2249087021480078002825
:200B800010D0114840681F4908601F481D49096801600D48006880F308881B4800688047B3
:200BA000002004E00E484AF65521018083E702BD001801403343334404180140000801408F
:200BC00000640040FDF7000800200008FEF700083C000020FE1F000845000020000000204A
:200BE0000200002046000020101801404000002028000020141801400C640040140000200B
:200C0000440000203400002038000020DFF83801DFF838110160DFF83001DFF834110160AE
:200C2000704738B5040004255FF4302000F098F80500EDB2042D23D1DFF81801006850F05F
:200C40000200DFF810110860DFF80C010460DFF80401006850F04000DFF8F81008605FF48C
:200C6000302000F07DF80500EDB2052D08D0DFF8E400006841F6FD710840DFF8D8100860DA
:200C80002800C0B232BD70B582B004000D000426002000904FF4005000F062F80600F6B2FE
:200CA000042E33D1DFF8AC00006850F00100DFF8A410086025804FF4005000F051F8060068
:200CC000F6B2042E16D1A01C0090280C009908804FF4005000F044F80600F6B2052E15D02D
:200CE000DFF87000006841F6FE710840DFF8641008600BE0F6B2052E08D0DFF8580000686F
:200D000041F6FE710840DFF84C1008603000C0B276BD042011490968C90702D501210800B5
:200D20000FE00E490968490702D50221080008E00A490968C90602D50321080001E0042126
:200D40000800C0B2704700000420024023016745AB89EFCD10200240142002400C200240E6
:200D600038B504000425FFF7D4FF0500EDB2012D06D1002C04D0FFF7CCFF0500641EF5E7C3
:200D8000002C01D1052005002800C0B232BD704762F30F2262F31F42401810F0030308D079
:200DA000C91A1FD3DB0748BF00F8012D28BF20F8022D130030B414461546103928BF20E93C
:200DC0003C00FAD8490728BF20E90C0048BF40F8042D890028BF20F8022D48BF00F8012D65
:200DE00030BC7047C91818BF00F8012DCB0728BF00F8012D70470000F0B5002700220023CB
:200E000000240025002691F803C01CF00F0C674691F803C05FEACC6C03D591F802C05CEA0D
:200E2000070791F800C05FEA0C6C3AD0D0F800C065465FF0000C6346082B31D25FF0010CC7
:200E40001CFA03FC6446B1F800C014EA0C0C6246A24223D15FEA830C64465FF00F0C1CFAD2
:200E600004FC6646B54317FA04FC5CEA050591F803C0BCF1280F06D15FF0010C1CFA03FCF5
:200E8000C0F814C00AE091F803C0BCF1480F05D15FF0010C1CFA03FCC0F810C05B1CCBE794
:200EA0000560B1F800C04FF4807EF4453FD3D0F804C065465FF0000C6346082B36D25FF013
:200EC000010C13F1080E1CFA0EFC6446B1F800C014EA0C0C6246A24226D15FEA830C64469D
:200EE0005FF00F0C1CFA04FC6646B54317FA04FC5CEA050591F803C0BCF1280F07D15FF016
:200F0000010C13F1080E1CFA0EFCC0F814C091F803C0BCF1480F07D15FF0010C13F1080E60
:200F20001CFA0EFCC0F810C05B1CC6E74560F0BD806880B27047000010B413005A1E002B48
:200F40000AD080B20B7893EA2023054C34F8133093EA0020491CF0E780B210BC70470000F4
:200F6000E011000880B54C48006850F001004A4908604A4800684A490840484908604648AF
:200F8000006848490840444908604348006830F48020414908604148006830F4FE003F49D7
:200FA000086041485FF41F01016000F001F801BD80B500F001F801BD82B0002001900020E6
:200FC00000903548006850F48030334908603248006810F4003000900198401C0190009800
:200FE000002803D10198B0F5A06FF0D12A480068800302D50120009001E0002000900098D9
:20100000012847D12948006850F01000274908602648006880088000244908602348006808
:2010200050F00200214908601C481C49096801601A481A49096801601848006850F4A0605E
:20104000164908601548006830F47C10134908601248006850F4F810104908600E48006803
:2010600050F080700C4908600B4800688001FBD50A48006880088000084908600748006845
:2010800050F00200054908600448006810F00C000828F9D102B0704700100240041002408D
:2010A0000000FFF8FFFFF6FE081002400020024010B582B001214020FFF77AFA48208DF8BB
:2010C00003000120ADF8000000A93A48FFF794FE0220ADF8000000A93648FFF78DFE002005
:2010E00004000A2C0ADA4FF48070A040ADF8000000A93048FFF780FE641CF2E70A2000F012
:201100005DF813BD10B582B010208DF8030003208DF802000120ADF8000000A92548FFF77F
:201120006BFE2548012101600220ADF8000000A92048FFF761FE2048022101600024082CE5
:201140000ADA4FF48070A040ADF8000000A91948FFF752FE641CF2E70A2000F02FF813BD39
:20116000F8B5FFF7A5FF1348FFF7E2FEC0F3072090F0FF0080B20700FFB217F00F00801C02
:201180000A2190FBF1F201FB12000500FFB23809C0B2801C0A2190FBF1F201FB12000400F8
:2011A0000A2000FB05400600FFF7ACFF3000C0B2F2BD0000001801401018014081B00021B9
:2011C00000910099054A126802FB00F2914203D20099491C0091F4E701B070471000002083
:2011E00000002110422063308440A550C660E770088129914AA16BB18CC1ADD1CEE1EFF1EF
:201200003112100273325222B5529442F772D662399318837BB35AA3BDD39CC3FFF3DEE3AE
:201220006224433420040114E664C774A44485546AA54BB528850995EEE5CFF5ACC58DD56E
:201240005336722611163006D776F6669556B4465BB77AA719973887DFF7FEE79DD7BCC72E
:20126000C448E5588668A7784008611802282338CCC9EDD98EE9AFF9488969990AA92BB9EE
:20128000F55AD44AB77A966A711A500A333A122AFDDBDCCBBFFB9EEB799B588B3BBB1AABAE
:2012A000A66C877CE44CC55C222C033C600C411CAEED8FFDECCDCDDD2AAD0BBD688D499D6E
:2012C000977EB66ED55EF44E133E322E511E700E9FFFBEEFDDDFFCCF1BBF3AAF599F788F2E
:2012E0008891A981CAB1EBA10CD12DC14EF16FE18010A100C230E3200450254046706760EE
:20130000B9839893FBA3DAB33DC31CD37FE35EF3B1029012F322D2323542145277625672AD
:20132000EAB5CBA5A89589856EF54FE52CD50DC5E234C324A014810466744764245405446D
:20134000DBA7FAB79987B8975FE77EF71DC73CD7D326F2369106B01657667676154634562D
:201360004CD96DC90EF92FE9C899E9898AB9ABA94458654806782768C018E1088238A328ED
:201380007DCB5CDB3FEB1EFBF98BD89BBBAB9ABB754A545A376A167AF10AD01AB32A923AAD
:2013A0002EFD0FED6CDD4DCDAABD8BADE89DC98D267C076C645C454CA23C832CE01CC10C6D
:2013C0001FEF3EFF5DCF7CDF9BAFBABFD98FF89F176E367E554E745E932EB23ED10EF01E2D
:2013E00010B5084979441C31074C7C441A34A14206D0081D0A68511888470146A142F8D1F1
:2014000010BD00BF08000000280000004FF5FFFF34000000140000200000000067F1FFFF10
:201420000400000030010000100000200000000000F009F8002801D0FFF7D2FF0020FFF780
:201440002CFB00F005F880B5FFF78CFD012002BD80B500F001F800BF0746384600F002F852
:20146000FBE7000080B5C046C046024A11001820ABBEFBE726000200C046C046C046C04629
:20148000FFF7D6FFFFF7FEBFFFF7FEBFFFF7FEBFFFF7FEBFFFF7FEBFFFF7FEBFFFF7FEBF9C
:2014A000FFF7FEBFFFF7FEBFFFF7FEBFFFF7FEBFFFF7FEBFFFF7FEBFFFF7FEBFFFF7FEBF94
:2014C000FFF7FEBFFFF7FEBFFFF7FEBFFFF7FEBFFFF7FEBFFFF7FEBFFFF7FEBFFFF7FEBF74
:2014E000FFF7FEBFFFF7FEBFFFF7FEBFFFF7FEBFFFF7FEBFFFF7FEBFFFF7FEBFFFF7FEBF54
:20150000FFF7FEBFFFF7FEBFFFF7FEBFFFF7FEBFFFF7FEBFFFF7FEBFFFF7FEBFFFF7FEBF33
:20152000FFF7FEBFFFF7FEBFFFF7FEBFFFF7FEBFFFF7FEBFFFF7FEBFFFF7FEBFFFF7FEBF13
:20154000FFF7FEBFFFF7FEBFFFF7FEBFFFF7FEBFFFF7FEBF05000000FFFFFFFFFFFFFFFF0F
:20156000FFFFFFFFFFFFFFFFFFFFFFFFFFFFFFFFFFFFFFFFFFFFFFFFFFFFFFFFFFFFFFFF8B
:20158000FFFFFFFFFFFFFFFFFFFFFFFFFFFFFFFFFFFFFFFFFFFFFFFFFFFFFFFFFFFFFFFF6B
:2015A000FFFFFFFFFFFFFFFFFFFFFFFFFFFFFFFFFFFFFFFFFFFFFFFFFFFFFFFFFFFFFFFF4B
:2015C000FFFFFFFFFFFFFFFFFFFFFFFFFFFFFFFFFFFFFFFFFFFFFFFFFFFFFFFFFFFFFFFF2B
:201FE000FFFFFFFFFFFFFFFFFFFFFFFFFFFFFFFF0347533830302D426F6F7400FFFF10D21B
:202000000050002087A00008859D0008879D0008C79D0008C99D0008CB9D00080000000081
:20202000000000000000000000000000CD9D0008CF9D000800000000D19D0008459B00085C
:20204000B7A00008BBA00008BFA00008C3A00008C7A00008CBA000081B9E00081F9E000884
:20206000239E0008279E00082B9E0008E3A00008E7A00008EBA00008EFA00008F3A000081A
:20208000F7A00008FBA00008FFA00008F19D0008D39D00080BA100080FA100082F9E000808
:2020A00017A100081BA100081FA1000823A10008F39D00082BA10008FB9D000833A1000820
:2020C00037A100083BA100083FA1000843A1000847A100084BA100084FA1000853A1000890
:2020E0004D9E00085BA100085FA10008801E0C280ED8DFE800F007090B090B090B090B0912
:202100000B070700002070470120704702207047FF207047FF2805D04FF0FF32914201D038
:20212000062901DB0020704798B9052901D10E207047032901D10D207047042901D1022084
:2021400070470229FBD00129F9D00029F7D00F207047012815D1052901D10B2070470329EC
:2021600001D109207047042901D1072070470229FBD0012901D1052070470029E7D10320FE
:2021800070470228E3D1052901D10C207047032901D10A207047042901D1082070470229DF
:2021A000FBD0012901D1062070470029CFD1042070472DE9FC470446DFF8945C4FF4B37007
:2021C00000FB0458B8F86061DC2707FB045996B399F830AB5046FFF789FF012804D0504679
:2021E000FFF784FF022826D1E0B207FB005090F8051C02291FD090F8040C02281BD0D9F820
:20220000EC0BDFF8B85C08B9286815E04FF47A7171432A68101A814210D298F8620100B1AF
:202220000120019000200090012301220F21204601F0B8FAE8E70020C9F8EC0BBDE8F387F6
:2022400010B5022A03D0032A01D0042A01D1012300E00023062A03D101291FD1012010BD89
:20226000A0F11404072A07D1012917D1E4B2D02C8041C043C00F10BD02290BD1E4B2D02C0F
:202280000CD200F12001C9B204298041C00F984204D1E3E7884201D1002BDFD0002010BD3A
:2022A0002DE9F84390469946089D099B0A9E0C9F0022DFF8084C814258D0022823D1002DF9
:2022C00051D00522002B4ED020683368C01A4FF4FA73984247D2032901D1022243E004295B
:2022E00040D005293FD1F87B0028F6D0B87B002838D000F0A3F80128EFD1404600F0F5FEEF
:2023000000282FD0E9E7032806D1002D02D053BB042228E03BB3E0E7042806D1002D02D0D2
:202320000BBB03221FE0F3B11CE005281BD1002DEDD1C3B1F87B0028CFD0B87B90B10728BE
:202340000CBF0025012500F079F8A842C5D1404600F0CBFE0028C0D197F91000012801DBE9
:202360004845BAD10122206830601EE0002D1CD0316823685B1AB3F5FA7F16D92368591A4C
:20238000A1F5FA714FF47A73B1FBF3F803FB18114FF4FA73994208D2032801D0052801D1EE
:2023A000042202E0042808BF03221046BDE8F2832DE9F04705460F4690469946002400F0D7
:2023C0003DF882464846FFF791FEDFF8F06A2988012909D102246888012802D13878052818
:2023E00029D13068E86026E0BAF1000F02D1B97B062901D1FF2801D1EC601CE0788AE968A7
:2024000069B13268511A4FF47A725043814204D2687A02280FD102240DE0EC600AE050B10C
:2024200000F00CF807464846FFF760FE012FD8D0022FD6D001242046BDE8F087404655E662
:202440002DE9F8438146FF240025DFF8048ADC2000FB0986DFF8647A4FF4B37000FB098092
:2024600000EB450000F24810017821B1DFF8042D127891420AD1407800F02BFEA91981F84B
:20248000F00BA8193968890A80F8FA1B3868A91991F8FA1BC1EB9020C0B2422803D3A819F0
:2024A000002180F8F01BA81990F8F00BFFF71EFE18B1022805D004D304E0FF2C02D100247D
:2024C00000E001246D1C0A2DC6DB2046BDE8F283F8B5DFF87C2916234FF4B37404FB002427
:2024E00003FB014303F2F004DC2303FB002202EB011202F6AC352278521ED2B2082A1CD20B
:20250000A27901266379DFF8B4792BB1DFF864CC9CF800C0634521D12379FBB1012B02D082
:20252000FF2B1BD00FE0082A18D2104601F0EEFF022814BF0120002001E00020F2BDA88031
:202540003868800A09E041EA0041182003F04CF80020A8803868800A401CE8713868800A3C
:20256000E979401AC0B242280ED22079012802D0032804D00CE0A88850B9002608E0A888ED
:2025800040B2002804D4F8E73868800A4238E871E079012808BF86F001062E723046F2BDE2
:2025A0002DE9F04F85B080468946DFF8A40816214FF4B37202FB080201FB092101F2F007C3
:2025C000DC2101FB080B0BEB091000F6AC35F87800900024DFF8A06BDFF8E0A8494640468F
:2025E000FFF776FF002800F09080B87820B1DFF8841B0978884210D1009808280DD238784E
:2026000005281BD10420787049464046FFF718FF2880DAF80000800AA871DAF80000800AFA
:20262000A979401AC0B2422880F0D38028884FF6FF71884238D1FF2469805FE078780128E3
:2026400006D0022817D00428DED006280FD0E4E7009801F05BFF022805D0032801D00528D6
:2026600003D10120D4E70020D2E7FF20D0E7404601F04CFFCCE7009803F0BEFA2880DAF8C9
:202680000000800AA87101200099490000FA01F189B2DFF8E80A03F0D0FB0028BDD1009997
:2026A000172002F0A1FFB8E7397801296ED002294DD003295DD0042904D0052957D0082971
:2026C00064D017E06988A9B10BF606420497AB7A039305F10C030293537801939BF8063C17
:2026E000009392F902309BF8302BC9B2C0B2FFF7D7FD044628886880FF2C06D1DAF800002F
:2027000042F21171884228BF0024687AA04218BF6C72B8F1070F19D1B9F1030F16D13188B0
:202720007088814208D179B1DAF800007268801A4FF6E952904207D3212002F055FF30882A
:202740007080DAF800007060002030808CE2697A3B89984202D302246880D6E77B898342BF
:2027600028BF0124F8D2FF29C4D00C46F4E7042038749BF8313B9BF8302B39462846FFF7FA
:2027800017FE04469BF8300BE872B3E70100E3D0020A52B241B2002A03D597F90C309A42B7
:2027A000D9DA002903D597F90D3099420FDA002A03D497F90C309A4209DB002903D497F9B7
:2027C0000D309942C7DB002A58BF0224C4D50124C2E73088012101FA08F108433080DAF8D6
:2027E0000000800A4238A8712888B5E72DE9F14F8CB00BA80021016000248DF800104FF0B1
:20280000FF3005900A9008914FF0010840468DF80800099003A801800DF10A00018003F025
:2028200021F8002840F0828100259DF830000490DC2148430190DFF81816401807900498FD
:2028400000F09BFE01FB002006900DF12C0900271620069900FB051000F2F006079800EB8C
:20286000051000F6AC3AE9B29DF83000FFF798FE9AF80910FF2908BF0997BB46307801286F
:2028800027D0022807D0032823D004285FD005281DD0082816D1012908BFF77B02D0022936
:2028A00006D1B77B27B1307D00F0010000EA080899F8020001287DD0022F04BF022089F8FF
:2028C0000200012F76D1012089F8020072E04FF0010B0DF10A0001220BF80020022908BFFE
:2028E000B77B02D0012919D1F77B062F14D10227307D00F0010000EA08081BF8090002282D
:2029000058D0022F04BF02200BF80900012F51D101200BF809004DE0002FE9D1079890F8B1
:20292000300BFFF7E3FB0028E7D09AF80900022803D1F07B0128E0D104E00128DDD1B07BE5
:202940000128DAD103A801210BF80010D5E78CBB9AF80A0081422DD096F910000590708A36
:202960000890327D02B101228DF808204A1E08D0521E04D0521E022A98BF0C4602E0B47BB3
:2029800000E0F47B072C04BF01248DF800400598032806D1012C04D108980128A8BF8DF8B2
:2029A00008709DF8000028B1012903D10598052818BF05979AF809008AF80A006D1C042D15
:2029C000FFF645AF0198DFF88814461896F8300B10283ED0002C3AD04FF00F0A022C05D004
:2029E000042C03D0032C01D0052C0CD100F07DFB08B14FF0050AD6F8EC0B20B1DFF8BC042A
:202A00000068C6F8EC0B022C08BF0025012C05D19DF80000002814BF05250125042C08BFA5
:202A20000225032C08BF0325052C08BF04259DF8080001900898C0B20090059B5BB2EAB217
:202A4000514600F077F805A890F900000A90099800286BD0002499F80250012D03D10DF1A5
:202A60000A00205C30B914F80900012804D103A8205C28B9012512E0022808BF02250ED0BE
:202A800003A8205C08B1002509E0002CFBD19DF80A000028F7D19DF80B000028F3D1079896
:202AA000261896F8040C854233D0FF2813D1069890F85D01012802D0022804D008E000F010
:202AC0009FF9002202E000F09BF9012200F031F8FE2086F8040C022D01D0012D17D196F84A
:202AE000040CFE2803D1069890F85D0178B90A9868B1012C0CBF04230123022D0CBF0022FD
:202B00000122CDF804800020009000F012F886F8045C2DB903A8205C10B1022086F8040C43
:202B2000641C022C97DB0498FFF743FB0DB0BDE8F08F0F21049800F035BE2DE9F04F85B08B
:202B4000804615460026B346B8F1080F05D34146DFF84C0C03F080F986E0002914BF5020A9
:202B600057208DF808004FF4B370B94900FB0810009000F2EC000190009CA5F101098246D3
:202B800002AF19E0614641B1711CC855481C6146090AC155461C06F807C0062E04D0012EB6
:202BA00009DB0198844206D102AA711C00F077FF4FF0010B0026241DDFF8B8050378A245B4
:202BC0003ED34FF0000C2078642801D37F28E4D1B9F1630F01D37F2D01D1A842DDD108B186
:202BE000984207D160784045D7D00022012100F0A4FAD2E7009A0AE05378082B06D25B00DF
:202C00000EFA03F343EA0C011FFA81FC121D9245B8D392F800E08645F8D1A242B2D34FF0AF
:202C2000000E937813B94FF0010EE5E7012BE3D1D378002B0CBF4FF0030E4FF0020EDBE713
:202C4000BBF1000F10D1B9F1630F01D37F2D04D17D7000207880042600E0012602AA31460E
:202C600003F2801001F038FE05B0BDE8F08F70B5774ADC2101FB002101F6303110230B70C9
:202C800000238B704FF4B37404FB002010F82320642A01D37F2A02D15A18102401E05A186B
:202CA0000F24D4705B1C3C2BF0DB00224FF6FF73FF2501EB0214A4F87C3004F27C04638054
:202CC000162606FB020696F8F060761EF6B2082E38BF6572521C042AEBDB81F8D450FE2074
:202CE00081F8D5004FF0FF3081F8D80070BD2DE9F04784B00027002180464FF4B372544B04
:202D000002FB08390126162202FB019292F8F0308DF809305B1EDBB2082B0ED292F800215A
:202D20008DF808209DF90820D2B2062A05D29DF9082006FA02F21743FFB2491C0429E2DB91
:202D40000024C82101FB00F5ADF80060192000FB045A00AA0DF109010AF2254000F0B7F82C
:202D60009DF80900401EC0B2082812D2ADF8006000AA02A90AF2314000F0A9F89DF90800DB
:202D8000C0B2062805D29DF9080006FA00F08743FFB2641C042CD7DB2FBB00260420ADF878
:202DA000040001AA00A9701900F2E93000F08FF89DF80000642801D37F2811D1002009EB1E
:202DC00080010A789DF800309A4206D14A789DF801309A4204BFFF220A70401C3C28EEDB2D
:202DE000761C3C2EDAD3404600F05DF930B100F007F806220F21404600F0D4FCBDE8FF87C5
:202E00000020019000904FF0FF337047F8B500F057F8304600F02EFC0D4805FB060700F07B
:202E20003CF9A7F864012CB100AA3946C820704300F064F8761C082EEBDB012000F00AF8CB
:202E40000024E0B2FFF713FF641C082CF9DBF1BDC40C00202DE9F04182B000F031F8F0B25A
:202E6000FFF745FFDFF8700C05FB0608771C00AA4146C820704300F2E83000F028F8B8B9CD
:202E80009CB14FF4B272414602F0F8FFB8F8641181420AD039461D2002F0A6FBDFF8C82C32
:202EA0001221304600F06EFB02E0F0B202F0EBFC3E46082ED3DBBDE8F3810000B80C00204E
:202EC00004464FF4B375ADF800500026704780B203F06CBA70B582B000244FF4B375DFF863
:202EE000F86BADF8005000AA05FB046100F004F8641C082CF5DB73BDC820604300F2E83036
:202F000080B203F06FBA38B500244FF4B370DFF8C81B00FB04154FF4B272294600F0C0F8A0
:202F20000146B5F86401814208D0A5F86411C820604300F2E83080B203F072FA641C082CB1
:202F4000E3DB31BD082818D24FF4B371DFF8882B01FB002101F2F0010A78042A0DD14A7869
:202F6000062A0AD18A78002A07D1CA78824204D1488A002801D101207047002070470828BC
:202F800019D24FF4B371DFF8502B01FB002101F2F0010A78032A0ED14A78012A0BD18A7833
:202FA000002A08D1CA78824205D1488AB0F5966F01D101207047002070472DE9FA4282B0B1
:202FC0000446082C67D2DFF8106B4FF4B37000FB0467084697F8F01088425CD000F05DF804
:202FE00005469DF8080087F8F0000120ADF80400C82000FB04F901AA02A909F22540FFF724
:203000007FFFDFF8800C006800909DF8080003280CBF012006208DF800008DF8024007F1B9
:20302000F10000A9032203F0AFFA0320ADF8040001AA00A909F22640FFF762FF9DF80800C0
:2030400004280CBF00204FF49660A7F802010220ADF8040001AA07F5817109F23240FFF7B7
:203060004FFFB7F86401854209D100F016F8A7F86401014609F2E83080B203F0D1F9DC2006
:2030800000FB04604FF6FF71A0F8AC1B00F6AC304180FF214172BDE8FF824FF4B27239464B
:2030A000002002F0EBBE082811D20021DFF8283A4FF4B37202FB003212F82120642A01D3A4
:2030C0007F2A01D101207047491C3C29F0DB00207047082807D2DC21DFF8FC2901FB002013
:2030E00090F8300B70470F207047052801D0062801D10120704700207047DC22DFF8D839DD
:2031000002FB0030081890F8330B052805D0062803D0E52801D0EB2801D1012070470020DE
:203120007047082807D2DC21DFF8AC2901FB002090F8320B70470020704738B50C46082848
:2031400016D2DC21DFF8903901FB003595F8321B8C420DD019B9002200F014FA06E024B97F
:2031600022B147F230521121F6E70C4685F8324B31BD0000EC2600204C290020001401405C
:2031800010B503F08EFA30B90024E0B2FFF72EFB641C082CF9DB10BD10B50024204600F09D
:2031A00005F8641C082CF9DB10BD00002DE9F04F85B08046B8F1080F05D34146DFF8900BDC
:2031C00002F04AFED7E1DC2000FB08F6DFF808093018029000F6064003904046FFF763FF99
:2031E00008B9012635E100205FFA88F3DC21DFF8E82801FB0321421892F8332B102A0ED17E
:20320000DFF8C42C1268920A431893F86F3BD21AD2B2102A31D34218002382F8333B401CD2
:203220003C28E8DB01208DF8010001254FF0FF39CB466FF001008DF800000020ADF8020066
:203240008246DFF89408301801904FF4B370DFF8881800FB08100490049800EB8A018878C4
:20326000FF2803D1C878FF2800F0BC800878642805D37F2840F0B68002E01026E9E020B11D
:20328000DFF8482C127890421CD148780246424501D0082802D3FF20087024E0DC20DFF8C7
:2032A000383800FB023090F8300B019A524482F8330B01985044DFF8102C1268920A80F8F7
:2032C0006F2B15E00198504490F8330B80B1DFF8F80B0068800A019A524492F86F2B801A80
:2032E000C0B2102804D301985044002280F8332B0198504490F8330B8E78A6F1E007A0F120
:20330000E40106290FD200F11C04E420B04201D0E42837D164B2012C02D0B9F1010F2DD1FF
:203320004FF0010928E0A0F1EA0106293CBF00F11604EA20EAD3811E0C2912D8DFE801F04E
:203340000F0F0F0D0D0B0B09090707090700052409E0032407E0022405E0012403E0002489
:2033600001E04FF0FF34FEF7C1FEFF280FD00228CCD100208DF80100002508E04C45A8BFCE
:20338000A146F9E7042F24BF00208DF8010062B2012A02D0BBF1010F02D14FF0010B02E0DD
:2033A0005A45A8BF93469DF900006FF00101884208BF8DF800209DF9000090421CBF4FF07F
:2033C000FF308DF80000042F3CBF01208DF80300A6F11400CC2802D30EB1012E02D101200C
:2033E0008DF802000AF1010ABAF13C0FFFF634AF02989DF8031080F8061C03989DF8021054
:20340000417003989DF8001081709DF8010028B149460120FEF77EFE06461AE015B159468F
:203420000020F7E759460220FEF774FE06460020049901EB8001CA78FF2A07D18A78FF2A82
:2034400004D009786429EAD37F29E8D0401C3C28EEDB029800F6303790F8300B78700298A8
:2034600080F8306B34468DF8008000259DF800A0162000F082F801FB0A2100FB051B9BF8EB
:20348000F000042811D1E9B29DF80000FFF720F858B10BF2F000817B07290CBF4FF00109BA
:2034A0004FF0000990F910A004E06D1C042DDFDB4FF0FF3ABAF1000F37D4AAF1010005282D
:2034C00033D23046FEF712FEB11E0C2912D8DFE801F00F0F0F0D0D0B0B0909070709070039
:2034E000052109E0032107E0022105E0012103E0002101E04FF0FF315FFA89F242B1012844
:2035000008BF00200ED068B9022E0BD0012001E0012807D1039A92F90220524502D0012AD9
:2035200018BF0220FEF7F6FD0446B87880B1022801D0032807D14046FFF7B5FD002814BFD8
:2035400002200320B870B8780FF6B011415C08E026B9029890F8060C00B102260FF68810FA
:20356000315C4FF0FF32404600F00CF821465FFA88F001F001F8FFF777BB4FF4B371DFF84C
:203580005825704780B5082838BF03F0EEF801BD70B50022002300244FF4B375DFF8386597
:2035A00005FB036505EB84052E78864205D096B9DFF81869367886420DD16E788E420AD15B
:2035C000AE78FF2E04BFED78FF2D04D001249C40224392B202E0641C3C2CDDDB5B1C082B9A
:2035E000D9DB104670BDF0B5002200230024002516264FF4B377DFF8E0C407FB03C706FB70
:20360000057606F2F00637787F1EFFB2082F22D2002701E0FCB917B906F1040C01E006F1AD
:20362000010C9CF800E0BEF1000F11D09CF801E0864508D0BEF1000F0AD1DFF890E89EF8D4
:2036400000E0864504D19CF802C08C4508BF01247F1C022FDEDB6D1C042D01DA002CC7D0FA
:203660001CB101249C40224392B25B1C082BBDDB1046F0BD70B50546082D2BD2DFF81C49B0
:203680004FF4B37000FB0546FF220146304603F045F916220FF6380106F1F00002F074FFAD
:2036A00086F8F3500121E8B202F058FF022086F85C0106F25C10002181808171DC2000FBD8
:2036C000054494F8325BDC2104F5336003F070F984F8325B70BDDBB22DE9F0470024DFF898
:2036E000E887DFF8B89800274FF0DC0C0CFB049C4FF4B37E0EFB049E1EF8275085421DD1DE
:203700000EEB87056E788E4218D11646A2F1140A5FFA8AFABAF1D00F07D2AD78AA420CBF5C
:20372000E426EA26062B38BF9E1907EB0C0585F8336BD8F80060B60A85F86F6B7F1C3C2F25
:20374000DADB641C082CCEDBBDE8F087F0B50023DFF87447DFF844580026DC2707FB0357E9
:203760004FF4B37C0CFB035C0CEB460C9CF848E186450DD19CF849C18C4509D106EB070C75
:203780008CF8F02BD4F800E04FEA9E2E8CF8FAEB761C0A2EE4DB5B1C082BDDDBF0BD0000D8
:2037A000EC9B00082DE9FB4F8CB01446082805D301460FF2EC7002F04FFB66E1012C03D055
:2037C000032C01D0052C05D101200590012C03D1002006E0002005909DF860007F2802D3FF
:2037E0007F208DF8600000250C98FFF7C6FE01FB00280DF10C0A062C08BF25201BD0072C2E
:2038000008BF242017D0E8B2022808BF372012D060B90CB1052C09D19DF93810032908BF40
:20382000352008D0052908BF342004D09DF9381000EB410028308DF80C0000269DF8600030
:203840008DF808009DF8640058B19DF8080020B91DB1022D05D1012C03D140F080008DF85A
:203860000800B14600A808EB8901042202F08CFE9DF80000642801D37F284ED12246E9B2C4
:20388000059800ABC0188078FEF7DAFC002844D09DF80170102F40D29DF834000F2809D0D9
:2038A00005283AD15FFA89F10C98C0B2FFF725FC002832D0DFF8140600789DF8001009B1DE
:2038C00081422BD18DF80000082F03D340F0800000F0DEF8142106A803F07EF8DFF8EC050D
:2038E00000784FF4C0710843069004208DF822009DF80C008DF823009DF800008DF82400A9
:2039000001209DF9011088408DF825009DF808008DF8260006A801F04EF87FE0082F03D3D4
:2039200041F0800000F0B4F8002701A808EB8701042202F029FE9DF80400642801D37F2810
:2039400069D19DF80500082808D39DF8041041F080018DF8041008388DF805009DF8040031
:203960009DF80010884256D1059801A9401890F802B02246E9B25846FEF762FC00284AD0A2
:203980009DF834000F2808D0052844D1F9B20C98C0B2FFF7B2FB00283DD04F453EDB11D1E5
:2039A000761C9DF8000006F80A00022D06D1FF2204210DF10E0002F0B1FF03E0761C002049
:2039C00006F80A0018F8270020B1DFF800150978884205D108EB870040780C9988421AD03F
:2039E0009DF80500022D0ED10BF12001C9B2042903D2042C08BF4FF0E30B03A9401880F8E5
:203A000002B0052607E016F80A10012202FA00F0084306F80A007F1C3C2F86DB062E07D0E6
:203A2000012E28DBB9F13B0F02D0022D23D101E0022D16D198F85C01102828BF02209DF9B0
:203A40003810C9B2062924BF4FF0FF318DF83810761C9DF9381001F00F0141EA001006F8AB
:203A60000A00701C9DF8081000F80A1003AA411C00F015F8002609F10109B9F13C0FFFF6D6
:203A8000F1AE6D1C032DFFF6B6AE0FB0BDE8F08F8DF80000A7F108008DF801007047DFF859
:203AA0002C04007800F2801000F016BF10B50446082C0FD2DC20DFF8E41400FB04100221F6
:203AC00080F8321BFF2201212046FFF736F82046FFF76CFB10BD0000C40C0020082800D3D1
:203AE000704780B50A46002105E0082800D3704780B50A460121FFF720F801BDF8B5044660
:203B0000082C30D24FF4B370ADF80200DC25DFF88C6405FB0461002281F8322B00FB0467D7
:203B2000FFF7BBFAA7F8640151208DF8000000AA0121FFF7B4FF0020002205FB006181F84F
:203B4000322B401C0828F8DBFFF726FB0DF102023946FFF7D1F902F09CFC2046FFF726FB4A
:203B6000E0B201F090FEF1BD400D03002DE9F84F81469A460A9E0027B9F1080F06D349463A
:203B80000FF24C4002F068F9012079E0CF4B1878814208BF00214FF0FF3E7046B846DFF86F
:203BA000FCC34FF4B37404FB09C909EB8804257893F800B05D4504BF0025257025788D4228
:203BC0001ED194F801B093451AD1BEF1000F04D5BAF1FF0F08D1FF2E06D1FF2727700025E7
:203BE0006570A770E77008E0A578554502D1E578B54203D084F802A0E6700127C64606E05B
:203C0000002804D5642D02D37F2D18BF404608F10108B8F13C0FC8DB1346BAF1FF0F01D1B7
:203C2000FF2E0DD0BEF1000F0AD5002816D409EB800739707A7087F802A0FE70864601273A
:203C4000D1B9BEF1000F17D4DC2000FB03C009EB8E018978012918BF002108E029B947F2CE
:203C6000305211211846FFF78DFC032008E080F8321B1846FFF79AFA002F0CBF04200020BD
:203C8000BDE8F28F1C9C00082DE9FD4F81B000208E4A12789DF8043000938B4BDFF8FC9292
:203CA000002516264FF4B37B0BFB009B06FB05BA0AF2F004667894F802B094F803C094F8EA
:203CC00004E094F80580A4799AF8F070082F08BF05264FF0DC0A0AFB009A0AEB051A0AF6DF
:203CE000AC378E4215D105290CD0009EB34506D0BBF1000F0DD19DF80460964209D1029ED1
:203D0000B44506D1BDF80C60AAF8AC6B1E68B60ABE718E4514D105290CD0009EB04506D059
:203D2000B8F1000F0CD19DF80460964208D1029EB44205D1BDF80C60BE801E68B60AFE71C4
:203D40006D1C042DADDB401C0828A9DBBDE8FF8F209C000810B56FF07E04802AA8BF7F22C2
:203D600002DAA242B8BF2246802BA8BF7F2302DAA342B8BF2346DBB243EA02239BB20A46D3
:203D80000321BDE810407FE76FF07E038029A8BF7F2102DA9942B8BF1946802AA8BF7F22D5
:203DA00002DA9A42B8BF1A46D2B242EA01239BB20022052168E770B508287CD204297AD2A0
:203DC0004FF4B372754B02FB0034162202FB014202F2F0052E78FF2E08BF00260A460146D2
:203DE0000FF2242002F038F80FF25C4050F826100FF2342002F030F8EB786A78A9780FF26B
:203E0000342002F029F8AB792A7969790FF2482002F022F8E9790FF2682002F01DF8298979
:203E20000FF2702002F018F869890FF2802002F013F895F90C100FF28C2002F00DF895F983
:203E40000D100FF2942002F007F8A97B0FF29C2002F002F8E97B0FF2AC2001F0FDFF95F926
:203E600010100FF2B82001F0F7FF698A0FF2C02001F0F2FF297D0FF2CC2001F0EDFF28789C
:203E8000052812D10FF2D42001F0E6FF00250FF2DC2604EB450090F8492190F848113046A2
:203EA00001F0DAFF6D1C0A2DF3DB0FF2D420BDE8704001F0D1BF0A4601460FF2E420BDE89E
:203EC000704001F0C9BF0000B80C0020EC2600200406000000FF0000000000000000020197
:203EE000000000000000000003000001020B0C010201020102000003000000000006040788
:203F00002DE9F04F83B0044621460FF2C42001F0A3FF0FF2D42001F09FFF00251F4E4FF497
:203F2000B37000FB04670FF254380FF2E0290FF23C3A07EB85008178032928BF0321C27809
:203F4000032A28BF0322DC2303FB0463EB1893F833BB5AF8222001925AF821100091437852
:203F600017F825202946484601F076FF5846112839BF58F82B1007A0594607A001F06CFFE7
:203F80006D1C3C2DD5DB0FF29C20BDE8FE4F01F063BF000025730A0025640A00C40C002098
:203FA0004C434F5F436F6D6D616E6454617267657473282920676F7420696E76616C696469
:203FC000204C4320696E6465783A2025640A00004C434F5F5072675570646174655461721D
:203FE000676574282920676F7420696E76616C696420536F757263652D4C4320696E6465B2
:20400000783A2025640A00002D2D2D4C435B25645D2E545249474745525B25645D202852C7
:20402000414D292D2D2D0A00547970653A2025730A000000496E7075745265663A2041646E
:2040400064723D25642C547970653D25642C496E6465783D25640A00456E61626C6552653E
:20406000663A20416464723D25642C547970653D25642C496E6465783D25640A00000000B7
:20408000456E61626C65506F6C61726974793A2025640A00526973696E67546872657368BE
:2040A0006F6C643A2025640A0000000046616C6C696E675468726573686F6C643A20256487
:2040C0000A000000526973696E674F66667365743A2025640A00000046616C6C696E674F0A
:2040E00066667365743A2025640A0000526973696E6745646765416374696F6E3A20256499
:204100000A00000046616C6C696E6745646765416374696F6E3A2025640A0000436D6450B4
:2041200072696F726974793A2025640A00000000486F6C64506572696F645365633A2025FC
:20414000640A0000466C69636B5761726E456E61626C653A2025640A000000004341207226
:204160006566207461626C653A0A000020416464723A253264204C43233A25640A000000D9
:204180002D2D2D2D2D2D2D2D2D2D2D2D2D2D2D2D2D2D2D2D2D2D2D2D2D2D2D2D0A0A00001F
:2041A0002A2A2A204552524F52202D20496E76616C696420706172616D3A204C433D2564C3
:2041C0002C20545249473D2564202A2A2A0A00000A4C435B25645D2E5441524745545320AD
:2041E0002852414D290A00005447232D4144522D4F50232D4143542D44454143542D53546C
:20420000415455532D2D2D2D2D0A00002532643A2025336420253364202573202573202D0C
:20422000200000002D2D2D2D2D2D2D2D2D2D2D2D2D2D2D2D2D2D2D2D2D2D2D2D2D2D2D2D72
:204240002D2D2D2D2D0A0A00509C00085C9C0008689C0008749C00087C9C0008849C000809
:20426000909C0008989C0008A09C0008E89B0008A89C0008AC9C0008B09C0008B49C0008B7
:20428000BC9C0008E89B0008C89C0008D49C0008E49C0008F09C0008FC9C0008089D0008E6
:2042A000189D0008249D0008349D0008449D0008549D0008649D0008749D00087C9D00087A
:2042C00038B505460C4601200FF25841695600FA01F10FF2304050F82500002C89B202D0D7
:2042E00001F0B6FD01E001F0B5FDDFF8B403295CA14206D000EB8501DFF8A82312688A6053
:204300002C5431BD7CB5E0B10820ADF8040000240FF2E835DFF8900300EBC406BDF8042062
:204320002946304602F030F906223146002001F0A5FDF08001AA314600F04AF8641C082CB3
:20434000E8D3012000F019F810208DF8030003208DF8020000240FF2AC350FF2C8360120F8
:20436000A1578840ADF8000000A955F8240001F005FD641C082CF2DB73BD70B582B0044679
:2043800000250820ADF80000DFF81C0300EBC50600AA31460A20684300F2203080B202F023
:2043A00005F888B984B10622314601F067FDF188814209D005F115011D2001F015F9BB4A34
:2043C0001221284602F0D1F96D1C082DD9DB73BD0A20604300F2203080B202F003B838B503
:2043E000002400F0C0F80146E888814207D0E9800A20604300F2203080B202F011F8641C7B
:20440000082CEEDB31BD082803D2A74911F830007047FF2070472DE9F04182B006460F46DC
:20442000082E26D2032F24D2DFF87C8218F83600B8421ED008EBC60400F01DF8054608F816
:2044400036700120ADF800000A20464300AA214606F2213080B201F0C5FFE088854208D1F4
:2044600000F009F8E080014606F2203080B201F0D7FFBDE8F38106222146002001F0FEBCF0
:20448000082807D2884901EBC0004078642802D3632070470020704781B0834901EBC000C3
:2044A00080780FF244220346052B08D200A902EB800002880A8042884A8000980FE05A3B70
:2044C000DBB2092B09D200AA01EB8000A0F594700188118041885180EFE71068009001B04E
:2044E000704708280BD2704901EBC000B0F9040040F2E931884204DB4FF47A7070470020ED
:2045000070476B498842B8BF0846704738B505464FF6FF74FFF777FF18B102281DD004D3D7
:204520001FE0E8B202F012FC1AE0E8B202F00EFC0446042808BF022402D0052808BF032402
:20454000594800EBC500807858B1022C08BF032407D0032C05D1022403E0284601F04CFB62
:204560000446204632BD504800EBC40506222946002001F083BC000038B504460D46082CAB
:204580002ED200F084F8002826D12046464911F830200ABB01EBC0018978E9B96D1E0F2D66
:2045A0001ED8DFE805F0080819080A0A19081908190808081D08002110E03949394A1268DC
:2045C00001EB80039B68D21AB2F57A7F08D9405C411E8941C90F00E001212046FFF770FE93
:2045E00031BD2DE9F04100270024DFF8B880314E00F04DF8451EAD41ED0FE0B201F0A4FF05
:20460000854226D0002D20460DD0FFF7FCFE012818D1E0B2FEF7B3FCA0B100212046FFF767
:20462000FAFE04210BE0FFF7EEFE58B9E0B2FEF789FC38B101212046FFF7EDFE0321E0B26B
:20464000FEF7BBFC2946E0B201F088FF012700203060204600F034F870B1306830B1D8F871
:204660000010081A42F21171884205D3124A1121204602F07AF80127641C082CB8DB27B111
:2046800000F08AFFD8F800003060BDE8F0810120610000FA01F189B2084801F0CEBB0000B8
:2046A000D8280020B80C0020C4270020400D030018FCFFFF60290020A08601000014014064
:2046C00010B50446FFF7E3FF0028204605D0FFF79AFE002805D1012010BDFFF794FE022864
:2046E000F9D0002010BD0000010100000A64000019640000010100000201000000320000E0
:204700000000000000080140000801400008014000080140000C0140000C0140001001408A
:20472000001001400001020308090706417B027802F07F027F2A14D1027B032A11D1DFF86A
:20474000082DFF290BD0FE290BD1DFF8001D0988C37B807B00EB032080B2814201D08720E5
:2047600010707047352801D103207047342801D1052070474008143840B2704770B5044643
:20478000DFF8CC5CDFF8CC0C01686A69891A42F21172914213D3A969EA698A4238BFE961AA
:2047A000698A2A6A8A42B8BF29620021A96100686861281D00220B460E464EC0297005EBA5
:2047C0004400082C02D28188491C8180A969491CA961B1F5967F0ED980881F280BD328782E
:2047E00048B9DFF8840D01F037FB204601F04BF808B90120287070BD10B588B04FF400604C
:20480000ADF8000048208DF80300DFF8004D00A9204601F0B3FA4FF48050ADF80000182042
:204820008DF8030003208DF8020000A9204601F0A5FADFF8DC0C0021416001603D21816086
:204840000021C0F8D414C0F8D0142921C0F8D814DFF8904D204602F061FB01A802F039FCD5
:2048600000208DF80A0001208DF80B000020ADF80C008DF80E0001208DF80F000020ADF8FA
:2048800006000E208DF8080001208DF809001920ADF8040001A9204602F059FB0020ADF8AB
:2048A0001A0001208DF81C00002004900590ADF8180001208DF81D0004A802F0B7FB0122E0
:2048C0000221204602F01CFC01224FF40041204602F016FC08B010BD70B586B006460C46B6
:2048E0001546142100A802F077F800960020ADF808008DF80A40224629460DF10B0001F01C
:2049000043FEDFF80C4C6068411CA26891FBF2F302FB13112268914208BF022012D0142109
:2049200001FB00400C3000A9142201F03AFE6068401CA16890FBF1F201FB1200606000F09E
:2049400003F8002006B070BD70B586B0DFF8C04B2668606886422CD0DFF8885CA86810F037
:20496000E05F26D000A8142101FB06410C31142201F017FE701CA16890FBF1F201FB120058
:204980002060DFF8B40C806A78B10098C0F3C310032804D19DF80B000B280AD105E00E2806
:2049A00007D19DF80B00022803D100A9284602F0AFFB06B070BD70B50146DFF8540B00F257
:2049C000D0446268531CA56893FBF5F605FB1633D0F8D054AB4201D1032070BD142303FB8B
:2049E000020000F2DC40142201F0DBFD6068401CA16890FBF1F201FB12006060002070BDF2
:204A00002DE9F04F89B0DFF8340C0068DFF82C1C4968884200F0A28403A8DFF8201C0968AA
:204A20001422DFF8183C02FB01310C31142201F0B8FDDFF8080C0068401CDFF8001C89683A
:204A400090FBF1F201FB1200DFF8F01B08600398C00910F00F00032821D0C0F07F84052821
:204A600000F0E183C0F09483072800F0DE83C0F0DB83092800F05C84C0F0D8830B2800F05E
:204A80005984C0F056840D2800F05584C0F0CE830F2800F05284C0F04F8400F05FBC9DF890
:204AA0001740039810F07F05DFF8940B0068002840F05484E4B220000C382FD0083804280D
:204AC0003ED9401F00F088800B38112840F2A880183800F0FA82401E00F00283401E00F0B5
:204AE0000883401E00F02383401E00F03C83103800F08A81401E00F0CB81401E00F0DC81A2
:204B0000401E012840F24082001F00F080810E3800F02A83233800F02B8338E39DF8160068
:204B200002280CD19DF81800DFF8341D0978884203D09DF81800FF2801D100F012FC26E3CE
:204B40005FF008085FF000095FF0020AE4B2142C01D106208046E4B2172C02D0E4B2182C2A
:204B600006D19DF81900C0B2C000814603208246002007005FFA88F847452ADA5FFA8AFA5F
:204B8000022097FBF0F010EB0A0003A9401890F80BB03800C00702D51BF00F0B03E05FFAFE
:204BA0008BFB5FEA1B1B5FF0FF335A46D2B217EB0901C9B22800C0B2FEF78DFD5A46D2B287
:204BC00017EB0901C9B22800C0B2FEF7BFFD7F1CD0E7FEF7E1FADAE200200700042F1CDAD5
:204BE0003800C00701D5002000E00420022197FBF1F103AA8918097C51FA00F010F00F0800
:204C000043465BB203A83818027B3900C9B22800C0B2FEF760FD7F1CE0E7FEF7BDFAB6E240
:204C200000208DF80800012006009DF81600401E864280F2D9803000461C03A94018C07A34
:204C4000DFF81C1C0978884240F0CC805FF00F0801208DF80800E4B2272C08D0E4B2292CBE
:204C600005D0E4B22D2C02D0E4B22F2C17D100200700082F13DA03A83018C07A0121B94032
:204C800008420AD03800FEF724FAC0B2FEF72DFA002802D00520804601E07F1CE9E70020C6
:204CA0000700082F80F29E8003A83018C07A0121B940084200F094809DF8160003A94018E1
:204CC00090F80AA0E4B2242C43D1072081461AF1010A5FFA8AFABAF1650F2AD3DFF8240CA4
:204CE00050F8270000281DD139000FF6744001F0B3F8DFF8142C1121092001F036FD3800D3
:204D0000FEF70FFA002805D1DFF8FC2B11213800FEF738FCDFF8EC0BDFF83817096840F869
:204D200027103AE0E4B221000FF64C4001F094F858E000220021092001F017FD0022002171
:204D40003800FEF71FFCDFF8BC0B002140F8271023E03800C0B2FFF711FDE4B2252C02D172
:204D60000620814619E0E4B2272C11D0E4B2292C0ED0E4B22B2C0BD0E4B22D2C08D0E4B295
:204D8000312C05D0E4B22F2C02D0E4B2332C02D10020814601E001208146DFF8680B50F814
:204DA0002700002804D05FFA89F9B9F1070F17D15FFA8AFA5FEADA1B2000C0B2FFF7D2FCDC
:204DC0005FFA8BFBCDF804B01AF07F01009103005BB24A46D2B24146C9B23800FEF7E2FC2F
:204DE0007F1C5EE7761C20E7E4B2242C0BD09DF80800002804D02900C9B2012000F0D2FA5F
:204E0000FF20FFF7BBFCC2E1DFF8000B0570012006009DF81600864233DA3000461C03A9E7
:204E20004018C07ADFF8381A0978884226D103A83018C07A03A97118097B51EA002800200C
:204E40000700082F1ADA032018EA000F02D05FF0010901E05FF00009E4B2572C01D101227A
:204E600000E00022D2B24946C9B23800FEF765F91FFA88F85FEA98087F1CE2E7761C761C0D
:204E8000C7E7E4B2502C02D1012000F0E5FA7EE1DFF8780A00210170DFF8740A002101606E
:204EA00000200700082F06DA002200213800FEF744F97F1CF6E76AE1DFF8500A0078DFF8C4
:204EC000A019097888425ED19DF81600012807D1EDB22900DFF83C0A0078FEF706FE52E06B
:204EE00000200700062F42DA4FF0FF084FF0FF09022097FBF0F003A9401890F80CA03800A9
:204F0000C00702D51AF00F0A03E05FFA8AFA5FEA1A1A5FFA8AFABAF1010F05D00ED3BAF19A
:204F2000030F09D005D309E0012080460020814604E00120804601E0002080465FFA89F98A
:204F4000CDF800904346DBB23A00D2B22900C9B2DFF8C0090078FEF709FE002805D1DFF89B
:204F6000B009DFF8F014096801607F1CBAE7EDB22900DFF8A0090078FEF7B0FDDFF89409B9
:204F80000078FEF713F902E19DF81600012807D1EDB22900DFF87C090078FEF7A6FD7FE076
:204FA00000200700082F7BDA022097FBF0F003A9401890F80C803800C00702D518F00F089D
:204FC00003E05FFA88F85FEA1818DFF840090078DFF88C180978884247D15FF002095FFA73
:204FE00088F8B8F1000F07D0B8F1020F20D011D3B8F1030F1CD02CE0FF200090FF233A0056
:20500000D2B22900C9B2DFF80C090078FEF7AEFD81461EE00020009001233A00D2B22900E4
:20502000C9B2DFF8F0080078FEF7A0FD814610E0DFF8E008007802F015F900211F2000F0DE
:20504000D3FADFF8D4281121DFF8C8080078FEF799FA5FFA89F9B9F1000F1FD1DFF8B008C4
:20506000DFF8F0130968016018E05FFA88F8B8F1020F04D05FFA88F8B8F1030F0ED1DFF8DB
:205080009008DFF8D01309680160DFF880080078EDB2A84202D000F042FA01E07F1C81E7AA
:2050A000DFF868080078DFF8B817097888420BD1EDB22900DFF85C080078FEF70FFDDFF811
:2050C00054080078FEF772F861E0BDF91B30BDF919209DF818102800C0B2FEF73BFE56E0B1
:2050E000BDF91A20BDF918102800C0B2FEF74CFE4DE00220060000200700082F16DA9DF8D1
:2051000018000121D7F10702914008420CD003A83018B0F80B303A0002212800C0B2FEF7CB
:20512000B3FDB61C082E01DA7F1CE6E72FE000200700082F16DA9DF818000121D7F1070277
:20514000914008420CD09DF81900D7F10701084110F001033A0001212800C0B2FEF794FD11
:205160007F1CE6E713E012E003A8FFF7DFFA0EE01C220021DFF8A40702F08CF9DFF8A007A4
:2051800000210160DFF89C0700210160FFE7E5E09DF81500002808D0039810F07F042100FD
:2051A000C9B2012000F0FEF83CE09DF81740E4B220005A38012802D9801E2AD032E09DF8DA
:2051C0001600032824D1E4B25A2C07D19DF819109DF81800FEF7DCF905000CE0E4B25B2C62
:2051E00007D19DF819109DF81800FEF7FCF9050001E000200500EDB2002D09D02B00DBB21A
:205200009DF819209DF818102000C0B200F0AEF908E09DF81800DFF848160978884201D1F3
:2052200000F0BAF99AE099E098E097E0039810F07F04BDF817500026DFF80404006800281A
:2052400040F08C80DFF818060078E4B2844202D0E4B2782C6BD19DF81600801EADF8000013
:20526000BDF80000002835D147F6FE70ADB2854206D101F030F9FDF78FFFFDF781FF1CE097
:20528000ADB2052D0FD101F024FA01900220ADF8000000AA02A9042001F088F80600062020
:2052A000ADF8000009E00620ADF8000000AA01A9280080B201F07AF80600F6B2002E01D0D7
:2052C00055F40045BDF8002001A9280080B200F02FF92CE0BDF80000012828D300AA0DF1C2
:2052E0001901280080B201F07DF80600F6B2002E01D055F4004500AA01A9280080B201F0FA
:2053000055F80600F6B2002E09D19DF81600821E01A90DF1190002F0C7F8002801D055F48B
:205320000045002201A9280080B200F001F915E014E013E012E011E010E0039810F07F044B
:20534000E4B23C2C0AD108220FF24C610DF1170002F0AAF8002801D100F0B9FA09B0BDE8F8
:20536000F08F00B583B00B208DF8000003208DF8010000A802218170DFF8AC150978C17067
:20538000324800888DF80400000A8DF8050000208DF8060021208DF8070000AA082100F0B3
:2053A000F3F80EBD2DE9F04383B080460D4616208DF8000000AE01F065FF707000249E4FF3
:2053C00007EB8400406B002812BF0F202046FDF780FE04EBD47100AA02EB6101E20751BF86
:2053E00000018A7800F00F0010438870641C082CE6DB0624DFF85C90B8F1000F0FD175B938
:20540000D9F80000796D401A41F28831884206D2062207F16C0100A802F046F880B1D9F886
:205420000000786500A807F16C010CC80CC10DB1B571072400AA2146387A00F06BF800E0DC
:205440000520BDE8FE83000069290020F0F7000800290020B80C00202DE9FC41804600A872
:205460000FF240510CC90CC0734DDFF8A004007800283BD0002600AF06EBD6704010401C5B
:20548000C4B23046FDF74DFEE15D40EA0110E055761C082EF0DB787868B9687858B9B8786E
:2054A00048B9A87838B9F87828B9E87818B9387908B9287938B3DFF87404B8F1000F06D17C
:2054C0000168AA6D891A41F2883291421BD3012169720068A865052200A9284601F061F801
:2054E00000AA0521287A00F015F80DE0687A50B100210120FFF756FF0621284601F06CFAF4
:205500000020A86568720520BDE8F68100080140D41E00204FF4C0731843FFF7DDB980B556
:2055200000A80FF288410A78027000AA012128E019B582B0144602A800AA037813704378CA
:20554000537022460DF1020001F01EF800AAA11CDFF8DC03007A4FF460731843FFF7BCF966
:20556000002004B010BD000008A0000880B58DF800008DF801108DF802208DF8033000AA81
:20558000042100F001F802BDDFF8A403007A4FF4C0731843FFF7A0B9F8B500A80FF210417F
:2055A0000A6802600024012500AE05FA04F7600005FA00F189B2DFF87C0300F03EFC10B159
:2055C0007078384370702046FFF77AF810B1B0783843B070641C082CE7DB00AA0321FFF7FC
:2055E000D3FFF2BD0064004032B582B0124CCF4D2968E26D891A4FF47A72914219D302215F
:205600008DF800108DF80100000A8DF80200042202A90DF1030000F0B7FF2868E06500AAE7
:205620000721207A00F07F0040F4E060FFF754F93EBD05203EBD0000E4260020A423002056
:205640000C2700202DE9FC47DFF8EC82D8F80090B74D287AB54E411EC9B2632903D37F286D
:205660001CBF3068A862A86AA8B13168081A42F21071884205D30020A8624FF0FF32022173
:2056800006E000211B20FFF7AFFF4FF0FF321121082001F06AF800270FF2A82405EB870A92
:2056A000DAF8340078B13168081A42F21171884209D3F8B200F0E7F828B9204600F0CCFB2D
:2056C0000020CAF834007F1C082FE7DB4FEA1967286E484526D0C9F30211072904D205EB89
:2056E0008101CA68521CCA60010E7A1A012A02DBEB6AD218EA62C9F30742C0F30743D21A3A
:20570000012A02DB2B6BD2182A6329EA00000622104201D1B94205D247F23052012109203D
:2057200001F023F8D8F8000040F07000C8F800004FEA1948286E000C404504D049460FF208
:20574000742000F089FB3068696E401A44F62061884247D3E868810C8DF8001000AC800A31
:2057600060702869FF21FF2834BFA070A1706869FF2834BFE070E170A869FF2834BF207125
:205780002171E869FF2834BF60716171286AFF2834BFA071A171686AFF2834BFE071E1710B
:2057A00000AA0821287A40F4B060FFF795F88DF8007084F80180E86A010CA170010AE170EF
:2057C0002071286B010C6171010AA171E07100AA0821287A00F07F0040F4A060FFF77CF8D6
:2057E00030686866C5F86090BDE8F387417A81B90068C10901F00F01032901D00E2908D142
:205800004B4900F07F000A7A904202D1474800688862704738B5464C444D2868A16E401ABB
:20582000B0F57A7F1BD901F08BFE2968A166217A884202D10020A07231BDE17A814207BF88
:20584000A07A401CE0720020A072A07A062806D3E07A20720020A072FF2000F014F831BD06
:20586000EC2600203548816802684068101A0818401E90FBF1F201FB1200142801DA012022
:2058800070470020704710B586B00446142100A801F0A2F82648007A4FF4C071014300919C
:2058A00004218DF80A1024218DF80B108DF80C00FF2C0EBFFF200120A0408DF80D000020E4
:2058C0008DF80E0000A8FFF776F806B010BD1B4801684068814200D0704700B583B01848A0
:2058E000006800F0E050B0F1E05F0AD100A80FF2D0010CC90CC000AA08214FF4F560FEF7EA
:20590000EBFF07BD18270020801A0600542900205829002055290020A0860100F0260020A1
:205920001027002014270020F01F0008B80C0020E42600200014014018640040D41E00206D
:20594000086400402D2D2D3E20436C656172204D73674C6F6F7020466C61670A000000004A
:205960002D2D2D3E204C45442564203D204C6F6F704572720A0000002D2D2D3E204272659C
:20598000616B204D73674C6F6F7020286D73673D2564290A00000000FFFFFFFFFFFFFFFFDA
:2059A000000000005400000000000000540000005C0000004553523D253038580A000000CD
:2059C000EEEEEEEEEEEEEEEE10B58CB0DC4C204601F0FAFDDB480090DB48019000200290C7
:2059E0000A20039000200490802005904FF4807006904FF480600790202008904FF4005013
:205A0000099000200A9000A9204601F03DFE0121204601F054FE0CB010BD2DE9F14F88B016
:205A20004FF0000A00242046DFF820830DF10809C74901EB4001898D29F8101038F8102016
:205A4000891A48BF49429DF820209142A8BF4FF0010A401C0A28EBDB3E208DF8000000ADD4
:205A60006C7002260027DFF8ECB23846FEF7CBFC02281FD139F8170008EB47018A8A821AFF
:205A800048BF52429DF820309A4213DB6A780123C7F10704A3401A436A7070538882B61C3A
:205AA000082E06D100AA082100F02BF800206870022601247F1C082FD7DB032E03DB00AA71
:205AC000314600F01EF8BAF1000F16D0A24801680FF2942000F0C0F900270FF2982639F8E1
:205AE00017502946304600F0B7F928F817507F1C0A2FF4DB91A000F0AFF9204609B0BDE803
:205B0000F08F9BF800004FF4C0731843FEF7E4BE30B585B000204FF6FF728D4C04EB400112
:205B20008A85401C0A28F9DBFFF74EFF0020009001208DF8040000208DF805004FF46020EA
:205B40000290002003900A208DF81000834D00A9284601F0F1FD07230122042100F049F8D8
:205B600007230222052100F044F807230322062100F03FF807230422072100F03AF8072324
:205B800005220A2100F035F8072306220B2100F030F807231A460C2100F02BF807230822E2
:205BA0000D2100F026F807230922114600F021F807230A220F2100F01CF80121284601F0E9
:205BC000E2FD0121284601F0D5FD284601F0E5FD284601F0E7FD0028FAD1284601F0E6FDDA
:205BE000284601F0E8FD0028FAD10120207005B030BD284601F0EEBD0A28BDBF544901EBDA
:205C00004000808D4FF6FF7070475148C18AB1F5FA6F8041C00F7047F8B54D4C207800288C
:205C200071D0022001F054FD002860D0002504EB45060120690000FA01F189B2484800F0D7
:205C4000FCF818B1B6F84000B1880818A6F840006D1C0A2DEBDB6078401C6070C0B20A2834
:205C600040D100254FF47A76A078002812BF00202846FEF705FC04EB4507B7F84010C0F13B
:205C8000640251430A22B1FBF2F13A8B00FB021032306421B0FBF1F038832846FEF7FCFBF5
:205CA00000902846FEF71DFC398B714340F61A7291FBF2F19DF8002051439DF8012091FBA4
:205CC000F2F1BDF90220511800F2E830484390FBF6F0B8850020A7F840006D1C0A2DC3DB00
:205CE000A07060700220BDE8F24001F0FCBC1A4D2868616D401A0A2805D30121174801F087
:205D000060FD28686065F1BD1649134A10680B68C01A4FF4FA73984200D2704710B548681A
:205D2000401C4860132390FBF3F403FB140000B1032012680A60FFF770FE10BD0A000000B2
:205D4000080002404C240140040C0020B0280020000C0020EC260020B80C00200024014079
:205D6000001401404429002025303130642041494E3A200025346420000000002DE9F041B1
:205D80000022CC7804F00F03E40644BF8C7823430C8801250F26E7B217B3D0F800C005FA67
:205DA00002F7BE460EEA0408F04514D14FEA820E06FA0EF82CEA080C03FA0EFE4EEA0C0C76
:205DC00091F803E0BEF1280F08BF476103D0BEF1480F08BF0761521C082AE0D3C0F800C02F
:205DE0004FF48072944226D3D0F804C0002202F1080705FA07F7BE460EEA0408F04515D1CF
:205E00004FEA820E06FA0EF82CEA080C03FA0EFE4EEA0C0C91F803E0BEF1280F08BF47616F
:205E200091F803E0BEF1480F08BF0761521C082ADDD3C0F804C0BDE8F0810022806880B2A3
:205E4000084218BF012210467047806880B2704701617047416170470EB400B582B003A959
:205E6000009100AB02460121034878440A3001F0F5FC06BC5DF810FBF941000010B50FF237
:205E8000200307E011F8014B84EA202433F8144084EA00201446621E002C80B2F2D110BD1C
:205EA00000002110422063308440A550C660E770088129914AA16BB18CC1ADD1CEE1EFF1E2
:205EC0003112100273325222B5529442F772D662399318837BB35AA3BDD39CC3FFF3DEE3A2
:205EE0006224433420040114E664C774A44485546AA54BB528850995EEE5CFF5ACC58DD562
:205F00005336722611163006D776F6669556B4465BB77AA719973887DFF7FEE79DD7BCC721
:205F2000C448E5588668A7784008611802282338CCC9EDD98EE9AFF9488969990AA92BB9E1
:205F4000F55AD44AB77A966A711A500A333A122AFDDBDCCBBFFB9EEB799B588B3BBB1AABA1
:205F6000A66C877CE44CC55C222C033C600C411CAEED8FFDECCDCDDD2AAD0BBD688D499D61
:205F8000977EB66ED55EF44E133E322E511E700E9FFFBEEFDDDFFCCF1BBF3AAF599F788F21
:205FA0008891A981CAB1EBA10CD12DC14EF16FE18010A100C230E3200450254046706760E1
:205FC000B9839893FBA3DAB33DC31CD37FE35EF3B1029012F322D2323542145277625672A1
:205FE000EAB5CBA5A89589856EF54FE52CD50DC5E234C324A0148104667447642454054461
:20600000DBA7FAB79987B8975FE77EF71DC73CD7D326F2369106B016576676761546345620
:206020004CD96DC90EF92FE9C899E9898AB9ABA94458654806782768C018E1088238A328E0
:206040007DCB5CDB3FEB1EFBF98BD89BBBAB9ABB754A545A376A167AF10AD01AB32A923AA0
:206060002EFD0FED6CDD4DCDAABD8BADE89DC98D267C076C645C454CA23C832CE01CC10C60
:206080001FEF3EFF5DCF7CDF9BAFBABFD98FF89F176E367E554E745E932EB23ED10EF01E20
:2060A00030B5022801D1002030BD032801D1022030BD0428F7D04FF4C871884201D10820B3
:2060C00030BD072801D1092030BDA0F57A71B1F57A6F70D2C82291FBF2F34FF4B37058430F
:2060E00000F20C0002FB1312002A06D0012A05DB3D2A03DA00EB8200001F30BD3D2A3CDB3A
:20610000A12A3ADA3C3A192392FBF3F4162505FB040505F2F00003FB14220F2A67D8DFE8DC
:2061200002F068680866660B0E1114171A1D2023262905F1F10030BD05F1F40030BD05F10A
:20614000F70030BD05F1F80030BD05F1FA0030BD05F1FC0030BD05F1FD0030BD05F1FE00F0
:2061600030BD05F1FF0030BD05F2001030BD05F5817030BD05F2041030BDA12A05DBAB2A0C
:2061800003DA00EB4200801D30BDAF3A012A06D0022A07D0052A08D0062A09D027E000F275
:2061A0005C1030BD00F25D1030BD00F2601030BD00F5B17030BDA0F54871502917D20A200E
:2061C00091FBF0F2D00000F63C300A2303FB121100290ED0022904D00BD3042905D002D316
:2061E00005E0401C30BD801C30BD001D30BD4FF0FF3030BD022801D108207047032801D1AB
:20620000022070470428FBD04FF4C871884201D104207047072801D101207047A0F57A7162
:20622000B1F57A6F3AD2A0F57A70C82190FBF1F201FB1201002902D14FF4B370704701299B
:2062400001DB3D29E4DBA12901DBAB29D8DB3D2919DBA12917DA3C39192291FBF2F302FBDD
:2062600013110F2918D8DFE801F00A090C17170C09080809090909090809C1E7CCE71620D9
:20628000704703207047AF390129C5D00229C3D00529B5D00629BFD000207047A0F5487172
:2062A0005029F9D2A0F548700A2190FBF1F10A2202FB110000289FD0401E0228ACD9C01EF9
:2062C0009ED0E9E7E0B500F0FFF800F06FF800282AD1062200A9FFF7D1FDBDF80210BDF879
:2062E0000620824215D04FF6FF70814207D1BDF80010814203D1824201D106200EBDFF217D
:206300001D20FFF771F99D4A1221082000F02DFA0AE000290AD009041E20FFF765F9984A19
:206320001221082000F021FA03200EBD00200EBD10B584B00446FFF7C5FF062808BF012407
:20634000204600F059F92046FCF760FD2046FDF7D9FF24B30820ADF8000000AA01A9022093
:2063600000F024F8C8B9062201A9FFF787FDBDF8061019B9BDF80A1081420CD00020ADF874
:2063800006000220ADF8000000AA0DF10601032000F028F808B900F07CF8FFF793FF41F66A
:2063A000FF720121774802F0D1F81FBDF8B500F033F807462046FFF71DFF002F01D5012041
:2063C000F2BD3188814201DA0220F2BD3080BAB281B2284602F0BAF8002801D10320F2BDB9
:2063E0000020F2BDF8B500F017F807462046FFF701FF002F01D50120F2BD3188884201D050
:206400000220F2BDBAB2284602F0DBF8002801D10420F2BD0020F2BD04460D4616463FE652
:2064200002B5022809D1062292B2022100A802F0C8F800282BD1042002BD4FF4C872904262
:2064400008BF0A22F0D0A0F57A71B1F57A6F0CD2C82291FBF2F302FB131131B94FF4B370D0
:2064600058430C3000F264120DE0A0F5487150290BD2A0F548700A2190FBF1F0C00000F6B2
:206480003C3000F20602002ACED5012002BD002002BDE0B500F018F8FFF788FF002801D0FF
:2064A00003200EBDBDF80000401CADF80000062200A90020FFF7E2FCADF8060002AA00A973
:2064C0000220FFF78FFF0EBD0820ADF8080002AA00A90220704780B5002000F09BF800F080
:2064E000C3F80020FCF7B6FCFCF70DFD0020FDF744FFFDF774FFBDE80140CAE710B582B0D3
:2065000000242046FDF7B6F8002000900123062094FBF0F0062101FB104200F010F8062C47
:2065200006DB002000900123C4F10B0200F007F8641C082CE5DBBDE81340FCF7CBBCD2B28B
:2065400037212046FDF712BB0E490978012202FA00F00140080018BF0120704701228240F8
:20656000D2B201B111460748037823EA02021143017041F6FF72012102F023B8400D030007
:20658000A0860100682900204AB38B0707D0521E11F8013B00F8013B21D08B07F7D18307FF
:2065A0001ED1103A07D330B4B1E83810103AA0E83810F9D230BC530724BFB1E80810A0E8BC
:2065C000081044BF51F8043B40F8043BD20724BF31F8022B20F8022B44BF0B78037070479A
:2065E000083A07D3B1E80810083A40F8043B40F804CBF7D25307E4E780B540B10FF20810E1
:20660000374902680A6000F024F800F02DF80120BDE8024038B504460420ADF80000304D80
:2066200000AA29464FF4C870FFF7C0FE80B97CB102222946FFF722FC6988814208D0002158
:206640001D20FEF7D1FF274A1221082000F08DF831BD80B50420ADF8000000AA20494FF4B5
:20666000C870FFF7BFFE01BD10B51D4C022221460020FFF703FC01466088814204D06180FC
:206680004FF4C870FFF7CCFE10BDFF281CBF012101FA00F0124949780140080018BF012086
:2066A000704710B5104CFFF7B0FA0028207806D018B90FF23C00FFF7CFFB012006E00128CE
:2066C00004BF0FF23800FFF7C7FB00202070207810BD0648016842685140806848407047D8
:2066E0005C290020400D0300C00C0020E8F7FF1F42524F574E4F5554210A00000A504F5711
:206700004552204F4B0A000000FF000010B582B00121402001F0D6FF00F0F8FE10208DF845
:20672000030003208DF802001020ADF80000784C00A92046FFF722FB10202061202000F010
:206740000EF820206061042000F009F8042020614FF0FF320221082000F007F813BDADF859
:20676000000000A92046FFF709BB0A2800D3704710B5684B12F1010F04D1C25C8A420ED06C
:20678000C15410BD03EB800402B129B9C018002101732164A16110BD2264C018017310BDB0
:2067A0002DE9F0470024FFF735F8DFF86881D8F86800461CC8F8686006F0100A564DBAF105
:2067C000000F14BF0120022028600120310B01F00F018840401E3040022869EB09094FEA4F
:2067E000D97904EB0800007B08EB840760B1B96909B9BE610AE03A6C711A8A4206D2002262
:2068000000212046FFF7B1FF14F8080006F480414A1E9241D20F401E11283FD8DFE800F0FB
:20682000090C0F111713151A1C1E202225272C31373C0120002133E00020012130E001206A
:206840002DE00846F6E700202AE0084628E00846114625E0012023E00846EEE70020F7E791
:206860004846E7E7002049461AE04846FBE706F4003006F4803113E0B869301A00F48050AC
:20688000D8E70020B969711A01F4805108E0B869301A00F48051D8E70120F3E7002001466D
:2068A000082C0DD24FF48072A240BAF1000F04D009B16A6020E02A601EE00028FBD0F8E742
:2068C00013D1BAF1000F08D0002919BF1020686010202860202068600EE0002819BF20205B
:2068E000286020206860102005E0092C04D108B10420F0E704202860641C0A2CFFF471AFC0
:20690000BAF1000F14BF022001206860BDE8F08700180140582700201018014062F30F22DC
:2069200062F31F42401810F0030308D0C91A1FD3DB0748BF00F8012D28BF20F8022D130046
:2069400030B414461546103928BF20E93C00FAD8490728BF20E90C0048BF40F8042D890012
:2069600028BF20F8022D48BF00F8012D30BC7047C91818BF00F8012DCB0728BF00F8012D5C
:20698000704710B450F8041B81B102681218001D50F8043BDC0744BFA9F10104E31852F8E1
:2069A000044B43F8044B091FF9D1EBE710BC70470022FFF7B7BF50F8041B61B150F8042B39
:2069C000D30744BFA9F101039A18002342F8043B091FFAD1EFE77047002201F0AFBE0000EE
:2069E000012190F90420914089B20068FFF725BA2DE9F041DFF8C8432018850AEDB2052DBE
:206A000047DA102945D2012000FA01F4A4B2DFF8B463376847F00107376001F00306B6008C
:206A200021F00308DFF8A0C358F80CE00F27B740FF4307EA0E0748F80C7058F80CE0B54062
:206A4000ADB245EA0E0548F80C50DFF880532E6826432E606E6826436E60E643002AAA6850
:206A600014BF22433240AA60002BEA6814BF22433240EA600B2904D2002205290BD2891D14
:206A800001E001222821D24B01F01F01884043F82200BDE8F0810A29F4D21721F3E72DE91F
:206AA000F04182B00025CB4E0FF2F03404EB05184046FFF795FF06F8350006EBC50708F10B
:206AC0000800FFF78DFF78700020B87078606D1C082DEBD304208DF80300002504EBC50023
:206AE00006790120B040ADF8000054F8357000A93846FFF743F9082D05DA05EBD57040107E
:206B0000B5EB400005D10123012231463846FFF76FFF6D1C102DE1DBBDE8F3810FF23C3116
:206B200051F82000002800D5704770B500EBD071C905090EA0EB4104E4B2A64A02EBC105F9
:206B4000665D0FF2583101EBC000FFF749FFC0B2B0420ED06055A048A978A14207D00168DB
:206B60006A68891A06292EBFAC700221A9700068686070BD2DE9F04F89B0984CFFF791FDD9
:206B800018B10020002103C4D7E006A80FF254210CC90CC005A80FF254210A6802608E4DD6
:206BA000286800260FF2102BDFF828820DF114090DF1180A0127F2B208EBC20148782B6852
:206BC000D1F804C0A3EB0C030A2B13D318F8322032B918B9887808B905270BE0032709E067
:206BE000897810B929B1042704E00229FBD0C82B00D30227305D87421ED0012F1CD029680C
:206C000008EBC6029378002B0CBF5B466BA304915168039102935178019118F83610009150
:206C200004EB87018B6804EB8000826831460FF2C010FFF711F937550120C6F10701884015
:206C4000C7B23046FDF7DFFB88B101281ED199F80100384389F801003046FDF757FC0328AF
:206C600014D199F80200384389F802000EE09AF8010038438AF80100305DF10758BF000182
:206C800006A901EB56018A7810438870761C082E90D3206A524E41F289372968091A64292C
:206CA00016D32968081AB84206D2062206A904F12C0000F0F9FB58B106AA062100F040F882
:206CC000062206A904F12C00FFF76BFC28682062606A2968091A64292FD32968081AB84293
:206CE00006D2032205A904F1340000F0DDFB20B305AA032100F024F8032205A904F134004A
:206D0000FFF74FFC28686062A06AB0B1142100A8FFF762FE30784FF4C07108430090032028
:206D20008DF80A00032205A90DF10B00FFF72CFC00A8FDF740FE0020A06209B0BDE8F08FF1
:206D400030784FF4C0731843FDF7C6BD2349405C704710B508242046FFF7E0FEA41C0F2C5E
:206D6000F9DB10BD2DE9FF4700240FF2BC081B4E12A711A5DFF85C90DFF85CA0DAF80000ED
:206D800009EBC4018A78002A0CBF2A463A4603904868029001924878009019F83430A05D29
:206DA00006EB8000826821464046FFF755F8641C082CE3DBBDE8FF874F4E20004F46460013
:206DC00000F8FEBF18100240080001400004014000E100E070280020B80C0020580C002025
:206DE000EC26002040000000000000003F00000053572325642025732D2D3E257320284F0D
:206E00006E3D2564204F66663D2564204C6173743D2573204020253038782C20543D2530FD
:206E20003878290A000000003E20535723256420257320284F6E3D2564204F66663D256437
:206E4000204C6173743D2573204020253038782C20543D25303878290A0000000800000007
:206E60000A0000000C0000000E0000000000000002000000040000000600000001000000E1
:206E800009000000030000000B000000050000000D000000070000000F000000000801406A
:206EA000040000000014014001000000000801400500000000140140030000000008014089
:206EC000060000000014014005000000000801400700000000140140070000000010014055
:206EE0000000000000140140090000000010014001000000001401400B0000000010014031
:206F000002000000001401400D0000000010014003000000001401400F00000080B5754962
:206F2000884208D101214FF0007001F0E6FB00214FF0007007E001214FF0806001F0DDFB4A
:206F400000214FF08060BDE8044001F0D6BB30B500220024036823F002030360036843F0D7
:206F6000010303604FF6FF7300E0641C4568ED0701D49C42F9D14468E40755D58A79012A86
:206F800002680CBF42F0800222F080020260CA79012A02680CBF42F0400222F04002026045
:206FA0000A7A012A02680CBF42F0200222F0200202604A7A012A02680CBF42F0100222F089
:206FC000100202608A7A012A02680CBF42F0080222F008020260CA7A012A02680CBF42F049
:206FE000040222F0040202608A78CC78240644EA82720C7942EA04424C7942EA04520988B0
:20700000491E1143C1610168490849000160002400E0641C4168C90701D59C42F9D140680C
:2070200000F0010080F00102104630BDF0B50121827A9140304A136843F001031360CB4368
:20704000D4691C40D4612D4C057B8DB9D5681D40D560C588468846EA0545867A44F83650FD
:20706000857A04EBC5058688078847EA06466E60057B012D11D1D5680D43D56005884688C3
:2070800046EA0545867A44F83650857A04EBC5048588C68846EA05456560C47A002C54683D
:2070A0000CBF1C400C435460048914B95469234003E0012C02D153690B435361407B0128A7
:2070C00002D1D0690843D0611068400840001060F0BD00218171C171017241728172C1727A
:2070E0008170C1700321017102214171012101807047000000640040006600404066004079
:20710000002A426914BF114322EA01014161704770B58268520112D5002200EB0210D0F8DC
:20712000803103F00103C0F880314B7A0C7A94B9D0F880410D6843EA4553234312E08268A1
:20714000120148BF0122E8D48268D20048BF0222E3D4042232E0D0F880514E6844EAC60419
:2071600023432B43C0F880318B7A03F00F038B7200F280135C68240924015C605C688D7AA9
:207180002C435C608C7B4D7B2D0445EA04640D7B44EA0524CD7A2C439C608C7C4D7C2D049A
:2071A00045EA04640D7C44EA0524C97B2143D960D0F8801141F00101C0F88011104670BD1F
:2071C00011B92021C160704720210161704710B500EB0113D3F8B04114F004041472D3F895
:2071E000B04107BF640D1460E4085460D3F8B04104F00204547203F2B0135C6804F00F0454
:2072000094725C68240AD4749C68D4729C68240A14739C68240C54739C68240E9473DC68AF
:20722000D473DC68240A1474DC68240C5474DB681B0E9374FFF7C4FF10BD000010B50446C9
:2072400081488249097801704470814909684160002200212046FCF795F92046BDE8104093
:20726000FCF724BC10B504467748002101704170416000222046FCF785F92046BDE8104035
:20728000FCF73CBC0B2070472DE9FC410F460146082804D30FF2C810FEF7DEFD98E001F019
:2072A000A2FA0446FBF715FF8046684D2878411E654E1FB1022F6FD033D381E02046FBF7B6
:2072C00030FF0028F9D1B8F1100FF6D8DFE808F01709171E1725251E171E171E171717783D
:2072E00017002878411EC9B2632901D37F2867D147F2305211212046FCF744F960E000F00B
:207300006EF80F212046FCF74DFA59E00020019000904FF0FF330122F3E700F060F80521E1
