:020000042000DA
:10000000404F0020ED000020C1040020C10400206A
:10001000C1040020C1040020C10400200000000031
:10002000000000000000000000000000C1040020EB
:10003000C104002000000000C1040020310800209D
:10004000C1040020C1040020C1040020C10400201C
:10005000C1040020C1040020C1040020C10400200C
:10006000C1040020C1040020C1040020C1040020FC
:10007000C1040020C1040020C1040020C1040020EC
:10008000C1040020C1040020C1040020C1040020DC
:10009000C1040020C1040020C1040020C1040020CC
:1000A000C1040020C1040020C1040020C1040020BC
:1000B000C1040020C1040020C1040020C1040020AC
:1000C000C1040020C1040020C1040020C10400209C
:1000D000C1040020C1040020C1040020B109002097
:1000E000C1040020C1040020C1040020DFF818D0A2
:1000F000064B4FF0A531064A196003F10403934201
:10010000FAD10020034B1847404F0020404C0020FC
:1001100000500020C51400205D010020910D00203A
:10012000F8B500BFF8BC08BC9E467047F8B500BFE4
:10013000F8BC08BC9E46704710B5054C237833B90F
:10014000044B13B10448AFF300800123237010BDAA
:100150006C21002000000000E01C002008B5034BCB
:100160001BB103490348AFF3008008BD0000000045
:1001700070210020E01C0020034613F8012B002A08
:10018000FBD1181A013870473038362840D8DFE8DC
:1001900000F01C20232527292B2D2F313F3F3F3FE7
:1001A0003F3F3F333537393B3D3F3F3F3F3F3F3F89
:1001B0003F3F3F3F3F3F3F3F3F3F3F3F3F3F3F3F4F
:1001C0003F3F3F333537393B3D00002301200B7063
:1001D00070470120087070470223F7E70323F5E713
:1001E0000423F3E70523F1E70623EFE70723EDE711
:1001F0000823EBE70923E9E70A23E7E70B23E5E711
:100200000C23E3E70D23E1E70E23DFE70F23DDE710
:1002100000207047F0B585B06C46B0EB430F84E822
:1002200003004FEA430721D3019D00262C46631BA0
:100230009F421ED994F900000DF10F018DF80F6057
:100240008DF80E60FFF7A0FF80B194F901000DF169
:100250000E01FFF799FF023440B19DF80F109DF891
:100260000E3043EA011302F8013BE0E7002005B03D
:10027000F0BD0120FBE72DE9FF4100256B46064656
:1002800083E80300156020B90024204604B0BDE8CF
:10029000F081019F97F900402D2C05D0302C1FD004
:1002A000002CF2D02C4602E001240137461E4FF00C
:1002B0000A083E44B7421ED017F9010BC3B28DF8AD
:1002C0000F30C3B1D5B10DF10F01FFF75DFF00286D
:1002D000DAD011689DF80F3043EA01131360E9E7A3
:1002E0000128DFD097F901007828DBD12C460237AE
:1002F0000125023EDBE76CB90124C6E72F2BC3D9E9
:10030000303BDBB2092B8DF80F30BDD8116808FBEC
:100310000133E3E713685B421360B6E70388C21852
:1003200001339BB29170038018440023837070479F
:10033000F0B541F221060144814215D0082410F89D
:10034000015B138885EA132717F0800F4FEA4303F8
:1003500004F1FF3418BF73406D0014F0FF049BB22A
:10036000EDB2EFD11380E7E7F0BD0022C0E9002233
:10037000704700004FF440338360044B0362044B2A
:10038000C361044B8361402343717047204C0020BC
:100390000048002000010002BFF35F8FBFF34F8FC2
:1003A000BFF36F8F70470000014B1868704700BFA4
:1003B0001C300020034B044A5A6002F188325A6014
:1003C000704700BF0020024023016745837A10B5C3
:1003D000D0E900428B424FF0010308BF1032934036
:1003E000C173236110BD0000017AF0B4437B047B2C
:1003F00031B14A1E012A27D900221346144607E0CC
:10040000837B022B30D81D4AD45C1D4AD25C0B463C
:100410000F27456843EA84030468072D05F00706A3
:1004200088BF04342568B600B34007FA06F625EA0B
:1004300006052B43236019B943689A400368DA60C4
:10044000C17AF0BCFFF7C2BF621E54425441022978
:1004500008BF44F00204012B04D009D9023B012B50
:1004600009D900230022D3E70A460B460C46CFE702
:1004700000220223CCE700220323C9E75C1A0020F4
:100480005F1A0020034A936943F00103936193616B
:10049000704700BF0010024038B50024064A074DDF
:1004A000936943F07C03936128191834FFF79CFF8C
:1004B000B4F5876FF8D138BD00100240EC1C002065
:1004C000044B82B05B68C3F308030193019B00BE39
:1004D000FEE700BF00ED00E00422036830B5456888
:1004E0000F2005F00701072D4FEA810188BF9B18F7
:1004F00002FA01F41A6800FA01F122EA0102224329
:100500001A6030BD7E23437170470000074BDA68E4
:10051000520709D4D86810F0100018BF0220DA681A
:1005200042F01402DA6070470120F8E70020024030
:100530002DE9F84343790146012B04D10022644B95
:100540001A60BDE8F88390F83530624DFF2B31D149
:1005500000200201AA5CC6B2802A05EB00133FD13D
:10056000FFF71AFF5A78022A3AD19A7891F8314067
:10057000944235D1DA7891F8347002F07F02BA42B1
:1005800003F103042CD118790020187181F835602B
:100590005E7958719E799871DE79D871DB781B0687
:1005A00055BF0132237802F07F0281F8343058BF02
:1005B00081F8342091F8354005EB04135868D3F8DE
:1005C00008805F68DA6808EB070616F0010F5B68C1
:1005D0000DD001238B6041234B71B2E70120B8E7B6
:1005E0000028FBD091F83530FF2BE3D1A9E7D21AD0
:1005F000012A01D80223EDE7DFF8DC90374BD9F868
:10060000102003EB04231B5A42F00102C9F810200A
:1006100028F80730D9F80C4014F00104FAD1FFF79C
:1006200075FFD9F8103023F00103C9F81030886045
:10063000002886D191F83530FF2B03D101238B6040
:100640008323C9E74FEA031905EB03135A68023203
:100650005A6003F10802D3F804E0D2F804C0E6457A
:1006600001D90223EBE7D3F804C0526894450AD1BC
:100670005870FF2391F83440FFF78EFEE40905F827
:10068000090081F83530124818F807300268144F15
:100690005340DA43082342F30005013B3D4013F089
:1006A000FF0385EA5202F6D173785340082243F3E0
:1006B0000005013A3D4012F0FF0285EA5303F6D1EE
:1006C000DB430360002C3FF43CAF0B62402383E725
:1006D0006C320020204C0020002002400048002006
:1006E0002083B8ED437910B5012B04460D4908D19C
:1006F0000B6943F004030B610B6943F040030B618A
:1007000010BDCB68DB07FBD4FFF700FFA0600B69CF
:1007100023F004030B6110B17F236371F0E74023E2
:10072000FBE700BF0020024038B50446C0680D4614
:1007300020B1884202D00830FFF7CEFEE06820B139
:10074000A84202D01830FFF7C7FEE36833B1986AB9
:1007500020B1AB6A984201D0FFF7BEFE0122237997
:10076000607903F1804303F50433196882400A433A
:10077000E5601A60237AA17A03F1804303F58033A0
:100780001A68607A22EA0102E17A81400A431A601B
:100790002846A2791F4B50F8085BB3FBF2F3B3FB7A
:1007A000F5F5FFF721FEE0681830FFF71DFEE3685E
:1007B000986A08B1FFF718FE23689D60DA6842F076
:1007C0002002DA6094F90730E279002B1BDB00226B
:1007D00003F1604303F5614383F8002394F9073084
:1007E000E279002B07DB02F01F0101228A400A494F
:1007F0005B0941F823202268D36843F4005343F097
:100800000C03D36038BD054B02F00F0213440022E5
:100810001A76E3E700127A0000E100E0FCEC00E069
:1008200001490248FFF780BF402100201C21002021
:10083000024A136801331360704700BF1C30002068
:10084000034682B0EFF3108072B68DF807001A48A5
:1008500002780132D2B2012A027002BF9DF807C0AD
:10086000164A82F800C0BFF34F8FBFF36F8F1A692B
:10087000FAB1DA68D3F800C01CF802200A70D3E994
:10088000032101390132C3E9032159688A420CD09E
:1008900000220378013BDBB203701BB9074B1878C9
:1008A00080F31088104602B0704700210A46D960D4
:1008B000EFE74FF0FF32ECE7C1250020C025002014
:1008C00013B5002408480DF107018DF80740FFF724
:1008D000B7FF30B99DF80700431F5842584102B096
:1008E00010BD2046FBE700BF2C210020044A1388DE
:1008F000013B9BB21380134400229A70704700BFE3
:1009000014260020502300BF013BFCD1704700BFDC
:1009100008B5C3689B6A63B1026813685B06FCD5BF
:10092000FFF7F0FFC3680021986ABDE80840FFF7B1
:100930004DBD08BD014682B0EFF3108072B68DF850
:100940000700184A13780133DBB2012B137002BF82
:100950009DF80700144B1870BFF34F8FBFF36F8FD4
:10096000124B5869D3F820C0844510D291F800C0CA
:100970001869996900F801C0D3E905010131814284
:10098000996104BF00219961196A013119621378D4
:10099000013BDBB213701BB9034B187880F310884E
:1009A00002B07047C1250020C02500201C21002076
:1009B00013B5084C23681A6812F0280F07D05B683B
:1009C0000DF107008DF80730FFF7B4FFF2E702B032
:1009D00010BD00BF1C210020806A08B530B1012184
:1009E000FFF7F4FCBDE80840FFF78CBF08BD00002E
:1009F00038B50446084D2A6813681906FCD5E8681E
:100A0000FFF7EAFF2B681A681206FCD55C60024803
:100A1000BDE83840FFF77CBF1C21002038B50446F4
:100A20004518AC4204D014F8010BFFF7E1FFF8E7DA
:100A300038BD37B50C46054602AB03E90300014655
:100A40002046FFF775FC2946204603B0BDE830403C
:100A5000FFF7E4BF70B50C4616460546C068FFF7C1
:100A6000BBFF21462644B14207D011F8012B2B6869
:100A700018680006FCD55A60F5E72846BDE87040C6
:100A8000FFF746BF82B02DE9F04F914600251A4688
:100A90004FF0FF3785B0019110990F93041DC3F1FA
:100AA000010B4D4524DA54E901A60BEB0A03002B98
:100AB000ACBFF318331CA8460093009B9E4213D092
:100AC0003046CDE9021200F059FDDDE9021248B9C5
:100AD00092450ED0002F04DBAF4203D04FF0FF3819
:100AE00007E02F460136E8E7019B01351C44D8E7B3
:100AF000B846404605B0BDE8F04F02B07047000070
:100B000030B5054685B04AB3D1E90232144CCDE97F
:100B1000023200920C2101222046FFF7B3FF031E90
:100B2000A5BF0C2000FB03430023083325B1012D92
:100B30000CD0012005B030BD0A495A781B784868AE
:100B400002FA03F3034300204B60F3E71878032312
:100B5000044983404A6822EA0303F4E70420E9E7F2
:100B6000901B0020000001402DE9F04304460F4691
:100B70001E46904687B01AB9042007B0BDE8F0833E
:100B8000214DD1E900322846CDE9043200921821E6
:100B90002D22FFF777FF0028EEDB18235843012CA6
:100BA00000F1080305EB030907D0022C1AD044BB5F
:100BB0004846FFF719FC0020DFE7B8F1010FDBD052
:100BC000D7E9020104AB83E8030003AAFFF753FB54
:100BD00003990028D0D0003918BF01214846FFF7FB
:100BE000F5FBE8E7EB5805449968EB683046D940D7
:100BF000AB7C01F001015940303149B2FFF78EFB67
:100C0000D9E70120B9E700BFE41C0020F0B585B0AA
:100C100004460D4616466F46124B03F1100C3A4639
:100C200018685968083303C263451746F7D125444D
:100C3000A54214D0237804AA02EB1313304613F90B
:100C4000101CFFF76BFB14F8013B304603F00F0359
:100C500010336B4413F9101CFFF760FBE8E705B095
:100C6000F0BD00BFC01500202DE9F04186B08046E0
:100C70000D461F4614460D9E0AB9042027E0D1E90F
:100C800000323D48CDE9043200920C210122FFF7E9
:100C9000F9FE0028F1DB05F10801601EB8F1030F31
:100CA00067D8DFE808F00217284A80B1D5E9023298
:100CB0000C21CDE90432009230480122FFF7E2FE18
:100CC0000028DADB2E492F48FFF72EFD002006B062
:100CD000BDE8F0810028FAD003C9AC682A4A64084C
:100CE0002346FFF797FA0028C7D022462649254811
:100CF000FFF7B0FEEAE70028E9D003C904AC84E8B6
:100D0000030003AAFFF7B7FA039D0028B5D0B5F595
:100D1000806FB2D800241C4EDFF87080A54206D048
:100D200040463119FFF78CFD08B90134F6E73A4621
:100D300021461548FFF76AFFC8E70028C6D003C957
:100D4000012304AAFFF766FA002896D04FF48062C8
:100D50009DF810100C4800F0EBFB0B4D094CB04710
:100D60000028B3D14FF4806229462046FFF772FE77
:100D7000F5E70120ABE700BFA81B00209C1B00206B
:100D8000402100201C210020882100202C2100204F
:100D9000014B024A1A60704788250020BC1B0020C6
:100DA0002DE9804893B072B64FF0E02341F63F72D0
:100DB000F0215A61A34A032582F8231000229A6188
:100DC0000722A14C1A61A3689847013D04F124044D
:100DD000F9D1294610229D4800F0AAFB102229468D
:100DE0009B4800F0A5FB9B4C9B4B9C4A84F83150E0
:100DF000DFF86CB25A6002F188325A608BF8015009
:100E0000FFF7CAFA8BF8005062B61022954996484F
:100E1000FFF720FE954D00234FF003088A4E8DF812
:100E20001D30336903B19847B8F1010806F1240673
:100E3000F7D1DFF83C928F480DF11D01FFF700FD5F
:100E40000646002840F066819DF81DA0BAF1080F03
:100E500009D12B88002BEED003218748FFF7DEFD58
:100E6000FFF744FDE7E7BAF10A0F40F0268250464B
:100E7000FFF7BEFD2F8837B95046FFF7B9FD3E207A
:100E8000FFF7B6FDD7E7DFF8E89199F800307BB1BE
:100E90004FF4017CDFF8E4A17948DAF8003040F241
:100EA000032229460CFB030000F05AFBCAF800603D
:100EB00000264FF6FF7A042F89F800600896DFF8C5
:100EC000C491ADF81EA040F28180EB1913F9033CE8
:100ED0007E2B7BD1043F4F443846FFF74DF9CDE9D7
:100EE0000D070DAF022397E803000BAAFFF792F955
:100EF0000646C0B1FFF7FAFC4846FFF7F7FCFFF7DC
:100F0000F5FCFFF7F3FCFFF7F1FC3A462988ADF852
:100F100034A0FFF70DFABDF82C30BDF834205BBAD1
:100F20009BB29A4252D000264FF0050907230D9339
:100F3000554B0DAF0E9397E803000DF11E02FFF71E
:100F400078FD52480DF11E0200EBC90999E8030033
:100F5000FFF76FFD04230D934D4B0DF11E020E9311
:100F600097E80300FFF765FD00210846089ADFF8BF
:100F700024C1CBB2002A40F09481002B00F0918173
:100F800000B1089203F1FF395FFA89F907EB090014
:100F900001210DF11E02FFF7CBF909F148036B4463
:100FA00009F1FF3913F8140C5FFA89F9FFF720FDF6
:100FB000B9F1FF0FEAD102230B93374B02201946F8
:100FC0000DF11E020C93FFF734FD6FE00021DFF8F6
:100FD000B4C00F460A460B46E2462888DFF8BCE05C
:100FE00098425FD9934218D10A2F40F0C980DFF8A8
:100FF000AC90D9F80020CA46042A40F0168128494E
:10100000D9F8040000F09CFA002840F00E81032378
:101010000D4FDFF884A00393D8E040F2B180082F91
:1010200040F2AE801D499B1A801A834294BF41F85A
:10103000373041F83700134B01EBC7011A444A60BF
:10104000013731E000ED00E0941A0020204C002030
:10105000304C0020882500200020024023016745F5
:10106000004C0020D11500201C2100201426002057
:10107000683200202C210020E21500206030002082
:101080006430002016260020EB150020641A002092
:10109000F3150020F8150020F0150020C4250020CD
:1010A000E61500209342BDD8002FA0D1A64F4FF0E7
:1010B0000009BA463AF8023B0DF11E0251461846A5
:1010C000CDE9093AFFF7B5FCA5F8009085F8029044
:1010D000A7F8009087F80290B6B1BDF81E30022143
:1010E0001A0A8DF834200DA83A468DF83530FFF7EE
:1010F0008DFD7E20FFF77CFC50463988FFF78EFC83
:10110000A7F8009087F802900A20FFF771FC3E20B4
:10111000FFF76EFC8D4B1A78802A40F05E815A787A
:10112000012AD1B240F08F819A781A46884F84F80C
:10113000301003F1200C3E4610685168083203C697
:1011400062453746F7D1DA78112AD3B200F0EA8047
:1011500000F2DF80012B00F0E880102B00F0E88027
:10116000002B40F0ED8001220823C4E90A32002B55
:1011700040F0FE80002A40F0FB807E23637124E172
:1011800001291CF9019B06D0B9F1200F1CBF1A469A
:101190000121013324E7B9F1200FFAD1991AA0EB0C
:1011A0000209494594BF4EF837104EF837900EEBC0
:1011B000C7010AEB0209C1F8049001370021E8E7F2
:1011C000039B2437013B03933FF470AFD7E9001032
:1011D000BB690493FFF722FC02215046FFF71EFC77
:1011E000D7E90710FFF71AFC0A20FFF701FC0022DD
:1011F000D7F81490049B09F1100993420592DFD0AF
:101200002020FFF7F5FB59E90410FFF707FC022146
:101210005046FFF703FC59E90210FFF7FFFB0A20D5
:10122000FFF7E6FB059A0132E4E7012F30D09AE898
:1012300003000DAB83E803000322034600914548F9
:101240002421FFF71FFC002825DBD9E902322421E5
:10125000DFF800C101FB00C0D0F80C90B9F1000F1D
:1012600019D0CDE90D320092102182694069FFF753
:1012700009FC002812DB384B3849019308AB009376
:10128000BA1E314BC847814600287FF44FAE0DE7A8
:101290004FF004094AE64FF0030947E64FF0010911
:1012A00044E602F00F001CF8000048336B4403F8DA
:1012B000140C1209012001315BE6BAF1210F2B88D1
:1012C00016D1274FDEB236B103213846013EFFF773
:1012D000A5FBF6B2F7E740F203222249284600F0C8
:1012E0003FF929882048FFF799FB89F80060A2E5BB
:1012F000B3F5007FBFF49FAD012289F80020EA1802
:1013000001339BB282F802A02B802B449870504688
:10131000B6E5502B0ED07F2B0FD0402B10D10122E1
:10132000182322E7012214231FE71A460C231CE787
:1013300001221AE701221C2317E700220B4B14E7B6
:101340000022134611E700BF18280020004C00209F
:101350008C250020941A0020C1080020D4250020EC
:10136000E2150020643000201626002075030020BE
:101370000021A1604FF47F416186A186012184F89C
:1013800024100AB12268D358494898476379022B40
:1013900019D1236A474E012B8CBF02230123464AF1
:1013A00084F8243006F12007334603CBBB4210609B
:1013B0001E46516002F10802F6D1A368002B14BF4B
:1013C0007F230023DAE63F2BF7D902238BF8013085
:1013D0000023FEF7E1FF8BF80030384E3368984762
:1013E00094F830309BB163793F2B10D8336898471D
:1013F000E36A5A1004EB6300DB074AD4A36A9847F8
:1014000063793F2B3FD93368984733689847002664
:101410002B4A4FEA0811505C02EB081380280BD1CD
:101420009878002839D05E7053185B7803F0FF007D
:1014300013B9FEF7B1FF5054B8F1010F3FF4EBAC14
:101440004FF00108E5E7597801F0FF02B1B994F8CF
:10145000301099B161793F2910D91E46154FC4E962
:101460000A2284F8302007F1200C3A4603CA62456C
:1014700030601746716006F10806F6D10022FEF7CB
:101480008BFF1A70A9E7A368002BBCD07F23637180
:10149000B9E7A258A36AD358B1E758780028C3D057
:1014A000987894F830000028BED15870BCE700BF8F
:1014B000882500208C250020004C0020E01C002006
:1014C000204C002008B5124A124B13489A60134A68
:1014D0000021121A00F02CF80026114D114C641B4B
:1014E000A410B4420AD1FEF71BFE00260E4D0F4C8D
:1014F000641BA410B44206D1FFF752FC55F8043B1C
:1015000098470136EDE755F8043B98470136F1E777
:101510000000002000ED00E06C210020703200206F
:1015200018010020180100201801002020010020CF
:1015300003460244934200D1704703F8011BF9E7C8
:1015400010B501390244904201D1002005E0037832
:1015500011F8014FA34201D0181B10BD0130F2E772
:101560000A44914200F1FF3300D1704710B511F8E1
:10157000014B914203F8014FF9D110BD70B50446FB
:101580000E4E0A448A4201D1002013E014F8013BB8
:10159000985D00F00300012811F8010B08BF20330B
:1015A000355C05F00305012D08BF20301B1A02D160
:1015B0000028E7D170BD1846FCE700BFDD1B002006
:1015C00030313233343536373839616263646566B9
:1015D00000434C4320636F6E6E65637465642E0A2E
:1015E0000D000820080068656C70004552524F528B
:1015F0003A20003A203078003031323334353637F3
:10160000383941424344454600434F4E46005265F7
:101610006D6170207065726970686572616C0052EE
:101620004553455400526573657420706572697046
:10163000686572616C206D617070696E67003C75E1
:10164000617274206E616D653E203C636F6E6669E9
:1016500067206E616D653E2E20436F6E666967750B
:101660007265207468652070657269706865726162
:101670006C207769746820616E206578697374697D
:101680006E6720636F6E66696775726174696F6EED
:101690000057003C75617274206E616D653E203CA0
:1016A00068657820737472696E673E2E205472618B
:1016B0006E736D697420646174612066726F6D2051
:1016C0007468652055415254003C75617274206EF7
:1016D000616D653E203C232062797465733E2E2047
:1016E0004E6F6E2D626C6F636B696E6720726563FF
:1016F0006569766520757020746F2060232062799B
:10170000746573602062797465732066726F6D20F2
:10171000746865205258206275666665720054458B
:101720005354003C75617274206E616D653E203CBF
:1017300068657820627974653E2E20436F6E746907
:101740006E756F75736C79207472616E736D6974E8
:101750002074686520686578206279746520756EEC
:1017600074696C2074686520636F6D6D616E6420B0
:10177000697320696E746572727570746564003C7B
:101780006770696F206E616D653E2E202852652955
:101790002D636F6E6669677572652070696E003CB7
:1017A0006770696F206E616D653E203C302F313E61
:1017B0002E20536574206C6F676963616C207069BB
:1017C0006E207374617465003C6770696F206E6190
:1017D0006D653E2E2052656164206C6F67696361A0
:1017E0006C2070696E207374617465004C45445FB1
:1017F000524544004C45445F475245454E004C45D8
:10180000445F5357333131004C45445F53573330B5
:1018100031004C45445F5357333132004C45445FEF
:101820005357333032004C45445F53573331330004
:101830004C45445F535733303300414444525F3189
:101840003100414444525F313200414444525F31DF
:101850003400414444525F313800414444525F30C7
:101860003100414444525F303200414444525F30C1
:101870003400414444525F3038004C45445F535972
:10188000535F475245454E004C45445F5359535FA3
:101890005245440043414E5F4552520043414E5F22
:1018A00052580043414E5F52585F444542554700ED
:1018B00053573331315F50420053573330315F500B
:1018C000420053573331325F504200535733303266
:1018D0005F50420053573331335F50420053573308
:1018E00030335F504200524C59415F464231005202
:1018F0004C59425F46423100524C59415F46423298
:1019000000524C59425F46423200524C59415F46A8
:10191000423300524C59425F46423300524C5941C7
:101920005F4F4E3100524C59415F4F464631005295
:101930004C59425F4F4E3100524C59425F4F464620
:101940003100524C59415F4F4E3200524C59415F69
:101950004F46463200524C59425F4F4E3200524C75
:1019600059425F4F46463200524C59415F4F4E3309
:1019700000524C59415F4F46463300524C59425F2A
:101980004F4E3300524C59425F4F4646330043415D
:101990004E5F52454D4150004750494F5265736F5D
:1019A0007572636500554152545265736F75726369
:1019B00065004146494F5265736F75726365004912
:1019C0004D504C454D454E544154494F4E202D20CD
:1019D0004E4F5420494D504C454D454E54454400C2
:1019E000455845435554494F4E202D20434F4D4DAA
:1019F000414E44204641494C4544005245534F55C1
:101A0000524345202D204E4F2053554348205245E8
:101A1000534F5552434500415247554D454E542072
:101A20002D2042414420415247554D454E540043DC
:101A30004845434B53554D202D20434F4D4D414E6E
:101A4000442F524553504F4E534520434845434B36
:101A500053554D204641494C555245000102020064
:101A60000100000000000000E5150020200000003B
:101A7000BF1900201A000000E01900201B00000020
:101A8000FB19002017000000171A00202C0000008E
:101A90002F1A00200C000000981900209904002043
:101AA000690B002000000000201B00200300000044
:101AB00000000000E51500200C000000A519002022
:101AC00021080020690C002000000000501B0020AD
:101AD0000400000000000000E51500200C000000DC
:101AE000B219002085040020010B00200000000036
:101AF000001B00200200000000000000E51500208F
:101B00000400000009160020100000000E1600203E
:101B1000050000001F1600201800000025160020F8
:101B200004000000091600201F0000007F1700209D
:101B30000100000091160020280000009F170020DF
:101B4000010000009A18002023000000C8170020A0
:101B50000400000009160020520000003E1600207C
:101B600001000000911600203500000093160020AF
:101B7000010000009A18002054000000C91600203F
:101B8000040000001E1700205B0000002317002047
:101B9000090000008E1900200D0300000500000060
:101BA000AA1800204021002005000000AA180020EB
:101BB0001C2100200000000000000000B5030020F0
:101BC0006B030020E50600200505002031050020FC
:101BD0000505002005050020050500200020202027
:101BE00020202020202028282828282020202020CD
:101BF000202020202020202020202020208810109D
:101C000010101010101010101010101010040404F8
:101C100004040404040404101010101010104141B6
:101C200041414141010101010101010101010101A4
:101C300001010101010101011010101010104242B8
:101C40004242424202020202020202020202020274
:101C50000202020202020202101010102000000014
:101C60000000000000000000000000000000000074
:101C70000000000000000000000000000000000064
:101C80000000000000000000000000000000000054
:101C90000000000000000000000000000000000044
:101CA0000000000000000000000000000000000034
:101CB0000000000000000000000000000000000024
:101CC0000000000000000000000000000000000014
:101CD0000000000000000000000000000000000004
:101CE000A903002007000000EC17002000180140A5
:101CF00000000000010001010001000109000000D6
:101D0000F41700200018014001000000010001014B
:101D10000001000109000000FE170020001801402A
:101D2000080000000100010000010000090000009F
:101D300008180020001801400900000001000100FF
:101D400000010000090000001218002000180140E6
:101D50000A0000000100010000010000090000006D
:101D60001C180020001801400B00000001000100B9
:101D700000010000090000002618002000180140A2
:101D80000C0000000100010000010000090000003B
:101D900030180020001801400D0000000100010073
:101DA00000010000070000003A1800200018014060
:101DB0000800000000000000000100000700000013
:101DC0004218002000180140090000000000000037
:101DD00000010000070000004A1800200018014020
:101DE0000A000000000000000001000007000000E1
:101DF00052180020001801400B00000000000000F5
:101E000000010000070000005A18002000180140DF
:101E10000C000000000000000001000007000000AE
:101E200062180020001801400D00000000000000B2
:101E300000010000070000006A180020001801409F
:101E40000E0000000000000000010000070000007C
:101E500072180020001801400F0000000000000070
:101E6000000100000D0000007A1800200018014059
:101E70000400000001000100000100000B00000050
:101E80008818002000180140050000000100000033
:101E90000001000007000000941800200018014015
:101EA0000200000001000100000100000600000027
:101EB0009C180020000801400B00000000000100F9
:101EC000010100000C000000A318002000080140E0
:101ED0000B000000010001000001000008000000EC
:101EE000B0180020001001400800000000000100B0
:101EF0000001010008000000B91800200010014096
:101F000009000000000001000001010008000000BD
:101F1000C2180020001001400A000000000001006B
:101F20000001010008000000CB1800200010014053
:101F30000B0000000000010000010100080000008B
:101F4000D4180020001001400C0000000000010027
:101F50000001010008000000DD1800200010014011
:101F60000D00000000000100000101000800000059
:101F7000E6180020000801400400000000000000F6
:101F80000001020008000000EF18002000080140D6
:101F90000500000000000000000102000800000031
:101FA000F8180020000801400600000000000000B2
:101FB0000001020008000000011900200008014093
:101FC00007000000000000000001020008000000FF
:101FD0000A1900200010014000000000000000006D
:101FE0000001020008000000131900200010014049
:101FF00001000000000000000001020008000000D5
:102000001C19002000140140000000000100010024
:102010000001000009000000251900200014014003
:1020200001000000010001000001000008000000A4
:102030002F190020001401400200000001000100DF
:1020400000010000090000003819002000140140C0
:102050000300000001000100000100000800000072
:10206000421900200014014004000000010001009A
:1020700000010000090000004B190020001401407D
:102080000500000001000100000100000800000040
:102090005519002000140140060000000100010055
:1020A00000010000090000005E190020001401403A
:1020B000070000000100010000010000080000000E
:1020C0006819002000140140080000000100010010
:1020D00000010000090000007119002000140140F7
:1020E00009000000010001000001000008000000DC
:1020F0007B190020001401400A00000001000100CB
:1021000000010000090000008419002000140140B3
:102110000B00000001000100000100000048004029
:102120001C120127040403000000000020300020DE
:10213000400000000000000000000000000000005F
:1021400000C2010000000000000C01400A00000075
:102150000200000000000000000C01400B00000025
:0C21600000000000000000000000000073
:04000005200000EDEA
:00000001FF
