:020000040800F2
:1000000000500020951B00088D1B00088D1B000868
:100010008D1B00088D1B00088D1B000800000000D0
:100020000000000000000000000000008D1B000820
:100030008D1B0008000000008D1B000879370008A8
:100040008D1B00088D1B00088D1B00088D1B0008F0
:100050008D1B00088D1B00088D1B00088D1B0008E0
:100060008D1B00088D1B00088D1B00088D1B0008D0
:100070008D1B00088D1B00088D1B00088D1B0008C0
:100080008D1B00088D1B00088D1B00088D1B0008B0
:100090008D1B00088D1B00088D1B00088D1B0008A0
:1000A0008D1B00088D1B00088D1B00088D1B000890
:1000B0008D1B00088D1B00088D1B00088D1B000880
:1000C0008D1B00088D1B00088D1B00088D1B000870
:1000D0008D1B00088D1B00088D1B0008792400086B
:1000E0008D1B00088D1B00088D1B00088D1B000850
:1000F0008D1B00088D1B00088D1B00088D1B000840
:100100008D1B00088D1B00088D1B00088D1B00082F
:100110008D1B00088D1B00088D1B00088D1B00081F
:100120008D1B00088D1B00088D1B00088D1B00080F
:100130007501000831240008F8B500BFF8BC08BC00
:100140009E467047F8B500BFF8BC08BC9E46704795
:1001500010B5054C237833B9044B13B10448AFF301
:1001600000800123237010BDEC040020000000007B
:100170008044000808B5034B1BB103490348AFF3A3
:10018000008008BD00000000F0040020804400084A
:10019000034613F8012B002AFBD1181A01387047C7
:1001A00080B483B000AF786039603B6893F9002079
:1001B0007B681A7000BF0C37BD4680BC704790B595
:1001C00087B000AF07F1080484E803007A603B6061
:1001D0003B685C0007F10803184600F01DFA03466F
:1001E0009C428CBF01230023DBB2002B01D00023F3
:1001F0004EE000237B6100237B613B685B007A69F2
:100200009A4244D20023FB740023BB7407F1080315
:100210007969184600F0BAFA034693F9003007F1FD
:1002200013021146184600F023F9034683F0010338
:10023000DBB2002B01D000232AE07B695A1C07F1B6
:1002400008031146184600F0A1FA034693F900305E
:1002500007F112021146184600F00AF9034683F02E
:100260000103DBB2002B01D0002311E0FB7C1B015A
:100270005AB2BB7C5BB213435BB2DAB27B681A70D2
:100280007B6801337B607B6902337B61B5E70123C7
:1002900018461C37BD4690BD80B582B000AF78606F
:1002A0000B46FB7097F903301946786800F0B2FAF4
:1002B0007B6818460837BD4680BD000090B58DB0FC
:1002C00000AFF860B9607A60FB702D4B07F1140441
:1002D0000FCB84E80F00FB687B62FB78002B25D0F6
:1002E000BB68013BFB62FB6A002B45DBFB6A7A6A59
:1002F00013441B781B09DBB230333B4413F91C3C1D
:1003000019467868FFF7C8FFFB6A7A6A13441B78BE
:1003100003F00F0330333B4413F91C3C1946786853
:10032000FFF7BAFFFB6A013BFB62DCE70023BB621D
:10033000BA6ABB689A421FD27A6ABB6A13441B78B6
:100340001B09DBB230333B4413F91C3C1946786877
:10035000FFF7A2FF7A6ABB6A13441B7803F00F030E
:1003600030333B4413F91C3C19467868FFF794FF7F
:10037000BB6A0133BB62DBE700BF3437BD4690BDCB
:10038000503A000880B58AB000AFF860B9601346F3
:10039000FB71002387F82730FB68002B06DA2D213C
:1003A000B868FFF779FFFB685B42FB60FB79002BC5
:1003B00002D0FB790133FB71FB68002B06D197F863
:1003C0002730002B02D0FB79002B34D0FB79002B97
:1003D0000FD0FB79013BFB71FB79002B09D197F81A
:1003E00027305A1C87F8272028333B442E2203F855
:1003F000182CFA681D4B83FB02139910D317C91AE6
:100400000B469B000B445B00D11ACBB23033DBB2FE
:100410005AB297F82730591C87F8271028333B44E5
:1004200003F8182CFB68114A82FB03129210DB17A9
:10043000D31AFB60C0E797F827305A1E87F82720A9
:10044000002B14BF01230023DBB2002B0AD097F846
:10045000273028333B4413F9183C1946B868FFF796
:100460001BFFE8E700BF2837BD4680BD67666666AC
:1004700080B483B000AF03463960FB7197F9073051
:10048000303B362B00F2C28001A252F823F000BFAD
:100490006D05000877050008810500088B05000838
:1004A000950500089F050008A9050008B305000888
:1004B000BD050008C70500080D0600080D06000868
:1004C0000D0600080D0600080D0600080D060008C0
:1004D0000D060008D1050008DB050008E505000849
:1004E000EF050008F9050008030600080D060008DE
:1004F0000D0600080D0600080D0600080D06000890
:100500000D0600080D0600080D0600080D0600087F
:100510000D0600080D0600080D0600080D0600086F
:100520000D0600080D0600080D0600080D0600085F
:100530000D0600080D0600080D0600080D0600084F
:100540000D0600080D0600080D0600080D0600083F
:100550000D060008D1050008DB050008E5050008C8
:10056000EF050008F9050008030600083B680022B3
:100570001A7001234BE03B6801221A70012346E008
:100580003B6802221A70012341E03B6803221A7083
:1005900001233CE03B6804221A70012337E03B68EA
:1005A00005221A70012332E03B6806221A700123EB
:1005B0002DE03B6807221A70012328E03B680822DF
:1005C0001A70012323E03B6809221A7001231EE000
:1005D0003B680A221A70012319E03B680B221A704B
:1005E000012314E03B680C221A7001230FE03B68E2
:1005F0000D221A7001230AE03B680E221A700123B3
:1006000005E03B680F221A70012300E00023184622
:100610000C37BD4680BC704780B483B000AF7860B3
:100620007B681B6818460C37BD4680BC704780B499
:1006300083B000AF78607B685B6818460C37BD46B6
:1006400080BC704780B588B000AF07F1080383E82D
:1006500003007A600023FB770023BB7707F10803D0
:100660001846FFF7D9FFB8617B6800221A6007F1CE
:1006700008031846FFF7DBFF7861BB69002B01D147
:1006800000237FE07B6993F90030302B11D0302BB1
:1006900021DC002B02D02D2B02D01CE0002371E0C6
:1006A0000123BB777B6901337B61BB69013BBB6184
:1006B00014E0BB69012B10D97B69013393F9003039
:1006C000782B0AD10123FB777B6902337B61BB69FD
:1006D000023BBB6101E000BF00E000BFBB69002B33
:1006E00009D07B6993F90030DBB2FB74FB7C002BF3
:1006F00001D0012300E00023002B3AD0FB7F002B28
:1007000017D0FB7C5BB207F1130211461846FFF7C6
:10071000AFFE034683F00103DBB2002B01D00023C0
:1007200030E07B681B681B01FA7C1A437B681A6007
:1007300018E0FB7C2F2B01D8002323E0FB7C303B0F
:10074000DBB2FB74FB7C092B01D900231AE07B6828
:100750001A6813469B0013445B001A46FB7C1A443C
:100760007B681A607B6901337B61BB69013BBB61BC
:10077000B4E7BB7F002B04D07B681B685A427B68C0
:100780001A60012318462037BD4680BD80B483B06F
:1007900000AF786039607B685A683B68134418463C
:1007A0000C37BD4680BC704780B582B000AF786022
:1007B0007B68184600F062F8034618460837BD46C5
:1007C00080BD80B483B000AF78604FF400631846FA
:1007D0000C37BD4680BC704780B483B000AF7860F2
:1007E00039603B689AB27B681A807B681B88184620
:1007F0000C37BD4680BC704780B582B000AF7860D2
:100800007B68184600F05BF87B6818460837BD46E1
:1008100080BD000080B584B000AF78600B46FB70EF
:100820007868FFF7C1FFF8607868FFF7CAFF0246F3
:10083000FB6893422CBF01230023DBB2002B02D0C4
:100840000D4800F026F8786800F02CF80246FB68A6
:100850001344FA1C11461846FFF7A2FC7A68FB689D
:10086000013319461046FFF7B7FF7868FFF7C4FF5A
:1008700000BF1037BD4680BD603A000880B483B029
:1008800000AF78607B681B8818460C37BD4680BC7B
:10089000704780B483B000AF786000BF0C37BD46AE
:1008A00080BC704780B582B000AF78607B68184626
:1008B00000F01BF8034618460837BD4680BD80B5DA
:1008C00084B000AF78607B681B881A467B6813444D
:1008D00002330022FA7307F10F0211461846FFF7A0
:1008E0005FFC00BF1037BD4680BD80B483B000AF51
:1008F00078607B68023318460C37BD4680BC704771
:1009000080B483B000AF786039607B6893F90030C1
:10091000DAB23B6893F90030DBB29A4234BF01236C
:100920000023DBB218460C37BD4680BC704780B54B
:1009300086B000AFF860B9607A607B68002B01D1A7
:10094000002332E00023002B28D000237B617A694A
:100950007B689A4220D2FA687B69D018BA687B69B2
:1009600013441946FFF7CCFF0346002B02D04FF08B
:10097000FF331AE0BA687B69D018FA687B691344C0
:100980001946FFF7BDFF0346002B01D001230CE001
:100990007B6901337B61DAE7002306E07A68B96896
:1009A000F86803F00DF8034600BF18461837BD4637
:1009B00080BD80B584B000AF78607B68FB600023A9
:1009C000002B04D0786800F0E3F8034604E0786870
:1009D000FFF7DEFB034600BF18461037BD4680BD5B
:1009E00080B483B000AF786039603B681A687B6878
:1009F0001B689A4201D23B6800E07B6818460C37BE
:100A0000BD4680BC704780B483B000AF7860396069
:100A10007B683A6892E8030083E8030078680C3743
:100A2000BD4680BC704782B0B0B58EB000AFF860F4
:100A3000B9607A60FB644FF0FF337B6300233B6354
:100A40003A6B7B689A4273DA3B6BBA6802FB03F33A
:100A5000FA681A4407F1140311461846FFF7D3FF4A
:100A600007F11403BB620023FB61B86AFFF7D4FDF2
:100A7000044607F14C031846FFF7CEFD0346E31A80
:100A800001333B6207F1200207F11C0311461846AF
:100A900000F0A6FD03461B687B620023FB62FA6A36
:100AA0007B6A9A4240D2F96AB86AFFF76FFE044641
:100AB00007F14C031846FFF7BAFD054607F14C0352
:100AC0001846FFF7A9FD03461A462946204602F0BC
:100AD0009DFF0346002B0CBF01230023DBB2002B3C
:100AE0001ED0B86AFFF798FD044607F14C0318467C
:100AF000FFF792FD03469C420CBF01230023DBB2AB
:100B0000002B01D03B6B14E07B6B002B06DB7A6B78
:100B10003B6B9A4202D04FF0FF330AE03B6B7B63A2
:100B2000FB6A0133FB62BAE73B6B01333B6387E748
:100B30007B6B18463837BD46BDE8B04002B0704701
:100B400080B582B000AF786039603868FFF731FF58
:100B500002467B681A607B683A685A607B68184670
:100B60000837BD4680BD80B483B000AF786039607F
:100B70007B6893F900203B6893F900309A420CBFE0
:100B800001230023DBB218460C37BD4680BC7047FA
:100B900080B584B000AF78600023FB607A68FB68A2
:100BA00013440022FA7207F10B0211461846FFF7B0
:100BB000DAFF034683F00103DBB2002B03D0FB68AE
:100BC0000133FB60EAE7FB6818461037BD4680BD7D
:100BD00080B582B000AF0346FB71054B1A46FB7926
:100BE0001946104602F0E2FC00BF0837BD4680BD42
:100BF0000000002080B582B000AF7860044B7968B7
:100C0000184602F019FD034618460837BD4680BD58
:100C10000000002090B583B000AF3B4683E803009E
:100C20003B461846FFF703FD04463B461846FFF7D0
:100C3000F3FC03461946204600F031F800BF0C379C
:100C4000BD4690BD90B585B000AF07F1080383E8BD
:100C500003007A6007F108031846FFF7E8FC044632
:100C600007F108031846FFF7D7FC03467A681946D0
:100C7000204600F05DFC07F108031846FFF7D7FC9B
:100C8000044607F108031846FFF7C6FC0346194659
:100C9000204600F004F800BF1437BD4690BD80B573
:100CA00082B000AF786039603B685A1E3A60002B12
:100CB00014BF01230023DBB2002B08D07B681B7814
:100CC0001846FFF785FF7B6801337B60ECE700BFC8
:100CD0000837BD4680BD80B582B000AF78607B68C4
:100CE000184600F005F8034618460837BD4680BD93
:100CF00080B483B000AF78607B681B8818460C37DF
:100D0000BD4680BC7047000080B58AB000AF20238C
:100D1000FB7500237B6200233B624148FFF7DBFF4A
:100D200038610023FB610023BB617A6A3B699A4208
:100D30000DD27A6A3B6A9A4202D1FB690A2B06D02D
:100D40007A6A3B6A9A421AD9FB69082B17D97A6AE0
:100D50003B6A9A425ED97A6A3B6AD31A38463A6A43
:100D60002F4900F050FCFB695A1CFA612D4ADB0048
:100D700013443A4692E8030083E803004AE0BB6963
:100D8000002B03D0BB69012B15D03FE0796A2448C2
:100D900000F055FC034693F9003097F917209A426A
:100DA00014BF01230023DBB2002B2CD00123BB6135
:100DB0007B6A3B6227E0796A194800F040FC0346F1
:100DC00093F9003097F917209A420CBF01230023B2
:100DD000DBB2002B19D07A6A3B6AD31A07F10800FC
:100DE0003A6A0F4900F00FFCFB695A1CFA610D4A80
:100DF000DB00134407F1080292E8030083E80300D4
:100E00000023BB6101E000BF00E000BF7B6A01334B
:100E10007B628AE700BFFB6918462837BD4680BD64
:100E2000480900205013002080B500AF0A20FFF7CA
:100E3000CFFE3E20FFF7CCFE00BF80BD80B584B062
:100E400000AF0B4BBB600A4BFB600A4B7B60FA6840
:100E50007B689A4208D0FB683B603B689B68984778
:100E6000FB682433FB60F2E700BF1037BD4680BD4E
:100E70008C420008F842000880B582B000AF78606C
:100E80007868FFF728FF0346002B0CBF01230023DF
:100E9000DBB218460837BD4680BD80B582B000AFD2
:100EA00078600B46FB7097F903301946786800F0BC
:100EB00035FC7B6818460837BD4680BD90B585B0C7
:100EC00000AF0023FB7000F0B1F8FB1C1846FFF7E1
:100ED00091FE0346002B00F09980FB78082B11D17E
:100EE0004C48FFF7C9FF034683F00103DBB2002B38
:100EF000EBD0494B93E80300FFF78CFE454800F028
:100F0000CAFBE2E7FB780A2B2DD1FB781846FFF7E6
:100F10005FFE4048FFF7B0FF0346002B02D0FFF70B
:100F200083FF72E03D4B1B78002B12D03C4B1A68BC
:100F30001346DB0113449B003A4A1344354A1846D2
:100F4000114640F203231A4602F04AFD344B0022B8
:100F50001A60334B1B68344A1360304B00221A70FE
:100F600000F086F852E0FB78212B31D12948FFF7B9
:100F7000B2FE0346FB73FB7B002B08D0264B93E8A5
:100F80000300FFF747FEFB7B013BFB73F3E7264BB8
:100F900000221A60244B1A681346DB0113449B009D
:100FA000204A13441B4A1046194640F203231A46AE
:100FB00002F016FD3B1D1749184600F081FB3B1D52
:100FC00093E80300FFF726FE144B00221A707CE71B
:100FD0001048FFF780FE04460E4800F087FB0346EA
:100FE0009C4234BF01230023DBB2002B3FF46DAFE2
:100FF0000A4B01221A70FB785BB219460548FFF7CD
:101000004CFFFB781846FFF7E3FD5EE71437BD465B
:1010100090BD00BF48090020F8420008AC15002030
:10102000A4150020A0130020A815002080B584B0CE
:1010300000AF0D4BBB600C4BFB600C4B7B60FA6848
:101040007B689A420CD0FB683B603B681B69002BB5
:1010500002D03B681B699847FB682433FB60EEE7CE
:1010600000BF1037BD4680BD8C420008F842000822
:1010700080B594B000AF00233B620023FB774FF6AE
:10108000FF73BB8307F11F0207F1200311461846C7
:1010900000F0F4F8034687F84E3097F84E30002BF6
:1010A00075D007F1240359491846FFF749FD07F1A8
:1010B0001C031A4607F1240393E80300FFF7C2FD5F
:1010C00097F84E3007F11C025149DB000B4493E8BE
:1010D0000300FFF7B7FD07F12C034E491846FFF751
:1010E0002FFD07F11C031A4607F12C0393E80300B8
:1010F000FFF7A8FD002387F84F303B6A002B03D190
:1011000097F84F30002B11D13B6A03F00F03424A8E
:10111000D25697F84F30591C87F84F1050333B4444
:1011200003F8482C3B6A1B093B62E6E797F84F300F
:101130005A1E87F84F20002B14BF01230023DBB277
:10114000002B15D097F84F3007F10802134407F130
:101150001C020121184600F0EBF997F84F3050338C
:101160003B4413F9483CDBB21846FFF731FDDDE79D
:1011700007F1340329491846FFF7E2FC07F11C0385
:101180001A4607F1340393E80300FFF75BFD07F10C
:101190003C032349184600F0F5FA07F11C031A46F0
:1011A00007F13C0393E80300FFF74CFD1D4800F0F6
:1011B000FFFA1B4800F00CFBFB7F002B1FD0BB8B02
:1011C0001B0A9BB2DBB23B71BB8BDBB27B71381D60
:1011D0000023134A0221FFF771F87E20FFF7F8FC85
:1011E00007F144030E49184600F0CCFA07F1440316
:1011F00093E80300FFF70EFD094800F0E9FAFFF756
:1012000013FE00BF5037BD4680BD00BF543D0008EF
:10121000CC4100085C3D0008683D0008643D0008C2
:101220004C0B00204809002090B583B000AF7860D7
:10123000786800F00AF804467868FFF74CFD03462A
:10124000234418460C37BD4690BD80B582B000AF30
:1012500078607B68184600F005F8034618460837A2
:10126000BD4680BD80B483B000AF78607B68023338
:1012700018460C37BD4680BC7047000090B5A1B041
:1012800002AF786039609648FFF725FD0346042BCE
:101290000AD99348FFF7C8FF0346053B93F900308E
:1012A0007E2B01D1012300E00023002B47D08C4886
:1012B000FFF7BAFF03461A1F07F118031146184635
:1012C000FFF73EFC07F10C02022307F1180103C9E6
:1012D000FEF775FF034683F00103DBB2002B01D05C
:1012E0000523F8E07E4800F0D6F97D4800F0D3F9F8
:1012F0007B4800F0D0F97A4800F0CDF9784800F04A
:10130000CAF94FF6FF737B817548FFF79EFF0446CD
:101310007348FFF7E0FC014607F10A031A4620462E
:1013200000F006F97B891A463B7B1B02797B0B4355
:101330009A4201D00523CEE03B6801221A70FFF7E4
:10134000E3FCF866FB6E002B01D10023C3E007F13C
:10135000200364491846FFF7F3FB634907F12003B4
:101360000CCB03C900F06CFA0346002B6DD05F4B29
:10137000FB655E4B7B675E4BBB657A6FBB6D9A42CC
:1013800061D07B6F7B657B6D9B693B657A6D07F1F7
:10139000280311461846FFF736FB07F1280393E8A8
:1013A0000300FFF737FC07F1300352491846FFF7F7
:1013B000C7FB07F1300393E80300FFF72BFC7B6DBD
:1013C0001C3393E80300FFF725FC0A20FFF700FC1D
:1013D0007B6D5B69FB6400233B673A6F3B6D9A4210
:1013E0002DD23B6F1B01FA6C1344BB642020FFF726
:1013F000EFFBBA6C07F1380311461846FFF703FB01
:1014000007F1380393E80300FFF704FC07F14003FA
:1014100038491846FFF794FB07F1400393E80300AF
:10142000FFF7F8FBBB6C083393E80300FFF7F2FB10
:101430000A20FFF7CDFB3B6F01333B67CDE77B6FA6
:1014400024337B6799E7002345E0FB6E012B01D82D
:10145000042340E0244B0CCB0321244800F018FA6D
:10146000B866BB6E002B01DA032334E01E4A07F195
:101470001003083292E8030083E80300BA6E1346B3
:10148000DB0013449B00194A13447B667B6EDB68C8
:10149000002B01D103231EE0FB6E023BFB667B6E3B
:1014A00058697B6E996907F110030CCB00F005FABF
:1014B00038663B6E002B01DA01230CE07B6EDC68A2
:1014C000386E0D4B01937B6800930C4BFA6E0C4900
:1014D000A047034600BF18467C37BD4690BD00BFFD
:1014E000480900207C3D0008501300208C42000871
:1014F000F8420008643D0008051500084C0B002068
:101500006013002080B582B000AF0023FB71FB1D8B
:101510001846FFF76FFB0346002B04D0FB79052B21
:1015200001D1012300E0002318460837BD4680BDE5
:1015300080B487B000AFF860B9607A60BB685A1EAB
:10154000BA60002B14BF01230023DBB2002B30D084
:10155000FB681B78FB750023BB75BB7D072B24D86C
:101560007B681B881B0A9BB21A46FB7D534003F025
:101570008003002B0CD07B681B885B001BB283F4BC
:10158000815383F001031BB29AB27B681A8005E095
:101590007B681B885B009AB27B681A80FB7D5B00CE
:1015A000FB75BB7D0133BB75D7E7FB680133FB607F
:1015B000C4E700BF1C37BD4680BC704780B485B00F
:1015C00000AFF860B9607A60FB687A681A60FB68FF
:1015D000BA685A60FB6818461437BD4680BC70472D
:1015E00080B483B000AF786039607B681A683B686C
:1015F0001B689A4201DA3B6800E07B6818460C37AA
:10160000BD4680BC704790B585B000AFF860B9604A
:101610007A603B60B86800F065F902467B68D418D0
:101620003A687968B86800F06BF903461A462146B3
:10163000F868FFF7C3FFF8681437BD4690BD80B562
:1016400082B000AF786039607868FFF7FEFD02462F
:101650003B68134418460837BD4680BD80B483B04C
:1016600000AF786039603B689AB27B681A807B680B
:101670001B8818460C37BD4680BC704780B582B0C9
:1016800000AF78607B68184600F066F97B68184602
:101690000837BD4680BD90B583B000AF78607C68E8
:1016A0007868FFF718FB0346013B19462046FFF711
:1016B000D5FF7868FFF7E2FF00BF0C37BD4690BD4D
:1016C00090B583B000AF78603960386800F00AF9EF
:1016D00004463868FFF7FFFA03461A462146786841
:1016E000FFF76CFF78680C37BD4690BD80B582B0BF
:1016F00000AF7860786800F005F8034618460837B0
:10170000BD4680BD80B483B000AF78604FF40073F5
:1017100018460C37BD4680BC7047000080B584B0C9
:1017200000AF78600B46FB707868FFF7D4FAF8607A
:101730007868FFF7E7FF0246FB6893422CBF01235E
:101740000023DBB2002B02D00D48FFF7A2F8786827
:10175000FFF77BFD0246FB681344FA1C114618464E
:10176000FEF71EFD7A68FB68013319461046FFF745
:1017700075FF7868FFF782FF00BF1037BD4680BD58
:10178000843D000890B583B000AF78603960386858
:1017900000F0F8F804463868FFF706F803461A46E2
:1017A00021467868FFF70AFF78680C37BD4690BD80
:1017B00080B582B000AF78607B6800211846FFF7E3
:1017C0004DFF7868FFF75AFF00BF0837BD4680BD60
:1017D00080B582B000AF78607B6800211846FEF7C4
:1017E000FBFF7868FFF708F800BF0837BD4680BDEB
:1017F00080B586B000AFF8603B1D83E80600FB684B
:101800003A1D11461846FFF7EBF803461B683B618B
:10181000FB685B68B9683A691846FFF788F8786131
:101820007B69002B07D1FB681B687A681146184654
:1018300000F0B5F878617B6918461837BD4680BD61
:1018400090B585B000AF07F1080484E8030039467D
:1018500081E80C0007F108031846FEF7DDFE044698
:101860003B461846FEF7D8FE03469C420BD107F1D3
:1018700008003B4693E80600FFF7BAFF0346002B3B
:1018800001D1012300E0002318461437BD4690BD66
:1018900080B586B002AFF860B960394681E80C00C7
:1018A000BA687B6800933B682421F868FFF7BBF8AF
:1018B000034618461037BD4680BD80B586B002AFDE
:1018C000F860B960394681E80C00BA687B6800931B
:1018D0003B681021F868FFF7A6F803461846103752
:1018E000BD4680BD80B582B000AF78607B68184689
:1018F00000F064F8034618460837BD4680BD000076
:1019000080B586B000AFF860B9607A60F868FFF71C
:10191000E2F90246BB6893428CBF01230023DBB28D
:10192000002B02D00B4800F054F8F868FFF7D3F909
:101930000246BB68D31A7B613A1D07F114031146B6
:101940001846FFF74DF803461B6818461837BD4682
:1019500080BD00BF9C3D000880B584B000AF7860BA
:101960007B681B881A467B68134402330022FA7393
:1019700007F10F0211461846FEF712FC00BF1037A0
:10198000BD4680BD80B582B000AF78607B681846E8
:1019900000F028F8034618460837BD4680BD80B4DD
:1019A00085B000AF786039607A683B68D31AFB6015
:1019B000FB6818461437BD4680BC704780B483B0BE
:1019C00000AF78607B68023318460C37BD4680BC98
:1019D000704780B483B000AF786000BF0C37BD465D
:1019E00080BC704780B483B000AF78607B680233FE
:1019F00018460C37BD4680BC704780B500AF01F07B
:101A000019FA00BF80BD000080B584B000AF01F0BE
:101A100065FA0D4BBB600C4BFB600C4B7B60FA68AE
:101A20007B689A420CD0FB683B60386800F010F885
:101A30000346184600F017FFFB681833FB60EEE71B
:101A400000BF1037BD4680BD240000207C0200206E
:101A500080B483B000AF78607B68083318460C37D9
:101A6000BD4680BC7047000080B582B000AF786092
:101A70007B68DBB21A4613465B0013449B00054AA1
:101A80001344184600F031F8034618460837BD469F
:101A900080BD00BF0043000880B582B000AF786011
:101AA0007B68DBB21A4613465B0013449B00054A71
:101AB0001344184600F024F8034618460837BD467C
:101AC00080BD00BF0C43000898B500AF0020FFF7B1
:101AD000CBFF03461C460020FFF7DEFF03461946F6
:101AE000204601F079FC00BF98BD80B483B000AF00
:101AF00078607B689B6818460C37BD4680BC704791
:101B000080B483B000AF78607B689B6818460C3760
:101B1000BD4680BC7047000080B582B000AF174A58
:101B2000174BD31A9B103B6000237B6007E0144ADD
:101B30007B6852F8233098477B6801337B607A6872
:101B40003B689A42F3D3FEF7F7FA0E4A0E4BD31ACC
:101B50009B103B6000237B6007E00B4A7B6852F8D8
:101B6000233098477B6801337B607A683B689A42F0
:101B7000F3D300BF00BF0837BD4680BD3001000869
:101B800030010008380100083001000880B400AFBF
:101B9000FEE7000080B586B000AF1B4A1B4BD31A8E
:101BA0007B601A4B7B611A4B3B610023FB600AE0B0
:101BB0003A69531C3B617B69591C796112781A7030
:101BC000FB680133FB60FA687B689A42F0D3114AE4
:101BD000114BD31A7B60104B7B610023BB6007E085
:101BE0007B695A1C7A6100221A70BB680133BB60A2
:101BF000BA687B689A42F3D3FFF78EFF00F020FCAF
:101C000000BF1837BD4680BDAC0200200000002098
:101C100084440008F4150020EC04002080B586B050
:101C200000AF1C4BFB601B4B7B611B4BBB607A699D
:101C3000BB689A420AD07B697B60102200217868D9
:101C400001F0DCFE7B6910337B61F0E70023FB745D
:101C5000FB7C002B15D1FB7C9B00104A13443B609E
:101C60003B681B68FA7C83F831203B681B681B6863
:101C70001B683A68126810469847FB7C0133FB7476
:101C8000E6E7074B00225A7000F078FB00BF1837D8
:101C9000BD4680BDAC020020CC0200201C430008E1
:101CA000CC04002080B483B000AF786039607B68DA
:101CB0001A683B681B689A4201D23B6800E07B6867
:101CC00018460C37BD4680BC704780B483B000AF67
:101CD000786039603B681A687B681B689A4201D259
:101CE0003B6800E07B6818460C37BD4680BC7047F7
:101CF000B0B594B000AF00F02BFB0346002B00F012
:101D00003481002387F84F308F4B5B78DBB2012B97
:101D10000CBF01230023DBB2002B00F0CE808A4BE6
:101D20009B78DBB29B00894A13447B637B6B1B6807
:101D3000012283F830207B6B1B680433824A1C46E7
:101D400015460FCD20606160A260E3600FCD206179
:101D50006161A261E3617B6B19687B4BDB78DAB26E
:101D60007B6B1C683B46184600F058FA04F12803C8
:101D70003A4692E8030083E8030007F10C0304F1FC
:101D8000280292E8030083E80300FB68002B06D1D9
:101D90003B6903F00103002B01D1012300E0002384
:101DA000002B04D07B6B1B687E225A717CE07B6B1E
:101DB0001B6800229A607B6B1B68FF2283F833202C
:101DC0007B6B1B68002283F832207B6B1B68FF2231
:101DD00083F835207B6B1B68002283F834207B6BF3
:101DE0001B68012283F824207B6B1B68DB6A03F0ED
:101DF0000103002B0DD07B6B1B687A6B1268D26AD3
:101E0000521013441B687A6B1268926A13441B6861
:101E100002E07B6B1B689B6A7A6B1268796B0968BE
:101E2000C96A49100A44104698477B6B1B685B7966
:101E3000022B29D101237B617B6B1B681B6ABB6171
:101E400007F1180319464248FFF73FFF024607F122
:101E5000140311461846FFF725FF03461A687B6BEB
:101E60001B68D2B283F824207B6B1B680433364A8C
:101E700014461D4628686968AA68EB680FC428697B
:101E80006969AA69EB690FC47B6B1B685B793F2B9F
:101E90000AD87B6B1B689B68002B01D07F2200E077
:101EA00000227B6B1B685A71274B02225A7000F08C
:101EB00065FA012387F84F304EE0234B5B78DBB2A5
:101EC000002B0CBF01230023DBB2002B44D01F4B9F
:101ED0003B641E4BBB641F4BFB63BA6CFB6B9A42AB
:101EE0003AD0BB6CBB63BB6B1B6893F83030002BE4
:101EF00025D0BB6B1B685B793F2B20D9BB6B1B6864
:101F0000002283F83020BB6B1B6800229A620022FB
:101F1000DA62BB6B1B6804330B4A14461D46286803
:101F20006968AA68EB680FC428696969AA69EB69DE
:101F30000FC400F023FA012387F84F300CE0BB6C8C
:101F40000433BB64C9E700BFCC0400201C43000875
:101F5000184300082043000897F84F3083F001032E
:101F6000DBB2002B01D000F009FA374B1B68984711
:101F70003863364BFB62354B7B64354BBB627A6C06
:101F8000BB6A9A425AD07B6C7B627B6A1B6893F86F
:101F9000303083F00103DBB2002B49D17B6A1B6830
:101FA0005B793F2B44D8284B1B68984738627B6A83
:101FB0001B68DB6A03F00103002B0DD07B6A1B68F2
:101FC0007A6A1268D26A521013441B687A6A1268DD
:101FD000926A13441B6802E07B6A1B689B6A7A6AF8
:101FE0001268796A0968C96A49100A441046984714
:101FF0007B6A1B685B793F2B08D87B6A1B689B68F0
:10200000002B03D07B6A1B687F225A710E4B1B6822
:10201000984702463B6AD31AFB610B4B1B689847F3
:1020200002463B6BD31AFB61FB69322B05D800E0FB
:1020300000BF7B6C04337B64A1E700BF00F068F84D
:1020400000BF5037BD46B0BDA80200201C430008A9
:102050002043000880B483B000AF786000BF0C3725
:10206000BD4680BC704780B485B000AFF860B960F1
:102070001346FB71FB6800221A60FB6800225A605D
:10208000F8681437BD4680BC704780B582B000AF99
:102090007860786800F096F800BF0837BD4680BDCC
:1020A00080B582B000AF7860786800F08BF800BF30
:1020B0000837BD4680BD80B582B000AF78607868D3
:1020C00000F080F800BF0837BD4680BD80B582B003
:1020D00000AF7860786800F075F800BF0837BD463B
:1020E00080BD80B582B000AF7860786800F06AF893
:1020F00000BF0837BD4680BD80B582B000AF7860B4
:10210000786800F05FF800BF0837BD4680BD00006A
:1021100080B582B000AF0023FB71FB79012B48D85A
:10212000FB791B01254A13443B603B681B78DBB2FB
:10213000802B14BF01230023DBB2002B34D13B687A
:102140009B78DBB2002B14BF01230023DBB2002BF2
:1021500003D03B6800225A7016E03B685B78DBB224
:10216000002B0BD03B689B78154B93F8303083F0F5
:102170000103DBB2002B01D0012300E00023002B80
:1021800002D03B6800225A703B685B78DBB2002BC0
:102190000CBF01230023DBB2002B06D000F0CCF8EB
:1021A0003B6800221A7000E000BFFB790133FB712D
:1021B000B3E700BF0837BD4680BD00BFAC020020BA
:1021C000B415002080B483B000AF78607B687E22B5
:1021D0005A7100BF0C37BD4680BC704780B483B0D5
:1021E00000AF78607B684FF440329A60084A7B68A1
:1021F0001A62084A7B68DA617B68074A9A617B68E1
:1022000040225A7100BF0C37BD4680BC704700BFEA
:10221000AC020020CC0200200001000280B584B096
:1022200000AFF860B9601346FB71FB797F2B36D0A5
:102230007F2B65DC502B5CD0502B61DC112B2BDC11
:10224000002B5DDB112B5BD801A252F823F000BFFD
:10225000AD220008BB22000801230008012300086A
:1022600001230008012300080123000801230008BE
:1022700001230008012300080123000801230008AE
:10228000012300080123000801230008012300089E
:10229000C9220008D7220008402B23D030E0FB6879
:1022A0001E4A1A60FB6800225A6032E0FB681C4A32
:1022B00092E8030083E803002BE0FB68194A92E8E8
:1022C000030083E8030024E0FB68174A92E8030058
:1022D00083E803001DE0FB68144A92E8030083E8EA
:1022E000030016E0FB68124A92E8030083E803004B
:1022F0000FE0FB680F4A92E8030083E8030008E060
:10230000BB681B6804331B68F868FA79B96898479A
:1023100000BFF8681037BD4680BD00BFDD21000852
:10232000244000082C400008344000083C400008CD
:10233000444000084C40000880B400AFBFF35F8FFA
:10234000BFF34F8FBFF36F8F00BFBD4680BC704798
:1023500080B400AF084B1B78DBB2802B0CBF01238D
:102360000023DBB2002B01D0012300E0002318463C
:10237000BD4680BC704700BFCC04002080B500AFD4
:10238000FFF7DAFF024B00221A7000BF80BD00BFCA
:10239000CC04002080B400AF024B1B681846BD4639
:1023A00080BC7047B015002080B483B000AF786067
:1023B000044A7B681A607B6818460C37BD4680BCAF
:1023C000704700BF2843000880B582B000AF786036
:1023D0007B681846FFF7E8FF034A7B681A607B6852
:1023E00018460837BD4680BD5C43000880B500AF85
:1023F000FFF714FC00BF80BD80B500AFFFF778FC8D
:1024000000BF80BD80B582B000AF786039607B6866
:10241000012B07D13B684FF6FF72934202D103486C
:10242000FFF7D2FF00BF0837BD4680BDB4150020BE
:1024300080B500AF4FF6FF710120FFF7E3FF80BDCD
:1024400080B500AF72B600BF01F08EF9FEF7F6FC62
:10245000FFF7CCFF62B600BF0020FFF705FB034685
:1024600010220449184601F08DF9FEF727FDFFF709
:10247000C3FFFAE70441000880B500AF024B1846DD
:1024800001F0EFF800BF80BD0000002080B588B0EB
:1024900000AFF860B9607A603B60FB6893F8353054
:1024A000FF2B76D10023FB77FB7F012B62D8FB7FCC
:1024B0001B014A4A1344BB61BB691B78DBB2802B0A
:1024C00014BF01230023DBB2002B4ED1FFF734FFF2
:1024D000BB695B78DBB2022B13D1BB699B78DAB2A4
:1024E000FB6893F831309A420BD1BB69DB78DBB2E1
:1024F00003F07F03FA6892F83420934201D101235C
:1025000000E00023002B31D0FB68FA7F83F83520F0
:10251000BB691A7900221A715A7900225A719A7984
:1025200000229A71DA790022DA71BB69DB78DBB2BA
:102530005BB2DBB2DB09DBB2002B06D0BB69DB7818
:10254000DAB2FB6883F8342014E0FB6893F8343087
:1025500001335A4203F07F0302F07F0258BF534217
:10256000DAB2FB6883F8342004E000BFFB7F01335C
:10257000FB7799E7FB6893F83530FF2B09D1BB68EF
:1025800000221A607B6800221A603B6800221A60F1
:1025900020E0FB6893F835301B01104A13447B613F
:1025A000FB6893F835301A467B695B681202134466
:1025B0000B4A1A44BB681A607B699A687B695B683E
:1025C0001A447B681A607B69DA687B695B68D21A97
:1025D0003B681A602037BD4680BD00BFAC020020BA
:1025E000CC02002080B586B000AFF860B9607A6098
:1025F000FB6893F83530FF2B08D1FB6801229A6005
:10260000FB6883225A71FB689B6841E0FB6893F882
:1026100035301B01204A13447B617B695A68BB68D3
:102620001A447B695A607B695A687B69DB689A4205
:102630008CBF01230023DBB2002B08D0FB680222F1
:102640009A60FB6883225A71FB689B6820E07B6973
:102650005A687B69DB689A420CBF01230023DBB216
:10266000002B14D0FB6893F834305BB2DBB2DB098B
:10267000DAB27B681A707B6900225A70FFF75CFE41
:102680007B6900221A70FB68FF2283F83520002343
:1026900018461837BD4680BDAC02002080B489B012
:1026A00000AFF860B9607A607B68DB43BB61BB68F0
:1026B0005A1EBA60002B14BF01230023DBB2002B8B
:1026C00021D0FB681B781A46BB695340BB61FB688D
:1026D0000133FB600723FB7797F91F30002BE6DB04
:1026E000BB6903F001035B427B61BB695A087969EE
:1026F000084B0B405340BB6197F91F30DBB2013BE5
:10270000DBB2FB77E8E7BB69DB4318462437BD46FD
:1027100080BC70472083B8ED80B588B000AF78608A
:102720000023FB737B685B79012B05D13C4B0022B6
:102730001A6000F01BFD6FE0786807F1100307F1E5
:10274000140207F11801FFF7A1FEBB69002B62D04C
:102750007B69184600F08EFDF861FB695A1E7B69A3
:102760001340002B08D000F007FD7B6801229A601F
:102770007B6841225A714FE03B69FA699A4208D955
:1027800000F0FAFC7B6802229A607B6841225A7151
:1027900042E07B69BA691146184600F075FD0246B1
:1027A0007B689A607B689B68002B14BF0123002321
:1027B000DBB2002B02D000F0DFFC2DE07B6807F1DC
:1027C0000F02F9691846FFF70DFF0346002B14BFEF
:1027D00001230023DBB2002B02D000F0CDFC1BE074
:1027E00000F0CAFC7B6918460D4B1B681A46F96954
:1027F000FFF754FF03460A4A1360FB7B002B07D008
:10280000074B1A687B681A627B6840225A7103E0A2
:1028100000F0ACFC00E000BF2037BD4680BD00BF2B
:10282000EC15002080B483B000AF78607B681B6833
:1028300018460C37BD4680BC704780B582B000AFEB
:1028400078607B685B68072B05D97868FFF7EAFF3B
:102850000346043303E07868FFF7E4FF03461846B5
:102860000837BD4680BD90B585B002AF78607B6803
:10287000197A7B68587A7B681C7B7B685B7B7A68FB
:10288000927B0192009323460246786800F034FB65
:102890007B68DB7A1946786800F004F800BF0C37D3
:1028A000BD4690BD80B582B000AF78600B46FB702E
:1028B0007B68FA78DA737B68DA7B7B689B7A9A426A
:1028C00014BF01230023DBB21946786800F0F8FB3F
:1028D00000BF0837BD4680BD80B582B000AF7860CC
:1028E000786800F014FC03461A467B689B7A9A428B
:1028F00014BF01230023DBB218460837BD4680BD54
:1029000080B584B000AF3B4683E803003B460CCB68
:1029100001210C4800F057F8F860FB68002B0BDB36
:10292000FA6813465B0013449B00064A134418469A
:1029300000F03EF8034600E0002318461037BD467D
:1029400080BD00BF4843000880B500AFFFF755F8D1
:1029500000BF80BD80B586B000AFF860B9607A6016
:102960003B607B68002B01D104231DE0BB6808336A
:10297000BB607B68013B7B60BB6893E80300FFF7AB
:10298000BFFF7861FB68002B03D0FB68012B05D0EB
:1029900009E0786900F05EFA002305E0786900F04C
:1029A00074FA002300E0012318461837BD4680BDA5
:1029B00080B483B000AF78607B68083318460C376A
:1029C000BD4680BC704780B586B002AFF860B96084
:1029D000394681E80C00BA687B6800933B680C219B
:1029E000F868FEF720F8034618461037BD4680BD4C
:1029F00080B584B000AF3B4683E803003B460CCB78
:102A000019210C4800F07AF8F860FB68002B0BDB0A
:102A1000FA6813465B001344DB00064A1344184669
:102A2000FFF716F8034600E0002318461037BD46AE
:102A300080BD00BF2400002080B500AFFEF7E4FF9A
:102A400000BF80BD80B586B000AFF860B9607A6025
:102A50003B607B68002B01D104234BE0BB6893E80B
:102A60000300FFF7C5FF78617B69002B01D10423C8
:102A700040E0BB680833BB607B68013B7B60FB6860
:102A8000022B29D0FB68022B33D8FB68002B03D024
:102A9000FB68012B05D02CE07869FFF7E4FE0023EA
:102AA00028E07B68002B01D1042323E007F1120208
:102AB000BB6893E8030000F036F8034683F0010397
:102AC000DBB2002B01D0042314E0BB7C19467869EB
:102AD000FFF7E8FE00230DE07869FFF7FDFE0346EF
:102AE000FB74FB7C002239681846FDF74BFC002381
:102AF00000E0012318461837BD4680BD80B586B07A
:102B000002AFF860B960394681E80C00BA687B68AA
:102B100000933B681821F868FDF785FF03461846C7
:102B20001037BD4680BD80B586B000AF07F1080301
:102B300083E803007A6007F110031A4607F10803DF
:102B400093E80300FDF77EFD0346FB753B69002B10
:102B500014BF01230023DAB27B681A70FB7D18468C
:102B60001837BD4680BD000080B584B000AF3B463D
:102B700083E803003B460CCB01210C4800F008F928
:102B8000F860FB68002B0BDBFA6813465B0013440C
:102B90009B00064A13441846FEF7A7FF034600E0D1
:102BA000002318461037BD4680BD00BF0043000813
:102BB00080B584B000AF3B4683E803003B460CCBB6
:102BC00001210C4800F0F9F8F860FB68002B0BDBE2
:102BD000FA6813465B0013449B00064A13441846E8
:102BE000FEF78EFF034600E0002318461037BD466F
:102BF00080BD00BF0C43000880B500AF00F0E5FBCE
:102C0000FEF762FF00BF80BD80B58AB000AFF860FC
:102C1000B9607A603B607B68002B01D10423B0E08F
:102C2000BB6893E80300FFF79FFF78627B6A002B85
:102C300001D10423A5E0BB680833BB607B68013B7E
:102C40007B60FB68032B00F29B8001A252F823F00B
:102C5000612C00088F2C0008D12C0008252D0008BD
:102C60007B68002B01D100238BE0BB6893E8030055
:102C7000FFF79EFFF861FB69002B01D1042380E080
:102C80007B6AF969184600F0A7FB002379E07B68AE
:102C9000002B01D1002374E0B868FDF7BDFC0346AA
:102CA0005B083B62394AB9683B6A03C9FDF787FA9A
:102CB000034683F00103DBB2002B01D0042360E064
:102CC0007B6A32493A6A184600F06BFD002358E0EF
:102CD0007B68002B01D1002353E007F11802BB6889
:102CE00093E8030000F07EF8034683F00103DBB2B3
:102CF000002B01D0042344E0BB69B3F5806F01D9F8
:102D000004233EE07B6A2149BA69184600F06DFD54
:102D10000346BB611D48B96900233A68FDF7CEFA46
:102D200000232EE07B68002B01D1002329E007F16E
:102D30001702B968012303C9FDF741FA034683F07E
:102D40000103DBB2002B01D004231AE00F4BFA7D04
:102D500011464FF48062184600F050FE7B6B984796
:102D6000034683F00103DBB2002B07D07B6A0749DF
:102D70004FF48062184600F014FDEFE7002300E0F6
:102D8000012318462837BD4680BD00BF0805002036
:102D900080B586B002AFF860B960394681E80C00B2
:102DA000BA687B6800933B680C21F868FDF73BFE2E
:102DB000034618461037BD4680BD80B586B002AFC9
:102DC000F860B960394681E80C00BA687B68009306
:102DD0003B680C21F868FDF726FE034618461037BD
:102DE000BD4680BD80B586B000AF07F1080383E81B
:102DF00003007A6007F110031A4607F1080393E80D
:102E00000300FDF71FFC0346FB753B691A467B6810
:102E10001A60FB7D18461837BD4680BD80B483B06C
:102E200000AF7860024B18460C37BD4680BC704737
:102E30000000014080B400AF054B9B69044A43F099
:102E400001039361024A936100BFBD4680BC704795
:102E50000010024090B583B000AF78607868FFF74B
:102E6000DDFF03465B687A68527811467A6812780B
:102E700001FA02F243EA02047868FFF7CFFF034643
:102E80005C6000BF0C37BD4690BD90B583B000AF0D
:102E900078607868FFF7C2FF03465B687A6812784B
:102EA000114603228A40D24303EA02047868FFF7FE
:102EB000B5FF03465C6000BF0C37BD4690BD80B4D3
:102EC00083B000AF78607B685B68DBB203F0070318
:102ED000DBB218460C37BD4680BC704780B400AFEB
:102EE000044B9B69034A43F07C03936100BFBD46DA
:102EF00080BC70470010024090B585B000AF78608C
:102F0000084611461A460346FB700B46BB70134633
:102F10007B700023FB730023BB7300237B73FB7860
:102F2000032B5FD0FB78032B61D8FB78002B05D0F7
:102F3000FB78013BDBB2012B59D824E097F8243011
:102F4000022B1AD097F82430022B4DD897F8243052
:102F5000002B04D097F82430012B05D044E0FB7BF4
:102F600043F00103FB730DE0FB7B43F00203FB73B3
:102F70007B7B43F001037B7304E0FB7B43F00203A4
:102F8000FB7300BF30E07B78012B03D1FB7B43F068
:102F90000103FB73FB78022B03D1FB7B43F002039D
:102FA000FB7397F82030032B20D897F82030022BA2
:102FB00012D297F82030002B04D097F82030012B44
:102FC00005D013E0BB7B43F00203BB7309E0BB7B7E
:102FD00043F00103BB7304E0BB7B43F00303BB730B
:102FE00000BF03E000BF02E000BF00E000BFFB7BCA
:102FF0009A00BB7B42EA03047B681846FFF75FFF39
:1030000003469B0004FA03F3BB607B681846FFF796
:1030100014FC03461C687B681846FFF750FF034604
:103020009B000F2202FA03F3DB4304EA0302BB68AE
:1030300042EA03047B681846FFF7FFFB03461C6067
:10304000FB78002B0BD17A7B7B685B6802FA03F379
:103050001C467B681846FFF7E5FB0346DC6000BFB3
:103060001437BD4690BD90B585B000AF78607B68E1
:103070001846FFF724FF03469B00042202FA03F3DD
:10308000FB607B681846FFF7D8FB03461C687B682B
:103090001846FFF714FF03469B000F2202FA03F3C2
:1030A000DB4304EA0302FB6842EA03047B68184638
:1030B000FFF7C3FB03461C6000BF1437BD4690BD3D
:1030C00090B583B000AF78600B46FB70FB78002BA7
:1030D0000CD07B685B68012202FA03F31C467B6814
:1030E0001846FFF79FFB03461C610CE07B685B689A
:1030F0001033012202FA03F31C467B681846FFF7DF
:1031000091FB03461C6100BF0C37BD4690BD80B5E6
:1031100082B000AF78607B681846FFF783FB0346F8
:103120009A687B685B6822FA03F303F00103002BC3
:1031300014BF01230023DBB218460837BD4680BD0B
:1031400080B483B000AF7860054B064A5A60044BE8
:10315000054A5A6000BF0C37BD4680BC704700BFAF
:103160000020024023016745AB89EFCD80B400AF5A
:1031700000BFBD4680BC704780B400AF00BFBD46F5
:1031800080BC704780B400AF064BDB6803F00103DE
:10319000002B14BF01230023DBB21846BD4680BCC0
:1031A000704700BF0020024080B483B000AF00230E
:1031B0007B60134BDB6803F00403002B14BF012377
:1031C0000023DBB2002B02D001237B600CE00C4B10
:1031D000DB6803F01003002B14BF01230023DBB2D4
:1031E000002B01D002237B60054BDB68044A43F0CF
:1031F0001403D3607B6818460C37BD4680BC70470B
:103200000020024080B582B000AF78607B685B79B7
:10321000012B0CD1164B1B69154A43F004031361B3
:10322000134B1B69124A43F0400313611CE0FFF784
:10323000A9FF0346002B16D1FFF7B6FF02467B68B5
:103240009A600B4B1B690A4A23F0040313617B68E5
:103250009B68002B03D07B687F225A7104E07B6857
:1032600040225A7100E000BF0837BD4680BD00BF54
:103270000020024080B483B000AF7860022318467B
:103280000C37BD4680BC704780B584B000AF786015
:1032900039600F4B1B690E4A43F0010313617B68D1
:1032A0003A6812881A80FFF76DFF0346002B00D0A2
:1032B000F9E7FFF779FFF860054B1B69044A23F033
:1032C00001031361FB6818461037BD4680BD00BF7F
:1032D0000020024080B483B000AF0346FB7197F931
:1032E0000730002B0BDBFB7903F01F02064997F92F
:1032F00007305B09012000FA02F241F8232000BFE9
:103300000C37BD4680BC704700E100E080B483B05C
:1033100000AF03463960FB7197F90730002B0ADBD9
:103320003B68DAB20C4997F907301201D2B20B446C
:1033300083F800230AE03B68DAB20849FB7903F01E
:103340000F03043B1201D2B20B441A7600BF0C37B4
:10335000BD4680BC704700BF00E100E000ED00E02A
:1033600080B483B000AF0346FB7197F9073018466D
:103370000C37BD4680BC704780B483B000AF786026
:103380007B681B7803F1804303F5043318460C3740
:10339000BD4680BC704780B483B000AF78607B6866
:1033A0001B7A03F1804303F5803318460C37BD4682
:1033B00080BC704780B483B000AF78607B681B68C6
:1033C00018460C37BD4680BC704780B400AF00BFC4
:1033D000BD4680BC7047000090B587B000AF7860F4
:1033E00039607B68DB68002B0AD07B68DB683A6851
:1033F0009A4205D07B68DB6808331846FFF733FE36
:103400007B68DB68002B0AD07B68DB683A689A42ED
:1034100005D07B68DB6818331846FFF724FE7B680D
:10342000DB68002B11D07B68DB689B6A002B0CD01B
:103430007B68DB689A6A3B689B6A9A4205D07B6826
:10344000DB689B6A1846FFF70EFE7B683A68DA6015
:103450007B6804331846FFF78FFF03461A687968C4
:1034600049790846012181400A431A607B68184661
:10347000FFF791FF03461B687A68927AD2431340A4
:103480007A68D27A11467A68527A01FA02F243EAED
:1034900002047B681846FFF77EFF03461C607B68CA
:1034A0009B791A46344B93FBF2F37B617B68DB68B4
:1034B0001B687A69B2FBF3F33B613B691B09FB6054
:1034C000FB681B013A69D31ABB607B68DB68083371
:1034D0001846FFF7C8F97B68DB6818331846FFF712
:1034E000C2F97B68DB689B6A002B05D07B68DB68D0
:1034F0009B6A1846FFF7B7F9FB681A01BB6842EAF6
:1035000003047B681846FFF755FF03469C607B6801
:103510001846FFF74FFF0346DB6843F020047B6843
:103520001846FFF747FF0346DC607B68DB791846E7
:10353000FFF716FF034600211846FFF7E7FE7B68FA
:10354000DB791846FFF70CFF03461846FFF7C2FE6B
:103550007B681846FFF72EFF0346DB6843F40054F0
:1035600044F00C047B681846FFF724FF0346DC6038
:1035700000BF1C37BD4690BD00127A0080B582B0F6
:1035800000AF78607B681846FFF714FF03461B689E
:1035900003F04003002B0CBF01230023DBB2002B00
:1035A00000D0EFE700BF0837BD4680BD80B582B0D0
:1035B00000AF78600B46FB707B681846FFF7FAFE99
:1035C00003461B6803F08003002B0CBF012300237C
:1035D000DBB2002B00D0EFE7786800F02FF9FB7822
:1035E0001946786800F007F8786800F03EF900BFE7
:1035F0000837BD4680BD90B583B000AF78600B46FC
:10360000FB707B681846FFF7D5FE03461B6803F086
:103610008003002B0CBF01230023DBB2002B00D062
:10362000EFE7FC787B681846FFF7C4FE03465C6052
:1036300000BF0C37BD4690BD80B582B000AF78604A
:1036400039607B6810333968184600F06BF903461F
:10365000002B0CBF01230023DBB218460837BD4600
:1036600080BD80B584B000AF78607B681846FFF7F6
:10367000A1FE03461B6803F02803002B14BF01239F
:103680000023DBB2002B10D07B681846FFF792FEB8
:1036900003465B68DBB2FB737B68103307F10F02F4
:1036A0001146184600F02CF9DFE700BF1037BD4681
:1036B00080BD000080B400AF044B1B680133034A97
:1036C000136000BFBD4680BC704700BFB01500202E
:1036D00080B483B000AF03463960FB7197F90730BF
:1036E000002B0ADB3B68DAB20C4997F9073012016C
:1036F000D2B20B4483F800230AE03B68DAB20849EF
:10370000FB7903F00F03043B1201D2B20B441A768B
:1037100000BF0C37BD4680BC704700BF00E100E031
:1037200000ED00E080B582B000AF78607B68013BBF
:10373000B3F1807F01D301230FE00A4A7B68013B8C
:1037400053600F214FF0FF30FFF7C2FF054B0022FF
:103750009A60044B07221A60002318460837BD46BA
:1037600080BD00BF10E000E080B500AF4FF4FA501C
:10377000FFF7D8FF00BF80BD80B500AFFFF79AFF0D
:1037800000BF80BD80B584B000AFF860B9607A60DA
:103790007A68B968F86800F004F800BF1037BD46D1
:1037A00080BD80B584B000AFF860B9607A60F86819
:1037B00000F044F87B685A1E7A60002B14BF012386
:1037C0000023DBB2002B09D0BB681B781946F868D0
:1037D000FFF711FFBB680133BB60EBE7F86800F04F
:1037E00044F800BF1037BD4680BD80B586B000AF3D
:1037F000F860B9607A6000237B617B685A1E7A604A
:10380000002B14BF01230023DBB2002B11D0BA68B8
:103810007B6913441946F868FFF70EFF034683F0EF
:103820000103DBB2002B03D17B6901337B61E4E749
:1038300000BF7B6918461837BD4680BD80B582B091
:1038400000AF78607B68DB689B6A002B09D07B68DF
:10385000DB689B6A01211846FFF724F80A2000F074
:10386000A7F800BF0837BD4680BD80B582B000AF65
:1038700078607B68DB689B6A002B0CD07868FFF768
:103880007DFE0A2000F094F87B68DB689B6A0021CB
:103890001846FFF707F800BF0837BD4680BD000097
:1038A000024682B0EFF3108072B68DF80700094926
:1038B0000B780133DBB2012B0B7003D19DF807109D
:1038C000054B1970BFF34F8FBFF36F8F104602B0D7
:1038D000704700BFF1150020F0150020064A13784C
:1038E000013BDBB2137002461BB9044B187880F31E
:1038F00010881046704700BFF1150020F015002019
:1039000030B504460D4683B001A8FFF7C9FF29462C
:10391000204600F019F8044601A8FFF7DFFF204613
:1039200003B030BD30B504460D4683B001A8FFF7A3
:10393000B7FF2946204600F021F8044601A8FFF70A
:10394000CDFF204603B030BD034600695A6890425F
:1039500010D208789A6819688854D3E901120132A4
:103960008A429A6004BF00229A601A6900200132DC
:103970001A6170474FF0FF30704700BF026903467D
:1039800092B1C2680068825C0A705868D3E903216A
:10399000013201398242C3E9032101D0002070477E
:1039A00000221046DA6070474FF0FF30704700BFCA
:1039B000C000431E10B100BF013BFCD2704700BFE6
:1039C00010B501390244904201D1002005E003788E
:1039D00011F8014FA34201D0181B10BD0130F2E7CE
:1039E0000A44914200F1FF3300D1704710B511F83D
:1039F000014B914203F8014FF9D110BD0346024437
:103A0000934200D1704703F8011BF9E770B50446F3
:103A10000E4E0A448A4201D1002013E014F8013B03
:103A2000985D00F00300012811F8010B08BF203356
:103A3000355C05F00305012D08BF20301B1A02D1AB
:103A40000028E7D170BD1846FCE700BF7D430008A1
:103A50003031323334353637383961626364656604
:103A6000637572725F73697A65203E3D206D61787F
:103A70005F73697A6528290000000000494D504CA9
:103A8000454D454E544154494F4E202D204E4F54E4
:103A900020494D504C454D454E54454400000000D2
:103AA000455845435554494F4E202D20434F4D4DC9
:103AB000414E44204641494C454400005245534F35
:103AC00055524345202D204E4F20535543482052F8
:103AD00045534F5552434500415247554D454E546D
:103AE000202D2042414420415247554D454E54001F
:103AF000434845434B53554D202D20434F4D4D4199
:103B00004E442F524553504F4E5345204348454352
:103B10004B53554D204641494C555245000000003D
:103B2000434F4E46000000003C6770696F206E6195
:103B30006D653E2E20285265292D636F6E6669677C
:103B40007572652070696E00570000003C677069EF
:103B50006F206E616D653E203C302F313E2E20532C
:103B60006574206C6F676963616C2070696E207387
:103B70007461746500000000520000003C677069C9
:103B80006F206E616D653E2E2052656164206C6F02
:103B9000676963616C2070696E207374617465007D
:103BA0003C75617274206E616D653E203C636F6E82
:103BB000666967206E616D653E2E20436F6E666993
:103BC00067757265207468652070657269706865D4
:103BD00072616C207769746820616E206578697302
:103BE00074696E6720636F6E666967757261746968
:103BF0006F6E00003C75617274206E616D653E20D1
:103C00003C68657820737472696E673E2E2054722A
:103C1000616E736D697420646174612066726F6D8A
:103C20002074686520554152540000003C75617253
:103C300074206E616D653E203C232062797465734B
:103C40003E2E204E6F6E2D626C6F636B696E672027
:103C50007265636569766520757020746F206023D6
:103C6000206279746573602062797465732066726E
:103C70006F6D2074686520525820627566666572A3
:103C80000000000054455354000000003C75617270
:103C900074206E616D653E203C68657820627974A1
:103CA000653E2E20436F6E74696E756F75736C7907
:103CB000207472616E736D69742074686520686524
:103CC00078206279746520756E74696C20746865FB
:103CD00020636F6D6D616E6420697320696E746519
:103CE000727275707465640052656D6170207065E4
:103CF000726970686572616C00000000524553453E
:103D000054000000526573657420706572697068B4
:103D10006572616C206D617070696E6700000000F3
:103D20004750494F5265736F75726365000000001C
:103D3000554152545265736F7572636500000000FF
:103D40004146494F5265736F75726365000000000C
:103D5000082008004552524F523A20003A2030784D
:103D6000000000003A20000030313233343536375D
:103D700038394142434445460000000068656C7094
:103D800000000000637572725F73697A65203E3DC2
:103D9000206D61785F73697A65282900696E6465B2
:103DA00078203E2073697A65282900000000000011
:103DB000494D504C454D454E544154494F4E202D90
:103DC000204E4F5420494D504C454D454E5445448E
:103DD00000000000455845435554494F4E202D20C2
:103DE000434F4D4D414E44204641494C454400000F
:103DF0005245534F55524345202D204E4F20535589
:103E00004348205245534F55524345004152475570
:103E10004D454E54202D2042414420415247554D9E
:103E2000454E5400434845434B53554D202D2043A8
:103E30004F4D4D414E442F524553504F4E53452008
:103E4000434845434B53554D204641494C555245F7
:103E5000000000004C45445F524544004C45445F1F
:103E6000475245454E00000053573331315F4C45B2
:103E70004400000053573330315F4C45440000008C
:103E800053573331325F4C454400000053573330B1
:103E9000325F4C454400000053573331335F4C458B
:103EA0004400000053573330335F4C45440000005A
:103EB00053573331315F50420000000053573330C5
:103EC000315F50420000000053573331325F50429F
:103ED0000000000053573330325F504200000000B2
:103EE00053573331335F5042000000005357333093
:103EF000335F50420000000043414E5F4552520084
:103F000043414E5F5258000043414E5F52585F4458
:103F100045425547000000005359535F47524545FD
:103F20004E0000005359535F52454400524C5941D2
:103F30005F46423100000000524C59425F46423118
:103F400000000000524C59415F4642320000000020
:103F5000524C59425F46423200000000524C5941D7
:103F60005F46423300000000524C59425F464233E4
:103F70000000000000000000494D504C454D454EEA
:103F8000544154494F4E202D204E4F5420494D50FE
:103F90004C454D454E5445440000000045584543AE
:103FA0005554494F4E202D20434F4D4D414E4420F6
:103FB0004641494C454400005245534F55524345F4
:103FC000202D204E4F2053554348205245534F55E6
:103FD00052434500415247554D454E54202D2042F5
:103FE000414420415247554D454E540043484543B6
:103FF0004B53554D202D20434F4D4D414E442F5294
:104000004553504F4E534520434845434B53554D20
:10401000204641494C555245000000004445425558
:104020004700000008000000010000000C00000034
:10403000010000001000000001000000140000005A
:104040000100000018000000010000001C0000003A
:104050000100000000000000494D504C454D454E08
:10406000544154494F4E202D204E4F5420494D501D
:104070004C454D454E5445440000000045584543CD
:104080005554494F4E202D20434F4D4D414E442015
:104090004641494C454400005245534F5552434513
:1040A000202D204E4F2053554348205245534F5505
:1040B00052434500415247554D454E54202D204214
:1040C000414420415247554D454E540043484543D5
:1040D0004B53554D202D20434F4D4D414E442F52B3
:1040E0004553504F4E534520434845434B53554D40
:1040F000204641494C555245000000004445425578
:1041000047000000434C4320636F6E6E6563746527
:10411000642E0A0D0000000000000000494D504CC4
:10412000454D454E544154494F4E202D204E4F543D
:1041300020494D504C454D454E544544000000002B
:10414000455845435554494F4E202D20434F4D4D22
:10415000414E44204641494C454400005245534F8E
:1041600055524345202D204E4F2053554348205251
:1041700045534F5552434500415247554D454E54C6
:10418000202D2042414420415247554D454E540078
:10419000434845434B53554D202D20434F4D4D41F2
:1041A0004E442F524553504F4E53452043484543AC
:1041B0004B53554D204641494C5552450000000097
:1041C00043414E5F52454D41500000000000000049
:1041D000783A0008200000007C3A00081A0000002D
:1041E000A03A00081B000000BC3A000817000000BD
:1041F000D83A00082C000000F03A00080400000043
:10420000203B00081F000000283B000801000000C0
:10421000483B0008280000004C3B0008010000005B
:10422000783B0008230000007C3B000804000000ED
:10423000203B000852000000A03B000801000000E5
:10424000483B000835000000F43B00080100000076
:10425000783B0008540000002C3C000804000000DB
:10426000843C00085B0000008C3C00080400000057
:10427000203B000810000000E83C0008050000009A
:10428000FC3C000818000000043D00080C00000081
:10429000203D0008392A0008452A000800000000D7
:1042A000FC4100080300000000000000783A00080C
:1042B0000C000000303D0008F92B0008092C000814
:1042C000000000002C420008040000000000000074
:1042D000783A00080C000000403D00084929000819
:1042E00055290008000000006C4200080200000090
:1042F00000000000783A000803000000503D00086C
:10430000050000001C40000800000020050000001F
:104310001C4000087C02002002000000B4150020B0
:104320000000000000000000552000086720000881
:104330008B200008A1200008B7200008CD2000082D
:10434000E3200008F920000809000000C04100082F
:104350000D030000000000000000000041310008D3
:104360006720000805320008A1200008192700086E
:10437000CD200008E3200008F920000800202020BC
:104380002020202020202828282828202020202005
:1043900020202020202020202020202020881010D5
:1043A0001010101010101010101010101004040431
:1043B00004040404040404101010101010104141EF
:1043C00041414141010101010101010101010101DD
:1043D00001010101010101011010101010104242F1
:1043E00042424242020202020202020202020202AD
:1043F000020202020202020210101010200000004D
:1044000000000000000000000000000000000000AC
:10441000000000000000000000000000000000009C
:10442000000000000000000000000000000000008C
:10443000000000000000000000000000000000007C
:10444000000000000000000000000000000000006C
:10445000000000000000000000000000000000005C
:10446000000000000000000000000000000000004C
:10447000000000000000000000000000000000003C
:0444800051010008DE
:10448400004800401C12012704040300000000003F
:1044940008090020400000000000000000000000A7
:1044A4000000000007000000543E0008001801400E
:1044B40000000000010001000001000009000000EC
:1044C4005C3E0008001801400100000001000100EA
:1044D4000001000009000000683E000800180140C7
:1044E40008000000010001000001000009000000B4
:1044F400743E00080018014009000000010001009A
:104504000001000009000000803E0008001801407E
:104514000A00000001000100000100000900000081
:104524008C3E0008001801400B000000010001004F
:104534000001000009000000983E00080018014036
:104544000C0000000100010000010000090000004F
:10455400A43E0008001801400D0000000100010005
:104564000001000008000000B03E000800100140F7
:104574000800000000000100000101000800000024
:10458400BC3E0008001001400900000000000100CA
:104594000001010008000000C83E000800100140AE
:1045A4000A000000000001000001010008000000F2
:1045B400D43E0008001001400B0000000000010080
:1045C4000001010008000000E03E00080010014066
:1045D4000C000000000001000001010008000000C0
:1045E400EC3E0008001001400D0000000000010036
:1045F4000001010007000000F83E00080018014017
:10460400020000000100010000010000060000009B
:10461400003F0008000801400B00000000000100FA
:10462400010100000C000000083F000800080140E0
:104634000B0000000100010000010000090000005F
:10464400183F0008001801400400000001000100A8
:104654000001000007000000243F0008001801408A
:104664000500000001000000000100000800000037
:104674002C3F000800080140040000000000000076
:104684000001020008000000383F00080008014053
:104694000500000000000000000102000800000006
:1046A400443F00080008014006000000000000002C
:1046B4000001020008000000503F0008000801400B
:1046C40007000000000000000001020008000000D4
:1046D4005C3F0008001001400000000000000000E2
:1046E4000001020008000000683F000800100140BB
:1046F40001000000000000000001020000C20100EF
:1047040000000000000C01400A000000020000004C
:1047140000000000000C01400B000000000000003D
:0C472400000000000000000095230008C9
:104730000000000000000000000000000000000079
:104740000000000000000000000000000000000069
:104750000000000000000000000000000000000059
:104760000000000000000000000000000000000049
:0400000508001B953F
:00000001FF
