:020000042000DA
:10000000404F0020ED000020350500203505002080
:1000100035050020350500203505002000000000D2
:100020000000000000000000000000003505002076
:10003000350500200000000035050020A50800203F
:100040003505002035050020350500203505002048
:100050003505002035050020350500203505002038
:100060003505002035050020350500203505002028
:100070003505002035050020350500203505002018
:100080003505002035050020350500203505002008
:1000900035050020350500203505002035050020F8
:1000A00035050020350500203505002035050020E8
:1000B00035050020350500203505002035050020D8
:1000C00035050020350500203505002035050020C8
:1000D000350500203505002035050020750A002073
:1000E000350500203505002035050020DFF818D043
:1000F000064B4FF0A531064A196003F10403934201
:10010000FAD10020034B1847404F0020404C0020FC
:1001100000500020D51500205D010020A90E002010
:10012000F8B500BFF8BC08BC9E467047F8B500BFE4
:10013000F8BC08BC9E46704710B5054C237833B90F
:10014000044B13B10448AFF300800123237010BDAA
:100150002423002000000000501E002008B5034B9F
:100160001BB103490348AFF3008008BD0000000045
:1001700028230020501E0020034613F8012B002ADC
:10018000FBD1181A013870473038362840D8DFE8DC
:1001900000F01C20232527292B2D2F313F3F3F3FE7
:1001A0003F3F3F333537393B3D3F3F3F3F3F3F3F89
:1001B0003F3F3F3F3F3F3F3F3F3F3F3F3F3F3F3F4F
:1001C0003F3F3F333537393B3D00002301200B7063
:1001D00070470120087070470223F7E70323F5E713
:1001E0000423F3E70523F1E70623EFE70723EDE711
:1001F0000823EBE70923E9E70A23E7E70B23E5E711
:100200000C23E3E70D23E1E70E23DFE70F23DDE710
:1002100000207047F0B585B06C46B0EB430F84E822
:1002200003004FEA430721D3019D00262C46631BA0
:100230009F421ED994F900000DF10F018DF80F6057
:100240008DF80E60FFF7A0FF80B194F901000DF169
:100250000E01FFF799FF023440B19DF80F109DF891
:100260000E3043EA011302F8013BE0E7002005B03D
:10027000F0BD0120FBE72DE9FF4100256B46064656
:1002800083E80300156020B90024204604B0BDE8CF
:10029000F081019F97F900402D2C05D0302C1FD004
:1002A000002CF2D02C4602E001240137461E4FF00C
:1002B0000A083E44B7421ED017F9010BC3B28DF8AD
:1002C0000F30C3B1D5B10DF10F01FFF75DFF00286D
:1002D000DAD011689DF80F3043EA01131360E9E7A3
:1002E0000128DFD097F901007828DBD12C460237AE
:1002F0000125023EDBE76CB90124C6E72F2BC3D9E9
:10030000303BDBB2092B8DF80F30BDD8116808FBEC
:100310000133E3E713685B421360B6E70388C21852
:1003200001339BB29170038018440023837070479F
:10033000F0B541F221060144814215D0082410F89D
:10034000015B138885EA132717F0800F4FEA4303F8
:1003500004F1FF3418BF73406D0014F0FF049BB22A
:10036000EDB2EFD11380E7E7F0BD0022C0E9002233
:10037000704700004FF440338360044B0362044B2A
:10038000C361044B8361402343717047204C0020BC
:100390000048002000010002BFF35F8FBFF34F8FC2
:1003A000BFF36F8F70470000014B1868704700BFA4
:1003B000D4310020034B044A5A6002F188325A605B
:1003C000704700BF0020024023016745837A10B5C3
:1003D000D0E900428B424FF0010308BF1032934036
:1003E000C173236110BD0000017AF0B4437B047B2C
:1003F00031B14A1E012A27D900221346144607E0CC
:10040000837B022B30D81D4AD45C1D4AD25C0B463C
:100410000F27456843EA84030468072D05F00706A3
:1004200088BF04342568B600B34007FA06F625EA0B
:1004300006052B43236019B943689A400368DA60C4
:10044000C17AF0BCFFF7C2BF621E54425441022978
:1004500008BF44F00204012B04D009D9023B012B50
:1004600009D900230022D3E70A460B460C46CFE702
:1004700000220223CCE700220323C9E7991B0020B6
:100480009C1B00202DE9F04106254FF001080026B5
:10049000174C184F04F11000FFF7A6FF94F8203016
:1004A000BA6908FA03F31343BB61A3685E60C3F83B
:1004B0000880227B092A0FD80721186902EB420C19
:1004C00001FA0CF101431961013DDE6204F12404DB
:1004D0005A63DFD1BDE8F081A2F10A0101EB4100CE
:1004E0000721D3F80CC0814041EA0C01D960EBE749
:1004F000541E002000100240034A936943F0010398
:1005000093619361704700BF0010024038B500242A
:10051000064A074D936943F07C0393612819183408
:10052000FFF762FFB4F56A7FF8D138BD00100240D2
:10053000341F0020044B82B05B68C3F308030193AF
:10054000019B00BEFEE700BF00ED00E0042203684F
:1005500030B545680F2005F00701072D4FEA8101EE
:1005600088BF9B1802FA01F41A6800FA01F122EA26
:10057000010222431A6030BD7E23437170470000A0
:10058000074BDA68520709D4D86810F0100018BF7A
:100590000220DA6842F01402DA6070470120F8E7BE
:1005A000002002402DE9F84343790146012B04D194
:1005B0000022644B1A60BDE8F88390F83530624D34
:1005C000FF2B31D100200201AA5CC6B2802A05EBC4
:1005D00000133FD1FFF7E0FE5A78022A3AD19A7809
:1005E00091F83140944235D1DA7891F8347002F0C4
:1005F0007F02BA4203F103042CD11879002018714C
:1006000081F835605E7958719E799871DE79D8717C
:10061000DB781B0655BF0132237802F07F0281F898
:10062000343058BF81F8342091F8354005EB04137D
:100630005868D3F808805F68DA6808EB070616F098
:10064000010F5B680DD001238B6041234B71B2E732
:100650000120B8E70028FBD091F83530FF2BE3D11B
:10066000A9E7D21A012A01D80223EDE7DFF8DC90CE
:10067000374BD9F8102003EB04231B5A42F0010238
:10068000C9F8102028F80730D9F80C4014F00104FC
:10069000FAD1FFF775FFD9F8103023F00103C9F83C
:1006A00010308860002886D191F83530FF2B03D1B7
:1006B00001238B608323C9E74FEA031905EB03137A
:1006C0005A6802325A6003F10802D3F804E0D2F803
:1006D00004C0E64501D90223EBE7D3F804C0526811
:1006E00094450AD15870FF2391F83440FFF754FE27
:1006F000E40905F8090081F83530124818F8073088
:100700000268144F5340DA43082342F30005013BCB
:100710003D4013F0FF0385EA5202F6D1737853404F
:10072000082243F30005013A3D4012F0FF0285EA3A
:100730005303F6D1DB430360002C3FF43CAF0B6264
:10074000402383E724340020204C00200020024076
:10075000004800202083B8ED437910B5012B0446F2
:100760000D4908D10B6943F004030B610B6943F099
:1007700040030B6110BDCB68DB07FBD4FFF700FF24
:10078000A0600B6923F004030B6110B17F23637138
:10079000F0E74023FBE700BF0020024038B50446E5
:1007A000C0680D4620B1884202D00830FFF7CEFE67
:1007B000E06820B1A84202D01830FFF7C7FEE36816
:1007C00033B1986A20B1AB6A984201D0FFF7BEFE00
:1007D00001222379607903F1804303F5043319681A
:1007E00082400A43E5601A60237AA17A03F18043CC
:1007F00003F580331A68607A22EA0102E17A8140C7
:100800000A431A602846A2791F4B50F8085BB3FBD5
:10081000F2F3B3FBF5F5FFF7E7FDE0681830FFF7FB
:10082000E3FDE368986A08B1FFF7DEFD23689D6089
:10083000DA6842F02002DA6094F90730E279002B9E
:100840001BDB002203F1604303F5614383F80023BF
:1008500094F90730E279002B07DB02F01F01012237
:100860008A400A495B0941F823202268D36843F48F
:10087000005343F00C03D36038BD054B02F00F0268
:10088000134400221A76E3E700127A0000E100E048
:10089000FCEC00E001490248FFF780BFF82200208D
:1008A000D4220020024A136801331360704700BF4E
:1008B000D4310020034682B0EFF3108072B68DF879
:1008C00007001A4802780132D2B2012A027002BF30
:1008D0009DF807C0164A82F800C0BFF34F8FBFF3E0
:1008E0006F8F1A69FAB1DA68D3F800C01CF80220D9
:1008F0000A70D3E9032101390132C3E903215968A0
:100900008A420CD000220378013BDBB203701BB992
:10091000074B187880F31088104602B0704700210A
:100920000A46D960EFE74FF0FF32ECE77927002065
:100930007827002013B5002408480DF107018DF831
:100940000740FFF7B7FF30B99DF80700431F584233
:10095000584102B010BD2046FBE700BFE422002052
:10096000044A1388013B9BB21380134400229A70FF
:10097000704700BFCC270020502300BF013BFCD1B3
:10098000704700BF08B5C3689B6A63B1026813680B
:100990005B06FCD5FFF7F0FFC3680021986ABDE84D
:1009A0000840FFF713BD08BD30B503460D460022D1
:1009B0000A2087B0D4B283B97CB1013CE4B204F11F
:1009C00018036B44013C284613F9141CE4B2FFF7EA
:1009D000A5FCFF2CF3D107B030BD04F118010DEBDD
:1009E0000104B3FBF0F100FB1133303304F8143C85
:1009F00001320B46DEE70000014682B0EFF31080C3
:100A000072B68DF80700184A13780133DBB2012B58
:100A1000137002BF9DF80700144B1870BFF34F8F7F
:100A2000BFF36F8F124B5869D3F820C0844510D2A2
:100A300091F800C01869996900F801C0D3E905016F
:100A400001318142996104BF00219961196A013124
:100A500019621378013BDBB213701BB9034B187892
:100A600080F3108802B07047792700207827002093
:100A7000D422002013B5084C23681A6812F0280FFE
:100A800007D05B680DF107008DF80730FFF7B4FF62
:100A9000F2E702B010BD00BFD4220020806A08B582
:100AA00030B10121FFF792FCBDE80840FFF764BFB9
:100AB00008BD000038B50446084D2A6813681906B9
:100AC000FCD5E868FFF7EAFF2B681A681206FCD528
:100AD0005C600248BDE83840FFF754BFD4220020D4
:100AE00038B504464518AC4204D014F8010BFFF7A2
:100AF000E1FFF8E738BD37B50C46054602AB03E920
:100B0000030001462046FFF713FC2946204603B0A8
:100B1000BDE83040FFF7E4BF70B50C461646054609
:100B2000C068FFF7BBFF21462644B14207D011F849
:100B3000012B2B6818680006FCD55A60F5E728469B
:100B4000BDE87040FFF71EBF82B02DE9F04F91461F
:100B500000251A464FF0FF3785B0019110990F9389
:100B6000041DC3F1010B4D4524DA54E901A60BEB3A
:100B70000A03002BACBFF318331CA8460093009B5C
:100B80009E4213D03046CDE9021200F07FFDDDE930
:100B9000021248B992450ED0002F04DBAF4203D0B9
:100BA0004FF0FF3807E02F460136E8E7019B01359B
:100BB0001C44D8E7B846404605B0BDE8F04F02B047
:100BC0007047000030B51D4685B000BBE2B1D1E9E9
:100BD0000032114CCDE90232009224210622204637
:100BE000FFF7B2FF002814DB242303FB0044A268B4
:100BF000936843F00103936013689B07FCD5D06CA6
:100C0000294680B2FFF7D0FE002005B030BD01209C
:100C1000FBE70420F9E700BF541E002030B505466D
:100C200085B04AB3D1E90232144CCDE902320092C8
:100C30000C2101222046FFF787FF031EA5BF0C20D1
:100C400000FB03430023083325B1012D0CD0012004
:100C500005B030BD0A495A781B78486802FA03F398
:100C6000034300204B60F3E71878032304498340D3
:100C70004A6822EA0303F4E70420E9E7001D0020A4
:100C8000000001402DE9F04304460E461F46904601
:100C900087B01AB9042007B0BDE8F083204DD1E930
:100CA00000322846CDE90432009218212722FFF7AE
:100CB0004BFF0028EEDB18235843012C00F10803FA
:100CC00005EB030907D0022C1AD034BB4846FFF7C6
:100CD0008BFB0020DFE7B8F1010FDBD0D6E9020182
:100CE00004AB83E8030003AAFFF7C5FA03990028C1
:100CF000D0D0003918BF01214846FFF767FBE8E76D
:100D0000EB580544E8689B683946C340A87C03F06B
:100D100001035840FFF748FEDBE70120BBE700BFB7
:100D20002C1F0020F0B585B004460D4616466F46D0
:100D3000124B03F1100C3A4618685968083303C285
:100D400063451746F7D12544A54214D0237804AA59
:100D500002EB1313304613F9101CFFF7DFFA14F8F7
:100D6000013B304603F00F0310336B4413F9101CA2
:100D7000FFF7D4FAE8E705B0F0BD00BFD0160020B9
:100D80002DE9F04186B080460D461F4614460D9E63
:100D90000AB9042027E0D1E900323D48CDE9043208
:100DA00000920C210122FFF7CFFE0028F1DB05F1B4
:100DB0000801601EB8F1030F67D8DFE808F00217DA
:100DC000284A80B1D5E902320C21CDE904320092E3
:100DD00030480122FFF7B8FE0028DADB2E492F4801
:100DE000FFF7DCFC002006B0BDE8F0810028FAD057
:100DF00003C9AC682A4A64082346FFF70BFA0028A7
:100E0000C7D0224626492548FFF786FEEAE7002894
:100E1000E9D003C904AC84E8030003AAFFF72BFA66
:100E2000039D0028B5D0B5F5806FB2D800241C4EC4
:100E3000DFF87080A54206D040463119FFF73AFD31
:100E400008B90134F6E73A4621461548FFF76AFF2C
:100E5000C8E70028C6D003C9012304AAFFF7DAF9BE
:100E6000002896D04FF480629DF810100C4800F0D6
:100E7000E7FB0B4D094CB0470028B3D14FF480621B
:100E800029462046FFF748FEF5E70120ABE700BF03
:100E9000181D00200C1D0020F8220020D422002064
:100EA00040230020E4220020014B024A1A607047D0
:100EB000402700202C1D00202DE9804891B072B6FB
:100EC0004FF0E02341F63F72F0215A61A24A042517
:100ED00082F8231000229A610722A04C1A61A368AD
:100EE0009847013D04F12404F9D1294610229C4879
:100EF00000F0A6FB102229469A4800F0A1FB9A4C6C
:100F00009A4B9B4A84F831505A6002F188325A60F9
:100F1000984B5D70FFF740FA1D7062B6102296493B
:100F20009648FFF7F9FD964D00234FF004088B4ECD
:100F30008DF81530336903B19847B8F1010806F10F
:100F40002406F7D1DFF83C928F480DF11501FFF729
:100F5000B1FC0646002840F067819DF815A0BAF163
:100F6000080F09D12B88002BEED003218748FFF70B
:100F7000B7FDFFF7F5FCE7E7BAF10A0F40F027826B
:100F80005046FFF797FD2F8837B95046FFF792FD7F
:100F90003E20FFF78FFDD7E7DFF8E89199F80030A2
:100FA0007BB14FF4017CDFF8E8A17A48DAF8003031
:100FB00040F2032229460CFB030000F059FBCAF85B
:100FC000006000264FF6FF7A042F89F8006006962D
:100FD000DFF8C491ADF816A040F28180EB1913F947
:100FE000033C7E2B7BD1043F4F443846FFF7C4F8C7
:100FF000CDE90B070BAF022397E8030009AAFFF71F
:1010000009F90646C0B1FFF7ABFC4846FFF7A8FC5C
:10101000FFF7A6FCFFF7A4FCFFF7A2FC3A462988DD
:10102000ADF82CA0FFF784F9BDF82430BDF82C20D2
:101030005BBA9BB29A4252D000264FF005090723B3
:101040000B93564B0BAF0C9397E803000DF1160270
:10105000FFF751FD52480DF1160200EBC90999E85E
:101060000300FFF748FD04230B934E4B0DF11602CE
:101070000C9397E80300FFF73EFD00210846069A0F
:10108000DFF824C1CBB2002A40F09581002B00F09C
:10109000928100B1069203F1FF395FFA89F907EBFB
:1010A000090001210DF11602FFF742F909F1400391
:1010B0006B4409F1FF3913F8140C5FFA89F9FFF753
:1010C000F9FCB9F1FF0FEAD102230993374B022053
:1010D00019460DF116020A93FFF70DFD70E000218D
:1010E000DFF8B4C00F460A460B46E2462888DFF810
:1010F000C0E0984260D9934218D10A2F40F0CA80CC
:10110000DFF8AC90D9F800B0CA46BBF1040F40F04C
:1011100016815A462749D9F8040000F099FA0028A8
:1011200040F00D810D4FDFF884A0D9E040F2B2808D
:10113000082F40F2AF801E499B1A801A834294BF49
:1011400041F8373041F83700134B01EBC7011A441F
:101150004A60013732E000BF00ED00E0E01B0020F4
:10116000204C0020304C002040270020002002406E
:1011700023016745004C0020E1160020D422002006
:10118000CC27002020340020E4220020F21600208A
:10119000183200201C320020CE270020FB16002031
:1011A000A01B0020031700200817002000170020B4
:1011B0007C270020F61600209342BCD8002F9FD138
:1011C000BB4F4FF00009BA463AF8023B0DF1160248
:1011D00051461846CDE9073AFFF78DFCA5F8009077
:1011E00085F80290A7F8009087F80290B6B1BDF894
:1011F000163002211A0A8DF82C200BA83A468DF8D9
:101200002D30FFF78FFD7E20FFF754FC50463988C4
:10121000FFF766FCA7F8009087F802900A20FFF716
:1012200049FC3E20FFF746FCA24B1A78802A40F08A
:101230005E815A78012AD1B240F08F819A781A469D
:101240009D4F84F8301003F1200C3E461068516821
:10125000083203C662453746F7D1DA78112AD3B28D
:1012600000F0EA8000F2DF80012B00F0E880102B14
:1012700000F0E880002B40F0ED8001220823C4E953
:101280000A32002B40F0E980002A40F0E6807E23FD
:10129000637125E101291CF9019B06D0B9F1200FEA
:1012A0001CBF1A460121013323E7B9F1200FFAD1FF
:1012B000991AA0EB0209494594BF4EF837104EF831
:1012C00037900EEBC7010AEB0209C1F80490013711
:1012D0000021E8E7BBF1010B07F124073FF470AFF1
:1012E000D7E90010BB690293FFF7FAFB02215046D1
:1012F000FFF7F6FBD7E90710FFF7F2FB0A20FFF72D
:10130000D9FB0023D7F81490029A09F110099A42E8
:101310000393DFD02020FFF7CDFB59E90410FFF73E
:10132000DFFB02215046FFF7DBFB59E90210FFF714
:10133000D7FB0A20FFF7BEFB039B0133E4E7012F35
:1013400030D09AE803000BAB83E803000422034685
:1013500000915A482421FFF7F7FB002825DBD9E943
:1013600002322421DFF854C101FB00C0D0F80C90F8
:10137000B9F1000F19D0CDE90B320092102182692A
:101380004069FFF7E1FB002812DB4D4B4D4901930B
:1013900006AB0093BA1E464BC847814600287FF42F
:1013A0004EAE0DE74FF0040949E64FF0030946E65B
:1013B0004FF0010943E602F00F001CF80000403333
:1013C0006B4403F8140C1209012001315AE6BAF1FA
:1013D000210F2B8816D13C4FDEB236B1032138469F
:1013E000013EFFF77DFBF6B2F7E740F203223749F3
:1013F000284600F03DF929883548FFF771FB89F848
:101400000060A1E5B3F5007FBFF49EAD012289F82D
:101410000020EA1801339BB282F802A02B802B44F3
:1014200098705046B5E5502B0ED07F2B0FD0402B37
:1014300010D10122182322E7012214231FE71A46A4
:101440000C231CE701221AE701221C2317E70022C4
:10145000204B14E70022134611E70021A1604FF44E
:101460007F416186A186012184F824100AB1226897
:10147000D358194898476379022B2FD1236A0E4E0F
:10148000012B8CBF022301230A4A84F8243006F181
:101490002007334603CBBB4210601E46516002F169
:1014A0000802F6D1A368002B14BF7F230023EFE6C8
:1014B000D0290020004C002044270020E01B002001
:1014C000350900208C270020F21600201C32002055
:1014D000CE27002075030020402700203F2BE1D9B4
:1014E0000223384A53700023FEF756FF1370364E1E
:1014F0003368984794F830309BB163793F2B10D80C
:1015000033689847E36A5A1004EB6300DB074AD458
:10151000A36A984763793F2B3FD93368984733686C
:1015200098470026294A4FEA0811505C02EB08133D
:1015300080280BD19878002839D05E7053185B78DA
:1015400003F0FF0013B9FEF727FF5054B8F1010F65
:101550003FF4EAAC4FF00108E5E7597801F0FF02EB
:10156000B1B994F8301099B161793F2910D91E466C
:10157000174FC4E90A2284F8302007F1200C3A46BC
:1015800003CA624530601746716006F10806F6D15D
:101590000022FEF701FF1A70A9E7A368002BBCD058
:1015A0007F236371B9E7A258A36AD358B1E758788B
:1015B0000028C3D0987894F830000028BED1587025
:1015C000BCE700BF004C0020501E0020204C002033
:1015D0004427002008B5124A124B13489A60134A58
:1015E0000021121A00F02CF80026114D114C641B3A
:1015F000A410B4420AD1FEF793FD00260E4D0F4C05
:10160000641BA410B44206D1FFF756FC55F8043B06
:1016100098470136EDE755F8043B98470136F1E766
:101620000000002000ED00E02423002028340020EA
:1016300018010020180100201801002020010020BE
:1016400003460244934200D1704703F8011BF9E7B7
:1016500010B501390244904201D1002005E0037821
:1016600011F8014FA34201D0181B10BD0130F2E761
:101670000A44914200F1FF3300D1704710B511F8D0
:10168000014B914203F8014FF9D110BD70B50446EA
:101690000E4E0A448A4201D1002013E014F8013BA7
:1016A000985D00F00300012811F8010B08BF2033FA
:1016B000355C05F00305012D08BF20301B1A02D14F
:1016C0000028E7D170BD1846FCE700BF4D1D002083
:1016D00030313233343536373839616263646566A8
:1016E00000434C4320636F6E6E65637465642E0A1D
:1016F0000D000820080068656C70004552524F527A
:101700003A20003A203078003031323334353637E1
:101710003839414243444546003C6368616E6E651A
:101720006C206E616D653E2E2052656164204144DF
:1017300043206368616E6E656C00434F4E460052F5
:10174000656D6170207065726970686572616C00AA
:101750005245534554005265736574207065726933
:1017600070686572616C206D617070696E67003CB5
:1017700075617274206E616D653E203C636F6E66AC
:101780006967206E616D653E2E20436F6E666967E6
:10179000757265207468652070657269706865721D
:1017A000616C207769746820616E20657869737454
:1017B000696E6720636F6E66696775726174696FC1
:1017C0006E0057003C75617274206E616D653E203D
:1017D0003C68657820737472696E673E2E2054727F
:1017E000616E736D697420646174612066726F6DDF
:1017F000207468652055415254003C756172742014
:101800006E616D653E203C232062797465733E2EC7
:10181000204E6F6E2D626C6F636B696E6720726510
:10182000636569766520757020746F20602320627F
:1018300079746573602062797465732066726F6D68
:10184000207468652052582062756666657200547F
:10185000455354003C75617274206E616D653E2085
:101860003C68657820627974653E2E20436F6E7403
:10187000696E756F75736C79207472616E736D69C2
:1018800074207468652068657820627974652075B5
:101890006E74696C2074686520636F6D6D616E6431
:1018A00020697320696E7465727275707465640066
:1018B0003C6770696F206E616D653E2E2028526511
:1018C000292D636F6E6669677572652070696E0099
:1018D0003C6770696F206E616D653E203C302F3132
:1018E0003E2E20536574206C6F676963616C2070B5
:1018F000696E207374617465003C6770696F206E57
:10190000616D653E2E2052656164206C6F6769636E
:10191000616C2070696E207374617465004C45447D
:101920005F524544004C45445F475245454E004C8C
:1019300045445F5357333131004C45445F5357336F
:101940003031004C45445F5357333132004C4544ED
:101950005F5357333032004C45445F535733313374
:10196000004C45445F5357333033004C45445F537C
:1019700059535F475245454E004C45445F535953B8
:101980005F52454400414444525F31310041444478
:10199000525F313200414444525F3134004144448B
:1019A000525F313800414444525F30310041444479
:1019B000525F303200414444525F3034004144446D
:1019C000525F30380043414E5F4552520043414E12
:1019D0005F52580043414E5F52585F44454255475D
:1019E0000053573331315F50420053573330315F2A
:1019F00050420053573331325F5042005357333017
:101A0000325F50420053573331335F5042005357D7
:101A10003330335F504200524C59415F4F4E3100DA
:101A2000524C59415F4F46463100524C59425F4F2C
:101A30004E3100524C59425F4F46463100524C598C
:101A4000415F4F4E3200524C59415F4F4646320083
:101A5000524C59425F4F4E3200524C59425F4F46F2
:101A6000463200524C59415F4F4E3300524C59415F
:101A70005F4F46463300524C59425F4F4E3300523F
:101A80004C59425F4F4646330043414E5F52454DED
:101A9000415000524C59415F46423100524C59422C
:101AA0005F46423100524C59415F46423200524C2F
:101AB00059425F46423200524C59415F4642330020
:101AC000524C59425F464233004750494F5265736A
:101AD0006F7572636500554152545265736F75722C
:101AE0006365004146494F5265736F7572636500C7
:101AF0004144435265736F7572636500494D504CA4
:101B0000454D454E544154494F4E202D204E4F5483
:101B100020494D504C454D454E544544004558458F
:101B2000435554494F4E202D20434F4D4D414E4477
:101B3000204641494C4544005245534F5552434578
:101B4000202D204E4F2053554348205245534F558A
:101B500052434500415247554D454E54202D204299
:101B6000414420415247554D454E5400434845435A
:101B70004B53554D202D20434F4D4D414E442F5238
:101B80004553504F4E534520434845434B53554DC5
:101B9000204641494C555245000102020001000017
:101BA00000000000F516002020000000FC1A0020B4
:101BB0001A0000001D1B00201B000000381B002025
:101BC00017000000541B00202C0000006C1B00209C
:101BD00001000000CB190020200000001917002090
:101BE0000C000000C91A00200D050020850C002003
:101BF00000000000901C0020030000000000000016
:101C0000F51600200C000000D61A002095080020D0
:101C1000810D002000000000C01C00200400000016
:101C200000000000F51600200C000000E31A002060
:101C3000F90400201D0C002000000000701C002092
:101C40000200000000000000F51600200B0000005C
:101C5000F01A002085040020C50B002000000000C1
:101C6000D01B00200100000000000000F51600203D
:101C7000040000003A170020100000003F17002069
:101C80000500000050170020180000005617002023
:101C9000040000003A1700201F000000B0180020C8
:101CA00001000000C217002028000000D01800200A
:101CB00001000000CB19002023000000F9180020CB
:101CC000040000003A170020520000006F170020A7
:101CD00001000000C217002035000000C4170020DA
:101CE00001000000CB19002054000000FA1700206A
:101CF000040000004F1800205B0000005418002072
:101D000009000000891A00200D03000005000000F2
:101D1000DB190020F822002005000000DB1900205C
:101D2000D42200200000000000000000B5030020C5
:101D30006B0300205907002079050020A50500202D
:101D40007905002079050020790500200020202059
:101D5000202020202020282828282820202020205B
:101D6000202020202020202020202020208810102B
:101D70001010101010101010101010101004040487
:101D80000404040404040410101010101010414145
:101D90004141414101010101010101010101010133
:101DA0000101010101010101101010101010424247
:101DB0004242424202020202020202020202020203
:101DC00002020202020202021010101020000000A3
:101DD0000000000000000000000000000000000003
:101DE00000000000000000000000000000000000F3
:101DF00000000000000000000000000000000000E3
:101E000000000000000000000000000000000000D2
:101E100000000000000000000000000000000000C2
:101E200000000000000000000000000000000000B2
:101E300000000000000000000000000000000000A2
:101E40000000000000000000000000000000000092
:101E5000A903002008000000931A0020002401407C
:101E6000040000000008014004000000030000001E
:101E70000000000009000000080000009C1A00207B
:101E8000002401400500000000080140050000009A
:101E9000030000000000000009000000080000002E
:101EA000A51A00200024014006000000000801409F
:101EB0000600000003000000000000000900000010
:101EC00008000000AE1A00200024014007000000B6
:101ED00000080140070000000300000000000000AF
:101EE0000900000008000000B71A0020002401408B
:101EF0000A00000000100140000000000300000084
:101F0000000000000900000008000000C01A0020C6
:101F1000002401400B0000000010014001000000FF
:101F2000030000000000000009000000070000009E
:101F30001D190020001801400000000001000101EF
:101F400000010001090000002519002000180140CF
:101F50000100000001000101000100010900000072
:101F60002F190020001801400800000001000100A6
:101F7000000100000900000039190020001801408C
:101F8000090000000100010000010000090000003C
:101F900043190020001801400A0000000100010060
:101FA00000010000090000004D1900200018014048
:101FB0000B0000000100010000010000090000000A
:101FC00057190020001801400C000000010001001A
:101FD0000001000009000000611900200018014004
:101FE0000D00000001000100000100000D000000D4
:101FF0006B190020001801400400000001000100DE
:10200000000100000B0000007919002000180140B9
:1020100005000000010000000001000007000000B2
:102020008519002000180140080000000000000091
:1020300000010000070000008D1900200018014079
:10204000090000000000000000010000070000007F
:1020500095190020001801400A000000000000004F
:1020600000010000070000009D1900200018014039
:102070000B0000000000000000010000070000004D
:10208000A5190020001801400C000000000000000D
:102090000001000007000000AD19002000180140F9
:1020A0000D0000000000000000010000070000001B
:1020B000B5190020001801400E00000000000000CB
:1020C0000001000007000000BD19002000180140B9
:1020D0000F000000000000000001000007000000E9
:1020E000C519002000180140020000000100010095
:1020F0000001000006000000CD190020000801408A
:102100000B00000000000100010100000C000000B5
:10211000D4190020000801400B000000010001005C
:102120000001000008000000E1190020001001403B
:10213000080000000000010000010100080000008C
:10214000EA19002000100140090000000000010011
:102150000001010008000000F319002000100140F8
:102160000A0000000000010000010100080000005A
:10217000FC190020001001400B00000000000100CD
:102180000001010008000000051A002000100140B5
:102190000C00000000000100000101000800000028
:1021A0000E1A0020001001400D0000000000010088
:1021B0000001010008000000171A0020001401406F
:1021C0000000000001000100000100000900000003
:1021D000201A00200014014001000000010001004D
:1021E00000010000080000002A1A0020001401402D
:1021F00002000000010001000001000009000000D1
:10220000331A002000140140030000000100010007
:1022100000010000080000003D1A002000140140E9
:10222000040000000100010000010000090000009E
:10223000461A0020001401400500000001000100C2
:102240000001000008000000501A002000140140A6
:10225000060000000100010000010000090000006C
:10226000591A00200014014007000000010001007D
:102270000001000008000000631A00200014014063
:10228000080000000100010000010000090000003A
:102290006C1A002000140140090000000100010038
:1022A0000001000008000000761A00200014014020
:1022B0000A00000001000100000100000900000008
:1022C0007F1A0020001401400B00000001000100F3
:1022D00000010000004800401C1201270404030014
:1022E00000000000D8310020400000000000000085
:1022F000000000000000000000C20100000000001B
:10230000000C01400A000000020000000000000074
:10231000000C01400B000000000000000000000065
:0423200000000000B9
:04000005200000EDEA
:00000001FF
