:020000042000DA
:10000000404F0020ED000020D9050020D905002038
:10001000D9050020D9050020D905002000000000E6
:10002000000000000000000000000000D9050020D2
:10003000D905002000000000D90500202D0A00206D
:10004000D9050020D9050020D9050020D9050020B8
:10005000D9050020D9050020D9050020D9050020A8
:10006000D9050020D9050020D9050020D905002098
:10007000D9050020D9050020D9050020D905002088
:10008000D9050020D9050020D9050020D905002078
:10009000D9050020D9050020D9050020D905002068
:1000A000D9050020D9050020D9050020D905002058
:1000B000D9050020D9050020D9050020D905002048
:1000C000D9050020D9050020D9050020D905002038
:1000D000D9050020D9050020D9050020550C0020A5
:1000E000D9050020D9050020D9050020DFF818D057
:1000F000064B4FF0A531064A196003F10403934201
:10010000FAD10020034B1847404F0020404C0020FC
:1001100000500020D51B00205D010020411C002064
:10012000F8B500BFF8BC08BC9E467047F8B500BFE4
:10013000F8BC08BC9E46704710B5054C237833B90F
:10014000044B13B10448AFF300800123237010BDAA
:100150005434002000000000F82A002008B5034BAA
:100160001BB103490348AFF3008008BD0000000045
:1001700058340020F82A0020034613F8012B002AE7
:10018000FBD1181A013870473038362840D8DFE8DC
:1001900000F01C20232527292B2D2F313F3F3F3FE7
:1001A0003F3F3F333537393B3D3F3F3F3F3F3F3F89
:1001B0003F3F3F3F3F3F3F3F3F3F3F3F3F3F3F3F4F
:1001C0003F3F3F333537393B3D00002301200B7063
:1001D00070470120087070470223F7E70323F5E713
:1001E0000423F3E70523F1E70623EFE70723EDE711
:1001F0000823EBE70923E9E70A23E7E70B23E5E711
:100200000C23E3E70D23E1E70E23DFE70F23DDE710
:1002100000207047F0B585B06C46B0EB430F84E822
:1002200003004FEA430721D3019D00262C46631BA0
:100230009F421ED994F900000DF10F018DF80F6057
:100240008DF80E60FFF7A0FF80B194F901000DF169
:100250000E01FFF799FF023440B19DF80F109DF891
:100260000E3043EA011302F8013BE0E7002005B03D
:10027000F0BD0120FBE72DE9FF4100256B46064656
:1002800083E80300156020B90024204604B0BDE8CF
:10029000F081019F97F900402D2C05D0302C1FD004
:1002A000002CF2D02C4602E001240137461E4FF00C
:1002B0000A083E44B7421ED017F9010BC3B28DF8AD
:1002C0000F30C3B1D5B10DF10F01FFF75DFF00286D
:1002D000DAD011689DF80F3043EA01131360E9E7A3
:1002E0000128DFD097F901007828DBD12C460237AE
:1002F0000125023EDBE76CB90124C6E72F2BC3D9E9
:10030000303BDBB2092B8DF80F30BDD8116808FBEC
:100310000133E3E713685B421360B6E70388C21852
:1003200001339BB29170038018440023837070479F
:10033000F0B541F221060144814215D0082410F89D
:10034000015B138885EA132717F0800F4FEA4303F8
:1003500004F1FF3418BF73406D0014F0FF049BB22A
:10036000EDB2EFD11380E7E7F0BD0022C0E9002233
:10037000704700004FF440338360044B0362044B2A
:10038000C361044B8361402343717047204C0020BC
:100390000048002000010002BFF35F8FBFF34F8FC2
:1003A000BFF36F8F70470000014B1868704700BFA4
:1003B00008430020034B044A5A6002F188325A6015
:1003C000704700BF0020024023016745837A10B5C3
:1003D000D0E900428B424FF0010308BF1032934036
:1003E000C173236110BD0000017AF0B4437B047B2C
:1003F00031B14A1E012A27D900221346144607E0CC
:10040000837B022B30D81D4AD45C1D4AD25C0B463C
:100410000F27456843EA84030468072D05F00706A3
:1004200088BF04342568B600B34007FA06F625EA0B
:1004300006052B43236019B943689A400368DA60C4
:10044000C17AF0BCFFF7C2BF621E54425441022978
:1004500008BF44F00204012B04D009D9023B012B50
:1004600009D900230022D3E70A460B460C46CFE702
:1004700000220223CCE700220323C9E75D270020E6
:100480006027002070470000034A936943F001038E
:1004900093619361704700BF001002401F4A10B57E
:1004A000D3691F4C43F00073D36104F10C00FFF7D4
:1004B0009BFF04F11C00FFF797FF4FF40042A36875
:1004C0001A601A6842F071021A605A68D107FCD5A6
:1004D0000120144ADA61DA6942F08042DA61C3F835
:1004E0000002D3F804220022C3F80422D3F80C122D
:1004F00061F07841C3F80C12C3F81C22C3F81C0247
:10050000C3F84022C3F84422C3F800221A6822F03C
:1005100001021A605A685201FCD410BD001002405A
:100520001C2C002003005A0138B50024064A074D50
:10053000936943F07C03936128191834FFF754FF43
:10054000B4F5ED6FF8D138BD00100240A42C0020A6
:1005500070B506680546F06810F003003AD0D6F88A
:10056000B001059C10F0040FD6F8B00114BFC0080C
:10057000400D18602B68D3F8B001C0F34000207024
:10058000D3F8B401D3F8B431049C03F00F03000C8A
:100590002080137000231678D8B286422C6806D9C2
:1005A000D4F8B841C600F4400C540133F3E70423F7
:1005B000147828689C4208D9D0F8BC011C1FE400BC
:1005C000E040C8540133DBB2F2E7C36843F02003D4
:1005D000C360012070BD0000044B82B05B68C3F3B0
:1005E00008030193019B00BEFEE700BF00ED00E0A1
:1005F0000422036830B545680F2005F00701072D78
:100600004FEA810188BF9B1802FA01F41A6800FAC8
:1006100001F122EA010222431A6030BD7E234371B8
:1006200070470000074BDA68520709D4D86810F009
:10063000100018BF0220DA6842F01402DA60704736
:100640000120F8E7002002402DE9F84343790146F4
:10065000012B04D10022644B1A60BDE8F88390F8A6
:100660003530624DFF2B31D100200201AA5CC6B2A9
:10067000802A05EB00133FD1FFF78EFE5A78022A3D
:100680003AD19A7891F83140944235D1DA7891F89C
:10069000347002F07F02BA4203F103042CD11879BE
:1006A0000020187181F835605E7958719E799871D3
:1006B000DE79D871DB781B0655BF0132237802F052
:1006C0007F0281F8343058BF81F8342091F83540EA
:1006D00005EB04135868D3F808805F68DA6808EB04
:1006E000070616F0010F5B680DD001238B604123D4
:1006F0004B71B2E70120B8E70028FBD091F8353004
:10070000FF2BE3D1A9E7D21A012A01D80223EDE792
:10071000DFF8DC90374BD9F8102003EB04231B5A89
:1007200042F00102C9F8102028F80730D9F80C402F
:1007300014F00104FAD1FFF775FFD9F8103023F057
:100740000103C9F810308860002886D191F835304F
:10075000FF2B03D101238B608323C9E74FEA0319E1
:1007600005EB03135A6802325A6003F10802D3F80A
:1007700004E0D2F804C0E64501D90223EBE7D3F840
:1007800004C0526894450AD15870FF2391F8344050
:10079000FFF702FEE40905F8090081F83530124838
:1007A00018F807300268144F5340DA43082342F325
:1007B0000005013B3D4013F0FF0385EA5202F6D1EC
:1007C00073785340082243F30005013A3D4012F08C
:1007D000FF0285EA5303F6D1DB430360002C3FF4AC
:1007E0003CAF0B62402383E770450020204C002083
:1007F00000200240004800202083B8ED437910B566
:10080000012B04460D4908D10B6943F004030B6129
:100810000B6943F040030B6110BDCB68DB07FBD4D1
:10082000FFF700FFA0600B6923F004030B6110B118
:100830007F236371F0E74023FBE700BF0020024005
:1008400038B5012204460D460379407903F180430F
:1008500003F5043319688240A0680A43A8421A606D
:100860003ED050B11430FFF7C3FEA0682430FFF72C
:10087000BFFEA0680430FFF7BBFE05F11400A560C1
:10088000FFF7B2FDA0682430FFF7AEFDA06804308A
:10089000FFF7AAFD0022A16812480B688342D5B277
:1008A00005D20132082A01D04008F7E7072591F860
:1008B00035302268002B14BF02230023106820F07B
:1008C0004000106091F83400034343EAC50343F04D
:1008D0000403136004235360136843F04003136060
:1008E00038BD00BF80A8120110B5054C04F1080006
:1008F000FFF77AFDD4E90001BDE81040FFF7A0BF83
:100900000C430020036898688007FCD5D96099687B
:100910008807FCD599680906FCD4DB6801201370B0
:100920007047000038B50446C0680D4620B18842C3
:1009300002D00830FFF75CFEE06820B1A84202D088
:100940001830FFF755FEE36833B1986A20B1AB6AFF
:10095000984201D0FFF74CFE01222379607903F120
:10096000804303F50433196882400A43E5601A6046
:10097000237AA17A03F1804303F580331A68607A01
:1009800022EA0102E17A81400A431A602846A279EC
:100990001F4B50F8085BB3FBF2F3B3FBF5F5FFF721
:1009A00023FDE0681830FFF71FFDE368986A08B17F
:1009B000FFF71AFD23689D60DA6842F02002DA60D2
:1009C00094F90730E279002B1BDB002203F160432E
:1009D00003F5614383F8002394F90730E279002B93
:1009E00007DB02F01F0101228A400A495B0941F836
:1009F00023202268D36843F4005343F00C03D360F0
:100A000038BD054B02F00F02134400221A76E3E7CB
:100A100000A24A0400E100E0FCEC00E001490248C9
:100A2000FFF780BF2834002004340020024A1368F6
:100A300001331360704700BF08430020034682B0B3
:100A4000EFF3108072B68DF807001A480278013271
:100A5000D2B2012A027002BF9DF807C0164A82F87E
:100A600000C0BFF34F8FBFF36F8F1A69FAB1DA6816
:100A7000D3F800C01CF802200A70D3E90321013921
:100A80000132C3E9032159688A420CD0002203785D
:100A9000013BDBB203701BB9074B187880F3108859
:100AA000104602B0704700210A46D960EFE74FF0C8
:100AB000FF32ECE7AD380020AC38002013B500243D
:100AC00008480DF107018DF80740FFF7B7FF30B96F
:100AD0009DF80700431F5842584102B010BD204600
:100AE000FBE700BF1434002000EB800300EB430061
:100AF000013800BF0138FCD2704700BF08B5C36899
:100B000002469B6A6BB101680B685B06FCD50A2044
:100B1000FFF7EAFFD3680021986ABDE80840FFF7B5
:100B200055BC08BD0A4B1A68D20710D401221A60BE
:100B3000084B094A09491A60094A4FF001105A60E6
:100B40000C22C3E9021240F20122C3E904027047F9
:100B5000703800200C430020902C0020000C014035
:100B6000502C0020044A1388013B9BB2138013448D
:100B700000229A70704700BF0039002070B5051E32
:100B80000E4686B004DA2D213046FFF7C7FB6D42D2
:100B900000230A21DCB285B97CB1013CE4B204F146
:100BA00018036B44013C304613F9141CE4B2FFF700
:100BB000B5FBFF2CF3D106B070BD04F118020DEBAC
:100BC0000204B5FBF1F201FB1255303504F8145C58
:100BD00001331546DEE70000014682B0EFF31080D6
:100BE00072B68DF80700184A13780133DBB2012B77
:100BF000137002BF9DF80700144B1870BFF34F8F9E
:100C0000BFF36F8F124B5869D3F820C0844510D2C0
:100C100091F800C01869996900F801C0D3E905018D
:100C200001318142996104BF00219961196A013142
:100C300019621378013BDBB213701BB9034B1878B0
:100C400080F3108802B07047AD380020AC38002027
:100C50000434002013B5084C23681A6812F0280FDA
:100C600007D05B680DF107008DF80730FFF7B4FF80
:100C7000F2E702B010BD00BF04340020806A08B55E
:100C800038B10121FFF7A2FBBDE808400A20FFF7B9
:100C90002BBF08BD38B50446084D2A6813681906ED
:100CA000FCD5E868FFF7EAFF2B681A681206FCD546
:100CB0005C600248BDE83840FFF720BF04340020E4
:100CC00038B504464518AC4204D014F8010BFFF7C0
:100CD000E1FFF8E738BD37B50C46054602AB03E93E
:100CE000030001462046FFF723FB2946204603B0B8
:100CF000BDE83040FFF7E4BF70B50C461646054628
:100D0000C068FFF7BBFF21462644B14207D011F867
:100D1000012B2B6818680006FCD55A60F5E72846B9
:100D2000BDE87040FFF7EABE82B02DE9F04F914672
:100D300000251A464FF0FF3785B0019110990F93A7
:100D4000041DC3F1010B4D4524DA54E901A60BEB58
:100D50000A03002BACBFF318331CA8460093009B7A
:100D60009E4213D03046CDE9021200F09DFFDDE92E
:100D7000021248B992450ED0002F04DBAF4203D0D7
:100D80004FF0FF3807E02F460136E8E7019B0135B9
:100D90001C44D8E7B846404605B0BDE8F04F02B065
:100DA00070470000F0B51E46054685B020B1012809
:100DB00024D0012005B0F0BDF2B1D1E900322D4CB4
:100DC000CDE902320092242108222046FFF7ACFF31
:100DD000002801DA0420EDE7242303FB0044A26885
:100DE000936843F00103936013689B07FCD5D06CB4
:100DF000314680B2FFF7C2FE0020DBE7002A37D081
:100E0000D1E900321B4ECDE90232009224210822A2
:100E10003046FFF789FF041EDCDB242044430834FE
:100E2000371907F10800FFF7DFFA134A3B7E916993
:100E300005FA03F30B439361002233595A609D6016
:100E40003A79092A0AD80721186902EB4204A1401D
:100E5000014319610020D8625A63ABE7A2F10A018D
:100E600001EB41000721DC6881402143D960F1E7B3
:100E700010469FE7FC2A00200010024030B50546CE
:100E800085B04AB3D1E90232144CCDE90232009266
:100E90000C2101222046FFF747FF031EA5BF0C20AF
:100EA00000FB03430023083325B1012D0CD00120A2
:100EB00005B030BD0A495A781B78486802FA03F336
:100EC000034300204B60F3E7187803230449834071
:100ED0004A6822EA0303F4E70420E9E7A82900208E
:100EE000000001402DE9F04304460E461F4690469F
:100EF00087B01AB9042007B0BDE8F083204DD1E9CE
:100F000000322846CDE90432009218214F22FFF723
:100F10000BFF0028EEDB18235843012C00F10803D7
:100F200005EB030907D0022C1AD034BB4846FFF763
:100F30005BFA0020DFE7B8F1010FDBD0D6E9020150
:100F400004AB83E8030003AAFFF795F9039900288F
:100F5000D0D0003918BF01214846FFF737FAE8E73B
:100F6000EB580544E8689B683946C340A87C03F009
:100F700001035840FFF702FEDBE70120BBE700BF9B
:100F80009C2C0020F0B585B004460D4616466F46F1
:100F9000124B03F1100C3A4618685968083303C223
:100FA00063451746F7D12544A54214D0237804AAF7
:100FB00002EB1313304613F9101CFFF7AFF914F8C6
:100FC000013B304603F00F0310336B4413F9101C40
:100FD000FFF7A4F9E8E705B0F0BD00BFEC1C002066
:100FE0002DE9F04781460C461F46164686B01AB9D1
:100FF000042006B0BDE8F087494DD1E9003228460B
:10100000CDE9043200922C210122FFF78DFE002849
:10101000EEDB2C2303FB00550835B9F1050F7CD816
:10102000DFE809F03F3F03466C0306F1FF38B8F1F3
:10103000010FDDD92769C7F34707082FD8D8D4E9AE
:1010400002010DF1100888E8030003AAFFF713F965
:10105000039E0028CCD0D4E904013B464246FFF76A
:10106000D9F80028C4D04FEA465A0AF0FF542A683B
:1010700093685901FCD5C2F88041C2F88471049B81
:10108000C2F88831059BC2F88C31D2F8803143F028
:101090000103C2F8803193689B07FCD5B9F1020FB8
:1010A00001D10020A5E70F9B98470028DFD0F8E783
:1010B00002AB01930DF10A030093284603AB0DF137
:1010C000090204A9FFF744FA0028EAD03946039838
:1010D000FFF754FD38462021FFF720F93946BDF8C7
:1010E0000A00FFF74BFD38462021FFF717F93A4673
:1010F0009DF8091004A8FFF745FFD2E70DF1090399
:1011000001930DF10A030093284603AB02AA04A938
:10111000FFF71EFA0028F1D16BE7012069E700BF55
:101120001C2C00202DE9F04F8BB004460D461646CE
:1011300005931AB904200BB0BDE8F08FD1E9003255
:101140007148CDE9083200920C210122FFF7ECFD35
:101150000028EFDB1CB1012C17D00120EBE7D5E90B
:1011600002326A4D4021CDE9083200922846012220
:10117000FFF7DAFD011EDDDB654B05EB8111186819
:101180000831FFF75DFB0020D5E7013E032ED1D9E2
:10119000D5E9020108AC84E8030007AAFFF76BF861
:1011A000DDF81CB00028C5D0BBF5806F5F46C1D804
:1011B000D5E9040184E80300FFF75DF8DDF81C9031
:1011C0000028B7D0D5E9060184E80300FFF753F8FB
:1011D000DDF81CA00028ADD0294651F8205F4D4A0B
:1011E0006E08334603C9FFF715F880460028A1D0E2
:1011F00040F601039D429DD8BBF1000F4DD04648FB
:101200000025804606EB0B0301210493FFF7DEF86F
:10121000404B0393AE428ABF3E4B4FF0000B15F894
:1012200003B0BAF1000F03D001214046FFF7CEF81A
:10123000374B594622461868FFF764FB834638B39C
:10124000BAF1000F06D040460021FFF7BFF8012099
:10125000FFF74AFCAE429CBF039B9DF8202005F19E
:1012600001059CBF03F8012B0393049BAB42D1D132
:10127000B9F1000F06D000212748FFF7A7F8BBF10E
:10128000000F08D03946059A2248FFF77BFE7AE71F
:10129000B9F1000FEFD102204DE71F480121FFF700
:1012A00095F805461B4CA0F1080BBE421AD0BAF1C6
:1012B000000F03D001212846FFF788F82246DBF80B
:1012C000000011780134FFF71DFB78B1BAF1000F6F
:1012D00006D028460021FFF779F80120FFF704FC2B
:1012E0000137E2E7B9F1000FCCD003E0B9F1000F0C
:1012F000D1D0804600210848FFF768F8B8F1000F08
:10130000C9D03746BEE700BF9C290020482C0020EA
:101310000C43002070340020144300202DE9F041DC
:1013200086B080460D461F4614460D9E0AB904201D
:1013300027E0D1E900323D48CDE9043200920C218A
:101340000122FFF7F1FC0028F1DB05F10801601E26
:10135000B8F1030F67D8DFE808F00217284A80B118
:10136000D5E902320C21CDE9043200923048012245
:10137000FFF7DAFC0028DADB2E492F48FFF7D2FA14
:10138000002006B0BDE8F0810028FAD003C9AC689F
:101390002A4A64082346FEF73DFF0028C7D02246AC
:1013A00026492548FFF7A8FCEAE70028E9D003C949
:1013B00004AC84E8030003AAFEF75DFF039D002848
:1013C000B5D0B5F5806FB2D800241C4EDFF8708020
:1013D000A54206D040463119FFF730FB08B9013469
:1013E000F6E73A4621461548FFF7CCFDC8E7002846
:1013F000C6D003C9012304AAFEF70CFF002896D02B
:101400004FF480629DF810100C4800F027FC0B4D43
:10141000094CB0470028B3D14FF4806229462046DA
:10142000FFF76AFCF5E70120ABE700BFC029002009
:10143000B429002028340020043400207034002017
:10144000143400202DE9804893B072B6B54B1A6869
:1014500042F480321A601A689103FCD51221B24A14
:1014600011605A6842F480325A605A6842F400327D
:101470005A605A6842F4E0125A601A6842F0807268
:101480001A601A689201FCD55A685A605A6842F488
:1014900080625A605A685A605A6842F400425A6040
:1014A0005A6842F002025A605A6802F00C02082A96
:1014B000FAD14FF0E023F0219C4A06255A619C4A5C
:1014C0009C4C82F8231000229A6107221A61A368BB
:1014D0009847013D04F12404F9D129461022964889
:1014E00000F0BCFB10222946944800F0B7FB944C56
:1014F0008D4B944A84F83150DFF84CB25A6002F1B7
:1015000088325A608BF80150FEF746FF8BF8005086
:1015100062B610228D498E48FFF7EEFB8D4D0023F9
:101520004FF00608834E8DF81D30336903B198479C
:10153000B8F1010806F12406F7D1DFF81C928748BC
:101540000DF11D01FFF77AFA0646002840F0698187
:101550009DF81DA0BAF1080F09D12B88002BEED001
:1015600003217F48FFF7ACFBFFF7FCFAE7E7BAF18E
:101570000A0F40F029825046FFF78CFB2F8837B9BD
:101580005046FFF787FB3E20FFF784FBD7E7DFF8E5
:10159000C89199F800307BB14FF4017CDFF8C4A109
:1015A0007148DAF8003040F2032229460CFB0300B0
:1015B00000F06CFBCAF8006000264FF6FF7A042F9B
:1015C00089F800600896DFF8A491ADF81EA040F2FB
:1015D0008180EB1913F9033C7E2B7BD1043F4F44F0
:1015E0003846FEF7C9FDCDE90D070DAF022397E898
:1015F00003000BAAFEF70EFE0646C0B1FFF7B2FAD3
:101600004846FFF7AFFAFFF7ADFAFFF7ABFAFFF77F
:10161000A9FA3A462988ADF834A0FEF789FEBDF84C
:101620002C30BDF834205BBA9BB29A4252D00026CF
:101630004FF0050907230D934D4B0DAF0E9397E81F
:1016400003000DF11E02FFF746FB4A480DF11E0292
:1016500000EBC90999E80300FFF73DFB04230D9354
:10166000454B0DF11E020E9397E80300FFF733FB85
:1016700000210846089ADFF804C1CBB2002A40F0E6
:101680009781002B00F0948100B1089203F1FF399B
:101690005FFA89F907EB090001210DF11E02FEF73F
:1016A00047FE09F148036B4409F1FF3913F8140CA4
:1016B0005FFA89F9FFF7EEFAB9F1FF0FEAD10223D9
:1016C0000B932F4B022019460DF11E020C93FFF7CE
:1016D00002FB72E00021DFF894C00F460A460B4679
:1016E000E2462888DFF89CE0984262D993424DD1C7
:1016F0000A2F40F0CC80DFF88C90D9F80020CA4641
:10170000042A40F019812049D9F8040000F0AEFA0B
:10171000002840F011810623064FDFF864A00393F0
:10172000DBE000BF00100240002002403F19010032
:1017300000ED00E014280020204C0020304C002058
:101740007438002023016745004C0020FD1C002058
:1017500004340020003900206C450020143400209F
:101760000E1D002064430020684300200239002041
:10177000171D0020642700201F1D0020241D0020AD
:101780001C1D0020B0380020121D00207FD9082F1A
:101790007DD9B0499B1A801A834294BF41F83730F3
:1017A00041F83700AC4B01EBC7011A444A600137DE
:1017B00001E09342EDD8002F9DD1A84F4FF00009D2
:1017C000BA463AF8023B0DF11E0251461846CDE9E1
:1017D000093AFFF780FAA5F8009085F80290A7F87B
:1017E000009087F80290B6B1BDF81E3002211A0AA7
:1017F0008DF834200DA83A468DF83530FFF7C2FB3E
:101800007E20FFF747FA50463988FFF759FAA7F8C4
:10181000009087F802900A20FFF73CFA3E20FFF77D
:1018200039FA8F4B1A78802A40F05F815A78012A62
:10183000D1B240F090819A781A468A4F84F83010DD
:1018400003F1200C3E4610685168083203C6624519
:101850003746F7D1DA78112AD3B200F0EA8000F2E5
:10186000DF80012B00F0E880102B00F0E880002BD7
:1018700040F0ED8001220823C4E90A32002B40F039
:10188000FF80002A40F0FC807E23637125E101295E
:101890001CF9019B06D0B9F1200F1CBF1A4601218B
:1018A000013321E7B9F1200FFAD1991AA0EB02090F
:1018B000494594BF4EF837104EF837900EEBC701EC
:1018C0000AEB0209C1F8049001370021E8E7039B05
:1018D0002437013B03933FF470AFD7E90010BB6995
:1018E0000493FFF7EDF902215046FFF7E9F9D7E934
:1018F0000710FFF7E5F90A20FFF7CCF90022D7F827
:101900001490049B09F1100993420592DFD0202026
:10191000FFF7C0F959E90410FFF7D2F90221504648
:10192000FFF7CEF959E90210FFF7CAF90A20FFF7CD
:10193000B1F9059A0132E4E7012F30D09AE80300AB
:101940000DAB83E80300062203460091464824219C
:10195000FFF7EAF9002825DBD9E902322421DFF874
:1019600008C101FB00C0D0F80C90B9F1000F19D0EC
:10197000CDE90D320092102182694069FFF7D4F958
:10198000002812DB394B3A49019308AB0093BA1E89
:10199000324BC847814600287FF44CAE0DE74FF02C
:1019A000040947E64FF0030944E64FF0010941E618
:1019B00002F00F001CF8000048336B4403F8140CCD
:1019C00012090120013158E6BAF1210F2B8816D1F6
:1019D000284FDEB236B103213846013EFFF770F9D9
:1019E000F6B2F7E740F203222349284600F04EF909
:1019F00029881948FFF764F989F800609FE5B3F575
:101A0000007FBFF49CAD012289F80020EA18013361
:101A10009BB282F802A02B802B4498705046B3E50D
:101A2000502B0ED07F2B0FD0402B10D1012218232A
:101A300022E7012214231FE71A460C231CE7012288
:101A40001AE701221C2317E700220C4B14E700229F
:101A5000134611E7B038002002390020043B002073
:101A6000004C00207838002014280020BD0A0020F7
:101A7000C03800200E1D00206843002075030020A0
:101A80000021A1604FF47F416186A186012184F885
:101A900024100AB12268D358494898476379022B29
:101AA00019D1236A474E012B8CBF02230123464ADA
:101AB00084F8243006F12007334603CBBB42106084
:101AC0001E46516002F10802F6D1A368002B14BF34
:101AD0007F230023D9E63F2BF7D902238BF801306F
:101AE0000023FEF759FC8BF80030384E33689847D6
:101AF00094F830309BB163793F2B10D83368984706
:101B0000E36A5A1004EB6300DB074AD4A36A9847E0
:101B100063793F2B3FD9336898473368984700264D
:101B20002B4A4FEA0811505C02EB081380280BD1B6
:101B30009878002839D05E7053185B7803F0FF0066
:101B400013B9FEF729FC5054B8F1010F3FF4E7AC8C
:101B50004FF00108E5E7597801F0FF02B1B994F8B8
:101B6000301099B161793F2910D91E46154FC4E94B
:101B70000A2284F8302007F1200C3A4603CA624555
:101B800030601746716006F10806F6D10022FEF7B4
:101B900003FC1A70A9E7A368002BBCD07F236371F4
:101BA000B9E7A258A36AD358B1E758780028C3D040
:101BB000987894F830000028BED15870BCE700BF78
:101BC0007438002078380020004C0020F82A0020CB
:101BD000204C002008B5124A124B13489A60134A51
:101BE0000021121A00F03AF80026114D114C641B26
:101BF000A410B4420AD1FEF793FA00260E4D0F4C02
:101C0000641BA410B44206D1FFF71CFC55F8043B3A
:101C100098470136EDE755F8043B98470136F1E760
:101C20000000002000ED00E0543400207445002046
:101C300018010020180100201801002020010020B8
:101C400008B5FEF76FFF034B034A1A60BDE8084072
:101C5000FEF768BF74380020D429002003460244F0
:101C6000934200D1704703F8011BF9E710B5013921
:101C70000244904201D1002005E0037811F8014FA1
:101C8000A34201D0181B10BD0130F2E70A44914273
:101C900000F1FF3300D1704710B511F8014B9142AC
:101CA00003F8014FF9D110BD70B504460E4E0A4439
:101CB0008A4201D1002013E014F8013B985D00F046
:101CC0000300012811F8010B08BF2033355C05F033
:101CD0000305012D08BF20301B1A02D10028E7D1CF
:101CE00070BD1846FCE700BFF529002030313233C3
:101CF00034353637383961626364656600434C4376
:101D000020636F6E6E65637465642E0A0D00082093
:101D1000080068656C70004552524F523A20003AF4
:101D2000203078003031323334353637383941425B
:101D300043444546004F4E003C63616E206E616D2A
:101D4000653E2E20456E61626C652043414E2070D9
:101D500065726970686572616C004F4646003C634D
:101D6000616E206E616D653E2E2044697361626C08
:101D7000652043414E207065726970686572616CC0
:101D80000057003C63616E206E616D653E203C69CA
:101D9000643E203C68657820737472696E673E2EDD
:101DA000205472616E736D69742064617461207770
:101DB0006974682074686520676976656E20494497
:101DC000003C63616E206E616D653E2E2052656140
:101DD000642061207061636B65742C2069662061EA
:101DE0007661696C61626C6500464C555348003CF5
:101DF00063616E206E616D653E2E20466C75736862
:101E00002074686520525820616E64205458206206
:101E100075666665720054455354003C63616E20DC
:101E20006E616D653E203C69643E203C68657820AB
:101E3000737472696E673E2E20436F6E74696E759F
:101E40006F75736C79207472616E736D6974207430
:101E50006865207061636B657420756E74696C20B1
:101E600074686520636F6D6D616E642069732069AD
:101E70006E74657272757074656400434F4E4600EF
:101E80003C646576696365206E616D653E203C63E8
:101E90006F6E666967206E616D653E2E20436F6EC2
:101EA0006669677572652074686520646576696324
:101EB00065207769746820616E206578697374693C
:101EC0006E6720636F6E66696775726174696F6EA5
:101ED000005752003C646576696365206E616D65EC
:101EE0003E203C72656164206C656E6774683E20BC
:101EF0003C66696E6973683E203C617373657274F9
:101F00002070657220627974653E203C6865782097
:101F1000737472696E673E2E205472616E736665CB
:101F20007220646174612077697468207468652028
:101F30006465766963652E0A202D20607265616490
:101F4000206C656E677468603A204E6F6E2D7A65FE
:101F5000726F20696D706C6965732074776F20688B
:101F6000616C66206475706C6578207472616E7344
:101F7000666572732C206120777269746520666FC4
:101F80006C6C6F7765642062792061207265616492
:101F90002E0A202D206066696E697368603A2031D0
:101FA00020746F2064652D617373657274204353D0
:101FB0002061742074686520656E64206F662074EB
:101FC0006865207472616E736665722E20302074AD
:101FD0006F206C656176652069742061737365722A
:101FE0007465642E0A202D206061737365727420FD
:101FF0007065722062797465603A203120746F20B8
:1020000062726965666C792064652D6173736572AF
:102010007420435320616674657220656163682093
:10202000627974652E203020746F206B6565702096
:10203000435320617373657274656420666F722008
:1020400074686520656E74697265207472616E7360
:102050006665722E003C6368616E6E656C206E6111
:102060006D653E2E205265616420414443206368C3
:10207000616E6E656C003C6368616E6E656C206EAF
:10208000616D653E2E202852652D29636F6E66694D
:102090006775726520414443206368616E6E656CAC
:1020A0000052656D6170207065726970686572615B
:1020B0006C00524553455400526573657420706539
:1020C000726970686572616C206D617070696E67AD
:1020D000003C75617274206E616D653E203C636FDB
:1020E0006E666967206E616D653E2E20436F6E6679
:1020F00069677572652074686520706572697068BB
:102100006572616C207769746820616E20657869FA
:102110007374696E6720636F6E6669677572617448
:10212000696F6E003C75617274206E616D653E2052
:102130003C68657820737472696E673E2E20547215
:10214000616E736D697420646174612066726F6D75
:10215000207468652055415254003C7561727420AA
:102160006E616D653E203C232062797465733E2E5E
:10217000204E6F6E2D626C6F636B696E67207265A7
:10218000636569766520757020746F206023206216
:1021900079746573602062797465732066726F6DFF
:1021A0002074686520525820627566666572003C2E
:1021B00075617274206E616D653E203C68657820A3
:1021C000627974653E2E20436F6E74696E756F750B
:1021D000736C79207472616E736D697420746865B4
:1021E00020686578206279746520756E74696C204A
:1021F00074686520636F6D6D616E6420697320691A
:102200006E746572727570746564003C6770696F96
:10221000206E616D653E2E20285265292D636F6EFC
:102220006669677572652070696E003C6770696FDA
:10223000206E616D653E203C302F313E2E2053656F
:1022400074206C6F676963616C2070696E207374B1
:10225000617465003C6770696F206E616D653E2E2C
:102260002052656164206C6F676963616C207069DE
:102270006E207374617465005350495F4545505238
:102280004F4D004C45445F524544004C45445F4728
:102290005245454E00414444525F3100414444524E
:1022A0005F3200414444525F3300414444525F3442
:1022B00000414444525F3500414444525F3600417E
:1022C0004444525F3700414444525F38004C454417
:1022D0005F524C5931004C45445F524C5932004CCE
:1022E00045445F524C5933004C45445F524C59347D
:1022F000004C45445F524C5935004C45445F524CAC
:102300005936004C45445F524C5937004C45445FA8
:10231000524C5938004C45445F5359535F4752451E
:10232000454E004C45445F5359535F524544004C61
:1023300045445F43414E5F4552520043414E5F5218
:10234000580043414E5F52585F4445425547005242
:102350004C41595F50423100524C59425F5042311A
:1023600000524C59415F50423200524C59425F502A
:10237000423200524C59415F50423300524C594254
:102380005F50423300524C59415F50423400524C2E
:1023900059425F50423400524D53365F524C5941BE
:1023A0005F4F4E3100524D53365F524C59415F4F93
:1023B00046463100524D53365F524C59425F4F4EA4
:1023C0003100524D53365F524C59425F4F464631B1
:1023D00000524D53365F524C59415F4F4E320052BE
:1023E0004D53365F524C59415F4F46463200524D75
:1023F00053365F524C59425F4F4E3200524D533666
:102400005F524C59425F4F46463200524D53365F41
:10241000524C59415F4F4E3300524D53365F524C30
:1024200059415F4F46463300524D53365F524C5927
:10243000425F4F4E3300524D53365F524C59425F0C
:102440004F4646330047534D385F5357415F4F4621
:1024500046310047534D385F4A415F53573100477B
:10246000534D385F5357425F4F4646310047534DF7
:10247000385F4A425F5357310047534D385F5357D7
:10248000415F4F4646320047534D385F4A415F53E4
:1024900057320047534D385F5357425F4F464632DD
:1024A0000047534D385F4A425F5357320047534D00
:1024B000385F5357415F4F4646330047534D385FAF
:1024C0004A415F5357330047534D385F5357425F7C
:1024D0004F4646330047534D385F4A425F535733A8
:1024E0000047534D385F5357415F4F4646340047CE
:1024F000534D385F4A415F5357340047534D385F5F
:102500005357425F4F4646340047534D385F4A4267
:102510005F53573400524D53365F5357415F4F4E10
:102520003100524D53365F5357415F4F464631009D
:10253000524D53365F5357425F4F4E3100524D5309
:10254000365F5357425F4F46463100524D53365F18
:102550005357415F4F4E3200524D53365F535741F0
:102560005F4F46463200524D53365F5357425F4FDE
:102570004E3200524D53365F5357425F4F464632FC
:1025800000524D53365F5357415F4F4E3300524D0B
:1025900053365F5357415F4F46463300524D5336D3
:1025A0005F5357425F4F4E3300524D53365F535780
:1025B000425F4F4646330047534D385F5357415FA4
:1025C00050494C4F54310047534D385F5357425F89
:1025D00050494C4F54310047534D385F5357415F7A
:1025E00050494C4F54320047534D385F5357425F68
:1025F00050494C4F54320047534D385F5357415F59
:1026000050494C4F54330047534D385F5357425F46
:1026100050494C4F54330047534D385F5357415F37
:1026200050494C4F54340047534D385F5357425F25
:1026300050494C4F54340043414E0043414E5F5289
:10264000454D41500041444330340041444330350E
:102650000041444330360041444330370041444355
:102660003130004144433131004144433132004173
:1026700044433133004750494F5265736F7572635D
:102680006500554152545265736F75726365004120
:1026900046494F5265736F757263650041444352FA
:1026A00065736F75726365005350495265736F753A
:1026B0007263650043414E5265736F7572636500C6
:1026C000494D504C454D454E544154494F4E202D97
:1026D000204E4F5420494D504C454D454E54454495
:1026E00000455845435554494F4E202D20434F4DEA
:1026F0004D414E44204641494C4544005245534FBC
:1027000055524345202D204E4F20535543482052CB
:1027100045534F5552434500415247554D454E5440
:10272000202D2042414420415247554D454E5400F2
:10273000434845434B53554D202D20434F4D4D416C
:102740004E442F524553504F4E5345204348454326
:102750004B53554D204641494C555245000102020C
:102760000001000000000000111D002020000000FA
:10277000C02600201A000000E12600201B000000F7
:10278000FC26002017000000182700202C00000065
:102790003027002001000000392300202000000025
:1027A00055200020040000007B1E00202A000000AD
:1027B0007620002002000000351D002021000000CE
:1027C000381D0020030000005A1D002022000000D8
:1027D0005E1D002001000000811D00203D00000062
:1027E000831D002001000000392300202700000085
:1027F000C11D002005000000E91D0020260000008A
:10280000EF1D002004000000161E00205F000000E5
:102810001B1E00200C00000075260020290500204A
:10282000E50E0020000000002C290020030000001D
:1028300000000000111D00200C0000008226002076
:102840001D0A00201D130020000000005C2900204C
:102850000400000000000000111D00200C0000001A
:102860008F260020890400207D0E0020000000003B
:102870000C2900200200000000000000111D0020B3
:102880000B0000009C26002085040020A50D0020E0
:10289000000000009427002002000000000000005B
:1028A000111D00200B000000A8260020E9080020D0
:1028B0002511002000000000EC280020020000008C
:1028C00000000000111D00200B000000B4260020B5
:1028D0009D040020E10F002000000000B42700202C
:1028E0000600000000000000111D00200400000090
:1028F0007B1E002050000000801E0020020000000F
:10290000D11E002080010000D41E00200400000021
:102910007B1E002010000000A12000200500000008
:10292000B220002018000000B820002004000000A1
:102930007B1E00201F0000000B2200200100000071
:10294000811D0020280000002B2200200100000033
:10295000392300202300000054220020040000003E
:102960007B1E002052000000D1200020010000004A
:10297000811D0020350000002421002001000000FE
:1029800039230020540000005A21002004000000D8
:10299000161E00205B000000AF2100200600000092
:1029A0007C2200200C430020090000003B26002070
:1029B0000D030000050000004923002028340020FA
:1029C000050000004923002004340020000000001E
:1029D00000000000B50300206B030020FD0700206D
:1029E0001D060020490600201D0600201D060020AF
:1029F0001D06002000202020202020202020282824
:102A000028282820202020202020202020202020AE
:102A100020202020208810101010101010101010EE
:102A2000101010101004040404040404040404101E
:102A300010101010101041414141414101010101AC
:102A40000101010101010101010101010101010176
:102A50001010101010104242424242420202020282
:102A60000202020202020202020202020202020246
:102A700010101010200000000000000000000000F6
:102A80000000000000000000000000000000000046
:102A90000000000000000000000000000000000036
:102AA0000000000000000000000000000000000026
:102AB0000000000000000000000000000000000016
:102AC0000000000000000000000000000000000006
:102AD00000000000000000000000000000000000F6
:102AE00000000000000000000000000000000000E6
:082AF0000000000000000000DE
:102AF800A90300200500000045260020002401400D
:102B08000400000000080140040000000300000069
:102B18000000000009000000050000004B2600200E
:102B280000240140050000000008014005000000E5
:102B3800030000000000000009000000050000007C
:102B48005126002000240140060000000008014032
:102B5800060000000300000000000000090000005B
:102B6800050000005726002000240140070000004F
:102B780000080140070000000300000000000000FA
:102B880009000000050000005D2600200024014027
:102B98000A000000001001400000000003000000CF
:102BA8000000000009000000050000006326002066
:102BB800002401400B00000000100140010000004B
:102BC80003000000000000000900000005000000EC
:102BD80069260020002401400C000000001001407C
:102BE80002000000030000000000000009000000CF
:102BF800050000006F260020002401400D000000A1
:102C08000010014003000000030000000000000065
:102C1800090000000300000037260020006400407F
:102C2800000801400B000000000000000003000045
:102C3800000801400C000000020000000003000032
:102C4800060000007C22002040420F00000C0140DA
:102C58000D0000000200000000020000000C01400E
:102C68000E0000000000000000020000000C0140FF
:102C78000F00000002000000000200000000000039
:102C88000A00000078220020003800401C0E0000D6
:102C98000000000007000000832200200018014007
:102CA8000000000001000100000100000900000010
:102CB8008B220020001801400100000001000100E3
:102CC80000010000060000009522002000180140C5
:102CD80008000000000000000001000006000000DD
:102CE8009C2200200018014009000000000000009C
:102CF8000001000006000000A32200200018014087
:102D08000A000000000000000001000006000000AA
:102D1800AA220020001801400B000000000000005B
:102D28000001000006000000B12200200018014048
:102D38000C00000000000000000100000600000078
:102D4800B8220020001801400D000000000000001B
:102D58000001000006000000BF220020001801400A
:102D68000E00000000000000000100000600000046
:102D7800C6220020001801400F00000000000000DB
:102D88000001000008000000CD22002000180140CA
:102D98000800000001000100000100000800000018
:102DA800D62200200018014009000000010001009F
:102DB8000001000008000000DF2200200018014088
:102DC8000A000000010001000001000008000000E6
:102DD800E8220020001801400B000000010001005B
:102DE8000001000008000000F12200200018014046
:102DF8000C000000010001000001000008000000B4
:102E0800FA220020001801400D0000000100010016
:102E18000001000008000000032300200018014002
:102E28000E00000001000100000100000800000081
:102E38000C230020001801400F00000001000100D1
:102E4800000100000D0000001523002000180140BB
:102E58000400000001000101000100010B00000056
:102E68002323002000180140050000000100000095
:102E7800000100000B0000002F2300200018014073
:102E8800020000000100010000010000060000002F
:102E98003B230020000801400B0000000000010057
:102EA800010100000C00000042230020000801403E
:102EB8000B000000010001000001000008000000F4
:102EC8004F2300200010014008000000000001000E
:102ED80000010100080000005823002000100140F4
:102EE80009000000000001000001010008000000C6
:102EF80061230020001001400A00000000000100CA
:102F080000010100080000006A23002000100140B1
:102F18000B00000000000100000101000800000093
:102F280073230020001001400C0000000000010085
:102F380000010100080000007C230020001001406F
:102F48000D00000000000100000101000800000061
:102F580085230020001001400E0000000000010041
:102F680000010100080000008E230020001001402D
:102F78000F00000000000100000101000D0000002A
:102F88009723002000140140000000000100010008
:102F9800000100000E000000A523002000140140DD
:102FA8000100000001000100000100000D00000008
:102FB800B4230020001401400200000001000100B9
:102FC800000100000E000000C22300200014014090
:102FD8000300000001000100000100000D000000D6
:102FE800D12300200014014004000000010001006A
:102FF800000100000E000000DF2300200014014043
:103008000500000001000100000100000D000000A3
:10301800EE2300200014014006000000010001001A
:10302800000100000E000000FC23002000140140F5
:103038000700000001000100000100000D00000071
:103048000B240020001401400800000001000100CA
:10305800000100000E0000001924002000140140A7
:103068000900000001000100000100000D0000003F
:1030780028240020001401400A000000010001007B
:10308800000100000E00000036240020001401405A
:103098000B00000001000100000100000D0000000D
:1030A8004524002000140140010000000000010038
:1030B800000100000B000000532400200014014010
:1030C8000000000000000100000100000D000000E9
:1030D8005F240020001401400300000000000100EC
:1030E800000100000B0000006D24002000140140C6
:1030F8000200000000000100000100000D000000B7
:10310800792400200014014005000000000001009F
:10311800000100000B00000087240020001401407B
:103128000400000000000100000100000D00000084
:103138009324002000140140070000000000010053
:10314800000100000B000000A12400200014014031
:103158000600000000000100000100000D00000052
:10316800AD24002000140140090000000000010007
:10317800000100000B000000BB24002000140140E7
:103188000800000000000100000100000D00000020
:10319800C7240020001401400B00000000000100BB
:1031A800000100000B000000D5240020001401409D
:1031B8000A00000000000100000100000D000000EE
:1031C800E1240020001401400D000000000001006F
:1031D800000100000B000000EF2400200014014053
:1031E8000C00000000000100000100000D000000BC
:1031F800FB240020001401400F0000000000010023
:10320800000100000B000000092500200014014007
:103218000E00000000000100000100000C0000008A
:1032280015250020000801400300000000000100EF
:10323800000100000D0000002225002000080140C8
:103248000200000000000100000100000C00000066
:1032580030250020000801400100000000000100A6
:10326800000100000D0000003D250020000801407D
:103278000000000000000100000100000C00000038
:103288004B250020000C014009000000000001004F
:10329800000100000D00000058250020000C01402E
:1032A8000800000000000100000100000C00000000
:1032B8006625002000100140070000000000010002
:1032C800000100000D0000007325002000100140DF
:1032D8000600000000000100000100000C000000D2
:1032E80081250020001401400F00000000000100AB
:1032F800000100000D0000008E2500200014014090
:103308000E00000000000100000100000C00000099
:103318009C250020001401400D0000000000010061
:10332800000100000D000000A92500200014014044
:103338000C00000000000100000100000F00000068
:10334800B72500200008014000000000010001002E
:10335800000100000F000000C72500200008014000
:103368000100000001000100000100000F00000042
:10337800D7250020000801400200000001000100DC
:10338800000100000F000000E725002000080140B0
:103398000300000001000100000100000F00000010
:1033A800F725002000080140080000000100010086
:1033B800000100000F00000007260020000801405F
:1033C8000900000001000100000100000F000000DA
:1033D8001726002000080140070000000100010036
:1033E800000100000F00000027260020000801400F
:1033F8000600000001000100000100000048004034
:103408001C120227040403000000000024430020CB
:103418004000000000000000000000000000000064
:1034280000C2010000000000000C01400A0000007A
:103438000200000000000000000C01400B0000002A
:0C34480000000000000000000000000078
:04000005200000EDEA
:00000001FF
